:020000040800F2
:10000000F8840024A5030008697F000885790008AA
:10001000657F00082B05000869B900080000000092
:10002000000000000000000000000000E5020008E1
:10003000910D0008000000004103000865850008DC
:10004000BF030008BF030008BF030008BF03000888
:10005000BF030008BF030008BF030008BF03000878
:10006000BF030008BF030008BF030008950600088F
:10007000A5060008B5060008C5060008BF0300086D
:10008000BF030008BF030008BF030008990D000864
:10009000A90D0008BF030008BF030008BF03000844
:1000A000BF0300082D870008BF030008BF03000836
:1000B0003D870008BF030008BF030008BF03000816
:1000C000BF030008BF030008BF030008BF03000808
:1000D000BF030008B1940008C5940008BF030008DE
:1000E000BF030008BF03000800000000BF030008B2
:1000F000BF030008BF030008BF030008BF030008D8
:10010000BF030008BF030008BF030008BF030008C7
:10011000BF030008BF030008BF030008BF030008B7
:10012000BF030008BF030008BF030008BF030008A7
:10013000BF030008BF030008BF030008BF03000897
:1001400000000000000000000000000000000000AF
:10015000BF030008BF030008BF030008BF03000877
:10016000BF030008BF030008A57F0008957F0008B3
:10017000BF030008B57F0008BF03000800000000AF
:10018000BF030008BF030008BF030008BF03000847
:10019000BF030008BF030008BF030008BF03000837
:1001A000BF030008BF030008BF03000800000000F1
:1001B000BF030008BF030008BF030008BF03000817
:1001C000BF030008BF03000800000000000000009B
:1001D0000000000000000000BF0300080000000055
:1001E000000000000000000000000000000000000F
:1001F0000000000000000000BF030008BF0300086B
:10020000BF030008BF03000800000000BF03000890
:10021000BF030008BF030008BF030008BF030008B6
:10022000BF03000800000000BF030008000000003A
:10023000BF030008BF03000800000000BF03000860
:10024000BF030008BF030008BF030008BF03000886
:10025000BF030008BF030008BF030008BF03000876
:10026000BF030008BF030008BF030008BF03000866
:10027000BF030008BF030008BF0300080000000020
:10028000BF030008BF030008BF030008BF03000846
:1002900000000000BF030008BF03000800000000CA
:1002A00000000000BF030008BF030008BF030008F0
:1002B000BF030008BF030008BF030008B90D000812
:1002C000BF030008BF030008BF030008DFF810D019
:1002D00000F0EEF8004800470DBA0008AFF30080C8
:1002E000F88400242C4B19680868B0E8F04F80F3BC
:1002F0000988BFF36F8F4FF0000080F311887047BB
:100300000000000008480068006880F308884FF08B
:10031000000080F3148862B661B6BFF34F8FBFF35D
:100320006F8F00DF00BF00BF08ED00E0DFF80C00BA
:10033000016841F470010160704700BF88ED00E082
:10034000EFF30980BFF36F8F134B1A681EF0100F85
:1003500008BF20ED108A20E9F04F106009B44FF07B
:10036000500080F31188BFF34F8FBFF36F8F0CF0F5
:100370004DFD4FF0000080F3118809BC1968086832
:10038000B0E8F04F1EF0100F08BFB0EC108A80F3F9
:100390000988BFF36F8F7047AC000024EFF305802E
:1003A000704700000648804706480047FEE7FEE722
:1003B000FEE7FEE7FEE7FEE7FEE7FEE7FEE7FEE715
:1003C00045860008CD0200082DE9F05F05460020B3
:1003D00092469B4688460646814640241BE02846B6
:1003E00041464746224600F053F853465A46C01A43
:1003F000914110D311461846224600F03AF82D1AC2
:1004000067EB01084F4622460120002100F031F839
:1004100017EB00094E41201EA4F10104DFDC484621
:1004200031462A464346BDE8F09F40EA01039B0758
:1004300003D009E008C9121F08C0042AFAD203E059
:1004400011F8013B00F8013B521EF9D27047D2B2BD
:1004500001E000F8012B491EFBD270470022F6E7AD
:1004600010B513460A4604461946FFF7F0FF20462A
:1004700010BD202A04DB203A00FA02F10020704768
:100480009140C2F1200320FA03F3194390407047D2
:10049000202A04DB203A21FA02F00021704721FAD9
:1004A00002F3D040C2F12002914008431946704740
:1004B000064C074D06E0E06840F0010394E80700B1
:1004C00098471034AC42F6D3FFF704FF10DD000864
:1004D00030DD000870B58C1810F8015B15F00703CB
:1004E00001D110F8013B2A1106D110F8012B03E0CD
:1004F00010F8016B01F8016B5B1EF9D12B0705D4D5
:100500000023521E0DD401F8013BFAE710F8013B1D
:10051000CB1A921C03E013F8015B01F8015B521E39
:10052000F9D5A142D8D3002070BD00BFFEE700007E
:1005300000B589B000200190029003900120059041
:10054000032006900120049001A91A4802F019FC2A
:1005500000200190012002900020039011200590BE
:10056000132006900120049001A9124802F009FC12
:10057000012003460222114600900E4802F055FC6D
:10058000002201210B4802F0A7FB0A4803F03AFAC7
:1005900000200949486088604FF40020C8600020AE
:1005A00008614FF48010486100208861C8610862CA
:1005B00009B000BD40020024180800240346042BA3
:1005C00015D007DC7BB1012B0ED0022B0DD0032BF5
:1005D00012D10BE0202B0BD0212B0AD0222B09D0DB
:1005E000232B09D107E008E007E006E005E004E07E
:1005F00003E002E001E000E000BF00BF0020704720
:100600000020704710B500220449054809F020F980
:100610000449034809F011F9002010BDF811002425
:1006200028090024F80D002470B504460D46214623
:10063000064809F002F9054809F0DAF8288881B27D
:10064000204600F00BF8002070BD000028090024AF
:1006500010B503460C460021084610BD2DE9F041B7
:1006600004460D4600260A48D0F8BC72D7F814029A
:1006700010B10120BDE8F0812A462146044809F066
:10068000E7F8034809F080F906463046F2E7000033
:100690002809002410B5024801F014F910BD00002B
:1006A0009006002410B5024801F00CF910BD0000BE
:1006B0000807002410B5024801F004F910BD00003D
:1006C000A005002410B5024801F0FCF810BD0000A0
:1006D000180600240146374A0868904249D0354A36
:1006E00018320868904244D0324A3032086890424A
:1006F0003FD0304A4832086890423AD02D4A6032A2
:100700000868904235D02B4A78320868904230D041
:10071000284A9032086890422BD0264AA8320868AE
:10072000904226D0244A0868904222D0224A1832A9
:10073000086890421DD0204A30320868904218D094
:100740001D4A48320868904213D01B4A603208683C
:1007500090420ED0184A78320868904209D0164A62
:1007600090320868904204D0134AA8320868904238
:1007700001D1012000E00020B0B10A78103A18231E
:10078000B2FBF3F000F007020C4B9A5CCA65032839
:1007900005D90A686FF30902121D8A6503E00A6829
:1007A0006FF309028A6503E0086820F0FF0088659E
:1007B000886D704710000240100402405CDC0008A5
:1007C00010B502682B4C0368A34222D0294C143484
:1007D0000368A3421DD0274C28340368A34218D0D5
:1007E000244C3C340368A34213D0224C5034036899
:1007F000A3420ED01F4C64340368A34209D01D4CA1
:1008000078340368A34204D01A4C8C340368A342A2
:1008100001D1012300E000238BB10378083B1424AD
:10082000B3FBF4F1144B03EB81030366124B8033EB
:10083000436601F01F040123A340836618E0037898
:10084000103B1824B3FBF4F10C4B9A4204D80B4B29
:10085000A83B9A4200D30831094B03EB810303669E
:10086000074B8033436601F01F040123A3408366D6
:1008700010BD00000854025800580258B804024045
:10088000000802400179A9B3082940D8204B02682A
:100890009A4222D01E4B143302689A421DD01C4B40
:1008A000283302689A4218D0194B3C3302689A42A6
:1008B00013D0174B503302689A420ED0144B643356
:1008C00002689A4209D0124B783302689A4204D0E7
:1008D0000F4B8C3302689A4201D1012200E00022C2
:1008E0004AB14A1E0B4B03EB8202C266094A4032F0
:1008F000026708E00BE04A1E074B03EB8202C26668
:10090000054A403202674A1E0123934043677047FD
:1009100008540258005902580009024001460020BC
:100920008A69D2B98A6A32B1012A0DD0022A03D06B
:10093000032A10D10EE000BFCA6A02F08072B2F141
:10094000807F00D1012007E0CA6AB2F1C07F00D1E8
:10095000012001E000E000BF36E08A69B2F5005FE7
:100960001BD18A6A32B1012A07D0022A03D0032A96
:1009700011D10AE000BF01200EE0CA6A02F08072C5
:10098000B2F1807F00D1012006E0CA6AB2F1C07FD7
:1009900000D1012000E000BF16E08A6A32B1012ACE
:1009A00005D0022A04D0032A0CD103E000BF00BF07
:1009B000012008E0CA6A02F08072B2F1807F00D1A3
:1009C000012000E000BF00BF70470000F0B5856D5A
:1009D000846D984F0668BE4270D0964F18370668EF
:1009E000BE426BD0934F30370668BE4266D0914FFF
:1009F00048370668BE4261D08E4F60370668BE42F7
:100A00005CD08C4F78370668BE4257D0894F9037FC
:100A10000668BE4252D0874FA8370668BE424DD006
:100A2000854F0668BE4249D0834F18370668BE42DC
:100A300044D0814F30370668BE423FD07E4F4837A2
:100A40000668BE423AD07C4F60370668BE4235D059
:100A5000794F78370668BE4230D0774F90370668B6
:100A6000BE422BD0744FA8370668BE4226D0734FC3
:100A70000668BE4222D0714F14370668BE421DD0B0
:100A80006E4F28370668BE4218D06C4F3C37066858
:100A9000BE4213D0694F50370668BE420ED0674F32
:100AA00064370668BE4209D0644F78370668BE4294
:100AB00004D0624F8C370668BE4201D1012600E0A7
:100AC00000263EB1D0E919767E60C66E16B1D0E937
:100AD0001C767E60574F0668BE4249D0554F183786
:100AE0000668BE4244D0534F30370668BE423FD0FE
:100AF000504F48370668BE423AD04E4F60370668BE
:100B0000BE4235D04B4F78370668BE4230D0494F91
:100B100090370668BE422BD0464FA8370668BE42C3
:100B200026D0454F0668BE4222D0434F183706688C
:100B3000BE421DD0404F30370668BE4218D03E4FEF
:100B400048370668BE4213D03B4F60370668BE4246
:100B50000ED0394F78370668BE4209D0364F9037ED
:100B60000668BE4204D0344FA8370668BE4201D1A1
:100B7000012600E00026DEB190F85C6006F01F0759
:100B80003F26BE40AE600668366826F480260768B9
:100B90003E60066873608668402E04D10668B260C5
:100BA0000668F16044E00668B1600668F2603FE004
:100BB000224F0668BE4222D0204F14370668BE423C
:100BC0001DD01E4F28370668BE4218D01B4F3C3739
:100BD0000668BE4213D0194F50370668BE420ED089
:100BE000164F64370668BE4209D0144F783706683E
:100BF000BE4204D0114F8C370668BE4201D1012697
:100C000000E00026A6B190F85C6006F01F07012600
:100C1000BE406660066873608668402E04D1066830
:100C2000B2600668F16003E00668B1600668F260D1
:100C3000F0BD0000100002401004024008540258A9
:100C400070B504460D462878697840EA0120C0F363
:100C50000A0020802088A0F5806000B2208068789B
:100C6000C010A97840EA4110C0F30A006080608893
:100C7000A0F5806000B26080A8788011E97840EA31
:100C80008100297940EA8120C0F30A00A080A08871
:100C9000A0F5806000B2A08028794010697940EA10
:100CA000C110C0F30A00E080E088A0F5806000B2C7
:100CB000E080287C697C40EA0120C0F30A002081A2
:100CC0002089A0F5806000B2208168790011800839
:100CD000A0726879C0F30110E072B4F90000002836
:100CE00002DDB4F9000002E0B4F900004042B0F5C2
:100CF000257F2ADCB4F90200002802DDB4F90200E5
:100D000002E0B4F902004042B0F5257F1DDCB4F9E1
:100D10000400002802DDB4F9040002E0B4F9040084
:100D20004042B0F5257F10DCB4F90600002802DD52
:100D3000B4F9060002E0B4F906004042B0F5257FA0
:100D400003DCA07A08B1E07A28B916212046FFF723
:100D500085FB012070BDA879E97940EA012000B245
:100D6000A081287A697A40EA012001B2E181A87A5B
:100D7000E97A40EA012001B22182297BA174697BD2
:100D8000E174A87BE97B40EA0120A0820020E1E732
:100D9000704772B600BFFEE710B5024802F05EF978
:100DA00010BD00004002002410B5024802F056F9C0
:100DB00010BD0000E002002410B5024802F04EF918
:100DC00010BD00008003002410B501464A6B08687E
:100DD000D0F884004FF6FC74A04340EA82000C680F
:100DE000C4F884000868D0F8840020F47F04088FD9
:100DF00044EA00400C68C4F88400886B0244086828
:100E0000D0F888004FF6FC74A04340EA82000C68DA
:100E1000C4F888000868D0F8880020F4FE04888FA1
:100E200044EA00400C68C4F88800C86B02EB40023A
:100E30000868D0F8A0004FF6FC74A04340EA820096
:100E40000C68C4F8A0000868D0F8A00020F4FE04E4
:100E50004020405A44EA00400C68C4F8A000D1E9A0
:100E6000104004FB00220868D0F8B0004FF6FC7474
:100E7000A04340EA82000C68C4F8B0000868D0F8CB
:100E8000B00020F4FE04B1F8480044EA00400C68C9
:100E9000C4F8B000D1E9124004FB00220868D0F881
:100EA000AC004FF6FC74A04340EA82000C68C4F822
:100EB000AC00D1E9144004FB00220868D0F8F0002F
:100EC0004FF6FC74A04340EA82000C68C4F8F000BE
:100ED0000868D0F8F00020F47C14B1F8580044EA17
:100EE00000400C68C4F8F000886D02EB400208680E
:100EF000D0F8C0004FF6FC74A04340EA82000C68B2
:100F0000C4F8C0000868D0F8C00020F47C14B1F820
:100F10005C0044EA00400C68C4F8C0000868D0F8DF
:100F2000C00020F07C5491F8600044EA00600C6836
:100F3000C4F8C0002A4C486B04EB8000C866CC6E35
:100F4000886B04EB80040C670C6FC86B04EBC00467
:100F50004C67D1E9100460434C6F04EB80048C674C
:100F6000D1E9120460438C6F04EB8004CC67D1E9B3
:100F700014046043CC6F04EB800480204450445838
:100F8000886D04EBC004842044508C6EC86D6043AF
:100F90008424645804EB8004882044508C6E086ECE
:100FA00060438824645804EB8004902044504058E7
:100FB0000C4CA04209D99831486840F020004860A4
:100FC000032001F89809012010BDCB6E02E000203B
:100FD00018601B1D902040589842F8D80020F3E775
:100FE00000AC0040FCD3004080ED000ADFED082A91
:100FF000C0ED012AC0ED020AC0ED041A80ED031A0B
:1010000080ED052ADFED022AC0ED062A70470000B8
:101010000000000070B50A480468001D0568001D46
:101020000668344454B108220649204606F0ACFC58
:10103000042204491031284606F0A6FC70BD0000C9
:1010400000E8F11F6A0000242DE9F041044602F097
:1010500001FE804614B90120BDE8F08194F8350006
:10106000022808D08020606500BF002084F834008A
:1010700000BF0120F0E7FE492068884249D0FC49C2
:1010800018312068884244D0F949303120688842BC
:101090003FD0F7494831206888423AD0F44960315E
:1010A0002068884235D0F24978312068884230D0B3
:1010B000EF499031206888422BD0ED49A831206853
:1010C000884226D0EB492068884222D0E94918316D
:1010D000206888421DD0E74930312068884218D006
:1010E000E44948312068884213D0E24960312068E1
:1010F00088420ED0DF4978312068884209D0DD4926
:1011000090312068884204D0DA49A83120688842AA
:1011100001D1012000E0002068B12068006820F0C3
:101120001E00216808602068406920F08000216866
:101130004861256806E02068006820F00E002168FC
:1011400008602568CA492068884270D0C8491831AB
:10115000206888426BD0C64930312068884266D00A
:10116000C34948312068884261D0C1496031206854
:1011700088425CD0BE4978312068884257D0BC494B
:1011800090312068884252D0B949A83120688842FD
:101190004DD0B8492068884249D0B64918312068F6
:1011A000884244D0B3493031206888423FD0B149A9
:1011B0004831206888423AD0AE4960312068884280
:1011C00035D0AC4978312068884230D0A949903177
:1011D000206888422BD0A749A8312068884226D0B1
:1011E000A5492068884222D0A3491431206888424A
:1011F0001DD0A14928312068884218D09E493C3131
:101200002068884213D09C495031206888420ED013
:10121000994964312068884209D09749783120681B
:10122000884204D094498C312068884201D1012041
:1012300000E0002028B1206E006820F48070216E4C
:1012400008608B492068884249D089491831206854
:10125000884244D086493031206888423FD0844952
:101260004831206888423AD08149603120688842FC
:1012700035D07F4978312068884230D07C49903120
:10128000206888422BD07A49A8312068884226D02D
:1012900078492068884222D07649183120688842EF
:1012A0001DD0744930312068884218D071494831C6
:1012B0002068884213D06F496031206888420ED080
:1012C0006C4978312068884209D06A499031206899
:1012D000884204D06749A8312068884206D1206836
:1012E000006820F001002168086005E020680068BF
:1012F00020F001002168086011E002F0ABFCA0EBD7
:10130000080005280BD92020606500BF002084F864
:10131000340000BF032084F8350001209CE62868D3
:1013200000F001000028E8D151492068884249D0E6
:101330004F4918312068884244D04D4930312068E7
:1013400088423FD04A494831206888423AD04849CB
:1013500060312068884235D045497831206888421C
:1013600030D043499031206888422BD04049A83181
:101370002068884226D03F492068884222D03D49D3
:101380001831206888421DD03A493031206888429F
:1013900018D0384948312068884213D03549603127
:1013A000206888420ED0334978312068884209D0BD
:1013B000304990312068884204D02E49A8312068F5
:1013C000884201D1012000E0002040B1A66D94F8D0
:1013D0005C0000F01F013F208840B06007E0A76D6F
:1013E00094F85C0000F01F010120884078602049DB
:1013F0002068884276D01E4918312068884271D012
:101400001B493031206888426CD019494831206826
:10141000884267D0164960312068884262D01449FA
:101420007831206888425DD0114990312068884227
:1014300058D00F49A8312068884253D00D49206800
:1014400088424FD00B491831206888424AD0094958
:1014500030312068884245D00649483120688842AA
:1014600040D004496031206888423BD0014905E002
:1014700010000240100402400854025878312068DD
:1014800088422FD02549206888422BD02349183123
:101490002068884226D022492068884222D02049EC
:1014A0001431206888421DD01D49283120688842A7
:1014B00018D01B493C312068884213D0184950315C
:1014C000206888420ED0164964312068884209D0CD
:1014D000134978312068884204D011498C31206842
:1014E000884201D1012000E0002068B1D4E9191040
:1014F0004860E06E40B1E06E006820F48070E16EFC
:101500000860D4E91C10486000BF002084F8340053
:1015100000BF012084F8350000209DE5A0040240B2
:101520000854025870B504460CB9012070BD94F8F7
:101530003500022803D0802060650120F6E7DC49F1
:101540002068884249D0DA4918312068884244D05E
:10155000D7493031206888423FD0D549483120688A
:1015600088423AD0D24960312068884235D0D0498B
:1015700078312068884230D0CD4990312068884247
:101580002BD0CB49A8312068884226D0C949206891
:10159000884222D0C7491831206888421DD0C549E9
:1015A00030312068884218D0C249483120688842CA
:1015B00013D0C0496031206888420ED0BD497831CF
:1015C0002068884209D0BB4990312068884204D005
:1015D000B849A8312068884201D1012000E00020EC
:1015E000F0B3042084F83500B149206888424BD01C
:1015F000AF4918312068884246D0AD493031206863
:10160000884241D0AA494831206888423CD0A84944
:1016100060312068884237D0A549783120688842F7
:1016200032D0A3499031206888422DD0A049A831FA
:101630002068884228D09F492068884224D09D494C
:101640001831206888421FD09A493031206888427A
:101650001AD0984948312068884215D0954900E051
:1016600020E06031206888420ED0924978312068AD
:10167000884209D08F4990312068884204D08D4932
:10168000A8312068884206D12068006820F0010057
:101690002168086009E12068006820F001002168E5
:1016A000086002E12068006820F00E0021680860F0
:1016B0007F492068884249D07D4918312068884296
:1016C00044D07B493031206888423FD07849483146
:1016D000206888423AD0764960312068884235D007
:1016E000734978312068884230D071499031206840
:1016F00088422BD06E49A8312068884226D06D4997
:101700002068884222D06B491831206888421DD059
:10171000684930312068884218D0664948312068CD
:10172000884213D063496031206888420ED06149F5
:1017300078312068884209D05E499031206888421B
:1017400004D05C49A8312068884206D1206800682E
:1017500020F001002168086005E02068006820F0A2
:1017600001002168086052492068884270D05049C1
:101770001831206888426BD04D493031206888424A
:1017800066D04B4948312068884261D04849603171
:10179000206888425CD0464978312068884257D01A
:1017A000434990312068884252D04149A83120688D
:1017B00088424DD03F492068884249D03D49183180
:1017C0002068884244D03B493031206888423FD06D
:1017D00038494831206888423AD03649603120681B
:1017E000884235D0334978312068884230D0314939
:1017F0009031206888422BD02E49A8312068884239
:1018000026D02D492068884222D02B4914312068E7
:1018100088421DD0284928312068884218D026499E
:101820003C312068884213D02349503120688842D7
:101830000ED0214964312068884209D01E49783190
:101840002068884204D01C498C312068884201D12C
:10185000012000E00020D8B1206E006820F48070E4
:10186000216E0860A56D94F85C0000F01F01012056
:1018700088406860D4E919104860E06E40B1E06EBD
:10188000006820F48070E16E0860D4E91C104860A4
:1018900000BF002084F8340000BF012084F8350028
:1018A000206D10B12046216D884700203EE60000E3
:1018B0001000024010040240085402580146486DCE
:1018C000704700002DE9F84F044600200090FE48C4
:1018D00000684FF41651B0FBF1FAA66DD4F85880A9
:1018E0003768D8F80090F9492068884249D0F7490C
:1018F00018312068884244D0F44930312068884249
:101900003FD0F2494831206888423AD0EF496031EF
:101910002068884235D0ED4978312068884230D03F
:10192000EA499031206888422BD0E849A8312068E4
:10193000884226D0E6492068884222D0E4491831FE
:10194000206888421DD0E24930312068884218D092
:10195000DF4948312068884213D0DD496031206872
:1019600088420ED0DA4978312068884209D0D849B7
:1019700090312068884204D0D549A8312068884237
:1019800001D1012000E0002000287DD094F85C0007
:1019900000F01F01082088403840002868D0CB495B
:1019A0002068884249D0C94918312068884244D00B
:1019B000C6493031206888423FD0C4494831206848
:1019C00088423AD0C14960312068884235D0BF4949
:1019D00078312068884230D0BC49903120688842F4
:1019E0002BD0BA49A8312068884226D0B84920684F
:1019F000884222D0B6491831206888421DD0B449A7
:101A000030312068884218D0B14948312068884276
:101A100013D0AF496031206888420ED0AC4978318C
:101A20002068884209D0AA4990312068884204D0B1
:101A3000A749A8312068884204D12068006800F0D6
:101A4000040003E02068006800F0080080B120680E
:101A5000006820F004002168086094F85C0000F041
:101A60001F0108208840B060606D40F00100606593
:101A700094F85C0000F01F01012088403840E8B372
:101A800092492068884200E0B8E24BD08F49183173
:101A90002068884246D08D4930312068884241D044
:101AA0008A494831206888423CD0884960312068A2
:101AB000884237D0854978312068884232D08349BE
:101AC0009031206888422DD08049A8312068884212
:101AD00028D07F492068884224D07D491831206869
:101AE00088421FD07A493031206888421AD078491C
:101AF00048312068884215D0754900E026E0603101
:101B0000206888420ED0724978312068884209D016
:101B10006F4990312068884204D06D49A83120680F
:101B2000884204D12068406900F0800002E020680B
:101B30000068002050B194F85C0000F01F01012003
:101B40008840B060606D40F00200606594F85C0011
:101B500000F01F01042088403840E8B35B4920684A
:101B600088424BD0594918312068884246D057499D
:101B700030312068884241D0544948312068884239
:101B80003CD0524960312068884237D04F49783183
:101B90002068884232D04D499031206888422DD04B
:101BA0004A49A8312068884228D04949206888429B
:101BB00024D047491831206888421FD04449303129
:101BC000206888421AD0424948312068884215D09E
:101BD0003F496031206800E024E088420ED03C4953
:101BE00078312068884209D039499031206888428C
:101BF00004D03749A8312068884204D120680068A1
:101C000000F0020002E020680068002050B194F863
:101C10005C0000F01F0104208840B060606D40F05F
:101C20000400606594F85C0000F01F0110208840FB
:101C30003840E8B325492068884251D023491831FB
:101C4000206888424CD0214930312068884247D0F2
:101C50001E4948312068884242D01C4960312068C2
:101C600088423DD0194978312068884238D01749D8
:101C700090312068884233D01449A83120688842C6
:101C80002ED01349206888422AD011491831206883
:101C9000884225D00E4930312068884220D00C4936
:101CA0004831206888421BD009496031206800E033
:101CB0004DE0884214D006497831206888420FD020
:101CC00003499031206805E0A40000241000024080
:101CD00010040240884203D0FE492068884204D1A3
:101CE0002068006800F0080003E02068006800F049
:101CF000040060B394F85C0000F01F0110208840DD
:101D0000B0602068006800F4802080B1206800681E
:101D100000F4002028B9206CC8B12046216C884707
:101D200015E0A06C98B12046A16C88470FE02068B0
:101D3000006800F4807028B92068006820F008006E
:101D400021680860206C10B12046216C884794F807
:101D50005C0000F01F0120208840384000287DD022
:101D6000DD492068884249D0DB4918312068884223
:101D700044D0D9493031206888423FD0D6494831D3
:101D8000206888423AD0D44960312068884235D0F2
:101D9000D14978312068884230D0CF4990312068CD
:101DA00088422BD0CC49A8312068884226D0C94926
:101DB000A8392068884221D0C649903920688842D5
:101DC0001CD0C44978392068884217D0C14960398D
:101DD0002068884212D0BF494839206888420DD017
:101DE000BC4930392068884208D0BA49183920687F
:101DF000884203D0B7492068884204D1206800682F
:101E000000F0100003E02068006800F0020028B332
:101E100094F85C0000F01F0120208840B06094F826
:101E2000350004282DD12068006820F016002168B4
:101E300008602068406920F0800021684861206CBB
:101E400008B9A06C28B12068006820F0080021685B
:101E5000086094F85C0000F01F0100E03FE03F20C4
:101E60008840B06000BF002084F8340000BF01202B
:101E700084F83500206D10B12046216D8847BDE8FB
:101E8000F88F2068006800F4802080B12068006826
:101E900000F4002028B9606C08B32046616C8847C4
:101EA0001DE0E06BD8B12046E16B884717E0206861
:101EB000006800F4807068B92068006820F01000A5
:101EC0002168086000BF002084F8340000BF0120B2
:101ED00084F83500E06B10B12046E16B8847606DF7
:101EE00000287DD0606D00F00100E8B3042084F884
:101EF00035007949206888424BD0774918312068ED
:101F0000884246D0744930312068884241D07249B5
:101F10004831206888423CD06F496031206888424F
:101F200037D06D4978312068884232D06A49903183
:101F3000206888422DD06849A8312068884228D07E
:101F40006449A8392068884223D0624990392068C2
:101F500088421ED05F4978392068884219D05D498F
:101F600060392068884200E041E012D05949483980
:101F7000206888420DD0574930392068884208D0FF
:101F8000544918392068884203D052492068884251
:101F900006D12068006820F001002168086005E093
:101FA0002068006820F001002168086000BF0098E8
:101FB000401C0090504500D905E02068006800F002
:101FC00001000028F3D100BF00BF002084F83400D6
:101FD00000BF2068006800F0010028B1032000E085
:101FE0000BE084F8350002E0012084F83500E06C55
:101FF000002802D02046E16C8847D9E137492068A3
:10200000884222D035491431206888421DD0334996
:1020100028312068884218D030493C3120688842F5
:1020200013D02E495031206888420ED02B4964319C
:102030002068884209D0294978312068884204D034
:1020400026498C312068884201D1012000E000201F
:102050000028D2D02068056894F85C0000F01F01C9
:102060000420884000EA0900D0B305F00400B8B3AA
:1020700094F85C0000F01F0104208840C8F80400B8
:1020800005F4004080B105F4803030B9A06C002820
:10209000B3D02046A16C88478AE1206C0028ACD0E0
:1020A0002046216C884783E105F02000F0BB0A49F7
:1020B0002068884252D008491831206888424DD0A3
:1020C000054930312068884248D0034948312068AA
:1020D000884206E0B804024010000240085402584A
:1020E0004FE03BD0B3492068884237D0B14918311E
:1020F0002068884232D0AF493031206888422DD0E4
:10210000AC4948312068884228D0AB4920688842D1
:1021100024D0A9491831206888421FD0A6493031FF
:10212000206888421AD0A449483100E023E02068A2
:10213000884213D0A0496031206888420ED09E4961
:1021400078312068884209D09B49903120688842C4
:1021500004D09949A8312068884206D120680068D7
:1021600020F008002168086005E02068006820F081
:10217000040021680860206C10B32046216C884759
:1021800016E194F85C0000F01F010220884000EA8C
:102190000900E8B305F00200D0B394F85C0000F049
:1021A0001F0102208840C8F8040005F4004070B107
:1021B00005F4803028B9606C10B12046616C884706
:1021C000F6E0E06BF0B32046E16B8847F0E005F005
:1021D0002000C0BB77496039206888424DD07549DE
:1021E00048392068884248D072493039206888428E
:1021F00043D070491839206888423ED06D49206824
:1022000088423AD06B4918312068884235D000E0C6
:102210004EE068493031206888422ED06549483107
:102220002068884229D064492068884225D06249C4
:1022300018312068884220D05F49303120688842B8
:102240001BD001E06EE02DE05B49483120688842F8
:1022500013D059496031206888420ED056497831F0
:102260002068884209D0544990312068884204D0BF
:102270005149A8312068884206D12068006820F0C2
:1022800014002168086005E02068006820F00A005A
:102290002168086000BF002084F8340000BF0120DE
:1022A00084F83500E06BE8B32046E16B88477FE0B7
:1022B00094F85C0000F01F010820884000EA090043
:1022C00080B305F0080068B33A4960392068884255
:1022D0004AD0384948392068884245D03549303994
:1022E0002068884240D033491839206888423BD062
:1022F00030492068884237D02E49183120688842FA
:1023000032D02C493031206888422DD029494831BB
:102310002068884228D028492068884224D026494D
:10232000183100E044E0206888421DD02249303155
:102330002068884218D0204948312068884213D04C
:102340001D496031206888420ED01B4978312068D1
:10235000884209D0184990312068884204D0164933
:10236000A8312068884206D12068006820F01C004F
:102370002168086005E02068006820F00E002168F0
:10238000086094F85C0000F01F0101208840C8F844
:1023900004000120606500BF002084F8340000BF05
:1023A000012084F83500E06C10B12046E16C8847CC
:1023B00000BF64E570000240100402402DE9F041C6
:1023C000044601F047FC804614B90120BDE8F081C5
:1023D000FE492068884249D0FC491831206888426B
:1023E00044D0FA493031206888423FD0F74948311B
:1023F000206888423AD0F54960312068884235D05B
:10240000F24978312068884230D0F0499031206814
:1024100088422BD0ED49A8312068884226D0EC496B
:102420002068884222D0EA491831206888421DD0AD
:10243000E74930312068884218D0E54948312068A2
:10244000884213D0E2496031206888420ED0E049CA
:1024500078312068884209D0DD499031206888426F
:1024600004D0DB49A8312068884201D1012000E076
:102470000020002873D0606A00B100BF00BF0020B8
:1024800084F8340000BF022084F83500CF4920686A
:10249000884249D0CD4918312068884244D0CB4980
:1024A0003031206888423FD0C8494831206888428E
:1024B0003AD0C64960312068884235D0C349783166
:1024C0002068884230D0C1499031206888422BD0A2
:1024D000BE49A8312068884226D0BD49206888427C
:1024E00022D0BB491831206888421DD0B84930310C
:1024F0002068884218D0B64948312068884213D0F5
:10250000B3496031206888420ED0B14978312068E3
:10251000884209D0AE4990312068884204D0AC4945
:10252000A8312068884206D12068006820F00100A8
:102530002168086005E02068006820F0010021683B
:1025400008600DE001F086FBA0EB0800052807D924
:1025500020206065032084F83500012036E769E01B
:102560002068006800F001000028EBD120680568B1
:1025700098480540D4E9020108432169084361698C
:102580000843A1690843E1690843216A08430543F8
:10259000606A042803D1D4E90B010843054360684D
:1025A000292802D360682E2817D960683F2802D3F3
:1025B0006068422811D96068472802D360684828BB
:1025C0000BD960684F2802D36068522805D960682B
:1025D000742804D36068772801D8012000E0002027
:1025E00008B145F48015206805602068456925F02C
:1025F0000705606A0543606A04280DD1A06A054397
:10260000E06A48B12046FEF789F928B140206065AC
:10261000012084F83500D9E6206845612046FEF7A0
:1026200059F8064694F85C0000F01F013F208840EE
:10263000B0609EE068492068884222D06649143123
:10264000206888421DD0644928312068884218D00B
:1026500061493C312068884213D05F49503120687D
:1026600088420ED05C4964312068884209D05A49BA
:1026700078312068884204D057498C3120688842DC
:1026800001D1012000E00020E0B3534920688842D6
:1026900022D051491431206888421DD04E4928313A
:1026A0002068884218D04C493C312068884213D0B9
:1026B00049495031206888420ED04749643120682A
:1026C000884209D0444978312068884204D0424980
:1026D0008C312068884201D1012000E0002000B147
:1026E00000BF00BF002084F8340000BF022084F83F
:1026F00035002068056839480540A068402802D1A7
:10270000102106E02EE0A068802801D1C10100E080
:102710000021E06841EAD001206941EAD001606906
:1027200041EAD001A06941EAD001E06941EAD00163
:10273000206A41EA10100543206805602649206898
:10274000401A1421B0FBF1F08000E0652046FDF74F
:10275000C1FF074694F85C0000F01F01012088408B
:10276000786006E040206065032084F83500012091
:102770002CE61649206888427AD01449183120681E
:10278000884275D0114930312068884270D00F4995
:102790004831206888426BD00C49603120688842FB
:1027A00066D00A4978312068884261D00749903163
:1027B000206888425CD00549A8312068884257D0FB
:1027C00003492068884253D0014909E010000240C3
:1027D000100402403F8010FE085402580F00FEFF14
:1027E00018312068884243D03749206888423FD05A
:1027F00035491831206888423AD033493031206851
:10280000884235D0304948312068884230D02E493E
:102810006031206888422BD02B497831206888426B
:1028200026D02A492068884222D0284914312068BD
:1028300088421DD0254928312068884218D0234974
:102840003C312068884213D02049503120688842AA
:102850000ED01E4964312068884209D01B49783166
:102860002068884204D019498C312068884201D1FF
:10287000012000E0002000B32046FDF7A1FFA06882
:10288000802801D1002060602079216E0860D4E9A1
:1028900019104860606860B16068082809D820464F
:1028A000FDF7F0FF0020E16E0860D4E91C104860DD
:1028B00003E00020E066206760670020606501207B
:1028C00084F83500002081E5400402400854025895
:1028D0002DE9F04104460D4616461F464FF000080C
:1028E00014B90120BDE8F08100BF94F8340001283C
:1028F00001D10220F6E7012084F8340000BF94F8EB
:10290000350001287ED1022084F835000020606562
:10291000E4492068884249D0E24918312068884259
:1029200044D0E0493031206888423FD0DD49483109
:10293000206888423AD0DB4960312068884235D02F
:10294000D84978312068884230D0D6499031206803
:1029500088422BD0D349A8312068884226D0D2495A
:102960002068884222D0D0491831206888421DD082
:10297000CD4930312068884218D0CB494831206891
:10298000884213D0C8496031206888420ED0C649B9
:1029900078312068884209D0C34990312068884244
:1029A00004D0C149A8312068884206D12068006857
:1029B00020F001002168086005E02068006820F030
:1029C0000100216808603B46324629462046FDF753
:1029D000FDFFB449206888424BD0B24918312068C5
:1029E000884246D0AF4930312068884241D0AD4955
:1029F0004831206888423CD0AA496031206888422A
:102A000037D000E042E1A74978312068884230D0D1
:102A1000A4499031206888422BD0A249A83120686F
:102A2000884226D0A0492068884222D09E49183189
:102A3000206888421DD09C4930312068884218D0D7
:102A4000994948312068884213D0974960312068FD
:102A500088420ED0944978312068884209D0924942
:102A600090312068884204D08F49A831206888427C
:102A700001D1012000E0002080B12068006820F032
:102A80001E0040F0160021680860206CB0B120687C
:102A9000006840F00800216808600FE020680068C6
:102AA00020F00E0040F00A0021680860206C28B178
:102AB0002068006840F004002168086079492068B7
:102AC000884270D077491831206888426BD07549A8
:102AD00030312068884266D0724948312068884287
:102AE00061D070496031206888425CD06D4978318E
:102AF0002068884257D06B4990312068884252D074
:102B00006849A831206888424DD0674920688842CA
:102B100049D0654918312068884244D06249303133
:102B2000206888423FD060494831206888423AD0C6
:102B30005D4960312068884235D05B497831206832
:102B4000884230D058499031206888422BD056496D
:102B5000A8312068884226D054492068884222D073
:102B600052491431206888421DD0504928312068CC
:102B7000884218D04D493C312068884213D04B49D7
:102B80005031206888420ED048496431206888421C
:102B900009D0464978312068884204D043498C31B5
:102BA0002068884201D1012000E0002090B1206E11
:102BB000006800F4803028B1206E006840F4807016
:102BC000216E0860E06E28B1E06E006840F480700D
:102BD000E16E086033492068884249D03149183194
:102BE0002068884244D02F493031206888423FD045
:102BF0002C494831206888423AD02A4960312068FF
:102C0000884235D0274978312068884230D025491C
:102C10009031206888422BD02249A8312068884210
:102C200026D021492068884222D01F4918312068C7
:102C300088421DD01C4930312068884218D01A497A
:102C400048312068884213D0174960312068884293
:102C50000ED0154978312068884209D01249903148
:102C60002068884204D01049A8312068884206D1E3
:102C70002068006840F001002168086010E02068CA
:102C8000006840F001002168086009E000BF0020F2
:102C900084F8340000BF4FF4006060654FF0010815
:102CA00040461FE61000024010040240085402583B
:102CB00070B5044600F0CEFF06462546681C10B1EC
:102CC00004480078054400BF00F0C4FF801BA84200
:102CD000FAD370BDA000002430B5034693F89840A5
:102CE000012C01D0022C3ED11868806D084030B90B
:102CF0001868C06D40F001001D68E8650EE01868B6
:102D0000806D0840884206D11868C06D40F002000E
:102D10001D68E86502E003201D68E86501F40070A5
:102D200030B11868D0F8E00010431D68C5F8E00025
:102D300001F4806030B11868D0F8E40010431D68D9
:102D4000C5F8E40000BF1868406D0B4D0D402843E6
:102D50001D6868650948006840EA9170074D286061
:102D600000BF002030BDD3F89C0040F00200C3F843
:102D70009C000120F6E70000FFFFCF3F14A80040B1
:102D80007047F0B5024692F89860012E01D0022EED
:102D900043D1C868072800D100BF086818BBC868BD
:102DA000072800D000BFC86807280BD1088A4FF059
:102DB000605747EA0040CF6940EA07208F6940EA40
:102DC00007040AE0087A80070F7B40EAC7600F8A91
:102DD00040EA07404F6940EA0704D76E486807EBAE
:102DE00080031C6017E0C868072800D000BF0F7B75
:102DF000086940EA4774C868072801D18D6903E073
:102E00000F7A486940EA8775176F486807EBC00377
:102E10001C601B1D1D600020F0BDD2F89C0040F01E
:102E20000200C2F89C000120F6E770B50446049D3C
:102E300094F8980001280AD1080140EA820040EA8B
:102E4000430028432668C6F88000002070BDD4F8EF
:102E50009C0040F00400C4F89C000120F6E7704795
:102E6000704700002DE9F04304460D469C460023C0
:102E700094F89880B8F1020F74D1402D38D12068B1
:102E8000D0F8A00000F4FE0040B9D4F89C0040F057
:102E90002000C4F89C000120BDE8F0832068D0F831
:102EA000A40000F07F0038B9D4F89C0040F4807092
:102EB000C4F89C000120EFE72068D0F8A400C0F31C
:102EC000006040B12068D0F8A0004FF00049B9EB95
:102ED000D07F00D101232068D0F8A400C0F30520E2
:102EE0000344606C5843D4F8749009EB80014BE0C4
:102EF000412D38D12068D0F8B00000F4FE0038B978
:102F0000D4F89C0040F02000C4F89C000120C3E7E6
:102F10002068D0F8B40000F07F0038B9D4F89C00E5
:102F200040F48070C4F89C000120B5E72068D0F818
:102F3000B400C0F3006040B12068D0F8B0004FF09A
:102F40000049B9EBD07F00D101232068D0F8B4004C
:102F5000C0F305200344E06C5843D4F8789009EBA3
:102F6000800111E06EE0206DA84207D8D4F89C00E3
:102F700040F02000C4F89C0001208DE7606D68439C
:102F8000D4F87C9009EB8001086800F08040506024
:102F9000506820B90868C0F38A40106003E00868F0
:102FA00020F060401060086800F0005090600868F1
:102FB00000F000401061091D088880B2D0610868E7
:102FC00000F47020D060086800F480105061086838
:102FD00000F4001090610868C0F306601062086891
:102FE000C00F5062091D0F46002603E0B85D0CF8C3
:102FF0000600761CDFF85C90D06809EB1040007882
:10300000B042F3D8402D03D12068C0F8A83017E0B3
:10301000412D03D12068C0F8B83011E0202D06D230
:103020000120A840D4F80090C9F8980008E005F005
:103030001F09012000FA09F0D4F80090C9F89C009B
:10304000002029E7D4F89C0040F00800C4F89C0058
:10305000012021E764DC0008704700002DE9F04FF3
:1030600089B00446F54800688507F448001D0068EB
:1030700005EA80752068006D00F470462068406D98
:1030800006402068006D00F00F072068406D074083
:103090002068006D00F0F0082068406D00EA080824
:1030A0002068006D00F071592068406D00EA090940
:1030B0002068006D00F0607A2068406D00EA0A0A1E
:1030C0002068406D00F4807080B12068006D00F4CD
:1030D000807058B100BF4FF48070216808650020EF
:1030E000D649086000BF2046FFF7B6FF2068406D54
:1030F00000F48060D8B12068006D00F48060B0B149
:103100002068D0F8DC0007902068D0F8E400079928
:103110000840079000BF4FF48060216808650020D8
:10312000C649086000BF2046079900F08BFC65B1D6
:1031300000BFC348284021680865A80FBF49086040
:1031400000BF29462046FFF71BFE66B100BFBC4802
:10315000304021680865B00FB849086000BF3146AB
:10316000204600F071FC67B100BFB54838402168C7
:103170000865B80FB149086000BF3946204600F025
:10318000D5FBB8F1000F0ED000BFAD4808EA000033
:10319000216808654FEA9870A849086000BF414659
:1031A000204600F0FDFB2068406D00F4006080B117
:1031B0002068006D00F4006058B100BF4FF400605B
:1031C0002168086500209D49086000BF204600F086
:1031D0003CFC2068406D00F40070D8B12068006DA0
:1031E00000F40070B0B12068D0F8D80008902068D2
:1031F000D0F8E00008990840089000BF4FF4007034
:103200002168086500208D49086000BF20460899A4
:1032100000F019FC2068406D00F4002080B12068A7
:10322000006D00F4002058B100BF4FF40020216869
:10323000086500208149086000BF204600F074FB4B
:103240002068406D00F4803080B12068006D00F48B
:10325000803058B100BF4FF48030216808650020ED
:103260007649086000BF204600F0EBFB2068406D07
:1032700000F4802080B12068006D00F4802058B1F7
:1032800000BF4FF480202168086500206B4908606A
:1032900000BF204600F0D4FB2068406D00F40030F1
:1032A00098B12068006D00F4003070B100BF4FF499
:1032B00000302168086500206049086000BFD4F82C
:1032C0009C0040F08000C4F89C00BAF1000F0ED0C2
:1032D00000BF5B480AEA0000216808654FEA9A705F
:1032E0005649086000BF51462046FFF7B9FDB9F1C5
:1032F000000F10D000BF524809EA0000216808659D
:103300004FEA99704D49086000BFD4F89C0040EA2C
:103310000900C4F89C004B49206888427DD1606850
:10332000806800F0030000287ED06068006A00F02A
:103330000F0B6068406A00EA0B0B6068006A00F0DF
:10334000300006906068406A069908400690606800
:10335000006A00F4C07005906068406A05990840F2
:1033600005906068006A00F4FC4004906068406A60
:103370000499084004906068006A00F4F02003900B
:103380006068406A039908400390BBF1000F06D0C3
:103390006068C0F820B05946204600F04EFB069801
:1033A00030B10698616808622046069900F047FB34
:1033B0006068406A00F04000A8B16068006A00F0F0
:1033C000400080B16068C06B000C02906068C06B08
:1033D00000F03F0001904020616808622046DDE96E
:1033E000012100F02BFB059830B105986168086257
:1033F0002046059900F020FB049840B104986168CC
:103400000862D4F89C0004990843C4F89C0003980F
:1034100018B103986168086200E005E0D4F89C00E8
:1034200003990843C4F89C00D4F89C0010B12046CE
:10343000FFF715FD09B0BDE8F08F000010A80040AF
:10344000FFFFCF3F00A0004070B594B004464C226F
:10345000B34901A8FCF7E9FF14B9012014B070BD0D
:10346000B0492068884203D1206800F58070606010
:10347000A068B0F5407F00D100BF206C00B100BF54
:10348000A06C00B100BF206D00B100BF206E00B184
:1034900000BFD4E91710084400B100BF94F89800A9
:1034A00028B9002084F89900204600F03DF92068F2
:1034B000806920F010002168886100F0CBFB054690
:1034C0000EE000F0C7FB401B0A2809D99834606859
:1034D00040F001006060032004F898090120BDE776
:1034E0002068806900F008000828EAD02068806918
:1034F00040F001002168886100F0ACFB05460EE059
:1035000000F0A8FB401B0A2809D99834606840F0F5
:1035100001006060032004F8980901209EE72068FC
:10352000806900F001000028EAD02068806940F03E
:10353000020021688861207C012806D1206880690A
:1035400020F040002168886105E02068806940F033
:10355000400021688861607C012806D1206880696C
:1035600040F480402168886105E02068806920F48B
:10357000804021688861A07C012806D1206880698C
:1035800020F480502168886105E02068806940F45B
:103590008050216888612068806920F44070A168AB
:1035A0000843216888612068806920F0A4002168B0
:1035B00088612068006920F0100021680861E068D7
:1035C000012806D12068806940F0040021688861E4
:1035D00020E0E068F0B1E068022815D0206880693A
:1035E00040F08000216888612068006940F0100088
:1035F00021680861E06803280CD12068806940F0E8
:1036000020002168886105E02068806940F0200082
:1036100021688861207E401E4106E069401E41EA23
:103620000020216A491E0843A18A491E40EA014040
:103630002168C861A068B0F5407F0FD1A06A401E24
:10364000E16A491E40EA0121206B401E41EA001157
:10365000A08C401E41EA00402168C860206E38B14D
:103660002068D0F8C000616E08432168C1F8C0002E
:10367000D4E91710084460B12068D0F8C80020F0E1
:10368000070001AAA16E52F8211008432168C1F871
:10369000C800206C60B12068D0F8BC0020F00700A2
:1036A00001AA616C52F8211008432168C1F8BC00DE
:1036B000A06C68B12068D0F8BC0020F0700101AAAD
:1036C000E06C52F8200041EA00102168C1F8BC000B
:1036D000206D68B12068D0F8BC0020F4E06101AA38
:1036E000606D52F8200041EA00202168C1F8BC005A
:1036F0000C492068884205D16068806820F003008A
:1037000061688860002044F8940FA0600120207157
:10371000943C2046FDF758FB064630469EE60000E6
:1037200074DC000800A0004010B5B4B004461421B9
:103730002FA8FCF793FEB42102A8FCF78FFE734973
:103740002068884247D14FF40040029000201C902E
:1037500002A801F0A5FC08B1FDF71BFB6C4800684E
:10376000401C6B4908600846006801280DD100BF65
:103770006848006840F48070664908600846006840
:1037800000F48070019000BF00BF00BF61480C389A
:10379000006840F008005F490C390860084600687E
:1037A00000F00800019000BF00BF03202F9002200E
:1037B0003090002031903290092033902FA9564844
:1037C00000F044F900220521132000F05FFB1320D4
:1037D00000F048FB98E051492068884248D14FF4F6
:1037E0000040029000201C9002A801F059FC08B192
:1037F000FDF7CFFA46480068401C45490860084676
:10380000006801280DD100BF4248006840F4807074
:10381000404908600846006800F48070019000BFCD
:1038200000BF00BF3B480C38006840F00200394937
:103830000C3908600846006800F00200019000BFE3
:1038400000BF4FF440502F90022030900020319064
:103850003290092033902FA9314800F0F7F8002268
:103860000521142000F012FB142000F0FBFA4BE0BD
:103870002C492068884247D14FF400400290002034
:103880001C9002A801F00CFC08B1FDF782FA204858
:103890000068401C1E4908600846006801280DD1D8
:1038A00000BF1C48006840F480701A490860084650
:1038B000006800F48070019000BF00BF00BF154891
:1038C0000C38006840F0080012490C3908600846BE
:1038D000006800F00800019000BF00BF4FF44050A6
:1038E0002F900220309000203190329005203390AC
:1038F0002FA9094800F0AAF8002205219F2000F016
:10390000C5FA9F2000F0AEFA34B010BD00A0004010
:1039100008000024EC440258000C025800A40040A7
:103920000004025800D400407047000070B50446FF
:103930000D4605F0010020B31249206888420ED1DF
:10394000114B124A40212046FFF78CFA0F480E4ACD
:1039500001680F4804F0AAFF00BF00BF0CE00D494A
:103960002068884208D10C4B0C4A40212046FFF7C2
:1039700079FA00BF00BF00BF002201212046FFF7F7
:10398000ABF970BD00A000400C0000243C080024EE
:103990000409002400D400401C0000248C080024EA
:1039A00070B504460D4605F01000F0B10F492068CF
:1039B000884208D10E4B0F4A41212046FFF752FAA8
:1039C00000BF00BF0CE00C492068884208D10B4BB7
:1039D0000B4A41212046FFF745FA00BF00BF00BF58
:1039E000002210212046FFF777F970BD00A40040A7
:1039F000140000246408002400D400401C000024AB
:103A00008C080024014691F8980001280CD102206E
:103A100081F898000868806920F001000A689061C8
:103A20000020C1F89C007047D1F89C0040F00400D1
:103A3000C1F89C000120F6E7704770477047704757
:103A4000704770477047704770477047F8B5024637
:103A50000023714DD9E001279F400E6806EA070454
:103A6000002C71D04E68012E08D04E68022E05D071
:103A70004E68112E02D04E68122E13D190685F004E
:103A80000326BE40B0435F00CE68BE403043906026
:103A9000506801269E40B0430E79C6F300169E4042
:103AA00030435060D0685F000326BE40B0435F00E3
:103AB0008E68BE403043D0604E68022E02D04E6801
:103AC000122E13D1DF0802F1200656F827005E07F8
:103AD000F70E0F26BE40B0435F07FF0E0E69BE40D3
:103AE0003043DF0802F1200646F8270010685F0027
:103AF0000326BE40B0430E7906F003065F00BE40C9
:103B0000304310604E6806F08056B6F1805F7BD17E
:103B100000BF424E366846F00206404F3E603E46C9
:103B2000366806F00206009600BF00BF3C4E9F08B4
:103B300056F827009E07370F0F26BE40B043394E78
:103B4000B24202D1002629E05EE0374EB24201D1F6
:103B5000012623E0354EB24201D102261EE0344E4A
:103B6000B24201D1032619E0324EB24201D10426FD
:103B700014E0314EB24201D105260FE02F4EB24281
:103B800001D106260AE02E4EB24201D1072605E0F9
:103B90002C4EB24201D1092600E00A269F073F0FB2
:103BA000BE4030431E4E9F0846F827002868A043B9
:103BB0004E6806F48036B6F5803F00D12043286079
:103BC0006868A0434E6806F40036B6F5003F00D1A1
:103BD000204368604FF0B0463068A0434E6806F45A
:103BE0008016B6F5801F00D120434FF0B0463060FC
:103BF0007068A0434E6806F40016B6F5001F00D1A9
:103C000020434FF0B04670605B1C0E68DE40002E13
:103C10007FF421AFF8BD000080000058F444025842
:103C20000804005800000258000402580008025816
:103C3000000C0258001002580014025800180258D4
:103C4000001C0258002402580AB1816101E00B04F3
:103C500083617047014800687047000098000024A5
:103C6000034800680349097808440149086070471F
:103C700098000024A000002410B5032000F044F9AF
:103C800002F094F910490968C1F303210F4A515C0D
:103C900001F01F0120FA01F40B48006800F00F004A
:103CA0001146085C00F01F0024FA00F00849086083
:103CB00008480460002000F00FF808B1012010BD92
:103CC00000F0B8F80020FAE718440258E8DC0008D1
:103CD000A8000024A400002470B58AB00446102C6B
:103CE0000AD200222146192000F0D0F8192000F055
:103CF000B9F81948046002E001200AB070BD00BFA5
:103D00001648006840F00100144908600846006841
:103D100000F00100009000BF00BF01A902A802F05E
:103D2000C5F802F031F945000D48B5FBF0F0461E2C
:103D30000C480D49086040F2E7310B48C16046600D
:103D400000210161816002F0CDFE18B9064802F041
:103D500021FFD2E70120D0E79C000024F044025864
:103D600040420F0000000140800700244178154ABE
:103D700011600178F9B1121D41681160017B0907DA
:103D8000C27A41EA0261827A41EAC241427B41EA57
:103D90008241827B41EA4241C27B41EA0241427A4E
:103DA00041EA0221027A41EA420102781143054ABE
:103DB0000832116005E00021024A121D1160121D37
:103DC0001160704798ED00E000BF00BF00BFBFF377
:103DD0005F8F00BF00BF00BF0548006820F480303F
:103DE00003490860002002497031086070470000F4
:103DF00024ED00E040F001010D4A11600C497039DA
:103E0000096841F480310A4A703A116000BF00BF6E
:103E100000BFBFF34F8F00BF00BF00BF00BF00BF98
:103E200000BFBFF36F8F00BF00BF00BF704700002F
:103E300094ED00E008B500BF0948006840F00200BA
:103E4000074908600846006800F00200009000BFC3
:103E500000BF00220F21901E00F018F808BD0000DE
:103E6000F44402580146084600280DDB00BF00BF9D
:103E700000F01F0301229A4043099B0003F1E02355
:103E8000C3F8002100BF00BF00BF70472DE9F05FFD
:103E900080460D46164607F069FD074639462A4614
:103EA000334601F00700C0F1070ABAF1040F02D946
:103EB0004FF0040A01E0C0F1070AD14600F1040AFC
:103EC000BAF1070F02D24FF0000A01E0A0F1030A95
:103ED000D4464FF0010A0AFA09FAAAF1010A0AEADD
:103EE000020A0AFA0CFA4FF0010B0BFA0CFBABF1C9
:103EF000010B0BEA030B4AEA0B042146404607F08C
:103F00003DFDBDE8F09F000000BF00F00702064B3A
:103F100019684FF6FF031940044B0B4343EA022193
:103F2000014B196000BF70470CED00E00000FA057E
:103F300001460A680120C1F8FC03002081F8F4035F
:103F4000906940F000609061506D024B18435065DD
:103F5000002070470300001070470246106841625D
:103F600000207047F0B5034615461868446A21B929
:103F700044EA05401E68B06219E01868806A04EBE4
:103F80001044002208E0186800F5827050F8220002
:103F900004EB1044501CC2B2481E9042F3D844EACD
:103FA0000547186800F582704E1E40F82670002004
:103FB000F0BD10B50446D4F8040406F0D2F810BDE4
:103FC00070B504460D46C5EBC50304F13C0101EB99
:103FD0008301CA682946D4F8040406F00AF870BDC3
:103FE00070B504460D46C5EBC50304F5FE7101EB43
:103FF0008301CA682946D4F8040406F06BF870BD42
:1040000010B50446D4F8040406F0AEF810BD70B53F
:1040100004460E4606F0800080280AD106F00F0004
:10402000C0EBC00104F13C0000EB81050120687089
:1040300009E006F00F00C0EBC00104F5FE7000EBD4
:1040400081050020687006F00F00287000BF94F80A
:10405000BC03012801D1022070BD012084F8BC03FB
:1040600000BF2946206806F0DBFD00BF002084F871
:10407000BC0300BF00BFEFE770B504460E4606F074
:104080000F006168884201D9012070BD06F08000F0
:1040900080280AD106F00F00C0EBC00104F13C00FB
:1040A00000EB81050120687009E006F00F00C0EB0D
:1040B000C00104F5FE7000EB81050020687000204F
:1040C000A87006F00F00287000BF94F8BC03012808
:1040D00001D10220D9E7012084F8BC0300BF2946A2
:1040E000206807F07FF800BF002084F8BC0300BF01
:1040F00000BFCAE7024601F00F00C0EBC00302F5A3
:10410000FE7000EB8300806970472DE9F04705469B
:104110000E4690461F464FF0000906F080008028AA
:104120000AD106F00F00C0EBC00105F13C0000EB26
:1041300081040120607009E006F00F00C0EBC001AF
:1041400005F5FE7000EB81040020607006F00F00A2
:104150002070C4F80880E770607808B12078E080AB
:10416000022F01D10020207100BF95F8BC03012867
:1041700002D10220BDE8F087012085F8BC0300BF12
:104180002146286806F05EFC00BF002085F8BC03CD
:1041900000BF4846EEE72DE9F04104460E461746BB
:1041A000984606F00F00C0EBC00104F5FE7000EB6E
:1041B0008105EF60C5F814800020A861687006F0E2
:1041C0000F0028702069012800D12F6106F00F0030
:1041D00028B9227C2946206806F0E0FE04E0227C13
:1041E0002946206807F092F80020BDE8F08170B5FC
:1041F00004460D4605F00F006168884201D9012090
:1042000070BD05F0800080280AD105F00F00C0EBDA
:10421000C00104F13C0000EB81060120707007E052
:10422000C5EBC50104F5FE7000EB8106002070703F
:104230000120B07005F00F00307000BF94F8BC038F
:10424000012801D10220DBE7012084F8BC0300BF74
:104250003146206807F00DF805F00F0028B9217CE1
:1042600004F57172206806F085FF00BF002084F815
:10427000BC0300BF00BFC3E72DE9F04104460E4672
:104280001746984606F00F00C0EBC00104F13C0051
:1042900000EB8105EF60C5F814800020A8610120C3
:1042A000687006F00F0028702069012800D12F6186
:1042B00006F00F0028B9227C2946206806F06EFE21
:1042C00004E0227C2946206807F020F80020BDE8A1
:1042D000F0812DE9FE4F044620680290029D20687F
:1042E00007F0FFF900287DD1206807F039FA08B9F6
:1042F000BDE8FE8F206807F033FA00F002000228C4
:1043000005D12068406900F00200216848612068FA
:1043100007F026FA00F01000102846D120688069C6
:1043200020F01000216888610298D0F8209009F0F0
:104330000F00C0EBC00104F5FE7000EB810BC9F368
:10434000434002281AD147F6F07009EA000030B362
:10435000C9F30A12DBF80C10029807F006FAC9F349
:104360000A11DBF80C000844CBF80C00C9F30A1161
:10437000DBF818000844CBF8180010E0C9F34340FC
:1043800006280CD1082204F57171029807F0EDF9A6
:10439000C9F30A11DBF818000844CBF818002068AC
:1043A000806940F0100021688861206807F0D8F922
:1043B00000F40020B0F5002F52D10026206807F04D
:1043C0009FF9824649E00AF00100E8B3F1B22068A3
:1043D00007F0B9F9804608F0010058B1012105F550
:1043E000306000E043E200EB461081603146204639
:1043F00003F01AFE08F00800082809D1082105F585
:10440000306000EB461081603146204603F0DAFD53
:1044100008F01000102805D1102105F5306000EBE0
:104420004610816008F02000202805D1202105F5E4
:10443000306000EB4610816008F40050B0F5005F7A
:1044400008D14FF4005100E004E005F5306000EBC6
:1044500046108160761C4FEA5A0ABAF1000FB2D1B9
:10446000206807F07DF900F48020B0F5802F7ED120
:10447000206807F03BF98246002683E00AF001003D
:1044800000287CD0F1B2206807F044F9804608F09B
:104490000100F0B306F00F0101208840019040F6C2
:1044A00034004159019821EA000040F63401485196
:1044B000012105F5106000EB46108160206901289C
:1044C00024D1C6EBC60104F13C0000EB8100C6EB31
:1044D000C602C16804F13C0000EB82008068014420
:1044E000C6EBC60204F13C0000EB8200C1606EB96D
:1044F000C6EBC60104F13C0000EB8100406928B91D
:1045000004F571720121206806F034FEF1B22046F4
:1045100000E001E0FFF754FD08F00800082805D18D
:10452000082105F5106000EB4610816008F01000CE
:10453000102805D1102105F5106000EB46108160B0
:1045400008F04000402805D1402105F5106000EB3F
:104550004610816008F00200022805D1022105F50D
:10456000106000EB4610816008F0800001E00DE073
:1045700005E0802803D13146204603F013FE761C67
:104580004FEA5A0ABAF1000F7FF478AF206807F0BB
:10459000E7F800F00040B0F1004F1CD140F60400F5
:1045A000405920F0010140F60400415194F8F40311
:1045B000012807D1002084F8F40300212046FFF7EA
:1045C000CBFC02E0204600F07DFA2068406900F054
:1045D000004021684861206807F0C2F800F40060DC
:1045E000B0F5006F0ED140F60800405900F0010010
:1045F00010B1204600F0BEFA2068406900F4006067
:1046000021684861206807F0ABF800F00060B0F165
:10461000006F19D12068406900F00060216848618E
:1046200094F8F40368B9012084F8F4032068406D1D
:10463000C0F38300C4F8F80301212046FFF78CFC87
:1046400002E0204600F096FA206807F089F800F4AE
:104650008050B0F5805F7DD140F60400405920F0D5
:10466000010140F6040041511021206807F00EF8C6
:1046700000273EE04FF67F3105F5106000EB471054
:10468000816005F5106000EB4710006820F4001110
:1046900005F5106000EB4710016005F5106000EBB8
:1046A0004710006840F0006105F5106000EB47100E
:1046B00001604FF67F3105F5306000EB47108160F7
:1046C00005F5306000EB4710006820F4001105F597
:1046D000306000EB4710016005F5306000EB4710DB
:1046E000006840F0006105F5306000EB47100160A4
:1046F0007F1C6068B842BDD840F61C00405940F0AD
:10470000011140F61C004151206B70B1D5F88408AE
:1047100040F00B01C5F8841840F64400405940F0C1
:104720000B0140F6440041510FE040F6140040599F
:1047300042F22B01084340F614014851081F40592A
:1047400040F00B014FF401604151D5F8000820F40E
:10475000FE6000E00DE0C5F80008217C04F57172F0
:10476000206806F007FD2068406900F48050216849
:104770004861206806F0F4FF00F40050B0F5005FD7
:1047800017D1206806F0C6F9206806F097FFE060B0
:1047900001F0C2FB0090227B2068009907F04EF8E0
:1047A000204600F077F92068406900F40050216845
:1047B0004861206806F0D4FF00F00800082808D1FE
:1047C000204600F086F92068406900F00800216862
:1047D0004861206806F0C4FF00F48010B0F5801F27
:1047E0000AD100263146204600F043F8206840698F
:1047F00000F4801021684861206806F0B1FF00F4E1
:104800000010B0F5001F0AD100263146204600F006
:1048100039F82068406900F4001021684861206878
:1048200006F09EFF00F08040B0F1804F08D1204696
:10483000FFF7BFFB2068406900F0804021684861B5
:10484000206806F08DFF00F0040004280FD12068D6
:10485000D0F8049009F00400042802D12046FFF7A4
:10486000CFFB2068406840EA09002168486000BF2B
:104870003EE570B504460D462946D4F8040405F01B
:10488000E1FC70BD70B504460D462946D4F8040419
:1048900005F0F0FC70BD70B58AB0044614B9012073
:1048A0000AB070BD266894F8BD0328B9002084F8CA
:1048B000BC03204600F0A8F8032084F8BD03F06B89
:1048C00000F4807008B900212161206806F05EFBC9
:1048D000282204F110016846FBF7A7FD94E80F00B9
:1048E00006F02CF920B1022084F8BD030120D7E79F
:1048F0000021206806F069FF002531E00121C5EBA9
:10490000C50204F13C0000EB82004170C5EBC5011B
:1049100004F13C0000F82150C5EBC50100EB81001B
:10492000C5800021C5EBC50204F13C0000EB82000C
:10493000C170C5EBC50204F13C0000EB8200816050
:10494000C5EBC50204F13C0000EB8200C160C5EB81
:10495000C50204F13C0000EB82004161681CC5B255
:104960006068A842CAD800252AE00021C5EBC5022C
:1049700004F5FE7000EB82004170C5EBC50104F543
:10498000FE7000F821500021C5EBC50200EB82004B
:10499000C170C5EBC50204F5FE7000EB82008160BA
:1049A000C5EBC50204F5FE7000EB8200C160C5EBEB
:1049B000C50204F5FE7000EB82004161681CC5B2BF
:1049C0006068A842D1D8282204F110016846FBF79C
:1049D0002CFD94E80F0006F0EDF920B1022084F8D8
:1049E000BD0301205CE7002084F83800012084F832
:1049F000BD03606A012802D12046FFF799FA2068BA
:104A000006F0C6F900204BE710B5AEB00446B4215D
:104A100001A8FBF723FD1D492068884233D14FF4DC
:104A2000802001904FF44010219001A800F038FB45
:104A300008B1FCF7AEF900F0E7F800BF14480068D1
:104A400040F00070124908600846006800F00070ED
:104A5000009000BF00BF002205214A20FFF716FA90
:104A60004A20FFF7FFF9002205214B20FFF70EFA3D
:104A70004B20FFF7F7F9002205214D20FFF706FA3A
:104A80004D20FFF7EFF92EB010BD000000000440EC
:104A9000D844025870B504460125E06808B90025DD
:104AA00006E0E068022801D1012501E0FCF771F978
:104AB0002946D4F8040405F07CFCD4F8040405F07D
:104AC00021FC70BD10B50446D4F8040405F050FC78
:104AD00010BD10B50446D4F8040405F054FC10BD14
:104AE00070B504460D4600BF94F8BC03012801D1FF
:104AF000022070BD012084F8BC0300BF84F8385048
:104B00002946206806F07CFE00BF002084F8BC0324
:104B100000BF00BFEDE710B5044604F57171D4F88D
:104B2000040405F05DFC10BD70B50446256800BFA7
:104B300094F8BC03012801D1022070BD012084F843
:104B4000BC0300BFA06A012806D1A069012803D0D8
:104B5000A86B40F48030A863206806F079FD2068D7
:104B600006F004F900BF002084F8BC0300BF00BFBA
:104B7000E3E7000010B50446D4F8040405F08DFC0A
:104B80002068D0F8000E40F001002168C1F8000E46
:104B9000206A28B10348006840F006000149086017
:104BA00010BD000010ED00E070B504461548006827
:104BB000C0F3800048B91348006800F00700A04225
:104BC00001D0012070BD0020FCE70E48006820F0F5
:104BD000070020430B490860FFF73CF8054607E053
:104BE000FFF738F8401BB0F57A7F01D90120E9E7DB
:104BF000044808380068C0F340300028F0D0002096
:104C0000E0E700000C4802580348006840F080705C
:104C100001490860704700000C48025810B501F0C7
:104C20007BF905490968C1F30211044A515C01F09E
:104C30001F01C84010BD000020440258E8DC0008F5
:104C400070B50146844D2D6805F00303824D2D6833
:104C5000C5F30530804D2D1D2D68C5F300147E4D24
:104C600014352D68C5F3CC0515FB04F501EE105A7B
:104C7000B8EE411AF0EE410A00286FD023B1012BA3
:104C80004ED0022B6BD16BE0734D283D2D68C5F3E0
:104C900040153DB3704D283D2D68C5F3C1066F4DDD
:104CA00025FA06F201EE102AF8EE411A01EE100A7A
:104CB000B8EE411A81EE812A9FED691AC0EE811A81
:104CC000654D10352D68C5F3080501EE105AB8EE94
:104CD000411A31EE811AF7EE001A31EE211A22EE56
:104CE000010A1CE001EE100AB8EE411ADFED5D1A70
:104CF00081EE812A9FED5A1AC0EE811A564D103569
:104D00002D68C5F3080501EE105AB8EE411A31EED0
:104D1000811AF7EE001A31EE211A22EE010A5BE049
:104D200001EE100AB8EE411ADFED4F1A81EE812A2A
:104D30009FED4B1AC0EE811A474D10352D68C5F313
:104D4000080501EE105AB8EE411A31EE811AF7EE5D
:104D5000001A31EE211A22EE010A3DE077E01DE053
:104D600001EE100AB8EE411A9FED402AC2EE011A78
:104D70009FED3B1A80EE812A374D10352D68C5F323
:104D8000080501EE105AB8EE411A32EE011AB7EEDC
:104D9000002A31EE021A21EE810A1DE001EE100A0E
:104DA000B8EE411ADFED301A81EE812A9FED2C1A00
:104DB000C0EE811A284D10352D68C5F3080501EEA7
:104DC000105AB8EE411A31EE811AF7EE001A31EEA0
:104DD000211A22EE010A00BF00BF1F4D10352D68B9
:104DE000C5F3462501EE105AB8EE411AF7EE001A47
:104DF00031EE211AC0EE011ABCEEE11A81ED001A63
:104E0000154D10352D68C5F3064501EE105AB8EE64
:104E1000411AF7EE001A31EE211AC0EE011ABCEE6B
:104E2000E11A81ED011A0C4D10352D68C5F30665A8
:104E300001EE105AB8EE411AF7EE001A31EE211ABF
:104E4000C0EE011ABCEEE11A81ED021A03E0002562
:104E50000D604D608D6070BD284402580090D003F5
:104E6000000000460024744C0024744A0024744B53
:104E700070B50146844D2D6805F00303824D2D6801
:104E8000C5F30550804D2D1D2D68C5F300247E4DC2
:104E90001C352D68C5F3CC0515FB04F501EE105A41
:104EA000B8EE411AF0EE410A00286FD023B1012B71
:104EB0004ED0022B6BD16BE0734D283D2D68C5F3AE
:104EC00040153DB3704D283D2D68C5F3C1066F4DAB
:104ED00025FA06F201EE102AF8EE411A01EE100A48
:104EE000B8EE411A81EE812A9FED691AC0EE811A4F
:104EF000654D18352D68C5F3080501EE105AB8EE5A
:104F0000411A31EE811AF7EE001A31EE211A22EE23
:104F1000010A1CE001EE100AB8EE411ADFED5D1A3D
:104F200081EE812A9FED5A1AC0EE811A564D18352E
:104F30002D68C5F3080501EE105AB8EE411A31EE9E
:104F4000811AF7EE001A31EE211A22EE010A5BE017
:104F500001EE100AB8EE411ADFED4F1A81EE812AF8
:104F60009FED4B1AC0EE811A474D18352D68C5F3D9
:104F7000080501EE105AB8EE411A31EE811AF7EE2B
:104F8000001A31EE211A22EE010A3DE077E01DE021
:104F900001EE100AB8EE411A9FED402AC2EE011A46
:104FA0009FED3B1A80EE812A374D18352D68C5F3E9
:104FB000080501EE105AB8EE411A32EE011AB7EEAA
:104FC000002A31EE021A21EE810A1DE001EE100ADC
:104FD000B8EE411ADFED301A81EE812A9FED2C1ACE
:104FE000C0EE811A284D18352D68C5F3080501EE6D
:104FF000105AB8EE411A31EE811AF7EE001A31EE6E
:10500000211A22EE010A00BF00BF1F4D18352D687E
:10501000C5F3462501EE105AB8EE411AF7EE001A14
:1050200031EE211AC0EE011ABCEEE11A81ED001A30
:10503000154D18352D68C5F3064501EE105AB8EE2A
:10504000411AF7EE001A31EE211AC0EE011ABCEE39
:10505000E11A81ED011A0C4D18352D68C5F306656E
:1050600001EE105AB8EE411AF7EE001A31EE211A8D
:10507000C0EE011ABCEEE11A81ED021A03E0002530
:105080000D604D608D6070BD284402580090D003C3
:10509000000000460024744C0024744A0024744B21
:1050A0002DE9F04104460025A846206800F0006084
:1050B000B0F1006F30D1206E48B1B0F5801F0DD037
:1050C000B0F5001F10D0B0F5401F15D113E0F74820
:1050D000006840F40030F54908600FE00221201D0F
:1050E00003F0BCF8054609E0022104F1240003F0B6
:1050F00067F9054602E001E0012500BF00BF55B990
:10510000EA482430006820F44010216E0843E74943
:105110002431086000E0A846208800F48070B0F5D3
:10512000807F2DD1606D05281AD2DFE800F0030AD8
:1051300010171800DD48006840F40030DB490860B3
:1051400010E00021201D03F089F805460AE0002147
:1051500004F1240003F034F9054603E002E001E025
:10516000012500BF00BF55B9D0482430006820F0A9
:105170000700616D0843CD492431086000E0A8466E
:10518000208800F48060B0F5806F3CD1D4F8A00096
:10519000B0F5C00F23D007DC68B1B0F5001F11D007
:1051A000B0F5800F1ED113E0B0F5000F18D0B0F5A8
:1051B000200F17D115E0BD48006840F40030BB490E
:1051C000086011E00021201D03F048F805460BE0BF
:1051D000002104F1240003F0F3F8054604E003E0A5
:1051E00002E001E0012500BF00BF5DB9AF482C30EF
:1051F000006820F46000D4F8A0100843AB492C31BB
:10520000086000E0A846208800F40060B0F5006F58
:105210003CD1D4F8A400B0F1407F23D007DC68B1C2
:10522000B0F1807F11D0B0F1007F1ED113E0B0F15A
:10523000806F18D0B0F1A06F17D115E09B480068BF
:1052400040F400309949086011E00021201D03F06E
:1052500005F805460BE0002104F1240003F0B0F846
:10526000054604E003E002E001E0012500BF00BFC5
:105270005DB98E482C30006820F0E060D4F8A410AE
:1052800008438A492C31086000E0A846206800F0F5
:105290000070B0F1007F27D1A06CA0B1102804D01D
:1052A000202809D030280FD10CE08048006840F455
:1052B00000307E49086009E00221201D02F0CEFF87
:1052C000054603E002E001E0012500BF00BF55B93B
:1052D00076482030006820F03000A16C0843734904
:1052E0002031086000E0A846208800F48050B0F526
:1052F000805F36D1A06DB0F5005F19D004DC50B1ED
:10530000B0F5805F1DD10DE0B0F5405F17D0B0F56E
:10531000804F16D114E06548006840F400306349BE
:10532000086010E00021201D02F098FF05460AE009
:10533000002104F1240003F043F8054603E002E0F5
:1053400001E0012500BF00BF55B95848243000686E
:1053500020F4E040A16D084354492431086000E086
:10536000A846208800F40050B0F5005F34D1E06D0D
:10537000B0F5403F1DD007DC68B1B0F5803F0BD0E1
:10538000B0F5003F18D10DE0B0F5802F12D0B0F588
:10539000A02F11D10FE011E00121201D02F05EFFCE
:1053A00005460BE0012104F1240003F009F805464D
:1053B00004E003E002E001E0012500BF00BF55B9B1
:1053C0003A482430006820F4E020E16D0843374972
:1053D0002431086000E0A846208800F48040B0F541
:1053E000804F36D1D4F8A800B0F1405F1DD007DC63
:1053F00068B1B0F1805F0BD0B0F1005F18D10DE063
:10540000B0F1804F12D0B0F1A04F11D10FE011E0F8
:105410000121201D02F022FF05460BE0012104F1CD
:10542000240002F0CDFF054604E003E002E001E0C5
:10543000012500BF00BF5DB91C482C30006820F07A
:10544000E040D4F8A810084318492C31086000E067
:10545000A846208800F40040B0F5004F29D1A06E86
:1054600098B1B0F1805F03D0B0F1005F0ED106E0DB
:105470000E48006840F400300C49086008E0012143
:10548000201D02F0EBFE054602E001E0012500BF11
:1054900000BF6DB905482430006820F04050A16E6F
:1054A000084302492431086003E000002C440258FC
:1054B000A846206800F08070B0F1807F27D1606C32
:1054C000A0B1012804D0022809D003280FD10CE094
:1054D000FE48006840F40030FC49086009E0022101
:1054E000201D02F0BBFE054603E002E001E00125BD
:1054F00000BF00BF55B9F5482030006820F0030018
:10550000616C0843F1492031086000E0A84620683A
:1055100000F48000B0F5800F7DD1ED48006840F4C4
:105520008070EB490860FEF795FB064606E0FEF743
:1055300091FB801B642801D9032505E0E44800683D
:1055400000F480700028F2D000BF85BBDF484430F3
:10555000006800F44070B4F8AC1001F44071884267
:1055600013D0DA484430006820F44077D7484430FC
:10557000006840F48030D54944310860084600682E
:1055800020F48030086008460760D4F8AC00B0F51D
:10559000807F15D1FEF75EFB064609E0FEF75AFB59
:1055A000801B41F28831884202D9032507E035E0AB
:1055B000C64844300068C0F340000028EED000BF69
:1055C00055BB00BFB4F8AC0000F44070B0F5407FAC
:1055D0000ED1BE481C38006820F47C51BD4AD4F876
:1055E000AC00104041EA1010B8491C39086007E0CF
:1055F000B6481C38006820F47C50B4491C39086057
:10560000B24844300068B4F8AC10C1F30B01084351
:10561000AE494431086002E0A84600E0A846207880
:1056200000F0010068B3606F182819D005DC48B19C
:10563000082808D0102816D10BE0202811D02828DF
:1056400011D10FE011E00121201D02F007FE0546F7
:105650000BE0012104F1240002F0B2FE054604E053
:1056600003E002E001E0012500BF00BF55B9974803
:105670002830006820F03800616F084393492831D2
:10568000086000E0A846207800F00200022828D137
:10569000206F062815D2DFE800F003040A11121368
:1056A00011E00121201D02F0D9FD05460BE001218A
:1056B00004F1240002F084FE054604E003E002E069
:1056C00001E0012500BF00BF55B9804828300068BF
:1056D00020F00700216F08437C492831086000E072
:1056E000A846207800F0040004282AD1D4F88C00C1
:1056F000062815D2DFE800F003040A11121311E0A6
:105700000121201D02F0AAFD05460BE0012104F154
:10571000240002F055FE054604E003E002E001E04B
:10572000012500BF00BF5DB968482C30006820F03B
:105730000700D4F88C10084364492C31086000E05D
:10574000A846207800F02000202836D1D4F8880020
:10575000B0F1405F1DD007DC68B1B0F1805F0BD0C5
:10576000B0F1005F18D10DE0B0F1804F12D0B0F170
:10577000A04F11D10FE011E00021201D02F06EFDBD
:1057800005460BE0022104F1240002F019FE054653
:1057900004E003E002E001E0012500BF00BF5DB9C5
:1057A0004A482830006820F0E040D4F888100843C8
:1057B00046492831086000E0A846207800F0400003
:1057C000402836D1D4F89400B0F5406F1DD007DCE6
:1057D00068B1B0F5806F0BD0B0F5006F18D10DE057
:1057E000B0F5805F12D0B0F5A05F11D10FE011E0ED
:1057F0000021201D02F032FD05460BE0022104F1DC
:10580000240002F0DDFD054604E003E002E001E0D3
:10581000012500BF00BF5DB92C482C30006820F482
:10582000E050D4F89410084328492C31086000E077
:10583000A846207800F08000802836D1D4F898005F
:10584000B0F5C04F1DD007DC68B1B0F5005F0BD0DC
:10585000B0F5804F18D10DE0B0F5004F12D0B0F583
:10586000204F11D10FE011E00021201D02F0F6FCC5
:1058700005460BE0022104F1240002F0A1FD0546DB
:1058800004E003E002E001E0012500BF00BF5DB9D4
:105890000E482C30006820F46040D4F8981008437B
:1058A0000A492C31086000E0A846207800F0080082
:1058B00008281BD1E06FB0F5805F0FD1022104F101
:1058C000240002F07DFD48B106E000002C4402589F
:1058D00000480258FFFCFF0F4FF00108A448006881
:1058E00020F44050E16F0843A1490860207800F09F
:1058F0001000102817D1D4F89000B0F5807F07D1A0
:10590000022104F1240002F05BFD08B14FF0010810
:105910009748001D006820F44070D4F890100843A8
:105920009349091D0860206800F40020B0F5002F9D
:1059300028D1D4F89C0030B1B0F5803F09D0B0F543
:10594000003F0ED10CE00021201D02F087FC05462F
:1059500009E0022104F1240002F032FD054602E0D4
:1059600001E0012500BF00BF5DB98148001D00684E
:1059700020F44030D4F89C1008437D49091D08608C
:1059800000E0A846206800F48020B0F5802F2BD1DD
:10599000D4F88000B0F5801F06D0B0F5001F0CD001
:1059A000B0F5401F11D10FE071482838006840F46D
:1059B00000306F492839086009E0012104F1240012
:1059C00002F0FEFC054602E001E0012500BF00BF39
:1059D0004DB96748006820F44010D4F8801008439F
:1059E0006349086000E0A846206800F48030B0F504
:1059F000803F24D1E06C18B1B0F5803F0FD108E0B2
:105A00005B482838006840F400305949283908605C
:105A100007E00221201D02F021FC054601E00125DE
:105A200000BF00BF55B952480838006820F48030E4
:105A3000E16C08434E490839086000E0A846206838
:105A400000F00050B0F1005F07D1022104F1240002
:105A500002F0B6FC08B14FF00108206800F40030F5
:105A6000B0F5003F25D1A06FA0B1B0F5807F06D082
:105A7000B0F5007F0CD0B0F5407F0CD109E03C4878
:105A80002838006840F4003039492839086004E0BB
:105A900003E002E001E0012500BF00BF45B9344842
:105AA000006820F44070A16F08433149086000E0AD
:105AB000A846206800F48010B0F5801F09D12C485A
:105AC000001F006820F00040E16E08432849091FCC
:105AD0000860206800F40010B0F5001F09D12448C8
