:020000040800F2
:10000000A0AB0024A50300088B9E00087196000891
:10001000899E0008FD10000839D500080000000086
:10002000000000000000000000000000E5020008E1
:1000300055160008000000004103000881A40008D4
:10004000BF030008BF030008BF030008BF03000888
:10005000BF030008BF030008BF030008BF03000878
:10006000BF030008BF030008BF0300084D110008CC
:100070005911000865110008711100087D11000870
:100080008911000895110008BF0300085D160008DB
:1000900069160008BF030008BF030008BF0300087B
:1000A000BF03000815A60008BF030008BF0300082F
:1000B00021A60008BF030008BF030008BF03000813
:1000C000BF030008BF030008BF030008BF03000808
:1000D000BF030008B1B90008C9B90008E1B90008B8
:1000E000BF030008BF03000800000000BF030008B2
:1000F000BF030008BF030008BF030008A1110008E8
:10010000BF030008BF030008BF030008BF030008C7
:10011000BF030008BF030008BF030008BF030008B7
:10012000AD110008B9110008BF030008BF030008A3
:10013000BF030008BF030008BF030008BF03000897
:1001400000000000000000000000000000000000AF
:10015000BF030008BF030008BF030008F9B9000887
:10016000BF030008BF0300089D9E0008919E000881
:10017000BF030008A99E0008BF030008000000009C
:10018000BF030008BF030008BF030008BF03000847
:10019000BF030008BF030008BF030008BF03000837
:1001A000BF030008BF030008BF03000800000000F1
:1001B000BF030008BF030008BF030008BF03000817
:1001C000BF030008BF03000800000000000000009B
:1001D0000000000000000000BF0300080000000055
:1001E000000000000000000000000000000000000F
:1001F0000000000000000000BF030008BF0300086B
:10020000BF030008BF03000800000000BF03000890
:10021000BF030008BF030008BF030008BF030008B6
:10022000BF03000800000000BF030008000000003A
:10023000BF030008BF03000800000000BF03000860
:10024000BF030008BF030008BF030008BF03000886
:10025000BF030008BF030008BF030008BF03000876
:10026000BF030008BF030008BF030008BF03000866
:10027000BF030008BF030008BF0300080000000020
:10028000BF030008BF030008BF030008BF03000846
:1002900000000000BF030008BF03000800000000CA
:1002A00000000000BF030008BF030008BF030008F0
:1002B00099B90008BF030008BF03000875160008BD
:1002C000BF030008BF030008BF030008DFF810D019
:1002D00000F0BEFA00480047ED0F0108AFF30080C0
:1002E000A0AB00242C4B19680868B0E8F04F80F3ED
:1002F0000988BFF36F8F4FF0000080F311887047BB
:100300000000000008480068006880F308884FF08B
:10031000000080F3148862B661B6BFF34F8FBFF35D
:100320006F8F00DF00BF00BF08ED00E0DFF80C00BA
:10033000016841F470010160704700BF88ED00E082
:10034000EFF30980BFF36F8F134B1A681EF0100F85
:1003500008BF20ED108A20E9F04F106009B44FF07B
:10036000500080F31188BFF34F8FBFF36F8F12F0EF
:10037000BBF94FF0000080F3118809BC19680868C8
:10038000B0E8F04F1EF0100F08BFB0EC108A80F3F9
:100390000988BFF36F8F704784040024EFF3058052
:1003A000704700000648804706480047FEE7FEE722
:1003B000FEE7FEE7FEE7FEE7FEE7FEE7FEE7FEE715
:1003C0004DA50008CD0200082DE9F05F054600208C
:1003D00092469B4688460646814640241BE02846B6
:1003E00041464746224600F069F853465A46C01A2D
:1003F000914110D311461846224600F050F82D1AAC
:1004000067EB01084F4622460120002100F047F823
:1004100017EB00094E41201EA4F10104DFDC484621
:1004200031462A464346BDE8F09F40EA01039B0758
:1004300003D009E008C9121F08C0042AFAD203E059
:1004400011F8013B00F8013B521EF9D27047D2B2BD
:1004500001E000F8012B491EFBD270470022F6E7AD
:1004600010B513460A4604461946FFF7F0FF20462A
:1004700010BD30B50B46014600202022012409E0C2
:1004800021FA02F59D4205D303FA02F5491B04FA4D
:1004900002F52844151EA2F10102F1DC30BD202A2C
:1004A00004DB203A00FA02F1002070479140C2F1CB
:1004B000200320FA03F3194390407047202A04DBFD
:1004C000203A21FA02F00021704721FA02F3D040CD
:1004D000C2F1200291400843194670472DE9FE4FB2
:1004E000804681EA0300C00F0C46009021F00041D5
:1004F00023F00045B8EB0200A94105D24046214651
:1005000090461C460B46024623F00040104347D05D
:10051000270DC7F30A00C3F30A510290401A019055
:1005200040286BDAC3F3130040F4801B0098924616
:1005300020B10023D2EB030A63EB0B0B0198594661
:10054000C0F140025046FFF7AAFF06460D4650464E
:100550005946019A00F08EF910EB08006141002421
:1005600087EA115284EAE7731A4340D0009A62B3D3
:10057000019A012A4FEA075215DC001B61EB0201C8
:100580004FF0004202EA0752CDE90042001C41F55B
:10059000801132462B4600F08EF903B0BDE8F08F93
:1005A00040462146F9E7001B61EB0201001C41F5C2
:1005B000801300185B412018A2F5001747EB0301D8
:1005C00040EAD570B6196D4111E06D084FEA360664
:1005D00045EAC0754FEA0752001B61EB0201001C9F
:1005E00041F5801149084FEA300000195141324667
:1005F0002B4603B0BDE8F04F00F04EB90098012241
:1006000040000023D0EB020263EBE0730098214628
:100610004FEAE074B8EB000061EB0401E9E783F016
:1006200000435BE781F0004158E72DE9FE4F81EA86
:10063000030404F0004421F0004100944FF0000B4B
:1006400023F0004350EA01045ED052EA03045BD079
:10065000C3F30A54C1F30A552C44A4F2F3340194B1
:10066000A0FB0254C1F3130141F48011C3F313033F
:1006700043F4801301FB024400FB034E840A970AF3
:1006800044EA815447EA8357A4FB076802958D0A20
:1006900005FB07854FEA932C04FB0C542705029DAC
:1006A0004FEA065847EA1637B5EB08056EEB070C1C
:1006B000870E920E47EA811742EA8312A7FB0201D6
:1006C000B6EB0B0164EB00042B0D43EA0C335E1810
:1006D00044EB1C50DA465146E7FB0201C5F3130414
:1006E0004FEA0B3343EA14534FEA0432019C43EAC6
:1006F0000603A4F10C040294009CCDE900B400F0C0
:10070000DAF803B0BDE8F08F00200146F9E72DE9E3
:10071000F04D81EA030404F0004B21F0004514463B
:100720004FF0000A23F0004150EA050220D054EABD
:1007300001021DD0C5F30A570246C5F31303C1F3E6
:100740001300C1F30A5640F4801543F48013A7EB5D
:100750000608101BD64608F2FD3873EB050002D3DD
:1007600008F1010801E092185B41B8F1000F03DACB
:1007700000200146BDE8F08D00204FF480110646B0
:1007800084460EE0171B73EB050705D3121B63EBC2
:10079000050306434CEA010C49084FEA3000921861
:1007A0005B4150EA0107EDD152EA030012D082EA20
:1007B000040083EA0501084305D0101BAB4106D2B3
:1007C0000122002306E000224FF0004302E06FF018
:1007D000010253101AEB06004CEB085110EB0A0013
:1007E00041EB0B01BDE8F04D00F056B8C1F30A52E1
:1007F000C1F3130140F2FF3341F480119A4202DA4F
:1008000000200146704740F233439A42A2F233423D
:1008100002DC5242FFF752BEFFF741BE30B5041E64
:1008200071F1000404DB4FF00044404264EB01012D
:10083000141E73F1000405DB1C464FF000435242C6
:1008400063EB0403994208BF904230BD002070471B
:10085000064C074D06E0E06840F0010394E807000D
:1008600098471034AC42F6D3FFF734FD2055010809
:1008700040550108202A06DBCB17203A41FA02F046
:1008800043EAE07306E041FA02F3D040C2F12002ED
:10089000914008431946704710B5141E73F10004C7
:1008A00008DA401C41F1000192185B411A4301D162
:1008B00020F0010010BD2DE9F04D92469B4611B18C
:1008C000B1FA81F202E0B0FA80F220329046FFF7EE
:1008D000E6FD04460F4640EA0A0041EA0B01534692
:1008E0005A46084313D0114653EA010019D0C8F103
:1008F00040025046FFF7E2FD05460E465046594677
:100900004246FFF7CCFD084305D0012004E0204615
:100910003946BDE8F08D0020054346EAE0762C43D9
:1009200037430A986305E40AA0EB08000022FD0A99
:1009300044EA47540A3002D500200146E9E70105A0
:1009400010196941DDE9084500196941BDE8F04D1C
:10095000A2E770B58C1810F8015B15F0070301D100
:1009600010F8013B2A1106D110F8012B03E010F812
:10097000016B01F8016B5B1EF9D12B0705D4002335
:10098000521E0DD401F8013BFAE710F8013BCB1AD7
:10099000921C03E013F8015B01F8015B521EF9D5CC
:1009A000A142D8D3002070BD9FED201AB5EE002AD9
:1009B00000EE012A9FED1E1ABDEEC20AB5EEC02A56
:1009C000F1EE10FA10EE100AB8BF013800EE100A6E
:1009D0000020B8EEC00A32EE400A9FED162A20EE43
:1009E000010ABCEEC01A11EE101A30EE021AB0EB7A
:1009F000512F18BF002102EE101A44F61C5000FEC1
:100A0000010AC0F60100B8EE422A00EB810090ED29
:100A1000011A30EE420AB7EE002A32EE402A20EEEA
:100A2000010A90ED001A02EE010A704783F9223E96
:100A300000000044000000C4B0B503880D88AB423C
:100A400056D145884C88A54252D11488A3424FD133
:100A50005488A5424CD105FB03FC43680025496836
:100A6000B5EB9C0F506831D04FEA9C02524200BF58
:100A700093ED000A91ED001A30EE010A03F1100E19
:100A800001F1100400F1100580ED000A013293ED30
:100A9000010A91ED011A30EE010A80ED010A93ED91
:100AA000020A91ED021A30EE010A80ED020A93ED7E
:100AB000030A91ED031A30EE010A7346214680EDD8
:100AC000030A2846D4D12146284673461CF0030267
:100AD0000CD05242B3EC010AB1EC011A30EE010A1B
:100AE000051D013280ED000A2846F3D1002000E008
:100AF000FD2040B2B0BD01804280436070470000DD
:100B00002DE9F04F8BB0B0F800B0B0F802E0F3453B
:100B100040F051810B88FD229B4540F04D814F886C
:100B2000BB4240F04981BBF1000F436800F02981CE
:100B30006FF003004C6800EB8B08CDF81CE0002739
:100B400000934FF07E5906945E462046BBEB0600AC
:100B500009D0B9002046FFF781FC00200130874210
:100B600004F10404FAD104F1040AC4F80090751EDB
:100B700010D0A8EB87015046FFF770FC01205446C7
:100B80000130864204F10404FAD1002D07F1010777
:100B90002E46DBD1BBF1000F009BDDF81CE000F01E
:100BA000F0800420CDF814B000EB8E0001901846C0
:100BB000ABF1010603EB8E044FEA8E021D1DCEF150
:100BC0000001002308919FED800A7746814600BF0F
:100BD0005B4580F0F58003FB0EF0B0EE403A09EB88
:100BE00080010A9191ED001A0699B0EE414A01EB9D
:100BF000800009902146304606E000BF91ED004A92
:100C00000138B0EE423A1144B5EEC04AF1EE10FAA6
:100C10000ADDB4EEC34AB0EE442AF1EE10FAD8BFB2
:100C2000B0EE432A09E000BFB1EE442AB4EEC23A66
:100C3000F1EE10FA01DBB0EE432A0028DED1B5EE6A
:100C4000402AF1EE10FA00F0BB80B0EEC13AB4EEEB
:100C5000423AF1EE10FA1CBFD84310EB0B0004D05F
:100C6000002000BF01308642FCD1B5EE401AF1EE03
:100C700010FA00F0A580CDE90346AEEB030C0A990B
:100C8000BCF1010F4FF07E5008600AD001202946C8
:100C900091ED002A82EE012A01308742A1EC012A5F
:100CA000F6D1DDE9080100BF91ED002A82EE012AAC
:100CB0000C1D013081ED002A2146F5D1ACF1010B6C
:100CC00005994FF00008DDF818A04846CDF80890C7
:100CD000984505D100EB8C060AEB8E0A33E000BF85
:100CE00090ED001A0A9CB0EE413ABBF1000F94ED72
:100CF000002A01EE423A00F1040680ED003A15D0D8
:100D00000120002406EB040905EB040E99ED002AEE
:100D10009EED003A01EE432A0130874204F10404BB
:100D200089ED002AEED12644DDF81CE0DDE9080457
:100D30009AED002A94ED003A01EE432A0434013082
:100D4000AAEC012AF4D106EB8300013908F101086D
:100D5000BED1DDF80890013F049E09F10409039C0F
:100D600003F101030198A6F101060444DDF814B073
:100D700005447FF42DAFB5EE401A009BF1EE10FA5A
:100D800020D10EFB0BF1002000294FF000020BD008
:100D900093ED000AB5EE400AF1EE10FA04D10132EB
:100DA0008A4203F10403F3D38A4208BF6FF00400C0
:100DB0000BB0BDE8F08FFD2250B20BB0BDE8F08F54
:100DC000FB22F9E70022F7E7000000002DE9F04FD1
:100DD00088B0B0F802C00B889C4540F08880B0F81D
:100DE00000E013889E4540F08280B1F8029053885D
:100DF00099457CD14FEA9C04476804FB09F0496897
:100E00000CF00305029101EB0010019000202CF082
:100E10000303A0EB9C0107EB830607914FEA8903CC
:100E20005168C5F1000A00919FED330ACDE9039C9A
:100E3000CDE9050E0099CE4601EB8008DDE901BC45
:100E4000002CB0EE401AE146384627D0624607999A
:100E50003846B0EE401A00BF92ED002A90ED003AFD
:100E600003EE021A1A4490ED014A92ED002A04EEB4
:100E7000021A1A4490ED025A92ED002A05EE021A67
:100E80001A4490ED036A92ED002A06EE021A01312F
:100E900000F110001A44DFD1D946304655B1514611
:100EA00090ED002A99ED003A02EE031A0430013168
:100EB0009944F5D108F1040088ED001ABEF1010E45
:100EC0000CF1040C0BF1040B8046B9D1DDF80C9049
:100ED0000598DDF810C04844DDF818E007EB8C07F2
:100EE000BEF1010E06EB8C06A2D1002000E0FD2031
:100EF00040B208B0BDE8F08F00000000B0B5038834
:100F00000D88AB4256D145884C88A54252D11488F1
:100F1000A3424FD15488A5424CD105FB03FC436842
:100F200000254968B5EB9C0F506831D04FEA9C0210
:100F3000524200BF93ED000A91ED001A30EE410AD3
:100F400003F1100E01F1100400F1100580ED000A0C
:100F5000013293ED010A91ED011A30EE410A80ED64
:100F6000010A93ED020A91ED021A30EE410A80ED7A
:100F7000020A93ED030A91ED031A30EE410A73461B
:100F8000214680ED030A2846D4D1214628467346DF
:100F90001CF003020CD05242B3EC010AB1EC011A6E
:100FA00030EE410A051D013280ED000A2846F3D1DA
:100FB000002000E0FD2040B2B0BD00002DE9F04F60
:100FC00083B002884B889A424DD144880B889C425A
:100FD00049D10023D1F804804FEA940C416804F011
:100FE000030ECDF80080A3EB940402941401960044
:100FF0000194CEF1000B4046BCF1000F1ED04746D5
:10100000029C00BF08683D4638603744486807EBDB
:101010000609A85101F11000D1F808A0013447F8E1
:1010200006A009EB0607C968374449F806100146CF
:10103000E8D101996C18014603E000BF009800EB6D
:101040008304BEF1000F07D05D4600BF51F8040BCA
:10105000013520603444F9D10133013A08F1040824
:10106000CAD1002000E0FD2040B203B0BDE8F08FFF
:101070009FED1F1A20EE010A9FED1F2ABDEEC01A38
:10108000B5EEC00AF1EE10FA11EE100AB8BF013841
:1010900001EE100A0020B8EEC11A30EE410A9FEDB1
:1010A000151A20EE010ABCEEC01A11EE101A30EE2D
:1010B000021AB0EB512F18BF002102EE101A44F6AD
:1010C0001C5000FE010AC0F60100B8EE422A00EBF7
:1010D000810090ED011A30EE420AB7EE002A32EE9E
:1010E000402A20EE010A90ED001A02EE010A704734
:1010F00083F9223E00000044000000C4FEE70428FB
:101100004FF00000704700207047000010B50549FF
:10111000002205480AF0A6FD044903480AF098FD9C
:10112000002010BD80200024B0170024801C002463
:1011300010B5014603480AF08BFD02480AF067FD2E
:10114000002010BDB017002400207047014800F0B7
:10115000D9BE0000A4130024014800F0D3BE000053
:101160001C140024014800F0CDBE0000B41200247D
:10117000014800F0C7BE00002C130024014800F015
:10118000C1BE000084150024014800F0BBBE000071
:1011900094140024014800F0B5BE00000C15002492
:1011A000014800F0AFBE0000FC150024014800F02B
:1011B000A9BE000074160024014800F0A3BE000080
:1011C000EC16002410B52C4A016891423AD02A4A04
:1011D0001832914236D0284A3032914232D0264AD3
:1011E000483291422ED0244A603291422AD0224A7B
:1011F0007832914226D0204A9032914222D01E4A23
:10120000A83291421ED01D4A91421BD01B4A18326F
:10121000914217D0194A3032914213D0174A4832BE
:1012200091420FD0154A603291420BD0134A783266
:10123000914207D0114A9032914203D00F4AA8320E
:10124000914214D1CAB2103A1823B2FBF3F20C4CFB
:1012500002F00703E35CC365032A04D96FF30901B5
:10126000091D816506E06FF30901816502E021F047
:10127000FF018165806D10BD100002401004024026
:10128000F04A010810B501680123224CCAB2A142FC
:101290001BD0204C1434A14217D01E4C2834A1423C
:1012A00013D01C4C3C34A1420FD01A4C5034A142F4
:1012B0000BD0184C6434A14207D0164C7834A142AC
:1012C00003D0144C8C34A1420FD1083A1421B2FB44
:1012D000F1F1114A02EB810202660F4A8032426646
:1012E00001F01F018B40836610BD103A1824B2FB39
:1012F000F4F20A4C2144A82900D80832084901EB2D
:101300008201016606498031416602F01F018B406F
:10131000836610BD0854025800580258F0FBFDBF08
:10132000000802400279521E072A31D8194B016881
:1013300099421BD0174B1433994217D0154B2833C1
:10134000994213D0134B3C3399420FD0114B503379
:1013500099420BD00F4B6433994207D00D4B783331
:10136000994203D00B4B8C33994207D10A4901EBC8
:101370008201C16608494031016706E0074901EB77
:101380008201C166054940310167012191404167F1
:1013900070470000085402580059025800090240E2
:1013A000014610B500208B694FF0C0748A6A002B8B
:1013B0000ED0B3F5005F1AD062B3012A2AD0022AF8
:1013C00028D0032A03D1C96AC90100D5012010BD64
:1013D0001AB1012A06D0022AF9D1C96AC901F6D583
:1013E000012010BDC96AA142FBD1012010BD52B13C
:1013F000012A0AD0022A06D0032AF7D1C96AA142DB
:10140000F4D1012010BD012010BDC96AC901FBD56E
:10141000012010BD012010BD2DE9F04F856D8A4ED1
:10142000894FDFF824C2A836DFF81C82DFF8189253
:101430000CF1180CDFF810A208F13008DFF808B240
:1014400009F1480904680AF1600A0BF1780BBC4203
:101450006DD064456BD0444569D04C4567D0544548
:1014600065D05C4563D0DFF8E0E10EF1900E744585
:101470005DD0B4425BD0DFF8D4E1744557D0DFF8DB
:10148000CCE10EF1180E744551D0DFF8C0E10EF139
:10149000300E74454BD0DFF8B4E10EF1480E7445C0
:1014A00045D0DFF8A8E10EF1600E74453FD0DFF8BB
:1014B0009CE10EF1780E744539D0DFF890E10EF121
:1014C000900E744533D0DFF884E10EF1A80E744518
:1014D0002DD0DFF87CE1744529D0DFF874E10EF1FE
:1014E000140E744523D0DFF868E10EF1280E744520
:1014F0001DD0DFF85CE10EF13C0E744517D0DFF82B
:1015000050E10EF1500E744511D0DFF844E10EF1B8
:10151000640E74450BD0DFF838E10EF1780E744597
:1015200005D0DFF82CE10EF18C0E744509D1D0E91D
:1015300019E4CEF80440C46E1CB1D0E91CE4CEF826
:1015400004400468BC422ED064452CD044452AD0C7
:101550004C4528D0544526D05C4524D03A4F90378E
:10156000BC4220D0B4421ED0384EB4421BD0374EBD
:101570001836B44217D0354E3036B44213D0334EFD
:101580004836B4420FD0314E6036B4420BD02F4EA5
:101590007836B44207D02D4E9036B44203D02B4E4D
:1015A000A836B4421BD190F85C4004F01F063F24DB
:1015B000B440AC600468256825F480252560046883
:1015C00063608368402B05D0036899600068C2603F
:1015D000BDE8F08F03689A600068C160F8E71C4EB0
:1015E000B4421BD01A4E1436B44217D0184E2836C7
:1015F000B44213D0164E3C36B4420FD0144E50367F
:10160000B4420BD0124E6436B44207D0104E783636
:10161000B44203D00E4E8C36B442D9D190F85C401F
:1016200004F01F060124B4406C60046863608368A2
:10163000402B04D0036899600068C260C8E7036863
:101640009A600068C160C3E71000024010040240C5
:1016500008540258704772B6FEE70000014802F0D5
:101660005DB80000C80C0024014802F057B8000023
:10167000680D0024014802F051B80000080E002453
:1016800030B5426B036853F8844F4FF6FC718C43BE
:1016900044EA82041C60036853F8844F058F24F4E5
:1016A0007F0444EA05441C60836B1A44036853F8C2
:1016B000884F8C4344EA82041C60036853F8884FC7
:1016C000858F24F4FE0444EA05441C60C36B02EBDE
:1016D0004302036853F8A04F8C4344EA82041C6021
:1016E000036853F8A04FB0F8405024F4FE0444EAD5
:1016F00005441C60D0E9103403FB0422036853F84E
:10170000B04F8C4344EA82041C60036853F8B04F26
:10171000B0F8485024F4FE0444EA05441C60D0E9C3
:10172000123403FB0422036853F8AC4F8C4344EAA1
:1017300082041C60D0E9143403FB0422036853F8CC
:10174000F04F8C4344EA82041C60036853F8F04F66
:10175000B0F8585024F47C1444EA05441C60836DAE
:1017600002EB4303026852F8C04F8C4344EA830102
:101770001160016851F8C02FB0F85C3022F47C127F
:1017800042EA03420A60016851F8C02F90F86030C5
:1017900022F07C5242EA03620A60416B224A02EB69
:1017A0008101C166826B01EB82020267C36B02EBAF
:1017B000C3024267D0E91034634302EB83028267BD
:1017C000D0E91234634302EB8302C267D0E91434D8
:1017D000634302EB8302C0F88020836D02EBC302F7
:1017E000C0F88420C46D836E5C4302EB8402C0F8B1
:1017F0008820046E5C4302EB8402C0F890200B4BFF
:101800009A4208D99830416841F020014160032193
:101810000170012030BD002200E004C1D0F89030FA
:101820008B42FAD8002030BD00AC0040FCD3004011
:10183000F0B5D1E901650C692C430D68002E19D073
:1018400045F080452C4391F82070D1E90665354379
:101850004E6946EA07663543CE683543D0F8846062
:10186000806E584306EB80031C605D6008330020E7
:101870000C4E0FE044EA8544E5E71418155CE77860
:1018800045EA0765A77864783F0447EA04242543BE
:1018900020C3001DCC6806EB144424788442ECD8A5
:1018A000F0BD0000F84A010810B50B480168001DA2
:1018B0000468001D0068084400280BD0074908226E
:1018C00007F0D7FE054904222046BDE8104010313C
:1018D00007F0CFBE10BD000000E8F11F6200002439
:1018E0002DE9F84F044602F035FE00905CB194F803
:1018F0003500022809D080206065002084F834007B
:101900000120BDE8F88F0120FBE7D14ED04FD04930
:101910001836DFF83C833037DFF83493DFF830A334
:1019200008F14808DFF828B309F1600920680AF1D6
:10193000780A0BF1900B88422ED0B0422CD0B842DE
:101940002AD0404528D0484526D0504524D0584577
:1019500022D0BF4AA83290421ED0BE4A90421BD02D
:10196000BC4A1832904217D0BA4A3032904213D053
:10197000B84A483290420FD0B64A603290420BD0FB
:10198000B44A7832904207D0B24A9032904203D0A3
:10199000B04AA83290420AD1026822F01E020260C8
:1019A0002068426922F080024261256804E00268F2
:1019B00022F00E0202602568206888424DD0B042B5
:1019C0004BD0B84249D0404547D0484545D0504516
:1019D00043D0584541D09E4AA83290423DD09D4ABE
:1019E00090423AD09B4A1832904236D0994A3032CF
:1019F000904232D0974A483290422ED0954A603277
:101A000090422AD0934A7832904226D0914A90321E
:101A1000904222D08F4AA83290421ED08E4A9042E5
:101A20001BD08D4A1432904217D08B4A28329042F4
:101A300013D0894A3C3290420FD0874A50329042AC
:101A40000BD0854A6432904207D0834A7832904264
:101A500003D0814A8C32904204D1206E026822F475
:101A6000807202607A49206888422ED0B0422CD021
:101A7000B8422AD0404528D0484526D0504524D0E9
:101A8000584522D07249A83188421ED071498842F7
:101A90001BD070491831884217D06E4930318842C6
:101AA00013D06C49483188420FD06A49603188426E
:101AB0000BD068497831884207D066499031884216
:101AC00003D06449A831884204D1016821F00101A2
:101AD000016013E0016821F0010101600EE002F0F5
:101AE00039FD0099401A052808D920203434206295
:101AF0000020207003206070012002E72868C007E2
:101B0000EDD1534A0121206890422ED0B0422CD012
:101B1000B8422AD0404528D0484526D0504524D048
:101B2000584522D04A4BA83398421ED0494B984280
:101B30001BD0484B1833984217D0464B303398424D
:101B400013D0444B483398420FD0424B60339842F5
:101B50000BD0404B7833984207D03E4B903398429D
:101B600003D03C4BA833984208D1A06D94F85C3068
:101B700003F01F053F23AB40836007E0A06D94F89E
:101B80005C3003F01F0301FA03F3436020689042C6
:101B90004DD0B0424BD0B84249D0404547D04845DF
:101BA00045D0504543D0584541D0294AA8329042AB
:101BB0003DD0284A90423AD0264A1832904236D038
:101BC000244A3032904232D0224A483290422ED0BB
:101BD000204A603290422AD01E4A7832904226D063
:101BE0001C4A9032904222D01A4AA83290421ED00B
:101BF000194A90421BD0184A1432904217D0164A04
:101C00002832904213D0144A3C3290420FD0124AEC
:101C1000503290420BD0104A6432904207D00E4AA4
:101C20007832904203D00C4A8C3290420BD1D4E9E6
:101C300019205060E06E30B1026822F480720260B8
:101C4000D4E91C205060002004F8340F617058E67D
:101C50001000024010040240085402582DE9F05FC1
:101C6000002808D090F83510022906D0802141655F
:101C70000120BDE8F09F0120FBE79E4A9D4B9D4C53
:101C800018329C4D30339B4E48349A4F6035DFF804
:101C900064B27836DFF85CE29037DFF85C82DFF818
:101CA00058920EF1A80EDFF850A208F1180801684A
:101CB00009F19009DFF840C20AF1A80A59452ED06F
:101CC00091422CD099422AD0A14228D0A94226D0B4
:101CD000B14224D0B94222D0F34659451FD06145C4
:101CE0001DD041451BD0DFF810B20BF1300B594528
:101CF00015D0DFF804B20BF1480B59450FD0DFF8CF
:101D0000F8B10BF1600B594509D0DFF8ECB10BF1DC
:101D1000780B594503D0494501D0514536D14FF094
:101D2000040B80F835B07348814225D0914223D00E
:101D3000994221D0A1421FD0A9421DD0B1421BD04F
:101D4000B94219D0714517D0614515D0414513D01E
:101D50006948303081420FD06748483081420BD00B
:101D600065486030814207D063487830814203D0B3
:101D7000494501D0514504D1086820F001000860B0
:101D8000B6E0086820F001000860B1E0D1F800E09A
:101D90002EF00E0EC1F800E0DFF858E10168714541
:101DA0002DD091422BD0994229D0A14227D0A942CF
:101DB00025D0B14223D0B94221D0DFF838E10EF16D
:101DC000A80E71451BD0614519D0414517D0DFF8E9
:101DD00028E10EF1300E714511D0DFF81CE10EF153
:101DE000480E71450BD0DFF810E10EF1600E714521
:101DF00005D0594503D0494501D0514506D1D1F808
:101E000000E02EF0010EC1F800E005E0D1F800E09E
:101E10002EF0010EC1F800E0DFF8D8E0016871454E
:101E200044D0914242D0994240D0A1423ED0A942F2
:101E30003CD0B1423AD0B94238D02E4AA832914271
:101E400034D0614532D0414530D02B4A30329142B6
:101E50002CD0294A4832914228D0274A60329142F8
:101E600024D0594522D0494520D051451ED0234A7F
:101E700091421BD0214A1432914217D01F4A283276
:101E8000914213D01D4A3C3291420FD01B4A50322E
:101E900091420BD0194A6432914207D0174A7832E6
:101EA000914203D0154A8C32914218D1016E0A68D2
:101EB00022F480720A60816D90F85C2002F01F03AA
:101EC00001229A404A60D0E919215160C16E31B1B6
:101ED0000A6822F480720A60D0E91C215160002156
:101EE00080F83410012180F83510016D01B1884768
:101EF0000020BEE6100002401004024008540258C0
:101F0000406D70472DE9FF5F0446002001904FF4BB
:101F10001651FD480068B0FBF1F00090A56D2E68E9
:101F20002968FA4FDFF8E4B3DFF8E083DFF8DC93E9
:101F30000BF1180BDFF8D4A308F13008206809F181
:101F400048090AF1600AB8423BD05A46904238D05C
:101F5000404536D0484534D0504532D0EB4A7832EF
:101F600090422ED0E94A903290422AD0E74AA832D5
:101F7000904226D0E64A904223D0E54A1832904259
:101F80001FD0E34B303398421BD0E14B483398428B
:101F900017D0DFF87CC30CF1600C604511D0DFF87E
:101FA00070C30CF1780C60450BD0DFF864C30CF102
:101FB000900C604505D0DFF858E30EF1A80E70458F
:101FC0007ED194F85C10082301F01F0103FA01F29E
:101FD00032424BD0B84232D0584530D040452ED056
:101FE00048452CD050452AD0C8497831884226D05F
:101FF000C6499031884222D0C449A83188421ED0B7
:10200000C34988421BD0C2491831884217D0C04901
:102010003031884213D0BE49483188420FD0BC4984
:10202000603188420BD0BA497831884207D0B8492C
:102030009031884203D0B649A831884203D1016863
:1020400001F0040102E0016801F0080171B10168CA
:1020500021F00401016094F85C0000F01F0003FA15
:1020600000F2AA60606D40F00100606594F85C00C9
:10207000012100F01F008140314240D02068B84269
:1020800034D0584532D0404530D048452ED0504508
:102090002CD09E4A7832904228D09C4A903290426E
:1020A00024D09A4AA832904220D0994A90421DD01A
:1020B000974A1832904219D0954A3032904200E047
:1020C000D2E113D0924A483290420FD0904A603207
:1020D00090420BD08E4A7832904207D08C4A903290
:1020E000904203D08A4AA83290427DD1406910F0D4
:1020F000800F04D0A960606D40F00200606594F824
:102100005C00042100F01F00814031423ED0206875
:10211000B84232D0584530D040452ED048452CD01A
:1021200050452AD0794A7832904226D0774A903268
:10213000904222D0754AA83290421ED0744A9042F2
:102140001BD0734A1832904217D0714A30329042F5
:1021500013D06F4A483290420FD06D4A603290429D
:102160000BD06B4A7832904207D0694A9032904245
:1021700003D0674AA83290424ED1006810F0020F97
:1021800004D0A960606D40F00400606594F85C00C4
:10219000102100F01F008140314260D02068B84219
:1021A00034D0584532D0404530D048452ED05045E7
:1021B0002CD0564A7832904228D0544A90329042DD
:1021C00024D0524AA832904220D0514A90421DD089
:1021D0004F4A1832904219D04D4A3032904215D0B1
:1021E0004B4A4832904200E014E00FD0484A603237
:1021F00090420BD0464A7832904207D0444A9032FF
:10220000904203D0424AA832904207D1006800F0C1
:10221000080006E0006872E70068B7E7006800F0B1
:10222000040058B1A9602068016849030CD5006812
:10223000000304D4216C09B1204688470FE0A16C4B
:1022400069B1204688470AE00168C90503D40168DE
:1022500021F008010160216C09B12046884794F8FB
:102260005C00202100F01F00814031427BD02068BB
:10227000B84232D0584530D040452ED048452CD0B9
:1022800050452AD0214A7832904226D01F4A9032B7
:10229000904222D01D4AA83290421ED01C4A904241
:1022A0001BD01B4A1832904217D0194A3032904244
:1022B00013D0174A483290420FD0154A60329042EC
:1022C0000BD0134A7832904207D0114A9032904294
:1022D00003D00F4AA832904203D1006800F01000EA
:1022E00002E0006800F00200E8B3A96094F835004D
:1022F000042812D02068016849033DD50068000316
:1023000035D4616C79B305E07004002410000240FC
:1023100010040240204688473FE02068016821F011
:10232000160101602068416921F080014161206C43
:1023300008B9A06C20B12068016821F00801016093
:1023400094F85C0000F01F013F208840A860002046
:1023500084F83400012084F83500216D002977D0FD
:1023600004B0204600E018E0BDE8F05F0847E16BEC
:1023700099B12046884710E00168C90509D4016871
:1023800021F010010160002084F83400012084F85D
:102390003500E16B09B120468847606D002857D0B1
:1023A000606DC00758D0042084F835002068B8421A
:1023B00031D058452FD040452DD048452BD05045E1
:1023C00029D0B749884226D0B5491831884222D051
:1023D000B349303188421ED0B24988421BD0B1493E
:1023E0001831884217D0AF493031884213D0AD49F7
:1023F000483188420FD0AB49603188420BD0A9499F
:102400007831884207D0A7499031884203D0A54946
:10241000A831884204D1016821F00101016003E084
:10242000016821F00101016021680198009A401CB7
:102430000190904202D80868C007F6D1002084F8C5
:1024400034000868C00704D0032084F8350003E096
:1024500084E0012084F83500E16C00297ED004B0CE
:102460002046BDE8F05F08478F4EB0421BD08E4E2D
:102470001436B04217D08C4E2836B04213D08A4E54
:102480003C36B0420FD0884E5036B0420BD0864E0C
:102490006436B04207D0844E7836B04203D0824EC4
:1024A0008C36B0425AD106684FF0040E94F85CB0F6
:1024B0000BF01F0B0EFA0BFE1EEA010FCDF80CE01D
:1024C0005ED05FEA467E5BD503986860300411D524
:1024D000F00307D4A16C002940D004B02046BDE829
:1024E000F05F0847216C002938D004B02046BDE8D1
:1024F000F05F0847B0063BD42068B8422DD0684949
:102500006039884229D0404527D0484525D05045DC
:1025100023D06349884220D06149183188421CD0B9
:102520005F493031884218D05E49884215D09042C8
:1025300013D05C49303188420FD098420DD05949B0
:102540006031884209D057497831884205D06045CA
:1025500003D05449A831884206D100E07CE00168EC
:1025600021F00801016003E0016821F0040101602D
:10257000216C002970D004B02046BDE8F05F084708
:102580004FF0020E0EFA0BFE1EEA010FCDF808E026
:1025900063D05FEA867E60D502986860300411D50A
:1025A000F00307D4616C002978D004B02046BDE860
:1025B000F05F0847E16B002970D004B02046BDE809
:1025C000F05F0847B0063FD42068B8422DD03449A8
:1025D0006039884229D0404527D0484525D050450C
:1025E00023D02F49884220D02D49183188421CD051
:1025F0002B493031884218D02A49884215D0904260
:1026000013D02849303188420FD098420DD0254947
:102610006031884209D023497831884205D060452D
:1026200003D02049A831884204D1016821F0140167
:10263000016003E0016821F00A010160002084F8D4
:102640003400012084F83500E16B002926D004B065
:102650002046BDE8F05F084720E0082202FA0BF2AE
:102660000A421BD0310719D5016821F00E01016023
:1026700094F85C0000F01F01012000FA01F169608C
:102680006065002184F8341084F83500E16C00297D
:1026900004D004B02046BDE8F05F0847BDE8FF9FC6
:1026A0008800024010040240085402582DE9F05FEF
:1026B000044601F04FFF0646002C7DD0FE4FFE4D34
:1026C000DFF8F4831837DFF8F093DFF8ECA308F1B4
:1026D0003008DFF8E4B309F1480920680AF1600A1C
:1026E0000BF1780BA84253D0B84251D040454FD09F
:1026F00048454DD050454BD0584549D0EE499031D2
:10270000884245D0EC49A831884241D0EB49884203
:102710003ED0EA49183188423AD0E84930318842FF
:1027200036D0E6494831884232D0E44960318842A7
:102730002ED0E249783188422AD0E049903188424F
:1027400026D0DE49A831884222D0DD4988421FD0F8
:10275000DB49143188421BD0D9492831884217D02F
:10276000D7493C31884213D0D549503188420FD0E7
:10277000D349643188420BD0D1497831884207D09F
:10278000CF498C31884203D0E121CEA00CF036FD38
:10279000A06838B1402805D0802803D0E221C9A024
:1027A0000CF02CFDE068B0F5007F04D018B1E321F7
:1027B000C4A00CF023FD00E0F1E02069B0F5806FCB
:1027C00004D018B1E421BFA00CF018FD606948B135
:1027D000B0F5006F06D0B0F5805F03D0E521B9A059
:1027E0000CF00CFDA06948B1B0F5005F06D0B0F563
:1027F000804F03D0E621B3A00CF000FDE06970B17A
:10280000B0F5807F0BD0202809D0B0F5802F06D0FE
:10281000B0F5402F03D0E721AAA00CF0EFFC206A0E
:1028200060B1B0F5803F09D0B0F5003F06D0B0F5FB
:10283000403F03D0E821A3A00CF0E0FC9E49002516
:102840002068884230D0B8422ED040452CD0484530
:102850002AD0504528D0584526D0974990318842F3
:1028600022D09549A83188421ED0944988421BD075
:1028700092491831884217D090493031884213D09C
:102880008E49483188420FD08C49603188420BD044
:102890008A497831884207D088499031884203D0EC
:1028A0008649A831884279D16068892803D9EC210A
:1028B00084A00CF0A3FC606A28B1042803D0ED21A9
:1028C00080A00CF09BFC606A48B3A06A48B1012864
:1028D00007D0022805D0032803D0F22179A00CF0FC
:1028E0008DFCE06A60B1B0F5000F09D0B0F1807FD7
:1028F00006D0B0F1C07F03D0F32172A00CF07EFCB3
:10290000206B60B1B0F5001F09D0B0F5800F06D084
:10291000B0F5C00F03D0F4216AA00CF06FFC84F86E
:102920003450022084F8350063492068884230D052
:10293000B8422ED040452CD048452AD0504528D00A
:10294000584526D05C499031884222D05A49A83156
:1029500088421ED0594988421BD0584918318842B4
:1029600017D056493031884213D0544948318842F3
:102970000FD05249603188420BD05049783188429B
:1029800007D04E499031884203D04C49A831884243
:1029900008D1016821F00101016014E068E0012024
:1029A000BDE8F09F016821F0010101600BE001F03A
:1029B000D1FD801B052806D920206065032084F8FE
:1029C00035000120ECE720680068C007EFD12268DD
:1029D00011684A480140D4E902031843D4E9043697
:1029E00033431843A3691843E3691843236A184320
:1029F0000843616A042903D1D4E90B13194308433E
:102A00006168A1F12903052B0BD9163B032B08D9CB
:102A1000083B012B05D9083B032B02D97439032944
:102A200001D840F4801010602068406920F0070150
:102A3000606A40EA010604280DD1A06A0643E06AF4
:102A400048B12046FEF7ACFC28B14020606501206B
:102A500084F83500A4E7206846612046FEF7B2FB03
:102A600094F85C1001F01F023F2191408160A0E0CA
:102A7000134988421BD0124A1432904217D0104A90
:102A80002832904213D00E4A3C3290420FD00C4A6A
:102A9000503290420BD00A4A6432904207D0084A22
:102AA0007832904203D0064A8C3290427ED18842DE
:102AB0003FD00349143123E01000024010040240CB
:102AC000085402582E2E2F447269766572732F5364
:102AD000544D3332483778785F48414C5F447269CF
:102AE0007665722F5372632F73746D333268377843
:102AF000785F68616C5F646D612E63003F8010FEDB
:102B0000884216D06E49884213D06D4914318842EC
:102B10000FD06B49283188420BD069493C3188423B
:102B200007D067495031884203D0654964318842F3
:102B300008D16068112805D94FF4B371AFF27C0059
:102B40000CF05CFB84F83450022084F835002168D6
:102B50000A685C480240A06840287DD080287CD06C
:102B60000020E36840EAD300236940EAD3006369A8
:102B700040EAD300A36940EAD300E36940EAD30006
:102B8000236A40EA1310104308604F492068084444
:102B90001421B0FBF1F08000E0652046FEF712FB47
:102BA00094F85C1001F01F02012100E064E0914004
:102BB000416046492068884252D0B84250D04045D2
:102BC0004ED048454CD050454AD0584548D03F4952
:102BD0009031884244D03D49A831884240D03C4998
:102BE00088423DD03A491831884239D0384930318D
:102BF000884235D036494831884231D03449603135
:102C000088422DD032497831884229D030499031DC
:102C1000884225D02E49A831884221D02849283918
:102C200088421DD026491439884219D02449884247
:102C300016D023491431884212D0214928318842C4
:102C40000ED01F493C3188420AD01D49503188427C
:102C500006D01B49643101E009E00AE0884229D12D
:102C60002046FEF70FFBA06880280CD00CE0102057
:102C700077E74FF4804074E740206065032084F8D4
:102C8000350001208CE66560216E20790860D4E96A
:102C9000191048606068401E072808D82046FEF7D3
:102CA00041FBE06E0560D4E91C10486002E0E56677
:102CB000256765676565012084F8350000206FE6AB
:102CC000305402580F00FEFFF8ABFDA71000024081
:102CD000100402402DE9FF4F81B00446002000900F
:102CE0004FF6FF710498401E884204D3AEA040F214
:102CF000A9210CF083FAB4B194F83400012814D05F
:102D0000012084F8340094F83510002001290ED0F9
:102D100084F834004FF40060606501200090009852
:102D200005B0BDE8F08F0120FAE70220F8E70221A4
:102D300084F835106065AA4DA94EA94F1835A849E9
:102D40003036DFF89C824837DFF89492DFF890A2A3
:102D500008F16008DFF888B209F1780920680AF103
:102D6000900A0BF1A80B88422CD0A8422AD0B0427E
:102D700028D0B84226D0404524D0484522D05045DE
:102D800020D058451ED0974988421BD0954918310C
:102D9000884217D093493031884213D09149483145
:102DA00088420FD08F49603188420BD08D497831ED
:102DB000884207D08B499031884203D08949A83195
:102DC000884204D1016821F00101016003E001683B
:102DD00021F00101016002A920460EC9FEF71CFB8B
:102DE0007F49206888422CD0A8422AD0B04228D0FF
:102DF000B84226D0404524D0484522D0504520D066
:102E000058451ED0774A90421BD0764A18329042DD
:102E100017D0744A3032904213D0724A48329042EE
:102E20000FD0704A603290420BD06E4A7832904296
:102E300007D06C4A9032904203D06A4AA83290423E
:102E40000DD1026822F01E0242F016020260206CD0
:102E500090B12068026842F0080202600CE002684B
:102E600022F00E0242F00A020260206C20B12068BB
:102E7000026842F004020260206888424BD0A842F7
:102E800049D0B04247D0B84245D0404543D04845EC
:102E900041D050453FD058453DD0524A90423AD05B
:102EA000504A1832904236D04E4A3032904232D098
:102EB0004C4A483290422ED04A4A603290422AD040
:102EC000484A7832904226D0464A9032904222D0E8
:102ED000444AA83290421ED0434A90421BD0424AF4
:102EE0001432904217D0404A2832904213D03E4AC2
:102EF0003C3290420FD03C4A503290420BD03A4A7A
:102F00006432904207D0384A7832904203D0364A31
:102F10008C3290420DD1206E0268D20303D5026834
:102F200042F480720260E06E18B1026842F480726E
:102F30000260206888422CD0A8422AD0B04228D013
:102F4000B84226D0404524D0484522D0504520D014
:102F500058451ED0234988421BD022491831884247
:102F600017D020493031884213D01E494831884259
:102F70000FD01C49603188420BD01A497831884201
:102F800007D018499031884203D01649A8318842A9
:102F900004D1016841F001010160C0E6016841F01F
:102FA00001010160BBE600002E2E2F447269766598
:102FB00072732F53544D3332483778785F48414C01
:102FC0005F4472697665722F5372632F73746D3329
:102FD00032683778785F68616C5F646D612E63007A
:102FE00010000240100402400854025870B5044614
:102FF00001F0B0FA0546601C02D004480078044491
:1030000001F0A8FA401BA042FAD370BD7804002456
:103010002DE9F04105460C46174695F8986014F4E2
:10302000401F04D01FA041F2AE310CF0E7F8012E92
:1030300009D0022E07D055F89C0F40F002002860FE
:103040000120BDE8F0812868816D214204D1C16D65
:1030500041F00101C16505E0816D34EA01011CD038
:103060000321C165A00504D5286850F8E01F394345
:103070000160600504D5286850F8E41F39430160F9
:103080002868426D164921400A4342651548016887
:1030900041EA947101600020D3E7C16D41F0020163
:1030A000C165DFE72E2E2F447269766572732F5348
:1030B000544D3332483778785F48414C5F447269E9
:1030C0007665722F5372632F73746D33326837785D
:1030D000785F68616C5F666463616E2E63000000F8
:1030E000FFFFCF3F14A800402DE9F04105460C46F4
:1030F00016466068002807D0B0F1804F04D061A068
:1031000040F68A210CF07AF860684FF000570028EA
:103110007ED02068B84204D35AA040F691210CF02A
:103120006DF8A06830B1B84204D056A040F69321A3
:103130000CF064F8E3688BB3B3F5803F2ED0B3F5A1
:10314000003F2BD0B3F5403F28D0B3F5802F25D0DA
:10315000B3F5A02F22D0B3F5C02F1FD0B3F5E02FC9
:103160001CD0B3F5002F19D0B3F5102F16D0B3F53E
:10317000202F13D0B3F5302F10D0B3F5402F0DD042
:10318000B3F5502F0AD0B3F5602F07D0B3F5702FE9
:1031900004D03CA040F694210CF030F8206938B1FE
:1031A000B0F1004F04D037A040F695210CF026F87E
:1031B000606938B1B0F5801F04D032A040F6962186
:1031C0000CF01CF8A06938B1B0F5001F04D02DA098
:1031D00040F697210CF012F8E06938B1B0F5000F15
:1031E00004D028A040F698210CF008F8206AFF28A7
:1031F00004D924A040F699210CF000F895F8980025
:10320000022813D055F89C0F40F00800286000E019
:1032100002E00120BDE8F0812068B0F5006F80D3A6
:1032200018A040F68D210BF0E9FF7AE72868D0F866
:10323000C01011F07C5F0AD0D0F8C41089020DD5FF
:1032400055F89C0F40F4007028600120E2E755F823
:103250009C0F40F0200028600120DBE7D0F8C4007C
:10326000C0F3044732463B4621462846FEF7E0FAC3
:1032700029680120B840C1F8D000C5F894000020AA
:10328000C8E700002E2E2F447269766572732F53A3
:10329000544D3332483778785F48414C5F44726907
:1032A0007665722F5372632F73746D33326837787B
:1032B000785F68616C5F666463616E2E6300000016
:1032C0007047000070B505460C4695F89800012837
:1032D00008D0022806D055F89C0F40F00200286064
:1032E000012070BD206838B1B0F1804F04D05BA0E0
:1032F00040F21A710BF082FFE16891B1012910D000
:1033000002290ED003290CD004290AD0052908D09F
:10331000062906D0072904D050A040F21B710BF0FB
:103320006DFFE06807280FD1A0693F2804D94BA0A2
:1033300040F21E710BF062FFE069012804D947A03A
:1033400040F21F710BF05AFF206800283DD0E86B57
:103350006168401E814204D940A040F246710BF0E2
:103360004DFF20694FF00056B04204D33BA040F21D
:1033700047710BF043FFE068072814D06069B04242
:1033800004D336A040F24A710BF038FFA06850B168
:10339000012808D0022806D0032804D02FA040F22C
:1033A0004B710BF02BFFD4E9030141EA407207286F
:1033B00052D0217A606940EA81716368286F00EB1E
:1033C000C30002604160002070BDA86B6168401EB0
:1033D000814204D921A040F225710BF00FFF206932
:1033E0004FF40066B04204D31CA040F226710BF0EB
:1033F00005FFE068072812D06069B04204D317A027
:1034000040F229710BF0FAFEA06840B1012806D005
:10341000022804D011A040F22A710BF0EFFEE168FF
:1034200007290ED0227AC906606940EA8270228A92
:1034300041EA024108436268E96E01EB82010860DB
:10344000C1E7218A4FF06052A06940EA0140E1697A
:1034500042EA01210843EEE7A169AEE72E2E2F4490
:103460007269766572732F53544D333248377878CA
:103470005F48414C5F4472697665722F5372632FC7
:1034800073746D3332683778785F68616C5F666437
:1034900063616E2E630000002DE9F04104460D4685
:1034A00016461F46DDF81880002D08D0012D06D0E5
:1034B000022D04D01CA040F287710BF09FFE46B194
:1034C000012E06D0022E04D017A04FF4F1610BF0AC
:1034D00095FE37B1012F04D013A040F289710BF093
:1034E0008DFEB8F1000F07D0B8F1010F04D00EA087
:1034F00040F28A710BF082FE94F89800012807D000
:1035000054F89C0F40F0040020600120BDE8F081D9
:103510002168280140EA860040EA470040EA0800A6
:10352000C1F880000020F1E72E2E2F4472697665E5
:1035300072732F53544D3332483778785F48414C7B
:103540005F4472697665722F5372632F73746D33A3
:1035500032683778785F68616C5F666463616E2E8D
:103560006300000070477047F0B5002490F8985051
:10357000022D06D050F89C1F41F008010160012087
:10358000F0BD40294FF000460BD0412936D0056DE3
:103590008D4260D850F89C1F41F02001016001204D
:1035A000F0BD0568D5F8A07017F4FE0F18D0D5F857
:1035B000A4707F061BD0D5F8A470FF0105D5D5F8FF
:1035C000A070B6EBD77F00D10124D5F8A450C5F385
:1035D00005252C44456C466F654306EB85063FE0A8
:1035E00050F89C1F41F0200101600120F0BD50F80F
:1035F0009C1F41F4807101600120F0BD0568D5F881
:10360000B07017F4FE0F18D0D5F8B4707F061BD039
:10361000D5F8B470FF0105D5D5F8B070B6EBD77FFB
:1036200000D10124D5F8B450C5F305252C44C56C50
:10363000866F654306EB850612E050F89C1F41F04B
:10364000200101600120F0BD50F89C1F41F4807101
:1036500001600120F0BD456DC66F4D4306EB850648
:10366000356805F0804555602DB3356825F0604517
:103670001560356805F000559560356805F0004522
:103680001561B588ADB2D561756805F47025D56052
:10369000756805F480155561756805F40015956128
:1036A0007568C5F30665156275680836ED0F5562D5
:1036B0000025184F09E03568C5F38A451560D8E73D
:1036C00016F805C003F805C06D1CD2F80CC007EB56
:1036D0001C4C9CF800C0AC45F2D8402909D04129C7
:1036E0000BD0012220290CD200688A40C0F8982013
:1036F0000DE00068C0F8A84009E00068C0F8B840D4
:1037000005E0006801F01F018A40C0F89C200020FD
:10371000F0BD0000F84A0108704700002DE9F84F9D
:103720000446B04D28688007291D096800EA8170A9
:1037300000902068016D01F47041D0F8548008EACF
:103740000108016D01F00F01D0F8549009EA010958
:10375000016D01F0F001D0F854A00AEA010A016DF0
:1037600001F07151466D0E40016D01F06071D0F8AD
:1037700054B00BEA010B416D4FF00007C90508D5A5
:10378000016DC90505D5A91501652F602046FFF714
:10379000C3FF2068416D49050ED5016D49050BD564
:1037A000D0F8DC20D0F8E41011404FF480620265BC
:1037B0002F60204600F0F8FC009858B18A49009824
:1037C0000840216808650098800F2860009920460D
:1037D000FFF776FDB8F1000F0BD02168824808EAA8
:1037E000000008654FEA987028604146204600F0C6
:1037F000DDFCB9F1000F0BD021687B4809EA00001D
:1038000008654FEA997028604946204600F056FC4A
:10381000BAF1000F0BD0216873480AEA000008656E
:103820004FEA9A7028605146204600F075FC2068E7
:10383000416D090509D5016D090506D54FF40061F3
:1038400001652F60204600F0B2FC2068416D8905BB
:103850000ED5016D89050BD5D0F8D820D0F8E01031
:1038600011404FF4007202652F60204600F09DFC6D
:103870002068416D090309D5016D090306D54FF490
:10388000002101652F60204600F016FC2068416D84
:10389000C90309D5016DC90306D54FF4803101650F
:1038A0002F60204600F07FFC2068416D490309D558
:1038B000016D490306D54FF4802101652F60204634
:1038C00000F070FC2068416D89030CD5016D8903FF
:1038D00009D54FF4003101652F60D4F89C0040F009
:1038E0008000C4F89C00BBF1000F0BD021683E485B
:1038F0000BEA000008654FEA9B7028605946204695
:10390000FFF731FE56B12168374830400865B00FE7
:103910002860D4F89C003043C4F89C0033492068E8
:10392000884255D160688168890751D0016A01F0E9
:103930000F02416A1140026A02F03002D0F824807E
:1039400008EA0208026A02F4C072476A1740026A73
:1039500002F4FC42456A1540026A02F4F022466A0B
:10396000164019B10162204600F019FCB8F1000FB1
:1039700006D06068C0F820804146204600F011FC67
:103980006068416A49060CD5016A490609D5C16BD0
:10399000090CC26B02F03F0240230362204600F094
:1039A000FFFB2FB1606807623946204600F0F6FB46
:1039B00035B160680562D4F89C002843C4F89C00C7
:1039C00036B160680662D4F89C003043C4F89C00AD
:1039D000D4F89C00002802D02046FFF7C3FDBDE8C4
:1039E000F88F000010A80040FFFFCF3F00A000406C
:1039F0002DE9F04393B004464C22F7496846FCF7A2
:103A000014FD002C7ED0F54D2068A84202D100F5AF
:103A1000807161600AD0F249884207D0F14988423A
:103A200004D0F1A040F233110BF0E8FBA0684FF492
:103A3000407648B1B0F5807F06D0B04204D04FF454
:103A40009A71E9A00BF0DAFBE06860B101280AD0B6
:103A5000022808D0032806D0042804D0E2A040F2AF
:103A600035110BF0CBFB207C30B1012804D0DEA057
:103A70004FF49B710BF0C2FB607C30B1012804D085
:103A8000D9A040F237110BF0B9FBA07C30B101286E
:103A900004D04FF49C71D4A00BF0B0FB6069401EC1
:103AA000B0F5007F04D3D0A040F239110BF0A6FB93
:103AB000A069401E7F2804D9CBA04FF49D710BF064
:103AC0009DFBE069401EFF2804D9C7A040F23B11CE
:103AD0000BF094FB206A401E7F2804D94FF49E719E
:103AE000C1A00BF08BFBA068B04225D1606A401EDC
:103AF0001F2804D9BCA040F23F110BF07FFBA06A45
:103B0000401E00E0C6E00F2804D94FF4A071B6A013
:103B10000BF074FBE06A401E1F2804D9B2A040F2EB
:103B200041110BF06BFB206B401E0F2804D9AEA097
:103B30004FF4A1710BF062FBA06B802804D94FF405
:103B4000A271A9A00BF05AFBE06B402804D9A6A0F3
:103B500040F245110BF052FB206C402804D9A2A082
:103B60004FF4A3710BF04AFB206CA8B1606C0428E1
:103B700012D0052810D006280ED007280CD008280F
:103B80000AD00A2808D00E2806D0122804D096A001
:103B900040F249110BF032FBA06C402804D992A0EE
:103BA00040F24B110BF02AFBA06CA8B1E06C04288A
:103BB00012D0052810D006280ED007280CD00828CF
:103BC0000AD00A2808D00E2806D0122804D086A0D1
:103BD0004FF4A7710BF012FB206D402804D94FF46D
:103BE000A87181A00BF00AFB206DA8B1606D0428BC
:103BF00012D0052810D006280ED007280CD008288F
:103C00000AD00A2808D00E2806D0122804D076A0A0
:103C100040F253110BF0F2FAA06D202804D972A0E3
:103C200040F255110BF0EAFAD4E9170108442028B4
:103C300004D96DA04FF4AB710BF0E0FA206E48B1DF
:103C4000606E38B1B0F1804F04D067A040F25911D6
:103C50000BF0D4FAD4E91701C84215D0A06E04289D
:103C600012D0052810D006280ED007280CD008281E
:103C70000AD00A2808D00E2806D0122804D05AA04C
:103C800040F25D110BF0BAFA94F898004FF000087A
:103C900020B108E0012013B0BDE8F08384F89980DA
:103CA000204600F037F92068816921F01001816118
:103CB00000F050FC07464FF003090DE000F04AFC0D
:103CC000C01B0A2808D954F89C0F40F0010020605E
:103CD00004F8049C0120DEE7206880690007EDD429
:103CE0002068816941F00101816100F033FC0746E1
:103CF0000DE000F02FFCC01B0A2808D954F89C0FD7
:103D000040F00100206004F8049C0120C3E7206813
:103D10008069C007EDD02068816941F002018161AE
:103D2000207C012839D02068816941F040018161FF
:103D3000607C012837D02068816921F4804181614D
:103D4000A07C012835D02068816941F480518161CF
:103D500020688169A26821F4407111438161206863
:103D6000816921F0A40181612068016921F01001BD
:103D70000161E068012822D030B3022852D02068C7
:103D8000816941F0800181612068016941F0100181
:103D90000161E068032818D049E02068816921F0BA
:103DA00040018161C4E72068816941F480418161FB
:103DB000C6E72068816921F480518161C8E72068E5
:103DC000816941F00401816131E02068816941F03D
:103DD000200181612BE00000084B010800A0004099
:103DE00000A4004000D400402E2E2F447269766556
:103DF00072732F53544D3332483778785F48414CB3
:103E00005F4472697665722F5372632F73746D33DA
:103E100032683778785F68616C5F666463616E2EC4
:103E2000630000002068816941F020018161207EEB
:103E3000401E4106E069401E41EA0020216A491EF9
:103E40000843A18A491E40EA01402168C861A06870
:103E5000B0420FD1E16AA06A491E401E40EA01212A
:103E6000206B401E41EA0011A08C401E41EA004038
:103E70002168C860206E28B1206850F8C01F626EAB
:103E800011430160D4E91701C842694609D020688E
:103E900050F8C82FA36E22F0070251F823301A43BE
:103EA0000260206C48B1206850F8BC2F636C22F08F
:103EB000070251F823301A430260A06C50B1206809
:103EC00050F8BC2FE36C22F0700251F8233042EA24
:103ED00003120260206D50B1206850F8BC2F636D52
:103EE00022F4E06251F8231042EA012101602068C7
:103EF000A84204D16068816821F003018160C4F8A0
:103F00009480C4F89C80012084F898002046FDF736
:103F1000B7FBC0E62DE9F04FB3B0044614212EA83C
:103F2000FCF79CFAB42101A8FCF798FA5D4D022732
:103F30005A4A4FF4004120680C3D594E4FF0090990
:103F4000584C9042DFF860B14FF0000835D1019134
:103F5000CDF86C8001A801F067FC08B1FDF77BFB90
:103F60003068401C3060012807D1206840F4807020
:103F70002060206800F480700090286840F00800FD
:103F80002860286800F00800009003202E902F97EA
:103F9000CDF8C080CDF8C480CDF8C8902EA9584681
:103FA00000F006F900220521132000F0BBFC1320CD
:103FB00000F084FC33B0BDE8F08F3C4A4FF4405A27
:103FC000904233D10191CDF86C8001A801F02CFC16
:103FD00008B1FDF740FB3068401C3060012807D174
:103FE000206840F480702060206800F480700090A9
:103FF000286840F002002860286800F00200009065
:10400000CDF8B8A02F97CDF8C080CDF8C480CDF8FA
:10401000C8902EA9264800F0CBF8002205211420D4
:1040200000F080FC142000F049FCC3E7214A9042D4
:10403000C0D10191CDF86C8001A801F0F5FB08B169
:10404000FDF709FB3068401C3060012807D120686B
:1040500040F480702060206800F480700090286830
:1040600040F008002860286800F008000090CDF8B3
:10407000B8A02F97CDF8C080CDF8C480052032902D
:104080002EA9584600F094F8002205219F2000F048
:1040900049FC9F2000F012FC8CE7000000A00040CB
:1040A00018000024EC440258000C025800A4004000
:1040B0000004025800D400407047000010B50446C8
:1040C000C80720D0104B40212046A3F15002FFF733
:1040D0004BFA0D490D4A20685039904205D10968C4
:1040E000094A0B480CF0AEF806E00A4A904203D1A8
:1040F000086805490BF0CCFC00222046BDE81040C2
:104100000121FEF785BF10BD8C2C002400A00040CB
:10411000E82F002400A4004010B50446C8061CD5B2
:104120000E4B41212046A3F16802FFF71DFA0C490E
:10413000206888420AD00B49884207D00A49884241
:1041400004D10648054900780BF0DCFE0022204629
:10415000BDE810401021FEF75BBF10BDCC2C002441
:1041600000A0004000A4004000D4004090F8981047
:10417000012906D050F89C1F41F004010160012084
:104180007047022180F8981001688A6922F00102C4
:104190008A610021C0F89C1000207047704770476A
:1041A0007047704770477047704770477047704757
:1041B0002DE9F84F04460D460026DFF8A482DFF80B
:1041C000A4924C451ED0A84884421BD0A7488442E4
:1041D00018D0A748844215D0A648844212D0A648D9
:1041E00084420FD0A54884420CD0A548844209D00F
:1041F000A448844206D0A448844203D0BB21A3A093
:104200000AF0FCFF28680104090C01D0000C03D05F
:10421000BC219EA00AF0F2FF6868F8B101281DD009
:1042200011281BD0022819D0122817D0A64988427D
:1042300014D0A649884211D0A54988420ED0A5497C
:1042400088420BD0A449884208D0A449884205D0AE
:10425000032803D0BD218DA00AF0D0FFA868002854
:1042600007D00128FCD00228FAD0BE2187A00AF08E
:10427000C5FFEDE04FF0010A0AFA06FA07EA0A075D
:10428000002F7DD06868012805D0022803D01128AE
:1042900001D012281DD1E86848B1012807D00228B2
:1042A00005D0032803D0CE2178A00AF0A7FFA1688B
:1042B0007000032282409143EA6882400A43A26070
:1042C000616821EA0A012879C0F30010B040084370
:1042D0006060E0684FEA460A4FF0030B0BFA0AFBF6
:1042E00020EA0B00A96801FA0AF10143E16068685D
:1042F000022801D0122834D14C451ED05A4884429D
:104300001BD05A48844218D05948844215D0594885
:10431000844212D0584884420FD0584884420CD06E
:104320005748844209D05748844206D056488442B0
:1043300003D0E62155A00AF061FF28690F2803D9B0
:10434000E72152A00AF05AFFF00804EB80010A6A44
:1043500070070F23C00E83409A432B698340134399
:104360000B62206820EA0B00297901F0030101FAB1
:104370000AF1014321606868C00068D5584800E030
:1043800065E0016841F002010160006800F0020090
:10439000009026F0030101F1B041D1F80834B007D4
:1043A000020F0F20904083434C4501D1002028E0AC
:1043B0002D48844201D1012023E02C48844201D1C0
:1043C00002201EE02A48844201D1032019E0294836
:1043D000844201D1042014E02748844201D1052001
:1043E0000FE02648844201D106200AE02448844296
:1043F00001D1072005E02348844201D1092000E0D3
:104400000A2090401843C1F80804D8F80000B843C7
:104410006968C90300D53843C8F80000D8F804001B
:10442000B8436968890300D53843C8F804004FF0E1
:10443000B0410868B8436A68D20200D538430860C2
:104440004868B8436A68920200D538434860761CD1
:104450002F6837FA06F07FF40DAFBDE8F88F000043
:10446000800000580000025800040258000802585A
:10447000000C02580010025800140258001802588C
:10448000001C025800240258002802582E2E2F44E7
:104490007269766572732F53544D3332483778788A
:1044A0005F48414C5F4472697665722F5372632F87
:1044B00073746D3332683778785F68616C5F6770EA
:1044C000696F2E630000000000001111000021112F
:1044D0000000311100001211000022110000321101
:1044E000F444025870B506460C461546002C04D11B
:1044F00009A040F2AD110AF081FE35B1012D04D0C2
:1045000005A04FF4D7710AF079FE0DB1B46170BD0A
:104510002004B06170BD00002E2E2F4472697665B4
:1045200072732F53544D3332483778785F48414C7B
:104530005F4472697665722F5372632F73746D33A3
:1045400032683778785F68616C5F6770696F2E6377
:1045500000000000014880687047000078040024D3
:104560000248816802781144816070477804002411
:1045700010B5032000F026FA02F060FA0F490A682D
:10458000C2F303230E4AD35C03F01F03D84009682B
:1045900001F00F01515C0B4A01F01F0120FA01F1FB
:1045A000116009490860002000F010F808B10120EE
:1045B00010BD00F071F9002010BD00001844025831
:1045C000E04A0108740400247004002410B58AB085
:1045D0000446102C2DD200222146192000F0A2F909
:1045E000192000F06BF9164804601648016841F084
:1045F00001010160006800F00100009001A902A81B
:1046000002F0A6F902F008FA40000F49B0FBF1F100
:10461000491E0F480D4A026040F2E732C260416015
:1046200000210161816003F063F820B101200AB02C
:1046300010BD0120FBE7064803F032F9F7E7000060
:104640007C040024F044025840420F000000014066
:104650006417002470B504466078002822D0012831
:1046600020D002281ED003281CD004281AD00528E8
:1046700018D0062816D0072814D0082812D00928E8
:1046800010D00A280ED00B280CD00C280AD00D28E8
:1046900008D00E2806D00F2804D05FA040F22D11BC
:1046A0000AF0ACFD2078012805D020B15AA04FF4C3
:1046B00097710AF0A3FD6749607808600D1D2078A6
:1046C0002E1D00287ED0207B30B1012804D052A0BE
:1046D0004FF49B710AF092FDE07A70B101280CD082
:1046E00002280AD0032808D0052806D0062804D0BE
:1046F00049A040F237110AF081FDA07A40B10128AB
:1047000006D0022804D04FF49C7143A00AF076FD35
:10471000607B012805D020B13FA040F239110AF09A
:104720006DFDA07B012805D020B13BA04FF49D7109
:104730000AF064FDE07B012805D020B136A040F2EC
:104740003B110AF05BFD607AFF2804D34FF49E71A1
:1047500031A00AF053FD217A04293CD005293AD032
:10476000062938D0072936D0082934D0092932D073
:104770000A2930D00B292ED00C292CD00D292AD073
:104780000E2928D00F2926D0102924D0112922D073
:10479000122920D013291ED014291CD015291AD073
:1047A000162918D0172916D0182914D0192912D073
:1047B0001A2910D01B290ED01C290CD01D290AD073
:1047C0001E2900E024E006D01F2904D012A040F2E8
:1047D0003D110AF013FD60682860207BE17A000734
:1047E00040EA0160A17A40EAC140617B40EA814031
:1047F000A17B40EA4140E17B40EA0140617A40EA26
:104800000120217A40EA410021780843306070BDE0
:1048100000202860306070BD2E2E2F4472697665AE
:1048200072732F53544D3332483778785F48414C78
:104830005F4472697665722F5372632F73746D33A0
:1048400032683778785F68616C5F636F727465781F
:104850002E63000098ED00E0BFF35F8F044801680D
:1048600021F48031016002490020703108607047F6
:1048700024ED00E0074940F0010008600548703869
:10488000016841F480310160BFF34F8FBFF36F8F38
:104890007047000094ED00E082B00748016841F0E5
:1048A00002010160006800F00200019000220F2167
:1048B000901E02B000F036B8F444025810B5044619
:1048C000002C03DABE2108A00AF098FC002C09DBBA
:1048D000012004F01F0188406109890001F1E021F5
:1048E000C1F8000110BD00002E2E2F4472697665BC
:1048F00072732F53544D3332483778785F48414CA8
:104900005F4472697665722F5372632F73746D33CF
:1049100032683778785F68616C5F636F727465784E
:104920002E6300002DE9F04107460D461646102E75
:1049300003D3AA2113A00AF061FC102D03D3AB21ED
:1049400010A00AF05BFC1E480068C0F30223C3F10C
:104950000704042C00D90424181D072801D20023C1
:1049600000E0DB1E012000FA04F1491E29409940B5
:104970009840401E304001433846BDE8F04108F001
:104980000ABE00002E2E2F447269766572732F5373
:10499000544D3332483778785F48414C5F447269F0
:1049A0007665722F5372632F73746D333268377864
:1049B000785F68616C5F636F727465782E63000066
:1049C0000CED00E010B50446072C0BD0062C09D0E6
:1049D000052C07D0042C05D0032C03D0922108A06D
:1049E0000AF00CFC04F00701144A10684FF6FF03AC
:1049F000184040EA012012490843106010BD000031
:104A00002E2E2F447269766572732F53544D3332B4
:104A1000483778785F48414C5F4472697665722FF9
:104A20005372632F73746D3332683778785F6861BF
:104A30006C5F636F727465782E6300000CED00E0AC
:104A40000000FA0501680122C0F8FC23002280F86A
:104A5000F423886940F000608861486D024A104381
:104A60004865002070470000030000107047006890
:104A700041620020704770B50368586A002907D06A
:104A80009C6A00EB14440020491E4FF482750AE032
:104A900040EA024098620DE005EB80069E5904EB67
:104AA0001644401CC0B28842F6D305EB810144EAAB
:104AB00002405850002070BDD0F8040407F061BCDB
:104AC000C1EBC10200EB8202D0F80404926C07F043
:104AD000C3BBC1EBC10200EB8202D0F80404D2F8E0
:104AE000082207F017BCD0F8040407F04CBC70B5DE
:104AF00004464FF0010201F00F004FF000050B06D5
:104B0000C0EBC00104EB810102D53C314A7002E0E8
:104B100001F5FE714D70087094F8BC03012808D0AF
:104B200084F8BC23206808F053F884F8BC530020B4
:104B300070BD022070BD70B5044601F00F006268C0
:104B4000904201D9012070BD0B064FF0010201F027
:104B50000F014FF00005C1EBC10104EB810102D54B
:104B60003C314A7002E001F5FE714D708D700870A5
:104B700094F8BC03012808D084F8BC23206808F00E
:104B800015FA84F8BC53002070BD022070BD01F0FE
:104B90000F01C1EBC10100EB8100D0F81402704796
:104BA0002DE9F04104464FF0010601F00F004FF0EF
:104BB00000050F06C0EBC00104EB810102D53C31BA
:104BC0004E7002E001F5FE714D7008708A60CB7086
:104BD0004A7802B1C880022B00D10D7194F8BC0351
:104BE000012809D084F8BC63206807F03BFF284601
:104BF00084F8BC53BDE8F0810220FBE770B50D4698
:104C000005F00F04C4EBC40100EB810101F5FE7156
:104C1000CA604B6100238B614B700C700369012BE0
:104C200000D10A612A0705D0027C006808F016FA54
:104C3000002070BD027C006808F004F9F8E770B548
:104C400004460D4605F00F006168884201D9012035
:104C500070BD29064FF000064FF0010206D5C0EBEB
:104C6000C00104EB81013C314A7006E0C5EBC5018F
:104C700004EB810101F5FE714E708A70087094F8A2
:104C8000BC03012807D084F8BC23206808F0BAF9D7
:104C9000280702D007E0022070BD217C04F5717264
:104CA000206808F059F984F8BC63002070BD70B525
:104CB0000D4605F00F04C4EBC40100EB81013C314B
:104CC000CA604B6100238B6101234B700C70036938
:104CD000012B00D10A612A0705D0027C006808F088
:104CE000BDF9002070BD027C006808F0ABF8F8E761
:104CF0002DE9F84F04462568284608F0E1FA002817
:104D00007ED1206808F008FB002879D0206808F0E0
:104D100003FB800704D52068416901F0020141616D
:104D2000206808F0F9FAC10604F57170009035D5D5
:104D30002068816921F0100181612F6A07F00F005E
:104D4000C0EBC00004EB800606F5FE76C7F34340D7
:104D5000022802D0062812D01BE047F6F070074266
:104D600017D0C7F30A12F1681746284608F0D8FA98
:104D7000F0683844F060B0693844B06109E00099E7
:104D80000822284608F0CCFAB069C7F30A11084493
:104D9000B0612068816941F010018161206808F0EC
:104DA000BBFA00034FF001084FF008094FF0100A5A
:104DB0003ED50026206808F08EFA834635E05FEA8B
:104DC000CB702FD02068F1B208F09EFA0746F807A2
:104DD00007D005EB4610C0F8088B3146204605F099
:104DE0008DF8380707D505EB4610C0F8089B31460B
:104DF000204605F05FF8F80605D505EB461000E003
:104E000087E1C0F808ABB80604D505EB46112020B1
:104E1000C1F8080BB80405D505EB46114FF4005056
:104E2000C1F8080B761C4FEA5B0BBBF1000FC6D133
:104E3000206808F071FA400359D5206808F044FA58
:104E40008346002650E05FEACB704AD02068F1B27A
:104E500008F048FA0746F80723D006F00F0108FAD1
:104E600001F0D5F834188143C5F8341805EB461025
:104E7000C0F80889206901280FD1C6EBC60004EBF1
:104E80008000D0E911211144816436B9206D20B928
:104E900020680121009A08F05FF82046F1B2FFF780
:104EA0000FFE380703D505EB4610C0F80899F80641
:104EB00003D505EB4610C0F808A9780604D505EB24
:104EC00046114020C1F80809B80704D505EB461182
:104ED0000220C1F80809380603D53146204605F0FE
:104EE0007FF8761C4FEA5B0BBBF1000FABD120685B
:104EF00008F012FA002811DAD5F8040820F00100B1
:104F0000C5F8040894F8F403012839D0204600F0CD
:104F100000FA2068416901F000414161206808F011
:104F2000FBF900050BD5D5F80808C00702D02046CC
:104F300000F034FA2068416901F4006141612068A1
:104F400008F0EAF900010AD52068416901F0006122
:104F5000416194F8F403D8B1204600F01FFA2068AC
:104F600008F0DAF9C00473D5D5F8040820F0010080
:104F7000C5F804082068102108F080F9002132E00B
:104F8000002084F8F40300212046FFF76FFDC0E7FE
:104F900084F8F4832068406DC0F38300C4F8F803FC
:104FA00001212046FFF762FDD9E705EB41104FF6DE
:104FB0007F3200F510608260036823F40013036001
:104FC000036843F000630360C0F80822D0F80022B1
:104FD00022F40012C0F80022D0F8002242F0006251
:104FE000C0F80022491C60688842DED8D5F81C0849
:104FF00040F00110C5F81C08206B60B1D5F884089A
:1050000040F00B00C5F88408D5F8440840F00B00C8
:10501000C5F844080CE0D5F8140842F22B01084307
:10502000C5F81408D5F8100840F00B00C5F81008B2
:10503000D5F8000820F4FE60C5F80008217C20683F
:10504000009A07F089FF2068416901F480514161AD
:10505000206808F061F9800415D5206807F044FD48
:10506000206808F01DF9E06001F0A2FC227B0146F7
:10507000206808F0D3F9204600F034F9206841692F
:1050800001F400514161206808F046F9000707D596
:10509000204600F042F92068416901F008014161B1
:1050A000206808F039F9C00208D50021204600F038
:1050B00032F82068416901F480114161206808F0EC
:1050C0002BF9800208D50021204600F028F820683E
:1050D000416901F400114161206808F01DF94000A8
:1050E00007D52046FFF7E8FC2068416901F08041C0
:1050F0004161206808F010F940070AD5206845682A
:10510000680702D52046FFF7EEFC20684168294376
:105110004160BDE8F88FD0F8040407F089B9D0F8F1
:10512000040407F096B900002DE9F0418AB0044666
:10513000002C0DD03C492068884203D087213BA039
:105140000AF05CF8266894F8BD03002520B108E059
:1051500001200AB0BDE8F08184F8BC53204600F07D
:1051600081F8032084F8BD03F06BC00500D42561ED
:10517000206807F061FE04F1100168462822884685
:10518000FBF753F994E80F0007F0BCFC022718B1B5
:1051900084F8BD730120DCE72068002108F010F9D5
:1051A000002101260DE0C1EBC10004EB80003C3082
:1051B00046700170C180C5708560C5604561491C3D
:1051C000C9B260688842EED800210DE0C1EBC10091
:1051D00004EB800000F5FE7045700170C5708560BD
:1051E000C5604561491CC9B260688842EED8282272
:1051F00041466846FBF719F994E80F0007F068FD8F
:1052000018B184F8BD730120A3E784F8385084F8FE
:10521000BD63606A012802D12046FFF713FC2068B5
:1052200007F048FD002094E7000004402E2E2F4494
:105230007269766572732F53544D333248377878DC
:105240005F48414C5F4472697665722F5372632FD9
:1052500073746D3332683778785F68616C5F706340
:10526000642E630010B5AEB00446B42101A8FBF76C
:10527000F5F81A49206888422ED14FF48020019019
:105280004FF44010219001A800F0CEFA08B1FCF7CD
:10529000E2F900F0EFF81248016841F00071016096
:1052A000006800F000700090002205214A20FFF7FE
:1052B00039FB4A20FFF702FB002205214B20FFF7B4
:1052C00031FB4B20FFF7FAFA002205214D20FFF7B2
:1052D00029FB4D20FFF7F2FA2EB010BD000004406C
:1052E000D844025870B504460125E06800280ED065
:1052F000022801D0FCF7AFF9D4F80404294607F0DE
:1053000017F9D4F80404BDE8704007F0C8B80025C8
:10531000F2E7D0F8040407F0F0B8D0F8040407F07E
:10532000F6B810B5044694F8BC0301280BD0012050
:1053300084F8BC0384F83810206808F059F800207D
:1053400084F8BC0310BD022010BDD0F8042400F581
:105350007171104607F0F8B810B50446206894F84B
:10536000BC13012906D0012184F8BC13A16A0129CC
:1053700002D008E0022010BDA169012903D0816B91
:1053800041F480318163206807F062FF206807F0F4
:1053900083FC002084F8BC0310BD000010B5044657
:1053A000D4F8040407F012F92068D0F8001E41F088
:1053B0000101C0F8001E206A002804D002480168DC
:1053C00041F00601016010BD10ED00E070B504462B
:1053D000022C06D0012C04D016A040F23F1109F097
:1053E0000DFF23480168C943490708D5006800F04C
:1053F0000700A04201D0012070BD002070BD0168EF
:1054000021F0070121430160FFF7A4F80446184D7D
:105410004FF47A76083D06E0FFF79CF8001BB04297
:1054200001D9012070BD2868C0438004F4D4002055
:1054300070BD00002E2E2F447269766572732F5353
:10544000544D3332483778785F48414C5F44726935
:105450007665722F5372632F73746D3332683778A9
:10546000785F68616C5F7077725F65782E630000AB
:105470000C4802580248016841F080710160704791
:105480000C48025810B501F093FA05490968054A1D
:10549000C1F30211515C01F01F01C84010BD0000B2
:1054A00020440258E04A010810B569490A6802F030
:1054B00003020968C1F30531654B1B1D1B68C3F36B
:1054C0000013634C14342468C4F3CC0414FB03F3BA
:1054D00000EE103AB8EE400A002971D09FED5D1A37
:1054E0005B4BF7EE000A1033F2B39FED5B2A012A03
:1054F0007FD0022A7CD001EE901A1968F8EE611A6A
:10550000C2EE212AC1F3080101EE901AF8EE611AE9
:1055100040EE011A31EEA00A22EE800A1968C1F3AA
:10552000462101EE101AB8EE411A31EE201AC0EEF3
:10553000011ABCEEE11A80ED001A1968C1F30641A8
:1055400001EE101AB8EE411A31EE201AC0EE011A1F
:10555000BCEEE11A80ED011A1968C1F3066101EE93
:10556000101AB8EE411A00E008E071EE200A80EE51
:10557000201ABCEEC10A80ED020A10BD344A283A56
:105580001468A4061ED51268C2F3C104334AE2406F
:1055900001EE902AF8EE612A01EE901A1968F8EEF1
:1055A000611A82EEA12AC1F3080101EE901AF8EE09
:1055B000611A40EE011A31EEA00A22EE000AADE7B0
:1055C00041E016E001EE901ADFED252A1968F8EEA9
:1055D000611A82EEA12AC1F3080101EE901AF8EED9
:1055E000611A40EE011A31EEA00A22EE000A95E798
:1055F00013E001EE901A1968F8EE611AC2EE212A42
:10560000C1F3080101EE901AF8EE611A40EE011A9A
:1056100031EEA00A22EE800A80E701EE901ADFED5B
:10562000112A1968F8EE611A82EEA12AC1F3080165
:1056300001EE901AF8EE611A40EE011A31EEA00A5E
:1056400022EE000A6AE7002101604160816010BD1E
:1056500028440258000000390024744A0090D00306
:105660000024744C0024744B10B569490A6802F098
:1056700003020968C1F30551654B1B1D1B68C3F389
:105680000023634C1C342468C4F3CC0414FB03F3E0
:1056900000EE103AB8EE400A002971D09FED5D1A75
:1056A0005B4BF7EE000A1833F2B39FED5B2A012A39
:1056B0007FD0022A7CD001EE901A1968F8EE611AA8
:1056C000C2EE212AC1F3080101EE901AF8EE611A28
:1056D00040EE011A31EEA00A22EE800A1968C1F3E9
:1056E000462101EE101AB8EE411A31EE201AC0EE32
:1056F000011ABCEEE11A80ED001A1968C1F30641E7
:1057000001EE101AB8EE411A31EE201AC0EE011A5D
:10571000BCEEE11A80ED011A1968C1F3066101EED1
:10572000101AB8EE411A00E008E071EE200A80EE8F
:10573000201ABCEEC10A80ED020A10BD344A283A94
:105740001468A4061ED51268C2F3C104334AE240AD
:1057500001EE902AF8EE612A01EE901A1968F8EE2F
:10576000611A82EEA12AC1F3080101EE901AF8EE47
:10577000611A40EE011A31EEA00A22EE000AADE7EE
:1057800041E016E001EE901ADFED252A1968F8EEE7
:10579000611A82EEA12AC1F3080101EE901AF8EE17
:1057A000611A40EE011A31EEA00A22EE000A95E7D6
:1057B00013E001EE901A1968F8EE611AC2EE212A80
:1057C000C1F3080101EE901AF8EE611A40EE011AD9
:1057D00031EEA00A22EE800A80E701EE901ADFED9A
:1057E000112A1968F8EE611A82EEA12AC1F30801A4
:1057F00001EE901AF8EE611A40EE011A31EEA00A9D
:1058000022EE000A6AE7002101604160816010BD5C
:1058100028440258000000390024744A0090D00344
:105820000024744C0024744B2DE9F84F04460025E5
:1058300000262068010104F12400FE4FDFF8F893F0
:1058400000900DD5206EB0B1B0F5801F18D0B0F526
:10585000001F1BD0B0F5401F00D00125E5B12E463A
:105860002088C00535D5606D05282FD2DFE800F00F
:105870001D22282F2F00386840F400303860EDE7F3
:105880000221201D04F0FAFB0546E7E700980221FB
:1058900004F0F0FC0546E1E7D9F80000216E20F4A1
:1058A00040100843C9F80000DAE7386840F40030D7
:1058B00038600CE00021201D04F0E0FB054606E006
:1058C0000098002104F0D6FC054600E001259DB1BA
:1058D0002E462088DFF8648340051FD5D4F8A00049
:1058E000B0F5C00F18D010DC48B3B0F5001F2BD0B6
:1058F000B0F5800F0FD12DE0D9F80000616D20F0D8
:1059000007000843C9F80000E3E7B0F5000F03D033
:10591000B0F5200F00D0012515B32E4620880005D4
:1059200031D5D4F8A400B0F1407F2AD022DCE8B30E
:10593000B0F1807F49D0B0F1007F21D14BE03868D1
:1059400040F400303860E7E70021201D04F096FBAA
:105950000546E1E70098002104F08CFC0546DBE7F2
:10596000D8F80000D4F8A01020F460000843C8F86C
:105970000000D3E7B0F1806F03D0B0F1A06F00D08A
:10598000012575B32E46206880010AD5A06C30B180
:10599000102831D0202835D0302800D0012585B3FB
:1059A0002E462088C00446D5A06D00E008E0B0F582
:1059B000005F5BD036DCA0B3B0F5805F38D14FE03C
:1059C000386840F400303860DBE70021201D04F027
:1059D00055FB0546D5E70098002104F04BFC054631
:1059E000CFE7FFE7D8F80000D4F8A41020F0E0607B
:1059F0000843C8F80000C6E7386840F40030386053
:105A0000CDE705E00221201D04F038FB0546C6E77E
:105A10008948001F0168A26C21F030011143016028
:105A2000BFE718E0B0F5405F03D0B0F5804F00D07D
:105A300001250DB32E46208880042FD5E06DB0F5EA
:105A4000403F29D021DC38B3B0F5803F37D0B0F5E6
:105A5000003F20D139E0386840F400303860E8E792
:105A60000021201D04F00AFB0546E2E70098002112
:105A700004F000FC0546DCE7D9F80000A16D20F435
:105A8000E0400843C9F80000D5E7B0F5802F03D007
:105A9000B0F5A02F00D00125EDB12E46208840049E
:105AA0002CD5D4F8A800B0F1405F24D01CDC10B392
:105AB000B0F1805F7ED0B0F1005F1BD153E10121D6
:105AC000201D04F0DBFA0546E6E70098012104F00A
:105AD000D1FB0546E0E7D9F80000E16D20F4E020B5
