:020000040800F2
:10000000C09A0024A50300083F5E0008F5590008C7
:100010003D5E00082B050008758500080000000003
:10002000000000000000000000000000E5020008E1
:10003000550B000800000000410300085162000851
:10004000BF030008BF030008BF030008BF03000888
:10005000BF030008BF030008BF030008BF03000878
:10006000BF030008BF030008BF03000829060008FB
:1000700035060008410600084D060008BF030008C9
:10008000BF030008BF030008BF0300085D0B0008A2
:10009000690B0008BF030008BF030008BF03000886
:1000A000BF03000811640008BF030008BF03000875
:1000B0001D640008BF030008BF030008BF03000859
:1000C000BF030008BF030008BF030008BF03000808
:1000D000BF030008356D00084D6D0008BF03000820
:1000E000BF030008BF03000800000000BF030008B2
:1000F000BF030008BF030008BF030008BF030008D8
:10010000BF030008BF030008BF030008BF030008C7
:10011000BF030008BF030008BF030008BF030008B7
:10012000BF030008BF030008BF030008BF030008A7
:10013000BF030008BF030008BF030008BF03000897
:1001400000000000000000000000000000000000AF
:10015000BF030008BF030008BF030008BF03000877
:10016000BF030008BF030008515E0008455E000899
:10017000BF0300085D5E0008BF0300080000000028
:10018000BF030008BF030008BF030008BF03000847
:10019000BF030008BF030008BF030008BF03000837
:1001A000BF030008BF030008BF03000800000000F1
:1001B000BF030008BF030008BF030008BF03000817
:1001C000BF030008BF03000800000000000000009B
:1001D0000000000000000000BF0300080000000055
:1001E000000000000000000000000000000000000F
:1001F0000000000000000000BF030008BF0300086B
:10020000BF030008BF03000800000000BF03000890
:10021000BF030008BF030008BF030008BF030008B6
:10022000BF03000800000000BF030008000000003A
:10023000BF030008BF03000800000000BF03000860
:10024000BF030008BF030008BF030008BF03000886
:10025000BF030008BF030008BF030008BF03000876
:10026000BF030008BF030008BF030008BF03000866
:10027000BF030008BF030008BF0300080000000020
:10028000BF030008BF030008BF030008BF03000846
:1002900000000000BF030008BF03000800000000CA
:1002A00000000000BF030008BF030008BF030008F0
:1002B000BF030008BF030008BF030008750B000858
:1002C000BF030008BF030008BF030008DFF810D019
:1002D00000F0EEF80048004765860008AFF30080A4
:1002E000C09A00242C4B19680868B0E8F04F80F3DE
:1002F0000988BFF36F8F4FF0000080F311887047BB
:100300000000000008480068006880F308884FF08B
:10031000000080F3148862B661B6BFF34F8FBFF35D
:100320006F8F00DF00BF00BF08ED00E0DFF80C00BA
:10033000016841F470010160704700BF88ED00E082
:10034000EFF30980BFF36F8F134B1A681EF0100F85
:1003500008BF20ED108A20E9F04F106009B44FF07B
:10036000500080F31188BFF34F8FBFF36F8F09F0F8
:100370009FF94FF0000080F3118809BC19680868E4
:10038000B0E8F04F1EF0100F08BFB0EC108A80F3F9
:100390000988BFF36F8F704714000024EFF30580C6
:1003A000704700000648804706480047FEE7FEE722
:1003B000FEE7FEE7FEE7FEE7FEE7FEE7FEE7FEE715
:1003C00049630008CD0200082DE9F05F05460020D2
:1003D00092469B4688460646814640241BE02846B6
:1003E00041464746224600F053F853465A46C01A43
:1003F000914110D311461846224600F03AF82D1AC2
:1004000067EB01084F4622460120002100F031F839
:1004100017EB00094E41201EA4F10104DFDC484621
:1004200031462A464346BDE8F09F40EA01039B0758
:1004300003D009E008C9121F08C0042AFAD203E059
:1004400011F8013B00F8013B521EF9D27047D2B2BD
:1004500001E000F8012B491EFBD270470022F6E7AD
:1004600010B513460A4604461946FFF7F0FF20462A
:1004700010BD202A04DB203A00FA02F10020704768
:100480009140C2F1200320FA03F3194390407047D2
:10049000202A04DB203A21FA02F00021704721FAD9
:1004A00002F3D040C2F12002914008431946704740
:1004B000064C074D06E0E06840F0010394E80700B1
:1004C00098471034AC42F6D3FFF704FFD8A10008D8
:1004D000F8A1000870B58C1810F8015B15F007033F
:1004E00001D110F8013B2A1106D110F8012B03E0CD
:1004F00010F8016B01F8016B5B1EF9D12B0705D4D5
:100500000023521E0DD401F8013BFAE710F8013B1D
:10051000CB1A921C03E013F8015B01F8015B521E39
:10052000F9D5A142D8D3002070BDFEE730B589B01F
:100530000320002401250194029401A9CDE905506E
:100540001648CDE9034501F0FAFD13211120CDE94C
:100550000145CDE90501114801A9CDE9034501F0A7
:10056000EEFD02220D4801231146009501F026FE02
:100570000A480022012101F09DFD084802F0AEFA70
:100580000748E9044A004460C0E90241C0E9044266
:100590008461C461046209B030BD0000044B0024D2
:1005A000D4500024002070470020704705490022E5
:1005B000054810B506F030FD0449034806F026FD55
:1005C000002010BDB45E0024E4510024B456002481
:1005D00070B50D4604460146064806F017FD05486D
:1005E00006F0F9FC288881B2204600F007F80020C8
:1005F00070BD0000E451002400207047094A10B586
:10060000D2F8BC22D2F814220AB1012010BD0A4649
:100610000146044806F000FDBDE81040014806F020
:100620005CBD0000E4510024014800F08FBE0000D2
:100630004C4F0024014800F089BE0000C44F002444
:10064000014800F083BE00005C4E0024014800F029
:100650007DBE0000D44E0024294A016891423AD060
:10066000274A1832914236D0254A3032914232D050
:10067000234A483291422ED0214A603291422AD0F8
:100680001F4A7832914226D01D4A9032914222D0A0
:100690001B4AA83291421ED01A4A91421BD0194AD5
:1006A0001832914217D0174A3032914213D0154A6E
:1006B000483291420FD0134A603291420BD0114A16
:1006C0007832914207D00F4A9032914203D00D4ABE
:1006D000A832914211D1CAB21823103AB2FBF3F2F8
:1006E0006FF30901032A02F00703074AD25CC265CF
:1006F00000D9091D81650846704721F0FF01F9E71F
:100700001000024010040240ECA0000830B5224A5C
:10071000012301689142CAB21BD01F4C1434A1427C
:1007200017D01D4C2834A14213D01B4C3C34A1429D
:100730000FD0194C5034A1420BD0174C6434A14255
:1007400007D0154C7834A14203D0134C8C34A1420D
:100750000CD11421114C083AB2FBF1F10F4A80324E
:1007600001F01F0504EB8101AB4010E00C4D182493
:10077000103A0D44B2FBF4F1A82D00D80831094A13
:1007800001F01F0402EB8101064AA3408032603071
:1007900080E80E0030BD000008540258005802588E
:1007A000F0FBFDBF0008024010B50279531E072B75
:1007B0002DD8174C0168A1421BD0154C1434A1420E
:1007C00017D0134C2834A14213D0114C3C34A14211
:1007D0000FD00F4C5034A1420BD00D4C6434A142C9
:1007E00007D00B4C7834A14203D0094C8C34A14281
:1007F00003D10849074C443102E00749064C443113
:1008000004EB8202C0E91B2101219940416710BD20
:1008100008540258FC580258FC08024010B583697D
:100820004FF0C074826A0146002053B1B3F5005FF7
:1008300015D072B1012A0CD0022A0AD0032A09D19C
:1008400004E01AB1012A06D0022A03D1C96AC901FB
:1008500000D5012010BDC96AA142FAD010BD002AFE
:10086000F7D0012AF2D0022AF3D0032AF3D010BD28
:100870002DE9F04F804E804FDFF8FC911836DFF8FD
:10088000F8A148370468856D0AF1300ADFF8ECB149
:100890004C45DFF8ECC1DFF8ECE16DD0B4426BD031
:1008A000544569D0BC4267D0DFF8D081A8F1180860
:1008B000444561D05C455FD064455DD074455BD0F4
:1008C000DFF8C481444557D0DFF8BC8108F118082F
:1008D000444551D0DFF8B08108F1300844454BD091
:1008E000DFF8A48108F14808444545D0DFF8988135
:1008F00008F1600844453FD0DFF88C8108F17808A2
:10090000444539D0DFF8808108F19008444533D060
:10091000DFF8748108F1A80844452DD0DFF86C8118
:10092000444529D0DFF8648108F11408444523D0F8
:10093000DFF8588108F1280844451DD0DFF84C81C4
:1009400008F13C08444517D0DFF8408108F1500811
:10095000444511D0DFF8348108F1640844450BD0D8
:10096000DFF8288108F17808444505D0DFF81C81BC
:1009700008F18C08444509D1D0E91948C4F804802D
:10098000C46E1CB1D0E91C48C4F8048004684C450E
:100990002ED0B4422CD054452AD0BC4228D0374E59
:1009A000183EB44224D05C4522D0644520D0744522
:1009B0001ED0354EB4421BD0334E1836B44217D039
:1009C000314E3036B44213D02F4E4836B4420FD099
:1009D0002D4E6036B4420BD02B4E7836B44207D041
:1009E000294E9036B44203D0274EA836B44215D1D2
:1009F00090F85C603F2406F01F06B440AC600468C9
:100A0000256825F4802525602EE09A600068C16085
:100A1000BDE8F08F99600068C260F9E71B4EB442F0
:100A20001BD01A4E1436B44217D0184E2836B44292
:100A300013D0164E3C36B4420FD0144E5036B4424A
:100A40000BD0124E6436B44207D0104E7836B44202
:100A500003D00E4E8C36B442DAD190F85C6001249B
:100A600006F01F06B4406C60046863608368402B26
:100A70000368CFD1C9E7000010000240880002409F
:100A8000A0000240B800024010040240085402587E
:100A90002DE9F0410A884FF4A566C2F30A02A2F5D7
:100AA000806202804B7802F525728C78B2424FEA60
:100AB000D30242EA4412C2F30A04A4F580644480DB
:100AC0008A78CB780D794FEA921242EA830242EAA1
:100AD0008522C2F30A03A3F5806383800A794D79E6
:100AE0004FEA520242EAC512C2F30A02A2F580623C
:100AF000C2800D8AC5F30A05A5F5806505814D798B
:100B00004FEA951787724D79C5F30115C5721CD848
:100B100004F52574B44218D803F52573B34214D8EC
:100B200002F52572B24210D87FB175B1CA888281B0
:100B30000A89C2814A8902820A7B82744A7BC27412
:100B4000C98981820020BDE8F0811621FFF786FC6B
:100B50000120F8E7704772B6FEE70000014801F097
:100B600015BC0000044B0024014801F00FBC00003C
:100B7000A44B0024014801F009BC0000444C0024AF
:100B8000F0B503684FF6FC716D4C426BD3F884509E
:100B90008D4345EA8205C3F88450036853F8845FA7
:100BA000068F25F47F0545EA06451D60836B654D7C
:100BB0009F180268D2F888308B4343EA8703C2F853
:100BC0008830026852F8883F868F23F4FE0343EA98
:100BD00006431360066856F8A03FC26B8B4307EBD1
:100BE000420243EA82033360076857F8A03FB0F837
:100BF000406023F4FE0343EA06433B60D0E910362D
:100C000003FB06220368D3F8B0608E4346EA8206EF
:100C1000C3F8B0600368B0F84860D3F8B07027F448
:100C2000FE0747EA0646C3F8B060D0E912670368DA
:100C300006FB0722D3F8AC608E4346EA8206C3F86F
:100C4000AC60D0E91467036806FB0722D3F8F060B4
:100C50008E4346EA8206C3F8F0600368B0F8586035
:100C6000D3F8F07027F47C1747EA0646C3F8F06023
:100C70000368876D53F8C06F02EB47028E4346EA64
:100C8000820119600168B0F85C20D1F8C03023F40B
:100C90007C1343EA0242C1F8C020016890F860204A
:100CA000D1F8C03023F07C5343EA0262C1F8C0207F
:100CB000416B04EB8101C166826B01EB820202672A
:100CC000C36B02EBC3024267D0E91034634302EB0B
:100CD00083028267D0E91234634302EB8302C26766
:100CE000D0E91434634302EB8302C0F88020836DA3
:100CF00002EBC303C0F88430C46D826E544303EB2F
:100D00008403C0F88830046E544303EB8402C0F8B7
:100D10009020AA420AD9D0F89C20032142F0200258
:100D2000C0F89C2080F898100120F0BD002200E05F
:100D300004C1D0F890308B42FAD80020F0BD0000FA
:100D400000AC0040FCD30040DFED042A80ED000A37
:100D5000C0ED012A0830C0EC050A70470000000011
:100D60002DE9F84F044601F0F1FF002C009008D067
:100D700094F83500022805D080216165002084F8B0
:100D80003400E3E0C84DC84EC749183520683036F6
:100D9000DFF81883DFF818938842DFF818A3DFF82C
:100DA00018B32ED0A8422CD0B0422AD0404528D02B
:100DB000484526D0504524D0584522D0BE4A183246
:100DC00090421ED0BD4A90421BD0BC4A183290427D
:100DD00017D0BA4A3032904213D0B84A48329042C3
:100DE0000FD0B64A603290420BD0B44A783290426B
:100DF00007D0B24A9032904203D0B04AA832904213
:100E000009D1026822F01E0202602068426922F0C5
:100E10008002426103E0026822F00E02026027684D
:100E20008F4238464DD0A8424BD0B04249D04045C1
:100E300047D0484545D0504543D0584541D09E4ABB
:100E4000183290423DD09D4A90423AD09B4A183287
:100E5000904236D0994A3032904232D0974A483246
:100E600090422ED0954A603290422AD0934A7832EE
:100E7000904226D0914A9032904222D08F4AA83296
:100E800090421ED08E4A90421BD08D4A143290421E
:100E900017D08B4A2832904213D0894A3C32904274
:100EA0000FD0874A503290420BD0854A643290422C
:100EB00007D0834A7832904203D0814A8C329742DD
:100EC00004D1206E026822F48072026076492068A4
:100ED000884228D0A84226D0B04224D0404522D013
:100EE000484520D050451ED058451CD07249183175
:100EF000884218D07149884215D07049183188420B
:100F000011D06E49303188420DD06C494831884249
:100F100009D06A496031884205D0684978318842F1
:100F200001D066499031016821F00101016010E0B3
:100F300001F00CFF0099401A05280AD920226265A9
:100F40000020032184F8340084F835100120BDE826
:100F5000F88F3868C007EBD1534A012120689042CE
:100F60002ED0A8422CD0B0422AD0404528D04845A7
:100F700026D0504524D0584522D04F4B18339842A4
:100F80001ED04E4B98421BD04C4B1833984217D072
:100F90004A4B3033984213D0484B483398420FD0D5
:100FA000464B603398420BD0444B7833984207D07D
:100FB000424B9033984203D0404BA833984208D11B
:100FC00094F85C703F23A06D07F01F07BB4083605F
:100FD00007E094F85C30A06D03F01F0301FA03F3FF
:100FE0004360206890424DD0A8424BD0B04249D0D7
:100FF000404547D0484545D0504543D0584541D05D
:101000002D4A183290423DD02C4A90423AD02B4A79
:101010001832904236D0294A3032904232D0274A94
:10102000483290422ED0254A603290422AD0234A3C
:101030007832904226D0214A9032904222D01F4AE4
:10104000A83290421ED01E4A90421BD01C4A143235
:10105000904217D01A4A2832904213D0184A3C3294
:1010600090420FD0164A503290420BD0144A64324C
:10107000904207D0124A7832904203D0104A8C3204
:1010800090420BD1D4E919024260E06E30B102689F
:1010900022F480720260D4E91C024260002084F8CD
:1010A000340084F8351052E7100002405800024026
:1010B0007000024088000240A0000240100402407C
:1010C000085402582DE9F05F28B190F83510022934
:1010D00004D0802141650120BDE8F09F904C904BE9
:1010E0000168183C18338E4ADFF83C92A1428D4CBF
:1010F000DFF838E28E4FDFF83CB2DFF83CA28F4DCC
:101100008F4E31D091422FD099422DD0A1422BD079
:10111000494529D0714527D0B94225D0DFF810C202
:101120000CF1180C61451FD0DFF808C2ACF1600C5F
:10113000614519D0DFF8FCC1ACF1480C614513D012
:10114000DFF8F0C1ACF1300C61450DD0DFF8E4C13F
:10115000ACF1180C614507D0594505D0514503D075
:10116000A94201D0B1422CD1DFF8B4C14FF004083C
:1011700080F83580ACF1180C61451DD091421BD030
:10118000994219D0A14217D0494515D0714513D0C5
:10119000B94211D06648183081420DD06548603898
:1011A000814209D063484838814205D061483038CF
:1011B000814201D05F481838086820F001000860BB
:1011C000ABE0D1F800C02CF00E08DFF854C1C1F834
:1011D0000080ACF1180C0168614527D0914225D000
:1011E000994223D0A14221D049451FD071451DD03D
:1011F000B9421BD0DFF838C10CF1180C614515D08D
:10120000DFF830C1ACF1600C61450FD0DFF824C1CC
:10121000ACF1480C614509D0DFF818C1ACF1300CD5
:10122000614503D0DFF80CC1ACF1180CD1F800C057
:101230002CF0010CC1F800C0DFF8E4804FF0010C85
:101240000168A8F11808414546D0914244D099421E
:1012500042D0A14240D049453ED071453CD0B94230
:101260003AD0334A1832914236D0324A603A9142EB
:1012700032D0304A483A91422ED02E4A303A9142EA
:101280002AD02C4A183A914226D0594524D05145AB
:1012900022D0A94220D0B1421ED02A4A91421BD06E
:1012A000284A1432914217D0264A2832914213D04C
:1012B000244A3C3291420FD0224A503291420BD004
:1012C000204A6432914207D01E4A7832914203D0BC
:1012D0001C4A8C32914218D1016E0A6822F4807245
:1012E0000A6090F85C20816D02F01F020CFA02F295
:1012F0004A60D0E919124A60C16E31B10A6822F41D
:1013000080720A60D0E91C124A600022016D80F8E8
:10131000342080F835C001B188470020DCE60000A9
:10132000280002405800024070000240880002403D
:10133000A00002407004024088040240A004024061
:10134000B804024008540258406D70472DE9FC5F14
:101350000446FA4E0020DFF8E48300904FF4165262
:10136000F74808F11808A56DDFF8D0A3DFF8CCB373
:1013700001680AF1300A20680BF1480BB1FBF2F169
:10138000B04201912F68D5F800C0DFF8B89336D08D
:101390004146884233D0504531D058452FD0E74997
:1013A000603188422BD0E5497831884227D0E34923
:1013B0009031884223D0E149A83188421FD0484566
:1013C0001DD0E0491831884219D0DE4930318842B9
:1013D00015D0DC4A4832904211D0DA496031884257
:1013E0000DD0DFF860E30EF1780E704507D0D54BD5
:1013F0009033984203D0D349A83188427ED194F8E3
:101400005C20082102F01F0201FA02F23A424BD09E
:10141000B04233D0404531D050452FD058452DD023
:10142000C64A6032904229D0C44A7832904225D0D0
:10143000C24A9032904221D0C04AA83290421DD078
:1014400048451BD0BF4A1832904217D0BD4A3032AF
:10145000904213D0BB4A483290420FD0B94A603212
:1014600090420BD0B74A7832904207D0B54A9032BA
:10147000904203D0B34AA832904203D1026802F0EE
:10148000040202E0026802F008026AB1026822F077
:101490000402026094F85C0000F01F008140A96023
:1014A000606D40F00100606594F85C00012100F07F
:1014B0001F008140394241D02068B04235D04045BC
:1014C00033D0504531D058452FD09C4A603290429D
:1014D0002BD09A4A7832904227D0984A9032904244
:1014E00023D0964AA83290421FD048451DD0954A35
:1014F0001832904219D0934A303200E0B2E1904263
:1015000013D0904A483290420FD08E4A60329042B7
:101510000BD08C4A7832904207D08A4A903290425F
:1015200003D0884AA83290427ED1406910F0800FE3
:1015300004D0A960606D40F00200606594F85C0022
:10154000042100F01F00814039423FD02068B042A2
:1015500033D0404531D050452FD058452DD0774A13
:101560006032904229D0754A7832904225D0734A31
:101570009032904221D0714AA83290421DD0484505
:101580001BD0704A1832904217D06E4A30329042C7
:1015900013D06C4A483290420FD06A4A603290426F
:1015A0000BD0684A7832904207D0664A9032904217
:1015B00003D0644AA83290424FD1006810F0020F65
:1015C00004D0A960606D40F00400606594F85C0090
:1015D000102100F01F008140394259D02068B042EC
:1015E00035D0404533D0504531D058452FD0534A9F
:1015F000603290422BD0514A7832904227D04F4AE5
:101600009032904223D04D4AA83290421FD0484594
:101610001DD04C4A1832904219D04A4A303290427A
:1016200015D0484A483200E015E090420FD0454AB4
:10163000603290420BD0434A7832904207D0414A00
:101640009032904203D03F4AA832904207D10068BE
:1016500000F0080006E0006870E70068B6E7006880
:1016600000F00400A0B1A96020680168490304D516
:101670000068000308D5A16C07E00168C90503D420
:10168000016821F008010160216C09B120468847FA
:1016900094F85C00202100F01F008140394278D08E
:1016A0002068B04233D0404531D050452FD0584506
:1016B0002DD0224A6032904229D0204A783290427E
:1016C00025D01E4A9032904221D01C4AA832904226
:1016D0001DD048451BD01B4A1832904217D0194ADA
:1016E0003032904213D0174A483290420FD0154AF8
:1016F000603290420BD0134A7832904207D0114AA0
:101700009032904203D00F4AA832904203D1006831
:1017100000F0100002E0006800F00200A0B3A96031
:1017200094F835000428206801680DD049037DD560
:101730000068000329D4616C28E00000100002401A
:101740000C0000241004024021F016010160206802
:10175000416921F080014161206C08B9A06C20B181
:101760002068016821F00801016094F85C303F2195
:10177000002203F01F0301209940A96084F834205F
:1017800084F83500216D66E003E0E16B09B1204685
:101790008847606D00287DD0606DC0075AD02068F2
:1017A000042184F83510B0422BD0404529D0504553
:1017B00027D0584525D09E49884222D09C491831CF
:1017C00088421ED09A49303188421AD0984948310F
:1017D000884216D0484514D09649884211D0954980
:1017E000183188420DD093493031884209D091494F
:1017F0004831884205D08F496031884201D08D49F7
:101800007831016821F00101016020680099019A96
:10181000491C0091914202D80168C907F6D1002104
:1018200084F834100068C00711D000E001E0032004
:101830000EE00168C905A8D403680022012123F045
:101840001003036084F8342084F835109DE70120EC
:1018500084F83500E16C00291CD002B02046BDE8B8
:10186000F05F0847744988421DD07349143188429B
:1018700019D071492831884215D06F493C318842CE
:1018800011D06D49503188420DD06B496431884286
:1018900009D000E086E068497831884203D0664983
:1018A0008C3188427ED194F85C800427016808F06E
:1018B0001F0807FA08F717EA0C0F009746D04F07E2
:1018C00044D500980F04686003D5C8033CD4A16CCC
:1018D000C1E7880638D42068B0422DD05449483931
:1018E000884229D0504527D0584525D050498842B4
:1018F00022D04F49183188421ED04D49303188429C
:101900001AD04B494831884216D0484514D049492D
:10191000884211D04749183188420DD090420BD0EF
:1019200044494831884207D0704505D0984203D0D9
:1019300040499031884203D1016821F0080102E05A
:10194000016821F004010160216C84E7022707FA95
:1019500008F717EA0C0F00974ED08F074CD5009868
:101960000F04686003D5C80344D4616C73E788062C
:1019700040D42068B0422FD02D49483988422BD01E
:10198000504529D0584527D02949884224D0284994
:101990001831884220D02649303188421CD0244951
:1019A000483100E041E0884216D0484514D0214932
:1019B000884211D01F49183188420DD090420BD077
:1019C0001C494831884207D0704505D0984203D061
:1019D00018499031884203D1016821F0140102E0D6
:1019E000016821F00A010160002184F8341001200F
:1019F00084F83500E16B2EE7082202FA08F212EAB9
:101A00000C0F12D0090710D5016821F00E010160FA
:101A100094F85C100120002201F01F0100FA01F18E
:101A20006960606584F8342012E7BDE8FC9F00001F
:101A30007000024028040240085402582DE9F05F6B
:101A4000044601F083F9002C07467DD0E14E0221C7
:101A500020684FF00308DFF880934FF00005DFF8AF
:101A60007CA3B042DFF878B334D0DA4A183290421F
:101A700030D048452ED050452CD058452AD0D84A91
:101A80001832904226D0D64A3032904222D0D44AE0
:101A9000483290421ED0D34A90421BD0D14A1832CD
:101AA000904217D0CF4A3032904213D0CD4A4832BC
:101AB00090420FD0CB4A603290420BD0C94A783264
:101AC000904207D0C74A9032904203D0C54AA8320C
:101AD00090427DD184F8345084F83510B0422ED035
:101AE000BC49183188422AD0484528D0504526D0D4
:101AF000584524D0BA491831884220D0B8493031ED
:101B000088421CD0B6494831884218D0B54988422D
:101B100015D0B4491831884211D0B24930318842C9
:101B20000DD0B0494831884209D0AE496031884271
:101B300005D0AC497831884201D0AA49903101687A
:101B400021F00101016008E023E100BF01F0FEF88F
:101B5000C01B052801D9202118E120680068C007B2
:101B6000F4D104F108002168D4E9053C8E4685C80B
:101B700009681043D4E907281F43636A38439A4F22
:101B800040EA0C001043394040EA0800042B40EAC8
:101B9000010003D1D4E90B12114308436168A1F19C
:101BA0002902052A0BD9163A032A08D9083A012A2C
:101BB00005D9083A032A02D97439032901D840F417
:101BC0008010CEF800002068676A4069042F00E0AA
:101BD0001FE020F0070047EA00070DD1D4E90A0111
:101BE000074349B12046FEF719FE28B14020606541
:101BF000012184F83510CCE0206847612046FEF7CB
:101C00002BFD94F85C203F2102F01F02914081607F
:101C100054E0764A90421BD0744B1433984217D04C
:101C2000724B2833984213D0704B3C3398420FD0FC
:101C30006E4B503398420BD06C4B6433984207D0B4
:101C40006A4B7833984203D0684B8C3398427DD1ED
:101C5000674B84F8345084F835100168A26801EAB3
:101C6000030E402A73D0802A72D00022D4E9037870
:101C7000D4E9053142EAD70242EAD8085B4AD4E9FE
:101C8000077C48EAD30848EAD10141EAD701524229
:101C900041EA1C11142341EA0E010160206810443E
:101CA000B0FBF3F08000E0652046FEF7D5FC94F829
:101CB0005C20012102F01F02914041602068B04287
:101CC00057D044491831884253D0484551D05045E7
:101CD0004FD058454DD042491831884249D04049EB
:101CE0003031884245D03E494831884241D03D4953
:101CF00088423ED03B49183188423AD03949303188
:101D0000884236D037494831884232D0354960312F
:101D100088422ED03349783188422AD031499031D7
:101D2000884226D02F49A831884222D02F498842A4
:101D30001FD02E49143188421BD02C4928318842AB
:101D400017D02A493C31884213D002E01DE017E049
:101D500018E02649503188420BD02449643188422A
:101D600007D022497831884203D020498C318842FB
:101D700029D12046FEF7CAFCA06880280CD00CE0D0
:101D8000102273E74FF4804270E74021616584F8C8
:101D900035800120BDE8F09F6560216E20790860E4
:101DA000D4E9190141606068401E072808D8204620
:101DB000FEF7FAFCE06E0560D4E91C01416002E028
:101DC000E566256765670120656584F835000020B4
:101DD000E0E70000100002404000024058000240CE
:101DE00070000240100402403F8010FE0854025868
:101DF0000F00FEFF2DE9F84F04008C464FF0000065
:101E0000009013D094F83400012811D094F8355084
:101E10000120002184F83400012D0BD084F8341007
:101E2000C202009062650098BDE8F88F0120FBE7D0
:101E30000220F9E78C4D0226206884F83560A8421C
:101E40008A4D61658A4E8B4FDFF82C82DFF82C9229
:101E5000DFF82CA2DFF82CB226D0A84224D0B04262
:101E600022D0B84220D040451ED048451CD0504515
:101E70001AD0584518D08449884215D08249183163
:101E8000884211D08049303188420DD07E49483196
:101E9000884209D07C496031884205D07A4978313E
:101EA000884201D078499031016821F00101016038
:101EB00061462046FEF7DCFC6B49206888422CD046
:101EC000A8422AD0B04228D0B84226D0404524D0DB
:101ED000484522D0504520D058451ED06A4A9042ED
:101EE0001BD0694A1832904217D0674A303290426C
:101EF00013D0654A483290420FD0634A6032904214
:101F00000BD0614A7832904207D05F4A90329042BB
:101F100003D05D4AA83290420CD1026822F01E0222
:101F200042F016020260206C88B12068026842F01C
:101F300008020BE0026822F00E0242F00A02026080
:101F4000206C20B12068026842F004020260206820
:101F500088424BD0A84249D0B04247D0B84245D081
:101F6000404543D0484541D050453FD058453DD0ED
:101F7000454A90423AD0444A1832904236D0424ABA
:101F80003032904232D0404A483290422ED03E4ABF
:101F9000603290422AD03C4A7832904226D03A4A67
:101FA0009032904222D0384AA83290421ED0374A0E
:101FB00090421BD0354A1432904217D0334A28320F
:101FC000904213D0314A3C3290420FD02F4A5032C7
:101FD00090420BD02D4A6432904207D02B4A78327F
:101FE000904203D0294A8C3290420DD1206E026873
:101FF000D20303D5026842F480720260E06E18B129
:10200000026842F4807202602068884226D0A842AA
:1020100024D0B04222D0B84220D040451ED04845FE
:102020001CD050451AD0584518D01749884215D0B1
:1020300015491831884211D01349303188420DD0EA
:1020400011494831884209D00F496031884205D092
:102050000D497831884201D00B499031016841F037
:1020600001010160DFE6000010000240280002408C
:1020700040000240580002407000024088000240C8
:10208000A0000240B8000240100402400854025868
:1020900070B5044600F05AFE0546601C02D00448A4
:1020A0000078044400F052FE401BA042FAD370BDF9
:1020B0000000002410B590F89830012B09D0022BB5
:1020C00007D0D0F89C1041F00201C0F89C1001200C
:1020D00010BD03689C6D0C4203D1DC6D44F001041B
:1020E00004E09C6D31EA04041FD00324DC658B05F9
:1020F00005D50368D3F8E0401443C3F8E0404B052E
:1021000005D50368D3F8E4401443C3F8E4400068FD
:10211000084A01EA0203446D074A1C4344651068FB
:1021200040EA91701060002010BDDC6D44F00204A4
:10213000DCE70000FFFFCF3F14A80040704770B5F8
:1021400090F89820012A09D0022A07D0D0F89C10D4
:1021500041F00201C0F89C10012070BD0B68CA68F4
:1021600083B10B69072A43EA427325D00C7A4A6986
:1021700042EA84724968006F00EBC100C0E9003296
:10218000002070BD072A0DD00C7AD6060D8A4B6947
:1021900043EA847246EA0543C06E49681A4340F830
:1021A0002120EDE70B8A4FF06055D1E9062442EA81
:1021B000034245EA0423EFE78A69DBE730B590F88C
:1021C0009850039C012D07D0D0F89C1041F00401D9
:1021D000C0F89C10012030BD0D01016845EA820065
:1021E00040EA43002043C1F88000002030BD704722
:1021F00070470000F0B590F898400025022C04D0FC
:10220000D0F89C1041F008012BE040294FF0004627
:1022100005D0412929D0046D8C4219D942E00468C7
:10222000D4F8A07017F4FE0F12D0D4F8A4707F0673
:1022300013D0D4F8A470FF0105D5D4F8A070B6EB84
:10224000D77F00D10125D4F8A470466F446C24E0F8
:10225000D0F89C1041F0200103E0D0F89C1041F42C
:102260008071C0F89C100120F0BD0468D4F8B070F3
:1022700017F4FE0FECD0D4F8B4707F06EDD0D4F88C
:10228000B470FF0105D5D4F8B070B6EBD77F00D19C
:102290000125D4F8B470866FC46CC7F305273D449C
:1022A0006C4302E0446DC66F4C4306EB8404266821
:1022B00016F080465660266836D026F060461660D6
:1022C000D4F800C000262F4F0CF0005CC2F808C004
:1022D000D4F800C00CF0004CC2F810C0B4F804C030
:1022E0001FFA8CFCC2F81CC0D4F804C00CF4702C8B
:1022F000C2F80CC0D4F804C00CF4801CC2F814C09E
:10230000D4F804C00CF4001CC2F818C0D4F804C0FF
:10231000CCF3066CC2F820C0D4F804C008344FEAED
:10232000DC7CC2F824C008E0C6F38A46C7E700BFD9
:1023300014F806C003F806C0761CD2F80CC007EBF0
:102340001C4C9CF800C0B445F2D840290AD0412961
:102350000CD020294FF001020CD200688A40C0F84E
:1023600098200DE00068C0F8A85009E00068C0F8A7
:10237000B85005E0006801F01F018A40C0F89C20B9
:102380000020F0BDF4A00008704700002DE9FC5FBC
:10239000DFF804B3044600680BF104028246DBF860
:1023A0000070D2F80080026D416D036D466DD0F86B
:1023B0005090456DD0F850C009F0F00005EA0009D2
:1023C000DAF85450DAF8500000F0607EB80700EAFE
:1023D00088700090DAF85470DAF8548002F4704093
:1023E00003F00F02014001910CF071535FEAC851F4
:1023F00006EA020605EA030507EA0E070DD5DAF834
:102400005000C00509D500214FF48073CAF8503040
:10241000CBF800102046FFF7B7FF2068416D490553
:1024200011D5016D49050ED5D0F8DC20D0F8E410A7
:1024300000234FF48068C0F850801140CBF8003082
:10244000204600F06AFBDFF85482009850B1226801
:10245000830F00EA08001065CBF800302046009991
:10246000FFF76CFE019850B12268830F00EA080064
:102470001065CBF800302046019900F050FB56B1B2
:102480002268B30F06EA08001065CBF80030314629
:10249000204600F0CBFAB9F1000F0BD022684FEACA
:1024A000997309EA08001065CBF8003049462046C8
:1024B00000F0EEFA2068416D09050BD5016D0905A4
:1024C00008D500214FF400630365CBF800102046C7
:1024D00000F026FB2068416D890511D5016D890545
:1024E0000ED5D0F8D820D0F8E01000234FF4007CAF
:1024F000C0F850C01140CBF80030204600F00EFB71
:102500002068416D09030BD5016D090308D5002131
:102510004FF400230365CBF80010204600F084FA46
:102520002068416DC9030BD5016DC90308D5002191
:102530004FF480330365CBF80010204600F0ECFA2E
:102540002068416D49030BD5016D490308D5002171
:102550004FF480230365CBF80010204600F0DBFA2F
:102560002068416D89030ED5016D89030BD50021CB
:102570004FF400330365CBF80010D4F89C0040F012
:102580008000C4F89C0057B12268BB0F07EA08001E
:102590001065CBF8003039462046FFF729FE5DB1C3
:1025A0002268AB0F05EA08001065CBF80030D4F8BC
:1025B0009C002843C4F89C0039492068884262D1B5
:1025C00060688146806880075DD0D9F82060D9F8BE
:1025D0002410D9F82080D9F82400D9F82030D9F86F
:1025E0002470D9F82020D9F82450D9F820C002F45A
:1025F000FC4206F00F0AD9F82460154008F03008B4
:1026000003F4C0730CF4F02C11EA0A0100EA080884
:1026100007EA030706EA0C0604D0C9F82010204692
:1026200000F076FAB8F1000005D061680862414612
:10263000204600F06FFA6068416A49060CD5016ACD
:10264000490609D5C16BC26B40230362090C2046C1
:1026500002F03F0200F05DFA2FB160680762394670
:10266000204600F054FA35B160680562D4F89C0049
:102670002843C4F89C0036B160680662D4F89C0018
:102680003043C4F89C00D4F89C00002802D02046B7
:10269000FFF7ADFDBDE8FC9F10A80040FFFFCF3F56
:1026A00000A000402DE9F04194B08D494C22044631
:1026B0006846FDF7BAFE64B18A4D2068A84202D18F
:1026C00000F58070606094F898004FF0000820B129
:1026D00008E0012014B0BDE8F081204684F899801C
:1026E00000F002F92068816921F01001816100F099
:1026F0002DFB0327064604E000F028FB801B0A2878
:1027000011D8206880690007F6D42068816941F0FB
:102710000101816100F01AFB06460DE000F016FB96
:10272000801B0A2808D9D4F89C0040F00100C4F8A6
:102730009C0084F89870CCE720688069C007EDD0D1
:102740002068816941F002018161207C01282068B4
:10275000816937D041F040018161607C01282068A7
:10276000816932D021F480418161A07C01282068F8
:1027700081692DD041F4805181612068A26881690E
:1027800021F44071114381612068816921F0A40125
:1027900081612068016921F010010161E068012870
:1027A00019D010B302281BD02068816941F0800144
:1027B00081612068016941F010010161E06803282E
:1027C0000ED012E021F04001C6E741F48041CBE792
:1027D00021F48051D0E72068816941F0040103E0D1
:1027E0002068816941F020018161207E6FF0FF0245
:1027F000D4E90773A68A1102400602EB0727A0F16D
:102800000070384327685B1E184301EB06463043CF
:10281000F861A068B0F5407F11D104F12800A68CC2
:102820006FF00F0C89C801EB0641401E02EB03223A
:10283000104322680CEB071318430843D060206E46
:1028400030B12068626ED0F8C0101143C0F8C010DB
:10285000D4E917126846D14209D02168A36E51F815
:10286000C82F50F8233022F007021A430A60216C67
:1028700049B12168626C51F8BC3F50F8226023F0E6
:10288000070232430A60A16C51B12168E36C51F830
:10289000BC2F50F8233022F0700242EA03120A6083
:1028A000216D51B12168626D51F8BC3F50F8220092
:1028B00023F4E06242EA002008602068A84204D1C4
:1028C0006068816821F003018160C4F8948001216F
:1028D000C4F89C8084F898102046FEF751F9F9E678
:1028E00004A1000800A000402DE9F04387B0044691
:1028F00014216846FDF7B2FD454D002343490926E2
:10290000D4F800C00224434F0C3928683F4ABC4524
:10291000DFF8049100F1010023D10128286007D1DC
:10292000106840F480701060106800F480700590AA
:10293000086840F0080008600868694600F0080070
:10294000059003200090CDE90143CDE903364846C8
:1029500000F0E8F800220521132000F0E3FA13202C
:1029600027E0DFF8B8804FF44057C44526D101284E
:10297000286007D1106840F480701060106800F47F
:1029800080700590086840F0020008600868694699
:10299000009700F00200CDE901430393CDE9046004
:1029A0001F4800F0BFF800220521142000F0BAFAF9
:1029B000142000F0A9FA07B0BDE8F083194EB44521
:1029C000F9D10128286007D1106840F480701060A8
:1029D000106800F480700590086840F008000860F6
:1029E0000868694600F00800059005200097CDE9C9
:1029F0000143CDE90330484600F094F80022052158
:102A00009F2000F08FFA9F20D3E70000EC4402588B
:102A10009400002400A00040000C025800A40040D4
:102A20000004025800D400407047000010B504466E
:102A3000C80722D01149206888420CD1104B402190
:102A4000104A2046FFF7D6FB0E480D4A01680E4893
:102A500003F08EFD0AE00D49884207D1084B402162
:102A6000084A204610335032FFF7C4FB00222046AC
:102A7000BDE810400121FFF71DBB10BD00A00040C4
:102A800098000024F8500024C051002400D40040D5
:102A900010B50446C80618D50C492068884202D1F2
:102AA0000B4B0C4A06E00C49884207D1084B094AF7
:102AB0000833283220464121FFF79CFB00222046A4
:102AC000BDE810401021FFF7F5BA10BD00A400408A
:102AD000A00000242051002400D4004090F8981059
:102AE000012907D0D0F89C1041F00401C0F89C10D7
:102AF00001207047022180F89810002201688B693C
:102B000023F001038B61C0F89C201046704770478A
:102B100070477047704770477047704770477047FD
:102B2000704700002DE9FC4F01257A4C00234FF03F
:102B3000030A4FF0B04E4FF00F0BE4E005FA03F636
:102B4000324078D04F68012F05D0022F03D0112FCB
:102B500001D0122F1AD187684FEA4308D1F80CC070
:102B60000AFA08F927EA09070CFA08FC4CEA070CEC
:102B7000C0F808C0476891F804C0B743CCF3001C04
:102B80000CFA03FC4CEA070CC0F804C0C6684FEA14
:102B90004308D1F808C0C1460AFA08F7BE430197B6
:102BA0000CFA09FC4CEA060CC0F80CC04E68022E68
:102BB00001D0122E12D1DE084FEA437C00EB8606CC
:102BC00000960F69366A4FEADC6C0BFA0CF807FACC
:102BD0000CF726EA08063743009E37620E79D0F8D4
:102BE00000C0019F06F0030606FA09F62CEA070C5E
:102BF00046EA0C0606604E68F6001CD5464E37685D
:102C000047F00207376036689F0706F00206009615
:102C100023F0030606F1B046B1463F0FD6F808642C
:102C2000DFF8F8800BFA07FC404526EA0C0603D1D2
:102C30004FF0000C3AE065E0DFF8E4C0604502D1F7
:102C40004FF0010C32E0DFF8DCC0604502D14FF0FC
:102C5000020C2BE0DFF8D0C0604502D14FF0030C2E
:102C600024E0DFF8C8C0604502D14FF0040C1DE03D
:102C7000DFF8BCC0604502D14FF0050C16E0DFF86C
:102C8000B4C0604502D14FF0060C0FE0DFF8A8C0D9
:102C9000604502D14FF0070C08E0DFF8A0C06045A6
:102CA00002D14FF0090C01E04FF00A0C0CFA07FCBE
:102CB0004CEA060CC9F808C426684F6826EA0206E2
:102CC000FF0300D51643266066684F6826EA0206B1
:102CD000BF0300D516436660D1F804C07746DEF81E
:102CE00000605FEACC2C26EA020600D516433E605F
:102CF000D1F804C07E685FEA8C2C26EA020600D573
:102D000016437E605B1C0A6832FA03F67FF416AF46
:102D1000BDE8FC8F80000058F444025800000258BF
:102D20000004025800080258000C02580010025813
:102D30000014025800180258001C025800240258BF
:102D40000AB1816170470904FBE70000014880680F
:102D50007047000000000024024881680278114496
:102D60008160704700000024032010B500F0FAF8DD
:102D700001F022FD0F4A104914681368C4F30322BE
:102D800003F00F038A5CC95C02F01F0201F01F010F
:102D9000D0400A4A20FA01F1116009490860002078
:102DA00000F010F808B1012010BD00F09BF80020E1
:102DB00010BD00001844025868A10008100000244B
:102DC0000C00002410B5102804468AB02AD2002234
:102DD0000146192000F0A6F8192000F095F81548D2
:102DE00004601548016841F001010160006808A90C
:102DF00000F001000990684601F06AFC01F0CAFC8D
:102E00000E49400000220E4CB0FBF1F10D4840F29B
:102E1000E7330460C0E90332491EC0E9011202F041
:102E2000ABF810B101200AB010BD064802F0F2F86C
:102E3000F9E7000004000024F044025840420F006B
:102E4000000001403C500024F0B5154C4378211D92
:102E50000A1D23600378F3B143680B60057BC67AD3
:102E6000817A437B2D07847B45EA0665C77B90F812
:102E700009C0067A90F800E045EAC14040EA834084
:102E800040EA444040EA074040EA0C2040EA46005D
:102E900040EA0E0001E0002008601060F0BD000074
:102EA00098ED00E0BFF35F8F044800210368034AF8
:102EB00023F48033036070321160704724ED00E02A
:102EC000074A40F00100064970321060086840F47B
:102ED00080300860BFF34F8FBFF36F8F70470000E3
:102EE00024ED00E0074882B0016841F00201016072
:102EF000006800220F2100F002000090901E02B036
:102F000000F010B8F4440258002809DB410900F031
:102F10001F028900012001F1E0219040C1F8000169
:102F2000704700000E4BF0B41B680D46C3F302233C
:102F3000C3F10706042E00D90426191D072901D262
:102F4000002300E0DB1E012404FA06F19C40491E28
:102F50002940641E994014402143F0BC05F00BBB8E
:102F60000CED00E0064900F0070210B54FF6FF0433
:102F70000868044B204040EA02201843086010BD56
:102F80000CED00E00000FA0501680123C0F8FC33F5
:102F9000002280F8F4238869044A40F000608861C8
:102FA000486D104348650020704700000300001082
:102FB00070470068416200207047F0B503685D6AA1
:102FC00039B19F6A4C1E00204FF4827605EB1745FD
:102FD0000BE045EA0240986210E0471C06EB8000D7
:102FE00053F800C0F8B205EB1C45A042F5D34FF4EE
:102FF000807000EB810045EA02421A500020F0BDCB
:10300000D0F8040404F0ACBAC1EBC10200EB8202B8
:10301000D0F80404926C04F017BAC1EBC10200EBC3
:103020008202D0F80404D2F8082204F062BAD0F880
:10303000040404F097BA01F00F020B0670B5C2EB5E
:10304000C20104464FF001004FF0000504EB81017E
:1030500003D581F83D003C3103E081F8FD5101F5D5
:10306000FE710A7094F8BC23012A08D084F8BC03CE
:10307000206804F017FE002084F8BC5370BD0220C5
:1030800070BD70B54268044601F00F00904201D94E
:10309000012070BD01F00F024FF000050B06C2EBDE
:1030A000C2014FF0010204EB810103D581F83D20FC
:1030B0003C3103E081F8FD5101F5FE718D7008701F
:1030C00094F8BC03012808D084F8BC23206804F0DD
:1030D000E3FF002084F8BC5370BD022070BD01F0F6
:1030E0000F01C1EBC10100EB8100D0F81402704761
:1030F0002DE9F04101F00F0604460D064FF00100E6
:10310000C6EBC6014FF0000504EB810103D581F841
:103110003D003C3103E081F8FD5101F5FE714F782F
:103120008A60CB700E7007B1CE80022B00D10D717A
:1031300094F8BC23012A09D084F8BC03206804F069
:103140000BFD284684F8BC53BDE8F0810220FBE764
:1031500070B501F00F050C460026C5EBC50100EB6C
:103160008101C1F80822C1E9843681F8FD6181F846
:10317000FC5101F5FE710369012B00D10A612207A0
:10318000027C006803D004F0DFFF002070BD04F073
:10319000C9FEFAE770B50D464168044605F00F0018
:1031A000884201D9012070BD29064FF000064FF07A
:1031B000010207D5C0EBC00104EB810181F83D207D
:1031C0003C3107E0C5EBC50104EB810181F8FD61ED
:1031D00001F5FE718A70087094F8BC03012807D0CD
:1031E00084F8BC23206804F083FF280702D007E09E
:1031F000022070BD217C04F57172206804F020FF6C
:10320000002084F8BC6370BD2DE9F04101F00F058A
:103210000C460026C5EBC501012700EB81018A643D
:10322000C1E9143681F83D7001F83C5F0369012B58
:1032300000D10A612207027C006804D004F084FFF8
:103240000020BDE8F08104F06DFEF9E72DE9FC5F98
:1032500005680446284605F0A0F800287ED12068BD
:1032600005F0C7F8002879D0206805F0C2F880077B
:1032700004D52068416901F002014161206805F030
:10328000B8F8C10604F57170009034D520688169E2
:1032900021F0100181612F6A07F00F01C7F343404D
:1032A000C1EBC101022804EB810606F5FE7602D0CF
:1032B000062811D01AE047F6F070074216D0C7F37F
:1032C0000A12F1681746284605F097F8F168B069C8
:1032D0003944F160384408E000990822284605F096
:1032E0008CF8B069C7F30A110844B061206881699D
:1032F00041F010018161206805F07BF800034FF078
:1033000001094FF0080B5BD52068002605F050F846
:10331000DFF8A8A3074651E0F8074DD02068F1B2C6
:1033200005F05FF88046C00707D005EB4611C1F8ED
:10333000089B3146204602F097FD5FEA087022D5CF
:1033400005EB4611C1F808BB2068016C00EB461084
:1033500001915145D0F8081B07D900E0ABE1090401
:1033600003D54FF40041C0F8081B204600F08AFA4C
:103370000198504507D92069012804D1206801210E
:10338000009A04F05DFE5FEAC86004D505EB4611C3
:103390001020C1F8080B5FEA886004D505EB4610E1
:1033A0002021C0F8081B5FEA884005D505EB4611CF
:1033B0004FF40050C1F8080B7F08761C002FABD1EA
:1033C000206805F016F840034FF0000A5CD520682D
:1033D00004F0E7FF0026074654E0F80750D02068C5
:1033E000F1B204F0ECFF8046C00723D0D5F83428B2
:1033F00006F00F0C05EB461309FA0CF08243C5F8F2
:103400003428C3F80899206901280FD1C6EBC600FB
:1034100004EB8000D0E911121144816436B9206DAB
:1034200020B920680121009A04F00AFE2046F1B27A
:10343000FFF7EAFD5FEA087003D505EB4611C1F816
:1034400008B95FEAC86004D505EB46111020C1F841
:1034500008095FEA486004D505EB46114020C1F831
:1034600008095FEA887004D505EB46110220C1F80F
:1034700008095FEA086003D53146204602F05AFD8C
:103480007F08761C002FA8D1206804F0B2FF002826
:1034900011DAD5F8040820F00100C5F8040894F802
:1034A000F403012839D0204600F0D0F920684169A2
:1034B00001F000414161206804F09BFF00050BD53D
:1034C000D5F80808C00702D0204600F003FA2068AB
:1034D000416901F400614161206804F08AFF000144
:1034E0000AD52068416901F00061416194F8F40354
:1034F000D0B1204600F0EEF9206804F07AFFC00455
:1035000076D5D5F8040820F00100C5F80408206835
:10351000102104F023FF002135E00021204684F82B
:10352000F4A3FFF745FDC1E784F8F4932068406DEC
:103530000121C0F38300C4F8F8032046FFF738FDEB
:10354000DAE700BF05EB41104FF67F32C0F80829DB
:10355000D0F8003923F40013C0F80039D0F800394E
:1035600043F00063C0F80039C0F8082BD0F8002BF6
:1035700022F40012C0F8002BD0F8002B42F00062B9
:10358000C0F8002B491C60688842DBD8D5F81C08BD
:1035900040F00110C5F81C08206B60B1D5F8840814
:1035A00040F00B00C5F88408D5F8440840F00B0043
:1035B000C5F844080CE0D5F8140842F22B01084382
:1035C000C5F81408D5F8100840F00B00C5F810082D
:1035D000D5F8000820F4FE60C5F80008217C2068BA
:1035E000009A04F02DFD2068416901F48051416189
:1035F000206804F0FEFE800417D5206804F0ECFA81
:10360000206804F0BDFEE06001F090F80146207BE8
:103610002368C2B2184604F027FF204600F000F9E4
:103620002068416901F400514161206804F0E1FE25
:10363000000707D5204600F00DF92068416901F028
:1036400008014161206804F0D4FEC00208D50021C1
:10365000204600F035F82068416901F4801141618D
:10366000206804F0C6FE800208D50021204600F044
:103670002BF82068416901F400114161206804F0D1
:10368000B8FE400007D52046FFF7BAFC2068416924
:1036900001F080414161206804F0ABFE40070AD58B
:1036A00020684568680702D52046FFF7C0FC2168FE
:1036B000486828434860BDE8FC9F00000A30544F2A
:1036C000D0F8040403F0A6BFD0F8040403F0A4BFAC
:1036D0002DE9F04104008AB005D094F8BD0300251F
:1036E000266820B108E001200AB0BDE8F08120463C
:1036F00084F8BC5300F066F8032084F8BD03F06B37
:10370000C00500D42561206804F006FC04F1100116
:10371000684628228846FCF788FE94E80F0004F0EB
:1037200069FA0227D8BB2068002104F074FE00204B
:10373000012610E0C0EBC001421C04EB810181F8BE
:103740003D6081F83F504D648D640D6581F83C000B
:10375000A1F84200D0B261688142EBD8002011E0AC
:10376000C0EBC001421C04EB810181F8FD5181F8DE
:10377000FF51C1F80452C1F80852C1F8105281F843
:10378000FC01D0B261688142EAD8282241466846ED
:10379000FCF74BFE94E80F0004F002FB10B184F834
:1037A000BD73A0E7606A84F8385084F8BD630128CF
:1037B00002D12046FFF7E8FB206804F0E5FA00207C
:1037C00092E7000008B500681349884222D11348E7
:1037D000016841F00071016000680022052100F0DD
:1037E000007000904A20FFF79DFB4A20FFF78CFBFA
:1037F000002205214B20FFF795FB4B20FFF784FBB0
:10380000002205214D20FFF78DFBBDE808404D202B
:10381000FFF77ABB08BD000000000440D8440258FE
:1038200070B50446C068012570B1022801D0FDF7CB
:1038300092F9D4F80404294603F044FFD4F80404B0
:10384000BDE8704003F0FFBE0025F2E7D0F80404A5
:1038500003F022BFD0F8040403F028BF10B50446DB
:1038600090F8BC0301280BD0012084F8381084F8AC
:10387000BC03206804F0E6FD002084F8BC0310BD02
:10388000022010BDD0F8042400F57171104603F039
:1038900025BF10B590F8BC1304460068012906D076
:1038A000A26A012184F8BC13012A02D008E0022098
:1038B00010BDA169012903D0816B41F4803181637E
:1038C000206804F055FA206804F032FD002084F8E6
:1038D000BC0310BD10B50446D0F8040403F03EFF4D
:1038E0002068D0F8001E41F00101C0F8001E206AD7
:1038F000002804D00248016841F00601016010BDB3
:1039000010ED00E0134970B50A68D243520705D59F
:10391000096801F00701814213D118E00A6822F01A
:10392000070202430A60FFF711FA0A4D4FF47A7654
:103930000446083D07E000BFFFF708FA001BB0424D
:1039400001D9012070BD2868C0438004F4D4002050
:1039500070BD00000C4802580248016841F08071B7
:10396000016070470C48025810B500F0DFFE0549B1
:103970000968054AC1F30211515C01F01F01C840FA
:1039800010BD00002044025868A10008494930B524
:10399000484C0B1D0A68143409681D68246802F03D
:1039A0000303C5F30012C1F30531C4F3CC040029AD
:1039B00014FB02F200EE102AF8EE400A75D03F4ADE
:1039C0009FED3D1AB7EE000A6BB1DFED3D1A012BFA
:1039D00001D0022B64D002EE101A1168F8EE422AD0
:1039E00081EEA22A21E0334C283C23689B0612D5A5
:1039F000344B246801EE901A1168C4F3C104F8EE48
:103A0000612AE34001EE903AC1F30801F8EE611A31
:103A100081EEA22A0BE001EE901ADFED2B2A00BF07
:103A2000F8EE611A116882EEA12AC1F3080101EED5
:103A3000901A1168F8EE611A40EE811A71EE800A50
:103A400062EE200AC1F3462101EE101AB8EE411AC7
:103A500031EE001AC0EE811ABCEEE11A80ED001AB8
:103A60001168C1F3064101EE101AB8EE411A31EEA9
:103A7000001AC0EE811ABCEEE11A80ED011A11683D
:103A8000C1F3066101EE101AB8EE411A31EE000AD8
:103A900080EE801ABCEEC10A80ED020A30BD04E05F
:103AA00001EE901ADFED092ABAE7002101604160BA
:103AB0008160F3E728440258000000393844025876
:103AC0000024744A0090D0030024744C0024744BEA
:103AD000494930B5484C0B1D0A681C3409681D68FB
:103AE000246802F00303C5F30022C1F30551C4F3B7
:103AF000CC04002914FB02F200EE102AF8EE400A72
:103B000075D03F4A9FED3D1AB7EE000A6BB1DFED6D
:103B10003D1A012B01D0022B64D002EE101A11685D
:103B2000F8EE422A81EEA22A21E0334C283C236899
:103B30009B0612D5344B246801EE901A1168C4F329
:103B4000C104F8EE612AE34001EE903AC1F30801A6
:103B5000F8EE611A81EEA22A0BE001EE901ADFED79
:103B60002B2A00BFF8EE611A116882EEA12AC1F378
:103B7000080101EE901A1168F8EE611A40EE811A00
:103B800071EE800A62EE200AC1F3462101EE101A9E
:103B9000B8EE411A31EE001AC0EE811ABCEEE11AFD
:103BA00080ED001A1168C1F3064101EE101AB8EE5B
:103BB000411A31EE001AC0EE811ABCEEE11A80ED16
:103BC000011A1168C1F3066101EE101AB8EE411A2C
:103BD00031EE000A80EE801ABCEEC10A80ED020AC6
:103BE00030BD04E001EE901ADFED092ABAE70021AA
:103BF000016041608160F3E7284402580000003909
:103C0000404402580024744A0090D0030024744CAD
:103C10000024744B2DE9FC5F0446FC4F50F8241B34
:103C20000025DFF8EC932E46009008011DD5206E8C
:103C300050B1B0F5801F0CD0B0F5001F0ED0B0F51C
:103C4000401F1DD001250FE0386840F40030386077
:103C500016E00221201D02F0BFF903E000980221C6
:103C600002F04AFA05000BD02E462088C00523D565
:103C7000606D05281ED2DFE800F00C11161B1B003A
:103C8000226ED9F8001021F440111143C9F8001038
:103C9000EBE7386840F40030386009E00021201D6F
:103CA00002F09AF903E00098002102F025FA054697
:103CB000BDB100E001252E462088DFF85483400581
:103CC00008F108082FD5D4F8A000B0F5C00F28D00F
:103CD00010DCB8B1B0F5001F19D0B0F5800F0FD1CE
:103CE0001AE0626DD9F8001021F007011143C9F8FC
:103CF0000010E1E7B0F5000F13D0B0F5200F10D0A1
:103D000001250FE0386840F40030386009E00021F8
:103D1000201D02F061F903E00098002102F0ECF9A7
:103D200005468DB12E462088000530D5D4F8A40074
:103D3000B0F1407F29D011DCC0B1B0F1807F1AD042
:103D4000B0F1007F10D11BE0D4F8A020D8F800100B
:103D500021F460011143C8F80010E4E7B0F1806F6E
:103D600013D0B0F1A06F10D001250FE0386840F4F7
:103D70000030386009E00021201D02F02DF903E039
:103D80000098002102F0B8F905468DB12E46206852
:103D9000DFF87CB28001ABF1040B1FD5A06CD8B169
:103DA00010280FD0202812D0302815D0012514E07B
:103DB000D4F8A420D8F8001021F0E0611143C8F82D
:103DC0000010E4E7386840F40030386004E0022175
:103DD000201D02F001F905466DB12E462088C00471
:103DE0002BD5A06DB0F5005F20D00DDCA0B1B0F5F3
:103DF000805F0FD115E0A26CDBF8001021F03001DC
:103E00001143CBF80010E9E7B0F5405F13D0B0F5EF
:103E1000804F10D001250FE0386840F40030386042
:103E200009E00021201D02F0D7F803E000980021EE
:103E300002F062F9054685B12E462088800429D516
:103E4000E06DB0F5403F23D010DC08B3B0F5803F03
:103E500014D0B0F5003F0FD115E0A26DD9F80010D5
:103E600021F4E0411143C9F80010E6E7B0F5802FD6
:103E70000ED0B0F5A02F0BD001250AE00121201DA6
:103E800002F0AAF803E00098012102F035F9054696
:103E90008DB12E46208840042AD5D4F8A800B0F170
:103EA000405F23D010DC08B3B0F1805F14D0B0F1D4
:103EB000005F0FD115E0E26DD9F8001021F4E02188
:103EC0001143C9F80010E5E7B0F1804F0ED0B0F112
:103ED000A04F0BD001250AE00121201D02F07CF843
:103EE00003E00098012102F007F905466DB12E4666
:103EF000208800041FD5A06ED8B1B0F1805F0ED02D
:103F0000B0F1005F10D0012514E0D4F8A820D8F853
:103F1000001021F0E0411143C8F80010E8E73868CC
:103F200040F40030386004E00121201D02F054F814
:103F300005466DB12E462068C0011ED5606CD0B11B
:103F400001280ED0022811D0032814D0012513E037
:103F5000A26ED9F8001021F040511143C9F80010A9
:103F6000E9E7386840F40030386004E00221201DA1
:103F700002F032F8054665B12E462068400257D55A
:103F80002448016841F480710160FEF7DFFE82463B
:103F90000EE0626CDBF8001021F003011143CBF856
:103FA0000010EAE7FEF7D2FEA0EB0A0064283DD835
:103FB00018480068C005F5D575BBDFF854A0B4F803
:103FC000AC100AF1200ADAF8000001F4407100F4A4
:103FD0004070884211D0DAF80010DAF8002021F49D
:103FE000407142F48032CAF80020DAF8002022F44E
:103FF0008032CAF80020CAF80010D4F8AC00B0F53E
:10400000807F28D1FEF7A2FE019020E02C440258C8
:10401000504402580048025809E000BFFEF796FEDF
:104020000199411A41F28830814210D903252E4668
:104030002078DFF808A4C0073DD0606F182838D07A
:1040400026DC80B3082829D0102825D12CE0DAF806
:1040500000008007E2D5D4F8AC10C1F3012003289A
:10406000F7480DD0016821F47C510160B4F8AC2010
:10407000DAF80010C2F30B021143CAF80010D7E7B8
:10408000F04A036802EA111223F47C511143ECE771
:1040900020280ED028280CD001250BE00121201D5E
:1040A00001F09AFF04E004E00098012102F024F8F6
:1040B00005465DB12E46207880071ED5206F062864
:1040C00019D2DFE800F0160C11161616626FDAF836
:1040D000001021F038011143CAF80010EBE701216C
:1040E000201D01F079FF03E00098012102F004F89F
:1040F000054675B100E001252E46207840071FD502
:10410000D4F88C00062819D2DFE800F0160C11163E
:104110001616226FDAF8001021F007011143CAF8D1
:104120000010EAE70121201D01F056FF03E000988E
:10413000012101F0E1FF05469DB100E001252E4679
:10414000207880062BD5D4F88800B0F1405F24D0C9
:1041500011DC10B3B0F1805F15D0B0F1005F10D169
:1041600016E0D4F88C20D8F8001021F00701114394
:10417000C8F80010E4E7B0F1804F0ED0B0F1A04FC6
:104180000BD001250AE00021201D01F025FF03E0EE
:104190000098022101F0B0FF05468DB12E4620782F
:1041A00040062BD5D4F89400B0F5406F24D011DC34
:1041B00010B3B0F5806F15D0B0F5006F10D116E0D8
:1041C000D4F88820DAF8001021F0E0411143CAF851
:1041D0000010E4E7B0F5805F0ED0B0F5A05F0BD023
:1041E00001250AE00021201D01F0F6FE03E0009801
:1041F000022101F081FF05468DB12E462078000690
:104200002BD5D4F89800B0F5C04F24D011DC10B3F2
:10421000B0F5005F15D0B0F5804F10D116E0D4F89E
:104220009420D8F8001021F4E0511143C8F8001090
:10423000E4E7B0F5004F0ED0B0F5204F0BD00125CC
:104240000AE00021201D01F0C7FE03E000980221D2
:1042500001F052FF054645B12E46207800071CD5D7
:10426000E06FB0F5805F0AD00FE0D4F89820D8F85E
:10427000001021F460411143C8F80010EDE70098E8
:10428000022101F039FF00B10126E26FDAF80010D7
:1042900021F440511143CAF800102078C00613D50C
:1042A000D4F89000B0F5807F05D10098022101F08C
:1042B00023FF00B10126D4F89020D8F8001021F493
:1042C00040711143C8F800102068000316D5D4F8D7
:1042D0009C0038B1B0F5803F09D0B0F5003F0BD05D
:1042E00001250AE00021201D01F076FE03E0009880
:1042F000022101F001FF054685B12E4620684003EA
:1043000022D5D4F88000B0F5801F11D0B0F5001F81
:1043100013D0B0F5401F15D0012514E0D4F89C202F
:10432000D8F8001021F440311143C8F80010E5E737
:10433000386840F40030386004E00098012101F052
:10434000DBFE054655B12E462068C0031CD5E06C47
:1043500070B1B0F5803F10D0012514E0D4F8802072
:10436000DAF8001021F440111143CAF80010EBE70D
:10437000386840F40030386004E00221201D01F06C
:104380002BFE0546CDB12E462068800005D500984D
:10439000022101F0B1FE00B10126206880031BD587
:1043A000A06FB8B1B0F5807F10D0B0F5007F11D00C
:1043B000B0F5407F0ED001250DE0E26CDBF8001077
:1043C00021F480311143CBF80010DDE7386840F468
:1043D00000303860C5B32E462068C00207D5E26EB3
:1043E000D9F8001021F000411143C9F800102068ED
:1043F000800207D5626ED9F8001021F08071114358
:10440000C9F800102068400009D50D48016821F462
:10441000004101600168D4F8B020114301602068B8
:10442000002807DA226DDBF8001021F0405111431B
:10443000CBF8001096B10120BDE8FC9F544402580F
:1044400010440258CFFFFF00FFE7A26FDAF8001018
:1044500021F440711143CAF80010BDE70020EBE7DA
:10446000704700002DE9F05F04000F467ED0DFF8B2
:104470003882D8F8000000F00F00B8420CD2D8F80B
:10448000001021F00F013943C8F80010D8F80000DF
:1044900000F00F00B84269D12078844D40070AD55A
:1044A0002069296801F07001884204D9296821F047
:1044B00070010143296020787C4E361D00070AD523
:1044C0006069316801F07001884204D9316821F0D7
:1044D0007001014331602078C0060AD5A0693168B7
:1044E00001F4E061884204D9316821F4E0610143BC
:1044F00031602078DFF8B4B180060BF1080B0CD5E1
:10450000E1695846DBF8002002F07002914204D9BC
:10451000026822F070020A430260207880070AD500
:10452000E068296801F00F01884204D9296821F068
:104530000F01014329602078C0073ED05B49A26883
:104540002868183920F470601043286060680228D9
:1045500018D0032819D00968012819D04907002963
:104560004ADADFF848A1AAF1080A00E044E0DAF8E4
:10457000002022F007020243CAF80020FEF7E6FB03
:10458000814612E009688903E9E709688901E6E7DD
:10459000C905E4E7FEF7DAFBA0EB090141F2883038
:1045A000814202D90320BDE8F09F6168DAF800007B
:1045B00000F03800B0EBC10FECD1207880070AD5AD
:1045C000E068296801F00F01884204D2296821F0CF
:1045D0000F0101432960D8F80010404601F00F0197
:1045E000B9420BD9016821F00F013943016000681D
:1045F00000F00F00B84201D00120D4E72078400736
:104600000AD52069296801F07001884204D229681E
:1046100021F0700101432960207800070AD5606904
:10462000316801F07001884204D2316821F07001D4
:10463000014331602078C0060AD5A069316801F4D1
:10464000E061884204D2316821F4E06101433160C5
:10465000207880060CD5E1695846DBF8002002F08E
:104660007002914204D2026822F070020A43026092
:1046700000F0A2F80E492A682B68C2F3032203F067
:104680000F038A5CC95C02F01F0201F01F01D040D9
:10469000084A20FA01F111600749086007480068DC
:1046A000BDE8F05FFEF78EBB0020005218440258B0
:1046B00068A10008100000240C000024040000245D
:1046C0000248016841F4002101607047004402582B
:1046D00070B5144C3F220260124A24680832131D40
:1046E000114D04F00704446016681C1D06F4706642
:1046F0008660166806F00F06C660126802F0700247
:1047000002611A6802F0700242611A6802F4E06203
:104710008261226802F07002C261286800F00F0016
:10472000086070BD104402580020005230B500F0FF
:1047300043F80B4A0B490C4B15681468C5F3032268
:1047400004F00F048A5C095D02F01F0201F01F01F2
:10475000D040064A20FA01F119601060084630BDC9
:104760001844025868A10008100000240C0000241E
:1047700000B5FFF7DBFF05490968054AC1F30211DF
:10478000515C01F01F01C84000BD00001C440258EC
:1047900068A1000800B5FFF7C9FF05490968054A87
:1047A000C1F30221515C01F01F01C84000BD0000AF
:1047B0001C44025868A10008454970B5454809687D
:1047C000434B103B11F0380208D00111082A03D0E6
:1047D000102A0BD0182A0BD0084670BD196889061C
:1047E000FBD51968C1F3C101C84070BD3A4870BD1E
:1047F0003749374D18310C1D24350A680968266879
:104800002D6802F0030406F00102C1F30511C5F39F
:10481000CC0515FB02F200EE102AB8EE400AE9B30F
:104820002F4ADFED2E0AB7EE001A6CB1DFED2D1A1C
:10483000012C01D0022C43D002EE101A1068F8EEC1
:10484000422A81EEA22A1EE01C68A40611D51B682C
:1048500001EE901A1168C3F3C103F8EE612AD84043
:1048600001EE900AC1F30800F8EE611A81EEA22A67
:104870000BE001EE901ADFED1C2A00BFF8EE611A82
:10488000106882EEA12AC0F3080001EE900AF8EE4B
:10489000611A40EE201A31EE810A00E015E022EEA6
:1048A000000A1068C0F34620401C00EE900AF8EEA3
:1048B000600A80EE201ABCEEC10A10EE100A70BD2C
:1048C00001EE901ADFED092AD8E7002070BD000044
:1048D000104402580090D0030024F4000000003976
:1048E000304402580024744A0024744C0024744B51
:1048F000064810B50068400506D5FFF7B1FD03492D
:104900004FF48060091D086010BD00006444025827
:104910002DE9F04704007DD0FF4F2078FE4D183779
:10492000DFF8F483103DC00748D0D8F8000039689C
:1049300000F03800102815D0182803D101F003002A
:1049400002280FD06068B0F5803F12D010B1B0F5EA
:10495000A02F18D0286820F480302860286820F420
:10496000802009E02868800328D560680028D2D01C
:1049700024E0286840F480302860606888B1FEF741
:10498000E5F9064609E0286840F480202860F0E751
:10499000FEF7DCF9801B642877D828688003F7D5F8
:1049A0000CE0FEF7D3F9064605E000BFFEF7CEF9AE
:1049B000801B6428F0D828688003F7D4207880070B
:1049C00044D5D8F80000DFF85093396810F038006B
:1049D000A9F10C090ED0182801D188070AD0E06887
:1049E00018B3296821F0190101432960FEF7AEF9D7
:1049F000064616E02868400702D5E06800288AD0FD
:104A0000217CD9F8002022F0FE4242EA0161C9F877
:104A100000101BE0B0E000BFFEF798F9801B0228F1
:104A2000BAD828684007F7D5EAE7286820F00100DF
:104A30002860FEF78BF9064605E000BFFEF786F911
:104A4000801B0228A8D828684007F7D42078C00621
:104A500046D5D8F80000DFF8C092396800F0380079
:104A6000A9F10409082811D0182803D101F0030086
:104A700001280BD0E0690028286822D040F080008F
:104A80002860FEF763F9064617E0C3E02868C00512
:104A900002D5E06980286FD194F82010D9F8002061
:104AA00022F07C5242EA0161C9F8001018E000BF10
:104AB000FEF74CF9801B0228B2D82868C005F7D54C
:104AC000EAE720F080002860FEF740F9064604E09F
:104AD000FEF73CF9801B0228A2D82868C005F7D44D
:104AE0002078000729D58C48616964300029814607
:104AF000016811D041F001010160FEF727F9064677
:104B000005E000BFFEF722F9801B022888D8D9F8FB
:104B100000008007F6D510E021F001010160FEF7EA
:104B200015F9064605E000BFFEF710F9801B0228C4
:104B300070D8D9F800008007F6D42078800625D5F3
:104B4000A0690028286810D040F480502860FEF743
:104B5000FDF8064605E000BFFEF7F8F8801B0228C6
:104B600058D828688004F7D510E020F480502860D9
:104B7000FEF7ECF8064606E01DE100BFFEF7E6F89A
:104B8000801B022846D828688004F7D42078400784
:104B90004FD5DFF88891D9F8001041F48071C9F839
:104BA0000010FEF7D3F8064605E000BFFEF7CEF88A
:104BB000801B64282ED8D9F80000C005F6D5564EC3
:104BC000A068603601280AD008B1052813D03068E3
:104BD00020F001003060306820F0040002E030680E
:104BE00040F001003060A06841F2883A98B1FEF7C9
:104BF000ADF881460AE0306840F004003060EEE72E
:104C0000FEF7A4F8A0EB0901514503D830688007EE
:104C1000F6D50EE084E0FEF799F8814606E000BF85
:104C2000FEF794F8A0EB0901514579D83068800768
:104C3000F6D4606AF0B34146DFF8DC8008F1200862
:104C40000968C1F3C20103296BD00228286820F04B
:104C50008070286003D0FEF779F8044680E0FEF704
:104C600075F8064605E000BFFEF770F8801B0228C5
:104C700073D828688001F7D4E26A40F2F3313868CB
:104C800054F8283F884340EA021018433860217BDB
:104C90004FF4FE0C22894FF0FE47208A4902267D00
:104CA000521E401EA1F5007189B20CEA0040C2F309
:104CB000080200E081E01143761E0143164807EA2E
:104CC00006621143144A1C30C8F8001024320168EF
:104CD00021F00101016011684FF6F876236AB143B3
:104CE00041EAC30111600168A26921F00C0111437E
:104CF00001600168E26921F002011143016001686D
:104D000041F480310160016841F4003101600168C3
:104D100041F48021016005E0104402580048025827
:104D20001BE021E0016841F001010160286840F0CA
:104D300080702860FEF70AF8044604E0FEF706F8E3
:104D4000001B022809D828688001F7D535E000BF8C
:104D5000FDF7FCFF001B022802D90320BDE8F08705
:104D600028688001F4D428E039680128D8F80000C8
:104D700021D0A26A01F0030393421CD1E26AC1F37D
:104D800005118A4217D1216BC0F30802491E8A42DD
:104D900011D1616BC0F34622491E91420BD1A16B28
:104DA000C0F30642491E914205D1E16BC0F3066093
:104DB000491E814201D00120D0E70020CEE700004B
:104DC0002DE9F047040050D0607A4FF0000920B977
:104DD000204684F8089000F05BF82B4B02252B4905
:104DE000657247F274222068066826F004060660A1
:104DF000D4E9000607681F4047F080431E43066061
:104E000020680161206802612068016821F080410A
:104E10000160FDF79BFF06464FF0010808E000BF68
:104E2000FDF794FF801B022802D984F809801BE05B
:104E3000206800684000F3D420680427016841F02E
:104E40000401016020684068C043400601D46772D5
:104E50000BE0FDF77BFF06460AE000BFFDF776FF9B
:104E6000801B022804D96772E5600120BDE8F08745
:104E700020684068C0434007F0D584F80980C4F832
:104E80000C900020F2E70000DFFFFFBFBC0A5917BB
:104E900008B500680649884208D10648016841F013
:104EA00040010160006800F04000009008BD000073
:104EB00000180248DC4402587047704770470000F1
:104EC000F0B590F83C20012A41D0224E012480F810
:104ED0003C40022280F83D2002681F4D5368B242D8
:104EE000D2F808C001D0AA4203D14F6823F470035E
:104EF0003B430F6823F070031F4357600268B242C0
:104F000019D0B2F1804F16D0144B9A4213D0144BE3
:104F10009A4210D0134B9A420DD0AA420BD0124B9A
:104F20009A4208D0114B9A4205D0114B9A4202D0B6
:104F3000104B9A4204D189682CF080031943916088
:104F4000002180F83D4080F83C100846F0BD02206A
:104F5000F0BD0000000001400004014000040040DA
:104F600000080040000C00400018004000400140D4
:104F700000E0004000E4004010B5040003D094F8C5
:104F80003D0010B107E0012010BD002084F83C0076
:104F9000204600F023F8022084F83D002068211DFF
:104FA00001F042FA012084F8480084F83E0084F8B9
:104FB0003F0084F8400084F8410084F8420084F8FF
:104FC000430084F8440084F8450084F8460084F8DF
:104FD000470084F83D00002010BD000008B50068BF
:104FE000B0F1804F12D10A48016841F0010101601F
:104FF00000680022052100F0010000901C20FDF750
:1050000091FFBDE808401C20FDF77EBF08BD0000F1
:10501000E844025890F83D10012901D00120704762
:105020000B4A022180F83D100168CB6843F0010370
:10503000CB60006881681140062906D0B1F5803F39
:1050400003D0016841F001010160002070470000B9
:105050000700010070B5044690F83C00012814D008
:10506000394B012584F83C50022084F83D00226829
:105070009068184020F47F4090600868702828D01D
:1050800010DC10F00F0F03D04BE04FF0020070BDAA
:105090004FEA2012072A44D2DFE802F05151515161
:1050A00049323A00B0F1101F49D009DCB0F5805FF9
:1050B00037D0B0F5005F17D0B0F5801F31D13EE09A
:1050C000A0F5801120393AD0102938D0202928D1D4
:1050D00035E04A682068D1E9021301F011FA20682E
:1050E000816841F0770109E04A682068D1E902133C
:1050F00001F006FA2068816841F48041816010E087
:10510000CA684968206801F00FFA2068502106E05B
:10511000CA684968206801F018FA2068602101F027
:10512000F9F9002084F83D5084F83C0070BDCA684D
:105130004968206801F0F8F920684021EFE722680B
:1051400001461046EBE7000088FFCEFF704770B5C0
:105150000446006800250169C943890715D4C16860
:10516000C943890711D4EA1E026101212177206811
:1051700080698007204602D0FFF7E8FF04E000F0D6
:10518000A7F8204600F0A5F8257720680169C943F3
:10519000490717D4C168C943490713D402216FF0E6
:1051A0000402026121772068806910F4407F204664
:1051B00002D0FFF7CBFF04E000F08AF8204600F0B1
:1051C00088F8257720680169C943090716D4C168A2
:1051D000C943090712D404216FF008020261217744
:1051E0002068C0698007204602D0FFF7AFFF04E0C7
:1051F00000F06EF8204600F06CF825772068016911
:10520000C943C90617D4C168C943C90613D40821C4
:105210006FF01002026121772068C06910F4407FAE
:10522000204602D0FFF792FF04E000F051F820463C
:1052300000F04FF8257720680169C943C90708D1F4
:10524000C168C943C90704D1891E0161204600F025
:1052500041F820680169C943090609D4C168C943F6
:10526000090605D46FF0800101612046FFF725FE95
:1052700020680169C943C90509D4C168C943090641
:1052800005D46FF4807101612046FFF715FE206898
:105290000169C943490609D4C168C943490605D40F
:1052A0006FF040010161204600F02AF82068016992
:1052B000C94389060BD4C168C943890607D46FF076
:1052C000200101612046BDE87040FFF7F7BD70BDC9
:1052D0007047704710B5084904460068884201D1FC
:1052E000FDF73AFD2068B0F1804F03D10348016813
:1052F000491C016010BD000000000140D85100248D
:10530000704730B590F87C10012918D0012280F840
:105310007C202421C0F880100022202450F8601B3B
:105320000B680D6823F0005325F001050D60426005
:1053300050F8601C0B6004620277104630BD0220FA
:1053400030BD704770B5044690F87C0001281DD030
:10535000012284F87C202420C4F88000206805689D
:10536000026822F0010202602068826822F0606216
:105370000A438260204601F045F92268202100207E
:105380001560C4F8801084F87C0070BD022070BDE8
:1053900070B5044690F87C0001281DD0012284F8E5
:1053A0007C202420C4F8800020680568026822F070
:1053B000010202602068826822F060420A43826033
:1053C000204601F01FF92268202100201560C4F852
:1053D000801084F87C0070BD022070BD704770475B
:1053E00070B5044600681026D4F88010D4F88450B4
:1053F0008268120612D5212910D1816821F080011E
:105400008160606F38B1FBF7ABFC20B1606FFBF7D8
:105410009BFF20281BD0204601F03EFA20688168BF
:10542000490612D5222D10D1816821F040018160FA
:10543000A06F38B1FBF794FC20B1A06FFBF784FF9D
:10544000202804D0204601F013FA002070BDC4F8D3
:105450008860032070BD70472DE9F0410368044661
:10546000002540F60F06D86919689A68304209D1BC
:1054700086067DD501F0200602F080573E4377D0A6
:10548000E16E9EE0614E624F16400F4037436FD091
:10549000C70709D0CF0507D501271F62D4F8883088
:1054A00043F00103C4F8883083070AD5D30708D036
:1054B000276802233B62D4F8883043F00403C4F821
:1054C000883043070AD5D30708D0276804233B62F6
:1054D000D4F8883043F00203C4F8883003070CD5B1
:1054E00001F02003334308D0266808233362D4F840
:1054F000883043F00803C4F8883003050BD54B010E
:1055000009D526684FF400633362D4F8883043F03D
:105510002003C4F88830D4F88830002B34D08006BB
:1055200009D501F0200002F08051084303D0E16E5C
:1055300009B1204688472168D4F88800896849065F
:1055400002D410F0280F21D0204601F091F92068F4
:105550008168490615D5816821F040018160A06FFE
:1055600078B12C490165A06FFBF7ACFD002800E085
:1055700012E009D0A06F016D00E02046BDE8F041C7
:1055800008472046FFF767FFBDE8F0812046FFF798
:1055900062FFC4F88850F7E7C60209D5560207D55E
:1055A0004FF4801018622046BDE8F041FFF717BFA6
:1055B000060609D501F0800602F40002164303D066
:1055C000216F0029D9D1DFE742060DD54A060BD558
:1055D0001A682021204622F040021A60C4F8801088
:1055E000256700F005FACFE7020206D54A0004D588
:1055F0002046BDE8F041FFF7F1BEC001C4D5002947
:10560000C2DA2046BDE8F041FFF79BBE0100001062
:10561000200100048F67000810B5040003D0D4F8FF
:10562000800010B107E0012010BD002084F87C004C
:10563000204600F027F82420C4F880002068016884
:1056400021F001010160204601F034F90128EBD07E
:10565000A06A10B1204601F007F82068416821F4E3
:10566000904141602068816821F02A0181602068B2
:10567000016841F0010101602046BDE8104001F0E1
:1056800057B800002DE9F04786B006461421684659
:10569000FAF7E4FE0222594B3168002456485502BD
:1056A00099424FF0400A4FF480794ED1524910315F
:1056B0000B6843F010030B60096801F010010591BD
:1056C000016841F0020101600068042100F002005D
:1056D00005904FF440408DE81500CDE9034148485E
:1056E0006946FDF71FFA474F2923474AA84638461F
:1056F00087E81C00C7E903457C61C7E906493C62AD
:105700007C62FCF79BF908B1FBF725FA3D4D2A2393
:10571000B7677835BE633C4A2846C5E903486C61E3
:105720001832AC61EC612C626C6285E80C04FCF709
:1057300085F908B1FBF70FFA756700220521AE6302
:105740002520FDF7EFFB252050E0304B99424FD14B
:10575000294908310B6843F400330B60096801F4F0
:1057600000310591016841F00101016000680721E5
:1057700000F0010005900C208DE81500CDE90341F3
:1057800023486946FDF7CEF91E4F2B231E4AA84633
:10579000F037303A384687E81C00C7E903457C619A
:1057A000C7E906493C627C62FCF748F908B1FBF79F
:1057B000D2F9184D2C23B767BE632846124AC5E9B3
:1057C00003486C61183AAC61EC612C626C6285E84C
:1057D0000C04FCF733F908B1FBF7BDF9756700223B
:1057E0000521AE632620FDF79DFB2620FDF78CFBEF
:1057F00006B0BDE8F0870000E04402580010014008
:10580000000402585C4E0024400002400044004066
:1058100000000258C44F002470B50446D0F884003C
:10582000202843D169B362B394F87C0001283DD0AD
:10583000A06F012684F87C600025A1652223A4F8CE
:105840005C20C4F88850C4F88430E0B1184913468D
:10585000C163A16F17480864A16F1748C864A06F9F
:105860000565A66D2168A06F32462431FCF7C2FAA7
:1058700048B11021C4F88810202084F87C50C4F866
:105880008000012070BD84F87C502068016841F4DC
:10589000807101602068816841F0010181602068A9
:1058A000816841F040018160002070BD022070BD20
:1058B000F16700082D680008A367000810B50E4CBA
:1058C000A0420ED10D490E48FBF7E2F8002807D0A0
:1058D0002168102008622068016841F01001016011
:1058E00010BD08498842FBD104490A22BDE8104096
:1058F0001C3100F02FB80000444D002482510024D8
:10590000A8510024D04D002410B50E4CA0420ED159
:105910000D490E48FBF7BCF8002807D0216810207D
:1059200008622068016841F01001016010BD08495B
:105930008842FBD104490A22BDE81040243100F01E
:1059400009B80000444D002470510024A8510024DF
:10595000D04D002470B50446D0F8800020283FD1F7
:1059600081B37AB394F87C00012839D0A4F854208C
:10597000A4F856200025606F01232165212184F8B9
:105980007C30C4F88850C4F88010E8B1154913463B
:10599000C163616F14480864616F1448C864606F24
:1059A00005652068666F00F12802216D3046FCF71E
:1059B00021FA48B11021C4F88810202084F87C50C6
:1059C000C4F88000012070BD21684020086284F87E
:1059D0007C502068816841F080018160002070BDAA
:1059E000022070BD3768000865680008A3670008DA
:1059F00070477047FEE70000F0B500230A251C46FB
:105A00003026372711E000BFB5EB107F02D906EB37
:105A1000107C01E007EB107C01F813C001EB430C94
:105A200000015B1C8CF80140DBB29342ECD3F0BD6B
:105A3000154808B5016841F00101016000680022C5
:105A4000052100F0010000900B20FDF76BFA0B2000
:105A5000FDF75AFA002205210C20FDF763FA0C200D
:105A6000FDF752FA002205210D20FDF75BFA0D200B
:105A7000FDF74AFA002205210E20FDF753FABDE892
:105A800008400E20FDF740BAD844025818480021BB
:105A900070B5164E012281600D2506600224C1609A
:105AA000402602740423417482744261C0E90625D1
:105AB000C0E90842C0E90C410664C0E90A25C0E912
:105AC0000E412022C0E91131C0E91331C0E915317E
:105AD000C0E91712C0E91913FCF7E4FD002803D050
