:020000040800F2
:10000000E8810024A5030008E9AB000885A40008E6
:10001000E5AB0008A5090008A5E9000800000000FC
:10002000000000000000000000000000E5020008E1
:10003000C90F000800000000410300089DB300083C
:10004000BF030008BF030008BF030008BF03000888
:10005000BF030008BF030008BF030008BF03000878
:10006000BF030008BF030008BF0300083D0A0008E3
:100070004D0A0008BF030008BF030008BF030008C3
:10008000BF030008BF030008BF030008D10F00082A
:10009000BF030008BF030008BF030008BF03000838
:1000A000BF03000881B50008BF030008BF030008B4
:1000B00091B50008BF030008BF030008BF03000894
:1000C000BF030008BF030008BF030008BF03000808
:1000D000BF030008BF03000891C50008BF03000864
:1000E000BF030008BF03000800000000BF030008B2
:1000F000BF030008BF030008BF030008BF030008D8
:10010000BF030008BF030008BF030008BF030008C7
:10011000BF030008BF030008BF030008BF030008B7
:10012000BF030008BF030008BF030008BF030008A7
:10013000BF030008BF030008BF030008BF03000897
:1001400000000000000000000000000000000000AF
:10015000BF030008BF030008BF030008BF03000877
:10016000BF030008BF03000801AC0008F1AB0008A2
:10017000BF03000811AC0008BF0300080000000026
:10018000BF030008BF030008BF030008BF03000847
:10019000BF030008BF030008BF030008BF03000837
:1001A000BF030008BF030008BF03000800000000F1
:1001B000BF030008BF030008BF030008BF03000817
:1001C000BF030008BF03000800000000000000009B
:1001D0000000000000000000BF0300080000000055
:1001E000000000000000000000000000000000000F
:1001F0000000000000000000BF030008BF0300086B
:10020000BF030008BF03000800000000BF03000890
:10021000BF030008BF030008BF030008BF030008B6
:10022000BF03000800000000BF030008000000003A
:10023000BF030008BF03000800000000BF03000860
:10024000BF030008BF030008BF030008BF03000886
:10025000BF030008BF030008BF030008BF03000876
:10026000BF030008BF030008BF030008BF03000866
:10027000BF030008BF030008BF0300080000000020
:10028000BF030008BF030008BF030008BF03000846
:1002900000000000BF030008BF03000800000000CA
:1002A00000000000BF030008BF030008BF030008F0
:1002B000BF030008BF030008BF030008E10F0008E8
:1002C000BF030008BF030008BF030008DFF810D019
:1002D00000F0BCFA00480047C5F50008AFF3008005
:1002E000E88100242C4B19680868B0E8F04F80F3CF
:1002F0000988BFF36F8F4FF0000080F311887047BB
:100300000000000008480068006880F308884FF08B
:10031000000080F3148862B661B6BFF34F8FBFF35D
:100320006F8F00DF00BF00BF08ED00E0DFF80C00BA
:10033000016841F470010160704700BF88ED00E082
:10034000EFF30980BFF36F8F134B1A681EF0100F85
:1003500008BF20ED108A20E9F04F106009B44FF07B
:10036000500080F31188BFF34F8FBFF36F8F10F0F1
:10037000F9FB4FF0000080F3118809BC1968086888
:10038000B0E8F04F1EF0100F08BFB0EC108A80F3F9
:100390000988BFF36F8F704734000024EFF30580A6
:1003A000704700000648804706480047FEE7FEE722
:1003B000FEE7FEE7FEE7FEE7FEE7FEE7FEE7FEE715
:1003C00099B40008CD0200082DE9F05F0546002031
:1003D00092469B4688460646814640241BE02846B6
:1003E00041464746224600F069F853465A46C01A2D
:1003F000914110D311461846224600F050F82D1AAC
:1004000067EB01084F4622460120002100F047F823
:1004100017EB00094E41201EA4F10104DFDC484621
:1004200031462A464346BDE8F09F40EA01039B0758
:1004300003D009E008C9121F08C0042AFAD203E059
:1004400011F8013B00F8013B521EF9D27047D2B2BD
:1004500001E000F8012B491EFBD270470022F6E7AD
:1004600010B513460A4604461946FFF7F0FF20462A
:1004700010BD30B50B46014600202022012409E0C2
:1004800021FA02F59D4205D303FA02F5491B04FA4D
:1004900002F52844151EA2F10102F1DC30BD202A2C
:1004A00004DB203A00FA02F1002070479140C2F1CB
:1004B000200320FA03F3194390407047202A04DBFD
:1004C000203A21FA02F00021704721FA02F3D040CD
:1004D000C2F1200291400843194670472DE9FE4FB2
:1004E000804681EA0300C00F0C46009021F00041D5
:1004F00023F00045B8EB0200A94105D24046214651
:1005000090461C460B46024623F00040104347D05D
:10051000270DC7F30A00C3F30A510290401A019055
:1005200040286BDAC3F3130040F4801B0098924616
:1005300020B10023D2EB030A63EB0B0B0198594661
:10054000C0F140025046FFF7AAFF06460D4650464E
:100550005946019A00F08CF910EB08006141002423
:1005600087EA115284EAE7731A4340D0009A62B3D3
:10057000019A012A4FEA075215DC001B61EB0201C8
:100580004FF0004202EA0752CDE90042001C41F55B
:10059000801132462B4600F08CF903B0BDE8F08F95
:1005A00040462146F9E7001B61EB0201001C41F5C2
:1005B000801300185B412018A2F5001747EB0301D8
:1005C00040EAD570B6196D4111E06D084FEA360664
:1005D00045EAC0754FEA0752001B61EB0201001C9F
:1005E00041F5801149084FEA300000195141324667
:1005F0002B4603B0BDE8F04F00F04CB90098012243
:1006000040000023D0EB020263EBE0730098214628
:100610004FEAE074B8EB000061EB0401E9E783F016
:1006200000435BE781F0004158E72DE9FE4F81EA86
:10063000030404F0004421F0004100944FF0000B4B
:1006400023F0004350EA01045ED052EA03045BD079
:10065000C3F30A54C1F30A552C44A4F2F3340194B1
:10066000A0FB0254C1F3130141F48011C3F313033F
:1006700043F4801301FB024400FB034E840A970AF3
:1006800044EA815447EA8357A4FB076802958D0A20
:1006900005FB07854FEA932C04FB0C542705029DAC
:1006A0004FEA065847EA1637B5EB08056EEB070C1C
:1006B000870E920E47EA811742EA8312A7FB0201D6
:1006C000B6EB0B0164EB00042B0D43EA0C335E1810
:1006D00044EB1C50DA465146E7FB0201C5F3130414
:1006E0004FEA0B3343EA14534FEA0432019C43EAC6
:1006F0000603A4F10C040294009CCDE900B400F0C0
:10070000D8F803B0BDE8F08F00200146F9E72DE9E5
:10071000F04D81EA030404F0004B21F0004514463B
:100720004FF0000A23F0004150EA050220D054EABD
:1007300001021DD0C5F30A570246C5F31303C1F3E6
:100740001300C1F30A5640F4801543F48013A7EB5D
:100750000608101BD64608F2FD3873EB050002D3DD
:1007600008F1010801E092185B41B8F1000F03DACB
:1007700000200146BDE8F08D00204FF480110646B0
:1007800084460EE0171B73EB050705D3121B63EBC2
:10079000050306434CEA010C49084FEA3000921861
:1007A0005B4150EA0107EDD152EA030012D082EA20
:1007B000040083EA0501084305D0101BAB4106D2B3
:1007C0000122002306E000224FF0004302E06FF018
:1007D000010253101AEB06004CEB085110EB0A0013
:1007E00041EB0B01BDE8F04D00F054B8C1F30A52E3
:1007F000C1F3130140F2FF3341F480119A4202DA4F
:1008000000200146704740F233439A42A2F233423D
:1008100002DC5242FFF752BEFFF741BE30B5041E64
:1008200071F1000404DB4FF00044404264EB01012D
:10083000141E73F1000405DB1C464FF000435242C6
:1008400063EB0403994208BF904230BD064C074D4C
:1008500006E0E06840F0010394E807009847103490
:10086000AC42F6D3FFF736FDC0190108E0190108C4
:10087000202A06DBCB17203A41FA02F043EAE07364
:1008800006E041FA02F3D040C2F120029140084351
:100890001946704710B5141E73F1000408DA401CA5
:1008A00041F1000192185B411A4301D120F001008F
:1008B00010BD2DE9F04D92469B4611B1B1FA81F27F
:1008C00002E0B0FA80F220329046FFF7E8FD0446DD
:1008D0000F4640EA0A0041EA0B0153465A460843D4
:1008E00013D0114653EA010019D0C8F14002504616
:1008F000FFF7E4FD05460E46504659464246FFF7CF
:10090000CEFD084305D0012004E020463946BDE86D
:10091000F08D0020054346EAE0762C4337430A98E1
:100920006305E40AA0EB08000022FD0A44EA4754EC
:100930000A3002D500200146E9E701051019694196
:10094000DDE9084500196941BDE8F04DA2E770B541
:100950008C1810F8015B15F0070301D110F8013B6A
:100960002A1106D110F8012B03E010F8016B01F8F1
:10097000016B5B1EF9D12B0705D40023521E0DD449
:1009800001F8013BFAE710F8013BCB1A921C03E097
:1009900013F8015B01F8015B521EF9D5A142D8D3CF
:1009A000002070BD00BFFEE70346042B15D007DC16
:1009B0007BB1012B0ED0022B0DD0032B12D10BE0FB
:1009C000202B0BD0212B0AD0222B09D0232B09D18D
:1009D00007E008E007E006E005E004E003E002E0ED
:1009E00001E000E000BF00BF00207047002070471A
:1009F00010B50022044905480BF02EFF04490348B6
:100A00000BF01FFF002010BDBC570024EC4E00244B
:100A1000BC53002470B504460D46214603480BF034
:100A200010FF02480BF0E8FE002070BDEC4E0024E1
:100A300010B503460C460021084610BD10B502480B
:100A400001F060F910BD0000040E002410B502484A
:100A500001F058F910BD00007C0E00240146374A11
:100A60000868904249D0354A18320868904244D00C
:100A7000324A3032086890423FD0304A48320868E3
:100A800090423AD02D4A60320868904235D02B4AC5
:100A900078320868904230D0284A903208689042F4
:100AA0002BD0264AA8320868904226D0244A0868EB
:100AB000904222D0224A1832086890421DD0204A23
:100AC00030320868904218D01D4A48320868904277
:100AD00013D01B4A6032086890420ED0184A783210
:100AE0000868904209D0164A90320868904204D0B3
:100AF000134AA8320868904201D1012000E000208A
:100B0000B0B10A78103A1823B2FBF3F000F00702F4
:100B10000C4B9A5CCA65032805D90A686FF3090271
:100B2000121D8A6503E00A686FF309028A6503E013
:100B3000086820F0FF008865886D7047100002404B
:100B4000100402401C19010810B502682B4C036800
:100B5000A34222D0294C14340368A3421DD0274C51
:100B600028340368A34218D0244C3C340368A342C1
:100B700013D0224C50340368A3420ED01F4C64346F
:100B80000368A34209D01D4C78340368A34204D003
:100B90001A4C8C340368A34201D1012300E00023E6
:100BA0008BB10378083B1424B3FBF4F1144B03EB33
:100BB00081030366124B8033436601F01F04012357
:100BC000A340836618E00378103B1824B3FBF4F1CC
:100BD0000C4B9A4204D80B4BA83B9A4200D30831E5
:100BE000094B03EB81030366074B8033436601F037
:100BF0001F040123A340836610BD0000085402585F
:100C000000580258B8040240000802400179A9B314
:100C1000082940D8204B02689A4222D01E4B143338
:100C200002689A421DD01C4B283302689A4218D0A1
:100C3000194B3C3302689A4213D0174B5033026869
:100C40009A420ED0144B643302689A4209D0124B78
:100C5000783302689A4204D00F4B8C3302689A4270
:100C600001D1012200E000224AB14A1E0B4B03EBE6
:100C70008202C266094A4032026708E00BE04A1E5F
:100C8000074B03EB8202C266054A403202674A1EE6
:100C90000123934043677047085402580059025893
:100CA00000090240014600208A69D2B98A6A32B13D
:100CB000012A0DD0022A03D0032A10D10EE000BF72
:100CC000CA6A02F08072B2F1807F00D1012007E091
:100CD000CA6AB2F1C07F00D1012001E000E000BF8C
:100CE00036E08A69B2F5005F1BD18A6A32B1012A07
:100CF00007D0022A03D0032A11D10AE000BF012045
:100D00000EE0CA6A02F08072B2F1807F00D1012049
:100D100006E0CA6AB2F1C07F00D1012000E000BF46
:100D200016E08A6A32B1012A05D0022A04D0032AC9
:100D30000CD103E000BF00BF012008E0CA6A02F046
:100D40008072B2F1807F00D1012000E000BF00BFBF
:100D500070470000F0B5856D846D984F0668BE42FF
:100D600070D0964F18370668BE426BD0934F30371D
:100D70000668BE4266D0914F48370668BE4261D0D1
:100D80008E4F60370668BE425CD08C4F783706685D
:100D9000BE4257D0894F90370668BE4252D0874F27
:100DA000A8370668BE424DD0854F0668BE4249D07E
:100DB000834F18370668BE4244D0814F30370668EB
:100DC000BE423FD07E4F48370668BE423AD07C4F85
:100DD00060370668BE4235D0794F78370668BE4224
:100DE00030D0774F90370668BE422BD0744FA8376B
:100DF0000668BE4226D0734F0668BE4222D0714FAD
:100E000014370668BE421DD06E4F28370668BE42B2
:100E100018D06C4F3C370668BE4213D0694F50372C
:100E20000668BE420ED0674F64370668BE4209D0DE
:100E3000644F78370668BE4204D0624F8C3706682C
:100E4000BE4201D1012600E000263EB1D0E919766C
:100E50007E60C66E16B1D0E91C767E60574F06687C
:100E6000BE4249D0554F18370668BE4244D0534F52
:100E700030370668BE423FD0504F48370668BE4202
:100E80003AD04E4F60370668BE4235D04B4F783768
:100E90000668BE4230D0494F90370668BE422BD01C
:100EA000464FA8370668BE4226D0454F0668BE4268
:100EB00022D0434F18370668BE421DD0404F30370E
:100EC0000668BE4218D03E4F48370668BE4213D06F
:100ED0003B4F60370668BE420ED0394F7837066800
:100EE000BE4209D0364F90370668BE4204D0344F18
:100EF000A8370668BE4201D1012600E00026DEB117
:100F000090F85C6006F01F073F26BE40AE600668A2
:100F1000366826F4802607683E6006687360866837
:100F2000402E04D10668B2600668F16044E00668AD
:100F3000B1600668F2603FE0224F0668BE4222D0F0
:100F4000204F14370668BE421DD01E4F2837066852
:100F5000BE4218D01B4F3C370668BE4213D0194F13
:100F600050370668BE420ED0164F64370668BE4240
:100F700009D0144F78370668BE4204D0114F8C3721
:100F80000668BE4201D1012600E00026A6B190F815
:100F90005C6006F01F070126BE406660066873604D
:100FA0008668402E04D10668B2600668F16003E0EE
:100FB0000668B1600668F260F0BD000010000240F3
:100FC0001004024008540258704772B600BFFEE792
:100FD00010B5024802F016FD10BD000004090024FF
:100FE00010B5024802F00EFD10BD0000A409002457
:100FF00010B501464A6B0868D0F884004FF6FC74BF
:10100000A04340EA82000C68C4F884000868D0F865
:10101000840020F47F04088F44EA00400C68C4F880
:101020008400886B02440868D0F888004FF6FC748E
:10103000A04340EA82000C68C4F888000868D0F831
:10104000880020F4FE04888F44EA00400C68C4F84D
:101050008800C86B02EB40020868D0F8A0004FF689
:10106000FC74A04340EA82000C68C4F8A000086841
:10107000D0F8A00020F4FE044020405A44EA00408A
:101080000C68C4F8A000D1E9104004FB00220868F5
:10109000D0F8B0004FF6FC74A04340EA82000C6820
:1010A000C4F8B0000868D0F8B00020F4FE04B1F82D
:1010B000480044EA00400C68C4F8B000D1E912408E
:1010C00004FB00220868D0F8AC004FF6FC74A04383
:1010D00040EA82000C68C4F8AC00D1E9144004FB7B
:1010E00000220868D0F8F0004FF6FC74A04340EAF4
:1010F00082000C68C4F8F0000868D0F8F00020F412
:101100007C14B1F8580044EA00400C68C4F8F000C0
:10111000886D02EB40020868D0F8C0004FF6FC74FE
:10112000A04340EA82000C68C4F8C0000868D0F808
:10113000C00020F47C14B1F85C0044EA00400C6864
:10114000C4F8C0000868D0F8C00020F07C5491F8C2
:10115000600044EA00600C68C4F8C0002A4C486B88
:1011600004EB8000C866CC6E886B04EB80040C67CF
:101170000C6FC86B04EBC0044C67D1E910046043EA
:101180004C6F04EB80048C67D1E9120460438C6FD0
:1011900004EB8004CC67D1E914046043CC6F04EB0A
:1011A0008004802044504458886D04EBC00484209F
:1011B00044508C6EC86D60438424645804EB8004F2
:1011C000882044508C6E086E60438824645804EB79
:1011D00080049020445040580C4CA04209D99831CA
:1011E000486840F020004860032001F89809012079
:1011F00010BDCB6E02E0002018601B1D90204058EF
:101200009842F8D80020F3E700AC0040FCD300403F
:1012100070B50A480468001D0568001D066834445E
:1012200054B108220649204609F02EF90422044947
:101230001031284609F028F970BD000000E8F11FC0
:10124000F60000242DE9F04106460F4614464FF003
:1012500000081F252CB1082C03D0102C01D0182C0D
:1012600000D103E05F211CA00EF034F800BF281E5F
:10127000A5F1010506D005F01F0101208840384086
:101280000028F4D0A4B1082C0DD0102C06D0182CB6
:101290000FD1072D01D34FF001080DE0082D01D328
:1012A0004FF0010808E0102D01D34FF0010803E0D2
:1012B00002E04FF0010800BF00BFB8F1000F08D1F5
:1012C000306847613068806820F01800204331683A
:1012D00088604046BDE8F0812E2E2F447269766505
:1012E00072732F53544D3332483778785F48414CEE
:1012F0005F4472697665722F5372632F73746D3316
:1013000032683778785F68616C5F6372635F6578B5
:101310002E63000010B504460CB9012010BD4049F1
:101320002068884200D103E070213EA00DF0D2FF7A
:10133000607F20B900202077204600F091F802203D
:101340006077207910B12079012800D103E07E2157
:1013500034A00DF0BFFF207948B9404821684861AA
:101360002068806820F018002168886007E0204627
:10137000D4E90212FFF766FF08B10120CEE76079D9
:1013800010B16079012800D103E0902125A00DF073
:10139000A1FF607920B94FF0FF302168086102E0B9
:1013A000216820690861606940B16069202805D022
:1013B0006069402802D06069602800D103E09C2168
:1013C00018A00DF087FF2068806820F06000616938
:1013D000084321688860A06910B1A069802800D105
:1013E00003E0A0210FA00DF075FF2068806820F0B9
:1013F0008000A169084321688860206A012805D01F
:10140000206A022802D0206A032800D103E0A52127
:1014100004A00DF05FFF0120607700207EE7000050
:10142000004C02582E2E2F447269766572732F532A
:10143000544D3332483778785F48414C5F44726985
:101440007665722F5372632F73746D3332683778F9
:10145000785F68616C5F6372632E6300B71DC104BF
:1014600008B5094A016891420DD100BF07490968D2
:1014700041F40021054A11601146096801F4002178
:10148000009100BF00BF08BD004C0258E044025864
:101490002DE9F041044603F055FB804614B90120C4
:1014A000BDE8F08194F83500022808D080206065FE
:1014B00000BF002084F8340000BF0120F0E7FE499F
:1014C0002068884249D0FC4918312068884244D0BD
:1014D000F9493031206888423FD0F74948312068C7
:1014E00088423AD0F44960312068884235D0F249C8
:1014F00078312068884230D0EF49903120688842A6
:101500002BD0ED49A8312068884226D0EB492068CD
:10151000884222D0E9491831206888421DD0E74925
:1015200030312068884218D0E44948312068884228
:1015300013D0E2496031206888420ED0DF4978310B
:101540002068884209D0DD4990312068884204D063
:10155000DA49A8312068884201D1012000E000204A
:1015600068B12068006820F01E00216808602068CB
:10157000406920F0800021684861256806E0206805
:10158000006820F00E00216808602568CA492068BC
:10159000884270D0C8491831206888426BD0C6494B
:1015A00030312068884266D0C3494831206888427B
:1015B00061D0C1496031206888425CD0BE49783131
:1015C0002068884257D0BC4990312068884252D068
:1015D000B949A831206888424DD0B849206888426E
:1015E00049D0B64918312068884244D0B3493031D7
:1015F000206888423FD0B1494831206888423AD0BB
:10160000AE4960312068884235D0AC4978312068D5
:10161000884230D0A9499031206888422BD0A74910
:10162000A8312068884226D0A5492068884222D067
:10163000A3491431206888421DD0A149283120686F
:10164000884218D09E493C312068884213D09C497A
:101650005031206888420ED0994964312068884210
:1016600009D0974978312068884204D094498C3158
:101670002068884201D1012000E0002028B1206EBE
:10168000006820F48070216E08608B4920688842D1
:1016900049D0894918312068884244D08649303180
:1016A000206888423FD084494831206888423AD037
:1016B000814960312068884235D07F49783120687F
:1016C000884230D07C499031206888422BD07A49BA
:1016D000A8312068884226D078492068884222D0E4
:1016E00076491831206888421DD07449303120680D
:1016F000884218D0714948312068884213D06F4918
:101700006031206888420ED06C4978312068884268
:1017100009D06A4990312068884204D06749A831CD
:101720002068884206D12068006820F00100216806
:10173000086005E02068006820F00100216808606A
:1017400011E003F0FFF9A0EB080005280BD92020D9
:10175000606500BF002084F8340000BF032084F8D7
:10176000350001209CE6286800F001000028E8D13F
:1017700051492068884249D04F4918312068884231
:1017800044D04D493031206888423FD04A494831E1
:10179000206888423AD0484960312068884235D074
:1017A000454978312068884230D0434990312068DB
:1017B00088422BD04049A8312068884226D03F4932
:1017C0002068884222D03D491831206888421DD0C7
:1017D0003A4930312068884218D038494831206869
:1017E000884213D035496031206888420ED0334991
:1017F00078312068884209D0304990312068884289
:1018000004D02E49A8312068884201D1012000E08F
:10181000002040B1A66D94F85C0000F01F013F204D
:101820008840B06007E0A76D94F85C0000F01F01ED
:1018300001208840786020492068884276D01E497F
:1018400018312068884271D01B49303120688842A5
:101850006CD0194948312068884267D016496031F8
:101860002068884262D014497831206888425DD06F
:10187000114990312068884258D00F49A83120681A
:10188000884253D00D49206888424FD00B49183107
:10189000206888424AD0094930312068884245D0C2
:1018A000064948312068884240D0044960312068A8
:1018B00088423BD0014905E010000240100402407C
:1018C000085402587831206888422FD02549206872
:1018D00088422BD0234918312068884226D02249DB
:1018E0002068884222D020491431206888421DD0C7
:1018F0001D4928312068884218D01B493C31206896
:10190000884213D018495031206888420ED01649B9
:1019100064312068884209D01349783120688842B0
:1019200004D011498C312068884201D1012000E0A7
:10193000002068B1D4E919104860E06E40B1E06E53
:10194000006820F48070E16E0860D4E91C104860E3
:1019500000BF002084F8340000BF012084F8350067
:1019600000209DE5A00402400854025870B50446CA
:101970000CB9012070BD94F83500022803D08020F6
:1019800060650120F6E7DC492068884249D0DA49E1
:1019900018312068884244D0D749303120688842C5
:1019A0003FD0D5494831206888423AD0D249603189
:1019B0002068884235D0D04978312068884230D0BC
:1019C000CD499031206888422BD0CB49A83120687E
:1019D000884226D0C9492068884222D0C749183198
:1019E000206888421DD0C54930312068884218D00F
:1019F000C24948312068884213D0C049603120680C
:101A000088420ED0BD4978312068884209D0BB4950
:101A100090312068884204D0B849A83120688842B3
:101A200001D1012000E00020F0B3042084F835004B
:101A3000B149206888424BD0AF49183120688842AC
:101A400046D0AD4930312068884241D0AA4948315A
:101A5000206888423CD0A84960312068884237D04D
:101A6000A54978312068884232D0A3499031206856
:101A700088422DD0A049A8312068884228D09F49AB
:101A80002068884224D09D491831206888421FD0A0
:101A90009A493031206888421AD0984948312068E4
:101AA000884215D0954900E020E0603120688842E6
:101AB0000ED0924978312068884209D08F49903100
:101AC0002068884204D08D49A8312068884206D118
:101AD0002068006820F001002168086009E12068A2
:101AE000006820F001002168086002E120680068B9
:101AF00020F00E00216808607F492068884249D0A4
:101B00007D4918312068884244D07B4930312068B3
:101B100088423FD078494831206888423AD0764997
:101B200060312068884235D0734978312068884216
:101B300030D071499031206888422BD06E49A8314D
:101B40002068884226D06D492068884222D06B499F
:101B50001831206888421DD0684930312068884299
:101B600018D0664948312068884213D063496031F3
:101B7000206888420ED0614978312068884209D0B7
:101B80005E4990312068884204D05C49A8312068C1
:101B9000884206D12068006820F0010021680860B2
:101BA00005E02068006820F00100216808605249C3
:101BB0002068884270D050491831206888426BD024
:101BC0004D4930312068884266D04B494831206801
:101BD000884261D048496031206888425CD04649DB
:101BE00078312068884257D0434990312068884234
:101BF00052D04149A831206888424DD03F492068E1
:101C0000884249D03D4918312068884244D03B4938
:101C10003031206888423FD03849483120688842B6
:101C20003AD0364960312068884235D0334978311E
:101C30002068884230D031499031206888422BD0CA
:101C40002E49A8312068884226D02D492068884234
:101C500022D02B491431206888421DD028492831D0
:101C60002068884218D026493C312068884213D029
:101C700023495031206888420ED0214964312068C0
:101C8000884209D01E4978312068884204D01C4916
:101C90008C312068884201D1012000E00020D8B1B9
:101CA000206E006820F48070216E0860A56D94F8A5
:101CB0005C0000F01F01012088406860D4E9191021
:101CC0004860E06E40B1E06E006820F48070E16E24
:101CD0000860D4E91C10486000BF002084F834007C
:101CE00000BF012084F83500206D10B12046216D21
:101CF000884700203EE60000100002401004024029
:101D0000085402582DE9F84F044600200090FE4880
:101D100000684FF41651B0FBF1FAA66DD4F8588064
:101D20003768D8F80090F9492068884249D0F749C7
:101D300018312068884244D0F44930312068884204
:101D40003FD0F2494831206888423AD0EF496031AB
:101D50002068884235D0ED4978312068884230D0FB
:101D6000EA499031206888422BD0E849A8312068A0
:101D7000884226D0E6492068884222D0E4491831BA
:101D8000206888421DD0E24930312068884218D04E
:101D9000DF4948312068884213D0DD49603120682E
:101DA00088420ED0DA4978312068884209D0D84973
:101DB00090312068884204D0D549A83120688842F3
:101DC00001D1012000E0002000287DD094F85C00C3
:101DD00000F01F01082088403840002868D0CB4917
:101DE0002068884249D0C94918312068884244D0C7
:101DF000C6493031206888423FD0C4494831206804
:101E000088423AD0C14960312068884235D0BF4904
:101E100078312068884230D0BC49903120688842AF
:101E20002BD0BA49A8312068884226D0B84920680A
:101E3000884222D0B6491831206888421DD0B44962
:101E400030312068884218D0B14948312068884232
:101E500013D0AF496031206888420ED0AC49783148
:101E60002068884209D0AA4990312068884204D06D
:101E7000A749A8312068884204D12068006800F092
:101E8000040003E02068006800F0080080B12068CA
:101E9000006820F004002168086094F85C0000F0FD
:101EA0001F0108208840B060606D40F0010060654F
:101EB00094F85C0000F01F01012088403840E8B32E
:101EC00092492068884200E0B8E24BD08F4918312F
:101ED0002068884246D08D4930312068884241D000
:101EE0008A494831206888423CD08849603120685E
:101EF000884237D0854978312068884232D083497A
:101F00009031206888422DD08049A83120688842CD
:101F100028D07F492068884224D07D491831206824
:101F200088421FD07A493031206888421AD07849D7
:101F300048312068884215D0754900E026E06031BC
:101F4000206888420ED0724978312068884209D0D2
:101F50006F4990312068884204D06D49A8312068CB
:101F6000884204D12068406900F0800002E02068C7
:101F70000068002050B194F85C0000F01F010120BF
:101F80008840B060606D40F00200606594F85C00CD
:101F900000F01F01042088403840E8B35B49206806
:101FA00088424BD0594918312068884246D0574959
:101FB00030312068884241D05449483120688842F5
:101FC0003CD0524960312068884237D04F4978313F
:101FD0002068884232D04D499031206888422DD007
:101FE0004A49A8312068884228D049492068884257
:101FF00024D047491831206888421FD044493031E5
:10200000206888421AD0424948312068884215D059
:102010003F496031206800E024E088420ED03C490E
:1020200078312068884209D0394990312068884247
:1020300004D03749A8312068884204D1206800685C
:1020400000F0020002E020680068002050B194F81F
:102050005C0000F01F0104208840B060606D40F01B
:102060000400606594F85C0000F01F0110208840B7
:102070003840E8B325492068884251D023491831B7
:10208000206888424CD0214930312068884247D0AE
:102090001E4948312068884242D01C49603120687E
:1020A00088423DD0194978312068884238D0174994
:1020B00090312068884233D01449A8312068884282
:1020C0002ED01349206888422AD01149183120683F
:1020D000884225D00E4930312068884220D00C49F2
:1020E0004831206888421BD009496031206800E0EF
:1020F0004DE0884214D006497831206888420FD0DC
:1021000003499031206805E02000002410000240BF
:1021100010040240884203D0FE492068884204D15E
:102120002068006800F0080003E02068006800F004
:10213000040060B394F85C0000F01F011020884098
:10214000B0602068006800F4802080B120680068DA
:1021500000F4002028B9206CC8B12046216C8847C3
:1021600015E0A06C98B12046A16C88470FE020686C
:10217000006800F4807028B92068006820F008002A
:1021800021680860206C10B12046216C884794F8C3
:102190005C0000F01F0120208840384000287DD0DE
:1021A000DD492068884249D0DB49183120688842DF
:1021B00044D0D9493031206888423FD0D64948318F
:1021C000206888423AD0D44960312068884235D0AE
:1021D000D14978312068884230D0CF499031206889
:1021E00088422BD0CC49A8312068884226D0C949E2
:1021F000A8392068884221D0C64990392068884291
:102200001CD0C44978392068884217D0C149603948
:102210002068884212D0BF494839206888420DD0D2
:10222000BC4930392068884208D0BA49183920683A
:10223000884203D0B7492068884204D120680068EA
:1022400000F0100003E02068006800F0020028B3EE
:1022500094F85C0000F01F0120208840B06094F8E2
:10226000350004282DD12068006820F01600216870
:1022700008602068406920F0800021684861206C77
:1022800008B9A06C28B12068006820F00800216817
:10229000086094F85C0000F01F0100E03FE03F2080
:1022A0008840B06000BF002084F8340000BF0120E7
:1022B00084F83500206D10B12046216D8847BDE8B7
:1022C000F88F2068006800F4802080B120680068E2
:1022D00000F4002028B9606C08B32046616C884780
:1022E0001DE0E06BD8B12046E16B884717E020681D
:1022F000006800F4807068B92068006820F0100061
:102300002168086000BF002084F8340000BF01206D
:1023100084F83500E06B10B12046E16B8847606DB2
:1023200000287DD0606D00F00100E8B3042084F83F
:1023300035007949206888424BD0774918312068A8
:10234000884246D0744930312068884241D0724971
:102350004831206888423CD06F496031206888420B
:1023600037D06D4978312068884232D06A4990313F
:10237000206888422DD06849A8312068884228D03A
:102380006449A8392068884223D06249903920687E
:1023900088421ED05F4978392068884219D05D494B
:1023A00060392068884200E041E012D0594948393C
:1023B000206888420DD0574930392068884208D0BB
:1023C000544918392068884203D05249206888420D
:1023D00006D12068006820F001002168086005E04F
:1023E0002068006820F001002168086000BF0098A4
:1023F000401C0090504500D905E02068006800F0BE
:1024000001000028F3D100BF00BF002084F8340091
:1024100000BF2068006800F0010028B1032000E040
:102420000BE084F8350002E0012084F83500E06C10
:10243000002802D02046E16C8847D9E1374920685E
:10244000884222D035491431206888421DD0334952
:1024500028312068884218D030493C3120688842B1
:1024600013D02E495031206888420ED02B49643158
:102470002068884209D0294978312068884204D0F0
:1024800026498C312068884201D1012000E00020DB
:102490000028D2D02068056894F85C0000F01F0185
:1024A0000420884000EA0900D0B305F00400B8B366
:1024B00094F85C0000F01F0104208840C8F8040074
:1024C00005F4004080B105F4803030B9A06C0028DC
:1024D000B3D02046A16C88478AE1206C0028ACD09C
:1024E0002046216C884783E105F02000F0BB0A49B3
:1024F0002068884252D008491831206888424DD05F
:10250000054930312068884248D003494831206865
:10251000884206E0B8040240100002400854025805
:102520004FE03BD0B3492068884237D0B1491831D9
:102530002068884232D0AF493031206888422DD09F
:10254000AC4948312068884228D0AB49206888428D
:1025500024D0A9491831206888421FD0A6493031BB
:10256000206888421AD0A449483100E023E020685E
:10257000884213D0A0496031206888420ED09E491D
:1025800078312068884209D09B4990312068884280
:1025900004D09949A8312068884206D12068006893
:1025A00020F008002168086005E02068006820F03D
:1025B000040021680860206C10B32046216C884715
:1025C00016E194F85C0000F01F010220884000EA48
:1025D0000900E8B305F00200D0B394F85C0000F005
:1025E0001F0102208840C8F8040005F4004070B1C3
:1025F00005F4803028B9606C10B12046616C8847C2
:10260000F6E0E06BF0B32046E16B8847F0E005F0C0
:102610002000C0BB77496039206888424DD0754999
:1026200048392068884248D0724930392068884249
:1026300043D070491839206888423ED06D492068DF
:1026400088423AD06B4918312068884235D000E082
:102650004EE068493031206888422ED065494831C3
:102660002068884229D064492068884225D0624980
:1026700018312068884220D05F4930312068884274
:102680001BD001E06EE02DE05B49483120688842B4
:1026900013D059496031206888420ED056497831AC
:1026A0002068884209D0544990312068884204D07B
:1026B0005149A8312068884206D12068006820F07E
:1026C00014002168086005E02068006820F00A0016
:1026D0002168086000BF002084F8340000BF01209A
:1026E00084F83500E06BE8B32046E16B88477FE073
:1026F00094F85C0000F01F010820884000EA0900FF
:1027000080B305F0080068B33A4960392068884210
:102710004AD0384948392068884245D0354930394F
:102720002068884240D033491839206888423BD01D
:1027300030492068884237D02E49183120688842B5
:1027400032D02C493031206888422DD02949483177
:102750002068884228D028492068884224D0264909
:10276000183100E044E0206888421DD02249303111
:102770002068884218D0204948312068884213D008
:102780001D496031206888420ED01B49783120688D
:10279000884209D0184990312068884204D01649EF
:1027A000A8312068884206D12068006820F01C000B
:1027B0002168086005E02068006820F00E002168AC
:1027C000086094F85C0000F01F0101208840C8F800
:1027D00004000120606500BF002084F8340000BFC1
:1027E000012084F83500E06C10B12046E16C884788
:1027F00000BF64E570000240100402402DE9F04182
:10280000044602F09FF9804614B90120BDE8F0812A
:10281000FA492068884270D0F84918312068884207
:102820006BD0F64930312068884266D0F349483190
:102830002068884261D0F1496031206888425CD0CC
:10284000EE4978312068884257D0EC4990312068B1
:10285000884252D0E949A831206888424DD0E849E1
:102860002068884249D0E64918312068884244D01F
:10287000E3493031206888423FD0E149483120683F
:1028800088423AD0DE4960312068884235D0DC4940
:1028900078312068884230D0D94990312068884208
:1028A0002BD0D749A8312068884226D0D549206846
:1028B000884222D0D3491431206888421DD0D149A2
:1028C00028312068884218D0CE493C31206888429F
:1028D00013D0CC495031206888420ED0C9496431A8
:1028E0002068884209D0C74978312068884204D0DE
:1028F000C4498C312068884200D103E0E121C2A0A4
:102900000CF0E8FCA06828B1A068402802D0A068BC
:10291000802800D103E0E221BBA00CF0DBFCE068E2
:10292000B0F5007F01D0E06800B903E0E321B6A074
:102930000CF0D0FC2069B0F5806F01D0206900B99F
:1029400003E0E421B0A00CF0C5FC606938B1606917
:10295000B0F5006F03D06069B0F5805F00D103E08F
:10296000E521A9A00CF0B6FCA06938B1A069B0F5CA
:10297000005F03D0A069B0F5804F00D103E0E621ED
:10298000A1A00CF0A7FCE06970B1E069B0F5807F10
:102990000AD0E069202807D0E069B0F5802F03D085
:1029A000E069B0F5402F00D103E0E72196A00CF0DC
:1029B00091FC206A58B1206AB0F5803F07D0206AA8
:1029C000B0F5003F03D0206AB0F5403F00D103E0EE
:1029D000E8218DA00CF07EFC88492068884249D00F
:1029E000864918312068884244D0844930312068B3
:1029F00088423FD081494831206888423AD07F4997
:102A000060312068884235D07C497831206888421E
:102A100030D07A499031206888422BD07749A8314C
:102A20002068884226D076492068884222D074499E
:102A30001831206888421DD07149303120688842A1
:102A400018D06F4948312068884213D06C496031F2
:102A5000206888420ED06A4978312068884209D0BF
:102A6000674990312068884204D06549A8312068C0
:102A7000884201D1012000E0002000287ED060685B
:102A8000892800D803E0EC215FA00CF023FC606AE9
:102A900010B1606A042800D103E0ED215AA00CF0C7
:102AA00019FC606A002835D0A06A40B1A06A0128EC
:102AB00005D0A06A022802D0A06A032800D103E052
:102AC000F22151A00CF006FCE06A58B1E06AB0F5C2
:102AD000000F07D0E06AB0F1807F03D0E06AB0F168
:102AE000C07F00D103E0F32147A00CF0F3FB206B83
:102AF00058B1206BB0F5001F07D0206BB0F5800FE8
:102B000003D0206BB0F5C00F00D103E0F4213EA04C
:102B10000CF0E0FB00BF002084F8340000BF02206E
:102B200084F835003549206888424BD03349183144
:102B30002068884246D0314930312068884241D0EF
:102B40002E494831206888423CD02C4960312068A9
:102B5000884237D0294978312068884232D02749C5
:102B60009031206888422DD02449A83120688842BD
:102B700028D023492068884224D000E0CAE02049B8
:102B80001831206888421DD01D49303120688842A4
:102B900018D01B4948312068884213D01849603149
:102BA000206888420ED0164978312068884209D0C2
:102BB000134990312068884204D01149A831206817
:102BC000884206D12068006820F001002168086072
:102BD00005E02068006820F00100216808602FE00F
:102BE00001F0B0FFA0EB0800052829D9202060657E
:102BF000032084F83500012008E6000010000240A0
:102C000010040240085402582E2E2F447269766533
:102C100072732F53544D3332483778785F48414CA4
:102C20005F4472697665722F5372632F73746D33CC
:102C300032683778785F68616C5F646D612E63001D
:102C40002068006800F001000028C9D120680568EC
:102C5000D5480540D4E90201084321690843616968
:102C60000843A1690843E1690843216A0843054311
:102C7000606A042803D1D4E90B0108430543606866
:102C8000292802D360682E2817D960683F2802D30C
:102C90006068422811D96068472802D360684828D4
:102CA0000BD960684F2802D36068522805D9606844
:102CB000742804D36068772801D8012000E0002040
:102CC00008B145F48015206805602068456925F045
:102CD0000705606A0543606A04280DD1A06A0543B0
:102CE000E06A48B12046FDF7DDFF28B1402060656D
:102CF000012084F8350089E5206845612046FDF70C
:102D0000ADFE064694F85C0000F01F013F208840AD
:102D1000B060A8E0A5492068884222D0A3491431B8
:102D2000206888421DD0A14928312068884218D0E7
:102D30009E493C312068884213D09C49503120681C
:102D400088420ED0994964312068884209D0974959
:102D500078312068884204D094498C3120688842B8
:102D600001D1012000E00020F0B3904920688842A2
:102D700022D08E491431206888421DD08B492831D9
:102D80002068884218D089493C312068884213D095
:102D900086495031206888420ED0844964312068C9
:102DA000884209D0814978312068884204D07F491F
:102DB0008C312068884201D1012000E0002048B118
:102DC0006068112800D805E04FF4B371AFF2C81065
:102DD0000CF080FA00BF002084F8340000BF02200D
:102DE00084F83500206800E036E00568704805404A
:102DF000A068402801D1102105E0A068802801D1F9
:102E0000C10100E00021E06841EAD001206941EA07
:102E1000D001606941EAD001A06941EAD001E069CE
:102E200041EAD001206A41EA10100543206805609C
:102E30005E492068401A1421B0FBF1F08000E06583
:102E40002046FDF70BFE074694F85C0000F01F01DA
:102E500001208840786006E040206065032084F807
:102E600035000120D2E453492068884270D051498E
:102E70001831206888426BD04E4930312068884232
:102E800066D04C4948312068884261D04949603158
:102E9000206888425CD0474978312068884257D002
:102EA000444990312068884252D04249A831206874
:102EB00088424DD040492068884249D03E49183167
:102EC0002068884244D03C493031206888423FD055
:102ED00039494831206888423AD037496031206802
:102EE000884235D0344978312068884230D0324920
:102EF0009031206888422BD02F49A8312068884221
:102F000026D02A492068884222D0284914312068D6
:102F100088421DD0254928312068884218D023498D
:102F20003C312068884213D02049503120688842C3
:102F30000ED01E4964312068884209D01B4978317F
:102F40002068884204D019498C312068884201D118
:102F5000012000E0002000B32046FDF7F5FDA06849
:102F6000802801D1002060602079216E0860D4E9BA
:102F700019104860606860B16068082809D8204668
:102F8000FDF744FE0020E16E0860D4E91C104860A3
:102F900003E00020E0662067606700206065012094
:102FA00084F83500002031E43F8010FE08540258B8
:102FB0000F00FEFF10000240100402402DE9F04116
:102FC00004460E4617461D464FF000081DB1B5F5E4
:102FD000803F00D204E040F2A921F2A00CF07AF97F
:102FE00014B90120BDE8F08100BF94F83400012835
:102FF00001D10220F6E7012084F8340000BF94F8E4
:10300000350001287ED1022084F83500002060655B
:10301000F2492068884249D0F04918312068884236
:1030200044D0EE493031206888423FD0EB494831E6
:10303000206888423AD0E94960312068884235D01A
:10304000E64978312068884230D0E44990312068E0
:1030500088422BD0E149A8312068884226D0E04937
:103060002068884222D0DE491831206888421DD06D
:10307000DB4930312068884218D0D949483120686E
:10308000884213D0D6496031206888420ED0D44996
:1030900078312068884209D0D1499031206888422F
:1030A00004D0CF49A8312068884206D12068006842
:1030B00020F001002168086005E02068006820F029
:1030C0000100216808602B463A4631462046FDF74C
:1030D00041FEC249206888424BD0C049183120685F
:1030E000884246D0BD4930312068884241D0BB4932
:1030F0004831206888423CD0B84960312068884215
:1031000037D000E042E1B54978312068884230D0BC
:10311000B2499031206888422BD0B049A83120684C
:10312000884226D0AE492068884222D0AC49183166
:10313000206888421DD0AA4930312068884218D0C2
:10314000A74948312068884213D0A54960312068DA
:1031500088420ED0A24978312068884209D0A0491F
:1031600090312068884204D09D49A8312068884267
:1031700001D1012000E0002080B12068006820F02B
:103180001E0040F0160021680860206CB0B1206875
:10319000006840F00800216808600FE020680068BF
:1031A00020F00E0040F00A0021680860206C28B171
:1031B0002068006840F004002168086087492068A2
:1031C000884270D085491831206888426BD0834985
:1031D00030312068884266D0804948312068884272
:1031E00061D07E496031206888425CD07B4978316B
:1031F0002068884257D0794990312068884252D05F
:103200007649A831206888424DD0754920688842A7
:1032100049D0734918312068884244D07049303110
:10322000206888423FD06E494831206888423AD0B1
:103230006B4960312068884235D06949783120680F
:10324000884230D066499031206888422BD064494A
:10325000A8312068884226D062492068884222D05E
:1032600060491431206888421DD05E4928312068A9
:10327000884218D05B493C312068884213D05949B4
:103280005031206888420ED0564964312068884207
:1032900009D0544978312068884204D051498C3192
:1032A0002068884201D1012000E0002090B1206E0A
:1032B000006800F4803028B1206E006840F480700F
:1032C000216E0860E06E28B1E06E006840F4807006
:1032D000E16E086041492068884249D03F49183171
:1032E0002068884244D03D493031206888423FD030
:1032F0003A494831206888423AD0384960312068DC
:10330000884235D0354978312068884230D03349F9
:103310009031206888422BD03049A83120688842FB
:1033200026D02F492068884222D02D4918312068A4
:1033300088421DD02A4930312068884218D0284957
:1033400048312068884213D025496031206888427E
:103350000ED0234978312068884209D02049903125
:103360002068884204D01E49A8312068884206D1CE
:103370002068006840F001002168086010E02068C3
:10338000006840F001002168086009E000BF0020EB
:1033900084F8340000BF4FF4006060654FF001080E
:1033A00040461FE62E2E2F447269766572732F53A6
:1033B000544D3332483778785F48414C5F447269E6
:1033C0007665722F5372632F73746D33326837785A
:1033D000785F68616C5F646D612E6300100002406D
:1033E000100402400854025870B5044601F0AAFBCC
:1033F00006462546681C10B104480078054400BF05
:1034000001F0A0FB801BA842FAD370BD300000245D
:103410002DE9F04104460D46164694F8987005F4DF
:10342000401000B904E041F2AE3127A00BF052FF8A
:10343000012F01D0022F3FD12068806D284030B984
:103440002068C06D40F001002168C8650EE020686A
:10345000806D2840A84206D12068C06D40F002006F
:103460002168C86502E003202168C86505F4007082
:1034700030B12068D0F8E00030432168C1F8E000A6
:1034800005F4806030B12068D0F8E4003043216852
:10349000C1F8E40000BF2068406D1A492940084384
:1034A000216848651848006840EA95701649086028
:1034B00000BF0020BDE8F081D4F89C0040F002007D
:1034C000C4F89C000120F5E72E2E2F447269766522
:1034D00072732F53544D3332483778785F48414CDC
:1034E0005F4472697665722F5372632F73746D3304
:1034F00032683778785F68616C5F666463616E2EEE
:1035000063000000FFFFCF3F14A800407047000099
:103510002DE9F04705460C4695F89890B9F1010F52
:1035200002D0B9F1020F7DD1206818B12068B0F146
:10353000804F00D104E040F21A716FA00BF0CAFE78
:10354000E068A0B1E068012811D0E06802280ED040
:10355000E06803280BD0E068042808D0E06805285C
:1035600005D0E068062802D0E068072800D104E012
:1035700040F21B7160A00BF0ADFEE068072811D18E
:10358000A0693F2800D804E040F21E715AA00BF059
:10359000A1FEE069012800D804E040F21F7156A0A6
:1035A0000BF098FE2068002851D16168A86B401E7E
:1035B000814200D804E040F225714FA00BF08AFE52
:1035C0002069B0F5006F00D204E040F226714AA0F5
:1035D0000BF080FEE068072817D06069B0F5006F37
:1035E00000D204E040F2297143A00BF073FEA06802
:1035F00028B1A068012802D0A068022800D104E008
:1036000040F22A713CA00BF065FEE06807280DD15E
:10361000208A4FF0605141EA0040E16940EA012010
:10362000A16900E05FE040EA01060AE0207A800735
:10363000217B40EAC160218A40EA0140616940EA99
:103640000106E96E606801EB80073E6048E0616852
:10365000E86B401E814200D804E040F2467126A08B
:103660000BF038FE2069B0F1005F00D204E040F2B8
:10367000477121A00BF02EFEE06807281AD0606980
:10368000B0F1005F00D204E040F24A711AA00BF0E2
:1036900021FEA06840B1A068012805D0A0680228DA
:1036A00002D0A068032800D104E040F24B7112A0C0
:1036B0000BF010FE217B206940EA4176E068072884
:1036C00002D1D4F8188003E0217A606940EA817859
:1036D000296F606801EBC0073E603F1DC7F800809E
:1036E0000020BDE8F087D5F89C0040F00200C5F846
:1036F0009C000120F5E700002E2E2F4472697665AC
:1037000072732F53544D3332483778785F48414CA9
:103710005F4472697665722F5372632F73746D33D1
:1037200032683778785F68616C5F666463616E2EBB
:10373000630000002DE9F04104460D4616461F4681
:10374000DDF818801DB1012D01D0022D00D104E05B
:1037500040F287711DA00BF0BDFD1EB1012E01D0FE
:10376000022E00D104E04FF4F16118A00BF0B2FD7D
:103770000FB1012F00D104E040F2897113A00BF0CA
:10378000A9FDB8F1000F02D0B8F1010F00D104E09B
:1037900040F28A710DA00BF09DFD94F8980001286D
:1037A0000CD1280140EA860040EA470040EA0800C0
:1037B0002168C1F880000020BDE8F081D4F89C00A9
:1037C00040F00400C4F89C000120F5E72E2E2F44A1
:1037D0007269766572732F53544D33324837787857
:1037E0005F48414C5F4472697665722F5372632F54
:1037F00073746D3332683778785F68616C5F6664C4
:1038000063616E2E63000000704770472DE9F0433E
:1038100004460D469C46002394F89880B8F1020FA8
:1038200074D1402D38D12068D0F8A00000F4FE00FB
:1038300040B9D4F89C0040F02000C4F89C0001205E
:10384000BDE8F0832068D0F8A40000F07F0038B90C
:10385000D4F89C0040F48070C4F89C000120EFE78D
:103860002068D0F8A400C0F3006040B12068D0F810
:10387000A0004FF00049B9EBD07F00D101232068B0
:10388000D0F8A400C0F305200344606C5843D4F87A
:10389000749009EB80014BE0412D38D12068D0F8BD
:1038A000B00000F4FE0038B9D4F89C0040F02000CD
:1038B000C4F89C000120C3E72068D0F8B40000F0F1
:1038C0007F0038B9D4F89C0040F48070C4F89C00A4
:1038D0000120B5E72068D0F8B400C0F3006040B123
:1038E0002068D0F8B0004FF00049B9EBD07F00D18C
:1038F00001232068D0F8B400C0F305200344E06C35
:103900005843D4F8789009EB800111E06EE0206D07
:10391000A84207D8D4F89C0040F02000C4F89C00CE
:1039200001208DE7606D6843D4F87C9009EB80013D
:10393000086800F080405060506820B90868C0F303
:103940008A40106003E0086820F06040106008685A
:1039500000F000509060086800F000401061091D00
:10396000088880B2D061086800F47020D0600868D0
:1039700000F480105061086800F40010906108683D
:10398000C0F3066010620868C00F5062091D0F4640
:10399000002603E0B85D0CF80600761CDFF85C90AA
:1039A000D06809EB10400078B042F3D8402D03D125
:1039B0002068C0F8A83017E0412D03D12068C0F876
:1039C000B83011E0202D06D20120A840D4F8009094
:1039D000C9F8980008E005F01F09012000FA09F075
:1039E000D4F80090C9F89C00002029E7D4F89C0086
:1039F00040F00800C4F89C00012021E724190108C8
:103A0000704700002DE9F04F89B00446F548006882
:103A10008507F448001D006805EA80752068006D80
:103A200000F470462068406D06402068006D00F08C
:103A30000F072068406D07402068006D00F0F00817
:103A40002068406D00EA08082068006D00F0715998
:103A50002068406D00EA09092068006D00F0607A76
:103A60002068406D00EA0A0A2068406D00F480700A
:103A700080B12068006D00F4807058B100BF4FF431
:103A80008070216808650020D649086000BF204684
:103A9000FFF7B6FF2068406D00F48060D8B1206861
:103AA000006D00F48060B0B12068D0F8DC000790B1
:103AB0002068D0F8E40007990840079000BF4FF451
:103AC0008060216808650020C649086000BF204664
:103AD000079900F0DFFD65B100BFC34828402168A9
:103AE0000865A80FBF49086000BF29462046FFF7B8
:103AF0000DFD66B100BFBC48304021680865B00FBD
:103B0000B849086000BF3146204600F0C5FD67B1E6
:103B100000BFB548384021680865B80FB149086052
:103B200000BF3946204600F019FDB8F1000F0ED055
:103B300000BFAD4808EA0000216808654FEA9870A8
:103B4000A849086000BF4146204600F045FD2068B6
:103B5000406D00F4006080B12068006D00F40060EA
:103B600058B100BF4FF400602168086500209D49EE
:103B7000086000BF204600F090FD2068406D00F412
:103B80000070D8B12068006D00F40070B0B12068FA
:103B9000D0F8D80008902068D0F8E00008990840D4
:103BA000089000BF4FF400702168086500208D491F
:103BB000086000BF2046089900F06DFD2068406D48
:103BC00000F4002080B12068006D00F4002058B19E
:103BD00000BF4FF40020216808650020814908607B
:103BE00000BF204600F0B8FC2068406D00F4803033
:103BF00080B12068006D00F4803058B100BF4FF4F0
:103C000080302168086500207649086000BF2046A2
:103C100000F03FFD2068406D00F4802080B12068F6
:103C2000006D00F4802058B100BF4FF4802021685F
:103C3000086500206B49086000BF204600F028FDA1
:103C40002068406D00F4003098B12068006D00F4E9
:103C5000003070B100BF4FF40030216808650020CB
:103C60006049086000BFD4F89C0040F08000C4F8B0
:103C70009C00BAF1000F0ED000BF5B480AEA0000BA
:103C8000216808654FEA9A705649086000BF51469E
:103C90002046FFF7BAFDB9F1000F10D000BF52481F
:103CA00009EA0000216808654FEA99704D490860EB
:103CB00000BFD4F89C0040EA0900C4F89C004B49BE
:103CC000206888427DD16068806800F00300002889
:103CD0007ED06068006A00F00F0B6068406A00EAFE
:103CE0000B0B6068006A00F0300006906068406A64
:103CF0000699084006906068006A00F4C07005905C
:103D00006068406A0599084005906068006A00F4A0
:103D1000FC4004906068406A049908400490606820
:103D2000006A00F4F02003906068406A039908403C
:103D30000390BBF1000F06D06068C0F820B0594670
:103D4000204600F0A2FC069830B10698616808622F
:103D50002046069900F09BFC6068406A00F0400035
:103D6000A8B16068006A00F0400080B16068C06B74
:103D7000000C02906068C06B00F03F000190402092
:103D8000616808622046DDE9012100F07FFC0598AA
:103D900030B10598616808622046059900F074FC0E
:103DA000049840B1049861680862D4F89C000499B2
:103DB0000843C4F89C00039818B10398616808622E
:103DC00000E005E0D4F89C0003990843C4F89C0087
:103DD000D4F89C0010B12046FFF716FD09B0BDE8ED
:103DE000F08F000010A80040FFFFCF3F00A0004070
:103DF00070B594B004464C22FE4901A8FCF715FBAF
:103E000014B9012014B070BDFB492068884203D169
:103E1000206800F580706060F7492068884207D00C
:103E2000F6492068884203D0F5492068884200D1CD
:103E300004E040F23311F3A00BF04CFAA06838B163
:103E4000A068B0F5807F03D0A068B0F5407F00D1B6
:103E500004E04FF49A71EBA00BF03CFAE06858B123
:103E6000E068012808D0E068022805D0E06803284F
:103E700002D0E068042800D104E040F23511E1A04E
:103E80000BF028FA207C10B1207C012800D104E03E
:103E90004FF49B71DBA00BF01DFA607C10B1607CCD
:103EA000012800D104E040F23711D6A00BF012FA3D
:103EB000A07C10B1A07C012800D104E04FF49C71DB
:103EC000D0A00BF007FA606920B16069B0F5007FFF
:103ED00000D804E040F23911CAA00BF0FBF9A06948
:103EE00018B1A069802800D804E04FF49D71C5A0E6
:103EF0000BF0F0F9E06920B1E069B0F5807F00D8FF
:103F000004E040F23B11BFA00BF0E4F9206A18B1C5
:103F1000206A802800D804E04FF49E71B9A00BF00D
:103F2000D9F9A068B0F5407F2BD1606A18B1606AFA
:103F3000202800D804E040F23F11B2A00BF0CAF9EB
:103F4000A06A18B1A06A102800D804E04FF4A0714C
:103F5000ACA00BF0BFF9E06A18B1E06A202800D8E5
:103F600004E040F24111A7A00BF0B4F9206B18B1A6
:103F7000206B102800D804E04FF4A171A1A00BF031
:103F8000A9F9A06B802800D804E04FF4A2719DA08D
:103F90000BF0A0F9E06B402800D804E040F2451196
:103FA00098A00BF097F9206C402800D804E04FF45B
:103FB000A37194A00BF08EF9206CE8B1606C04281A
:103FC00014D0606C052811D0606C06280ED0606C8F
:103FD00007280BD0606C082808D0606C0A2805D030
:103FE000606C0E2802D0606C122800D104E040F210
:103FF000491184A00BF06EF9A06C402800D804E0B1
:1040000040F24B117FA00BF065F9A06CE8B1E06CB9
:10401000042814D0E06C052811D0E06C06280ED0DE
:10402000E06C07280BD0E06C082808D0E06C0A2868
:1040300005D0E06C0E2802D0E06C122800D104E01C
:104040004FF4A7716FA00BF045F9206D402800D800
:1040500004E04FF4A8716BA00BF03CF9206DE8B1BF
:10406000606D042814D0606D052811D0606D06289D
:104070000ED0606D07280BD0606D082808D0606DE9
:104080000A2805D0606D0E2802D0606D122800D17C
:1040900004E040F253115BA00BF01CF9A06D202846
:1040A00000D804E040F2551156A00BF013F9D4E902
:1040B00017100844202800D804E04FF4AB7151A039
:1040C0000BF008F9206E58B1606E18B1606EB0F157
:1040D000804F00D104E040F259114AA00BF0FAF8E9
:1040E000D4E917100844E8B1A06E042814D0A06EDB
:1040F000052811D0A06E06280ED0A06E07280BD080
:10410000A06E082808D0A06E0A2805D0A06E0E2840
:1041100002D0A06E122800D104E040F25D1139A057
:104120000BF0D8F894F8980028B9002084F899008A
:10413000204600F061F92068806920F010002168B5
:10414000886100F0FFFC05460EE000F0FBFC401B20
:104150000A2809D99834606840F0010060600320A3
:1041600004F8980901204DE62068806900F00800F5
:104170000828EAD02068806940F001002168886141
:1041800000F0E0FC05460EE000F0DCFC401B0A28D5
:1041900009D99834606840F001006060032004F899
:1041A000980901202EE62068806900F001000028AF
:1041B000EAD02068806940F0020021688861207C94
:1041C000012806D12068806920F0400021688861BC
:1041D00005E02068806940F0400021688861607CCB
:1041E00001282DD12068806940F4804021688861D1
:1041F0002CE000003419010800A0004000A4004099
:1042000000D400402E2E2F447269766572732F53AE
:10421000544D3332483778785F48414C5F44726977
:104220007665722F5372632F73746D3332683778EB
:10423000785F68616C5F666463616E2E6300000086
:104240002068806920F4804021688861A07C012872
:1042500006D12068806920F480502168886105E0DB
:104260002068806940F480502168886120688069F6
:1042700020F44070A1680843216888612068806943
:1042800020F0A400216888612068006920F01000F7
:1042900021680861E068012806D12068806940F043
:1042A00004002168886120E0E068F0B1E06802283D
:1042B00015D02068806940F08000216888612068FE
:1042C000006940F0100021680861E06803280CD103
:1042D0002068806940F020002168886105E020683E
:1042E000806940F0200021688861207E401E4106E0
:1042F000E069401E41EA0020216A491E0843A18A64
:10430000491E40EA01402168C861A068B0F5407FBD
:104310000FD1A06A401EE16A491E40EA0121206BCC
:10432000401E41EA0011A08C401E41EA0040216875
:10433000C860206E38B12068D0F8C000616E0843B4
:104340002168C1F8C000D4E91710084460B12068A2
:10435000D0F8C80020F0070001AAA16E52F8211081
:1043600008432168C1F8C800206C60B12068D0F80B
:10437000BC0020F0070001AA616C52F8211008432C
:104380002168C1F8BC00A06C68B12068D0F8BC00FE
:1043900020F0700101AAE06C52F8200041EA001000
:1043A0002168C1F8BC00206D68B12068D0F8BC005D
:1043B00020F4E06101AA606D52F8200041EA00207B
:1043C0002168C1F8BC000B492068884205D16068AB
:1043D000806820F0030061688860002044F8940F32
:1043E000A06001202071943C2046FCF701FE0646A7
:1043F000304607E500A0004010B5B4B004461421D3
:104400002FA8FCF72BF8B42102A8FCF727F84D4998
:104410002068884247D14FF40040029000201C9051
:1044200002A801F09FFF08B1FCF7CFFD46480068E5
:10443000401C454908600846006801280DD100BFAE
:104440004248006840F480704049086008460068AF
:1044500000F48070019000BF00BF00BF3B480C38E3
:10446000006840F0080039490C39086008460068C7
:1044700000F00800019000BF00BF03202F90022031
:104480003090002031903290092033902FA930488D
:1044900000F004F900220521132000F0ADFD1320E7
:1044A00000F070FD4BE02B492068884247D14FF463
:1044B0000040029000201C9002A801F053FF08B1B8
:1044C000FCF783FD20480068401C1F49086008462F
:1044D000006801280DD100BF1C48006840F48070BE
:1044E0001A4908600846006800F48070019000BF17
:1044F00000BF00BF15480C38006840F008001349A1
:104500000C3908600846006800F00800019000BF00
:1045100000BF4FF440502F90022030900020319087
:104520003290052033902FA9094800F0B7F80022F7
:1045300005219F2000F060FD9F2000F023FD34B096
:1045400010BD000000A0004008000024EC44025808
:10455000000C025800D400407047000070B50446BB
:104560000D4605F0010058B3164B174A402120466E
:10457000FFF74CF915492068884206D112480068B7
:10458000012800D100BF00BF15E011492068884212
:1045900006D10D480068012800D100BF00BF0AE025
:1045A0000C492068884206D107480068012800D1DC
:1045B00000BF00BF00BF002201212046FEF728FFF8
:1045C00070BD00000D0000247C0F002400A00040FE
:1045D00000A4004000D4004070B504460D4605F02C
:1045E000100058B3164B174A41212046FFF70EF929
:1045F00015492068884206D112480068012800D178
:1046000000BF00BF15E011492068884206D10D485F
:104610000068012800D100BF00BF0AE00C492068F3
:10462000884206D107480068012800D100BF00BFBA
:1046300000BF002210212046FEF7EAFE70BD0000F8
:1046400015000024A40F002400A0004000A4004096
:1046500000D40040014691F8980001280CD10220B6
:1046600081F898000868806920F001000A6890616C
:104670000020C1F89C007047D1F89C0040F0040075
:10468000C1F89C000120F6E77047704770477047FB
:104690007047704770477047704770472DE9F8437F
:1046A00005460C460027DFF83093CC4885421AD0E7
:1046B000CB48854217D0CB48854214D0CA488542A2
:1046C00011D0CA4885420ED0C94885420BD0C9488E
:1046D000854208D0C848854205D0C848854202D0E6
:1046E000C748854200D103E0BB21C6A00AF0F2FD15
:1046F000208880B220B120686FF30F0000B903E07A
:10470000BC21C0A00AF0E6FD606830B360680128F3
:1047100023D06068112820D0606802281DD060680E
:1047200012281AD0C6496068884216D0C549606808
:10473000884212D0C449606888420ED0C34960687C
:1047400088420AD0C2496068884206D0C149606880
:10475000884202D06068032800D103E0BD21A9A0EF
:104760000AF0B8FDA06828B1A068012802D0A068AE
:10477000022800D103E0BE21A2A00AF0ABFD24E193
:104780000121B940206800EA0108B8F1000F7DD08E
:104790006068012808D06068022805D06068112888
:1047A00002D06068122823D1E06840B1E068012897
:1047B00005D0E068022802D0E068032800D103E0B9
:1047C000CE2190A00AF086FDAE68790003208840D3
:1047D00086437900E06888400643AE606E68012039
:1047E000B84086432079C0F30010B84006436E609D
:1047F000EE6879000320884086437900A0688840ED
:104800000643EE606068022802D06068122840D13A
:10481000724885421AD07248854217D07148854245
:1048200014D07148854211D0704885420ED070482E
:1048300085420BD06F48854208D06F48854205D02D
:104840006E48854202D06E48854200D103E0E621E1
:104850006CA00AF03FFD20690F2800D803E0E72193
:1048600068A00AF037FDF90805F1200050F8216032
:104870007807C10E0F20884086437907C90E20694A
:1048800088400643F90805F1200000E091E040F877
:1048900021602E687900032088408643207900F04B
:1048A00003007900884006432E60606800F0805065
:1048B000B0F1805F7DD100BF6748006840F0020022
:1048C000654908600846006800F00200009000BFDB
:1048D00000BF6248B90850F82160B807010F0F20E7
:1048E000884086433D48854201D1002028E03C486D
:1048F000854201D1012023E03A48854201D10220BE
:104900001EE03948854201D1032019E0374885422D
:1049100001D1042014E03648854201D105200FE082
:104920003448854201D106200AE03348854201D14E
:10493000072005E03148854201D1092000E00A2026
:10494000B907090F884006434448B90840F8216078
:10495000D9F8006026EA0806606800F48030B0F5F7
:10496000803F01D146EA0806C9F80060D9F8046022
:1049700026EA0806606800F40030B0F5003F01D177
:1049800046EA0806C9F804604FF0B040066826EA17
:104990000806606800F48010B0F5801F01D146EA77
:1049A00008064FF0B0400660466826EA08066068D0
:1049B00000E009E000F40010B0F5001F01D146EA64
:1049C00008064FF0B04046607F1C2068F840002881
:1049D0007FF4D6AEBDE8F88380000058000002588E
:1049E0000004025800080258000C02580010025837
:1049F0000014025800180258001C025800240258E3
:104A0000002802582E2E2F447269766572732F5338
:104A1000544D3332483778785F48414C5F4472696F
:104A20007665722F5372632F73746D3332683778E3
:104A3000785F68616C5F6770696F2E6300000000CB
:104A400000001111000021110000311100001211AD
:104A50000000221100003211F444025808040058EA
:104A600070B505460C46A0B218B1200C000400B980
:104A700004E040F2C51106A00AF02CFC6E6924EA9D
:104A8000060006EA040140EA0140A86170BD00008A
:104A90002E2E2F447269766572732F53544D333224
:104AA000483778785F48414C5F4472697665722F69
:104AB0005372632F73746D3332683778785F68612F
:104AC0006C5F6770696F2E630000000070B506466A
:104AD0000C461546A0B218B1200C000400B904E041
:104AE00040F2AD1108A00AF0F5FB0DB1012D00D187
:104AF00004E04FF4D77104A00AF0ECFB0DB1B461EF
:104B000001E02004B06170BD2E2E2F4472697665DD
:104B100072732F53544D3332483778785F48414C85
:104B20005F4472697665722F5372632F73746D33AD
:104B300032683778785F68616C5F6770696F2E6381
:104B400000000000014800687047000028000024B1
:104B50000348006803490978084401490860704720
:104B6000280000243000002410B5032000F0AEFA25
:104B700002F040FF10490968C1F303210F4A515C5C
:104B800001F01F0120FA01F40B48006800F00F004B
:104B90001146085C00F01F0024FA00F00849086084
:104BA00008480460002000F00FF808B1012010BD93
:104BB00000F0D0F90020FAE7184402580C19010857
:104BC000240000242000002470B58AB00446102C74
:104BD0000AD200222146192000F00EFA192000F016
:104BE000D1F91948046002E001200AB070BD00BF8D
:104BF0001648006840F00100144908600846006843
:104C000000F00100009000BF00BF01A902A802F05F
:104C100071FE02F0DDFE45000D48B5FBF0F0461ECA
:104C20000C480D49086040F2E7310B48C16046600E
:104C300000210161816003F0B5FE18B9064803F058
:104C4000B7FFD2E70120D0E72C000024F04402583F
:104C500040420F0000000140F40E002410B504464D
:104C6000607860B36078012829D06078022826D067
:104C70006078032823D06078042820D06078052845
:104C80001DD0607806281AD06078072817D0607881
:104C9000082814D06078092811D060780A280ED02E
:104CA00060780B280BD060780C2808D060780D282D
:104CB00005D060780E2802D060780F2800D104E07B
:104CC00040F22D1178A00AF005FB2078012801D0D0
:104CD000207800B904E04FF4977173A00AF0FAFA53
:104CE000607880490860207800287DD0207B10B152
:104CF000207B012800D104E04FF49B716AA00AF0E8
:104D0000E9FAE07A70B1E07A01280BD0E07A022863
:104D100008D0E07A032805D0E07A052802D0E07AAE
:104D2000062800D104E040F237115FA00AF0D2FA61
:104D3000A07A28B1A07A012802D0A07A022800D156
:104D400004E04FF49C7158A00AF0C4FA607B01287B
:104D500001D0607B00B904E040F2391152A00AF0A2
:104D6000B9FAA07B012801D0A07B00B904E04FF480
:104D70009D714DA00AF0AEFAE07B012801D0E07BE6
:104D800000B904E040F23B1147A00AF0A3FA607AB0
:104D9000FF2800DA04E04FF49E7143A00AF09AFA6B
:104DA000207A042852D0207A05284FD0207A06286D
:104DB0004CD0207A072849D0207A082846D0207A7B
:104DC000092843D0207A0A2840D0207A0B283DD0E9
:104DD000207A0C283AD0207A0D2837D0207A0E2855
:104DE00034D0207A0F2800E057E02FD0207A102806
:104DF0002CD0207A112829D0207A122826D0207A87
:104E0000132823D0207A142820D0207A15281DD0EA
:104E1000207A16281AD0207A172817D0207A182836
:104E200014D0207A192811D0207A1A280ED0207A8E
:104E30001B280BD0207A1C2808D0207A1D2805D0EA
:104E4000207A1E2802D0207A1F2800D104E040F2E8
:104E50003D1115A00AF03EFA2249091D606808605C
:104E6000207B0007E17A40EA0160A17A40EAC14074
:104E7000617B40EA8140A17B40EA4140E17B40EA1E
:104E80000140617A40EA0120217A40EA410021781C
:104E9000084314490831086005E000201149091D44
:104EA0000860091D086010BD2E2E2F4472697665BA
:104EB00072732F53544D3332483778785F48414CE2
:104EC0005F4472697665722F5372632F73746D330A
:104ED00032683778785F68616C5F636F7274657889
:104EE0002E63000098ED00E000BF00BF00BFBFF3DD
:104EF0005F8F00BF00BF00BF0548006820F480300E
:104F000003490860002002497031086070470000C2
:104F100024ED00E040F001010D4A11600C497039A8
:104F2000096841F480310A4A703A116000BF00BF3D
:104F300000BFBFF34F8F00BF00BF00BF00BF00BF67
:104F400000BFBFF36F8F00BF00BF00BF70470000FE
:104F500094ED00E008B500BF0948006840F0020089
:104F6000074908600846006800F00200009000BF92
:104F700000BF00220F21901E00F03EF808BD000087
:104F8000F444025810B50446002C00DB03E0BE21B7
:104F90000AA00AF09FF9204600280DDB00BF00BFE1
:104FA00000F01F02012191404209920002F1E0222B
:104FB000C2F8001100BF00BF00BF10BD2E2E2F444D
:104FC0007269766572732F53544D3332483778784F
:104FD0005F48414C5F4472697665722F5372632F4C
:104FE00073746D3332683778785F68616C5F636FB4
:104FF000727465782E6300002DE9F05F80460D46DF
:105000001646102E00D203E0AA2121A00AF062F970
:10501000102D00D203E0AB211DA00AF05BF909F0CE
:10502000DDFC044620462A46334600F00701C1F164
:10503000070ABAF1040F02D94FF0040A01E0C1F1E6
:10504000070AD14601F1040ABAF1070F02D24FF064
:10505000000A01E0A1F1030AD4464FF0010A0AFA5E
:1050600009FAAAF1010A0AEA020A0AFA0CFA4FF04E
:10507000010B0BFA0CFBABF1010B0BEA030B4AEA39
:105080000B073946404609F0B1FCBDE8F09F00002F
:105090002E2E2F447269766572732F53544D33321E
:1050A000483778785F48414C5F4472697665722F63
:1050B0005372632F73746D3332683778785F686129
:1050C0006C5F636F727465782E63000010B50446E0
:1050D000072C07D0062C05D0052C03D0042C01D0BA
:1050E000032C00D103E0922109A00AF0F3F800BFDD
:1050F00004F00701154A10684FF6FF021040144AE9
:10510000024342EA0120114A106000BF10BD0000B6
:105110002E2E2F447269766572732F53544D33329D
:10512000483778785F48414C5F4472697665722FE2
:105130005372632F73746D3332683778785F6861A8
:105140006C5F636F727465782E6300000CED00E095
:105150000000FA0501460A680120C1F8FC0300209E
:1051600081F8F403906940F000609061506D024B4B
:105170001843506500207047030000107047024636
:105180001068416200207047F0B503461546186864
:10519000446A21B944EA05401E68B06219E0186803
:1051A000806A04EB1044002208E0186800F5827061
:1051B00050F8220004EB1044501CC2B2481E90422A
:1051C000F3D844EA0547186800F582704E1E40F88F
:1051D00026700020F0BD10B50446D4F8040407F092
:1051E000A6FF10BD70B504460D46C5EBC50304F11E
:1051F0003C0101EB8301CA682946D4F8040407F096
:10520000DEFE70BD70B504460D46C5EBC50304F562
:10521000FE7101EB8301CA682946D4F8040407F043
:105220003FFF70BD10B50446D4F8040407F082FFB8
:1052300010BD70B504460E4606F0800080280AD1E5
:1052400006F00F00C0EBC00104F13C0000EB81054B
:105250000120687009E006F00F00C0EBC00104F502
:10526000FE7000EB81050020687006F00F002870CA
:1052700000BF94F8BC03012801D1022070BD0120B9
:1052800084F8BC0300BF2946206808F0AFFC00BFCB
:10529000002084F8BC0300BF00BFEFE770B50446F0
:1052A0000E4606F00F006168884201D9012070BDEA
:1052B00006F0800080280AD106F00F00C0EBC00184
:1052C00004F13C0000EB81050120687009E006F064
:1052D0000F00C0EBC00104F5FE7000EB810500205B
:1052E00068700020A87006F00F00287000BF94F8C6
:1052F000BC03012801D10220D9E7012084F8BC03B6
:1053000000BF2946206808F053FF00BF002084F842
:10531000BC0300BF00BFCAE7024601F00F00C0EBAC
:10532000C00302F5FE7000EB8300806970472DE931
:10533000F04705460E4690461F464FF0000906F01E
:10534000800080280AD106F00F00C0EBC00105F1F3
:105350003C0000EB81040120607009E006F00F00C2
:10536000C0EBC00105F5FE7000EB81040020607009
:1053700006F00F002070C4F80880E770607808B16C
:105380002078E080022F01D10020207100BF95F825
:10539000BC03012802D10220BDE8F087012085F876
:1053A000BC0300BF2146286808F032FB00BF002084
:1053B00085F8BC0300BF4846EEE72DE9F0410446FE
:1053C0000E461746984606F00F00C0EBC00104F5E4
:1053D000FE7000EB8105EF60C5F814800020A86125
:1053E000687006F00F0028702069012800D12F6135
:1053F00006F00F0028B9227C2946206808F0B4FD89
:1054000004E0227C2946206808F066FF0020BDE801
:10541000F08170B504460D4605F00F0061688842C2
:1054200001D9012070BD05F0800080280AD105F067
:105430000F00C0EBC00104F13C0000EB810601202D
:10544000707007E0C5EBC50104F5FE7000EB810646
:10545000002070700120B07005F00F00307000BFA8
:1054600094F8BC03012801D10220DBE7012084F875
:10547000BC0300BF3146206808F0E1FE05F00F00D4
:1054800028B9217C04F57172206808F059FE00BF2C
:10549000002084F8BC0300BF00BFC3E72DE9F04142
:1054A00004460E461746984606F00F00C0EBC001B2
:1054B00004F13C0000EB8105EF60C5F8148000208A
:1054C000A8610120687006F00F002870206901288B
:1054D00000D12F6106F00F0028B9227C29462068F0
:1054E00008F042FD04E0227C2946206808F0F4FE22
:1054F0000020BDE8F0812DE9FE4F044620680290AF
:10550000029D206809F0D3F800287DD1206809F0B9
:105510000DF908B9BDE8FE8F206809F007F900F021
:105520000200022805D12068406900F002002168CD
:105530004861206809F0FAF800F01000102846D100
:105540002068806920F01000216888610298D0F8F6
:10555000209009F00F00C0EBC00104F5FE7000EBD5
:10556000810BC9F3434002281AD147F6F07009EACB
:10557000000030B3C9F30A12DBF80C10029809F0EE
:10558000DAF8C9F30A11DBF80C000844CBF80C0078
:10559000C9F30A11DBF818000844CBF8180010E032
:1055A000C9F3434006280CD1082204F57171029812
:1055B00009F0C1F8C9F30A11DBF818000844CBF868
:1055C00018002068806940F0100021688861206818
:1055D00009F0ACF800F40020B0F5002F52D10026FD
:1055E000206809F073F8824649E00AF00100E8B348
:1055F000F1B2206809F08DF8804608F0010058B13A
:10560000012105F5306000E043E200EB46108160C7
:105610003146204605F036FB08F00800082809D17D
:10562000082105F5306000EB4610816031462046C8
:1056300005F0F6FA08F01000102805D1102105F544
:10564000306000EB4610816008F02000202805D172
:10565000202105F5306000EB4610816008F4005011
:10566000B0F5005F08D14FF4005100E004E005F50B
:10567000306000EB46108160761C4FEA5A0ABAF19E
:10568000000FB2D1206809F051F800F48020B0F585
:10569000802F7ED1206809F00FF88246002683E033
:1056A0000AF0010000287CD0F1B2206809F018F857
:1056B000804608F00100F0B306F00F010120884099
:1056C000019040F634004159019821EA000040F66B
:1056D00034014851012105F5106000EB461081604E
:1056E0002069012824D1C6EBC60104F13C0000EB7F
:1056F0008100C6EBC602C16804F13C0000EB8200E9
:1057000080680144C6EBC60204F13C0000EB820055
:10571000C1606EB9C6EBC60104F13C0000EB81002C
:10572000406928B904F571720121206808F008FD6C
:10573000F1B2204600E001E0FFF754FD08F0080058
:10574000082805D1082105F5106000EB461081609E
:1057500008F01000102805D1102105F5106000EBAD
:105760004610816008F04000402805D1402105F531
:10577000106000EB4610816008F00200022805D19D
:10578000022105F5106000EB4610816008F08000F2
:1057900001E00DE005E0802803D13146204605F008
:1057A0002FFB761C4FEA5A0ABAF1000F7FF478AF4C
:1057B000206808F0BBFF00F00040B0F1004F1CD1A2
:1057C00040F60400405920F0010140F60400415128
:1057D00094F8F403012807D1002084F8F403002191
:1057E0002046FFF7CBFC02E0204600F0A5FA206837
:1057F000406900F0004021684861206808F096FF89
:1058000000F40060B0F5006F0ED140F6080040597A
:1058100000F0010010B1204600F0E6FA206840696F
:1058200000F4006021684861206808F07FFF00F004
:105830000060B0F1006F19D12068406900F000608D
:105840002168486194F8F40368B9012084F8F403EE
:105850002068406DC0F38300C4F8F803012120469E
:10586000FFF78CFC02E0204600F0BEFA206808F04A
:105870005DFF00F48050B0F5805F7DD140F60400FC
:10588000405920F0010140F60400415110212068E8
:1058900008F0E2FE00273EE04FF67F3105F510608C
:1058A00000EB4710816005F5106000EB47100068C1
:1058B00020F4001105F5106000EB4710016005F5BC
:1058C000106000EB4710006840F0006105F51060C3
:1058D00000EB471001604FF67F3105F5306000EBBB
:1058E0004710816005F5306000EB4710006820F438
:1058F000001105F5306000EB4710016005F53060E0
:1059000000EB4710006840F0006105F5306000EBE7
:10591000471001607F1C6068B842BDD840F61C008B
:10592000405940F0011140F61C004151206B70B10C
:10593000D5F8840840F00B01C5F8841840F64400FF
:10594000405940F00B0140F6440041510FE040F651
:105950001400405942F22B01084340F6140148510B
:10596000081F405940F00B014FF401604151D5F838
:10597000000820F4FE6000E00DE0C5F80008217C7E
:1059800004F57172206808F0DBFB2068406900F4C0
:10599000805021684861206808F0C8FE00F400507B
:1059A000B0F5005F17D1206808F09AF8206808F079
:1059B0006BFEE06001F0D4FF0090227B206800992C
:1059C00008F05AFF204600F09FF92068406900F473
:1059D000005021684861206808F0A8FE00F0080027
:1059E000082808D1204600F0AEF92068406900F090
:1059F000080021684861206808F098FE00F48010D3
:105A0000B0F5801F0AD100263146204600F043F849
:105A10002068406900F4801021684861206808F01F
:105A200085FE00F40010B0F5001F0AD100263146B3
:105A3000204600F039F82068406900F40010216821
:105A40004861206808F072FE00F08040B0F1804F9D
:105A500008D12046FFF7BFFB2068406900F0804076
:105A600021684861206808F061FE00F00400042805
:105A70000FD12068D0F8049009F00400042802D166
:105A80002046FFF7CFFB2068406840EA0900216804
:105A9000486000BF3EE570B504460D462946D4F87F
:105AA000040407F0B5FB70BD70B504460D462946E9
:105AB000D4F8040407F0C4FB70BD000070B58AB0D0
:105AC000044614B901200AB070BD5D4920688842BF
:105AD00000D103E087215BA009F0FCFB266894F865
