:020000040800F2
:1000000028AE0024A50300080B760008196E00082E
:1000100009760008850C00085DA5000800000000B6
:10002000000000000000000000000000E5020008E1
:10003000DD1100080000000041030008517A0008AB
:10004000BF030008BF030008BF030008BF03000888
:10005000BF030008BF030008BF030008BF03000878
:10006000BF030008BF030008BF030008D50C000849
:10007000E10C0008ED0C0008F90C0008050D000863
:10008000110D00081D0D0008BF030008E511000850
:10009000FD110008F111000809120008BF03000853
:1000A000BF030008E57B0008BF030008BF0300088A
:1000B000F17B0008BF030008BF030008BF0300086E
:1000C000BF030008BF030008BF030008BF03000808
:1000D000BF030008D5890008ED890008058A0008DB
:1000E000BF030008BF03000800000000BF030008B2
:1000F000BF030008BF030008BF030008290D000864
:10010000BF030008BF030008BF030008BF030008C7
:10011000BF030008BF030008BF030008BF030008B7
:10012000350D0008410D0008BF030008BF0300089B
:10013000BF030008BF030008BF030008BF03000897
:1001400000000000000000000000000000000000AF
:10015000BF030008BF030008BF0300081D8A000892
:10016000BF030008BF0300081D76000811760008D1
:10017000BF03000829760008BF0300080000000044
:10018000BF030008BF030008BF030008BF03000847
:10019000BF030008BF030008BF030008BF03000837
:1001A000BF030008BF030008BF03000800000000F1
:1001B000BF030008BF030008BF030008BF03000817
:1001C000BF030008BF03000800000000000000009B
:1001D0000000000000000000BF0300080000000055
:1001E000000000000000000000000000000000000F
:1001F0000000000000000000BF030008BF0300086B
:10020000BF030008BF03000800000000BF03000890
:10021000BF030008BF030008BF030008BF030008B6
:10022000BF03000800000000BF030008000000003A
:10023000BF030008BF03000800000000BF03000860
:10024000BF030008BF030008BF030008BF03000886
:10025000BF030008BF030008BF030008BF03000876
:10026000BF030008BF030008BF030008BF03000866
:10027000BF030008BF030008BF0300080000000020
:10028000BF030008BF030008BF030008BF03000846
:1002900000000000BF030008BF03000800000000CA
:1002A00000000000BF030008BF030008BF030008F0
:1002B000BD890008BF030008BF030008151200082D
:1002C00021120008BF030008BF030008DFF810D0A8
:1002D00000F0F0F8004800473FDD0008AFF3008071
:1002E00028AE00242C4B19680868B0E8F04F80F362
:1002F0000988BFF36F8F4FF0000080F311887047BB
:100300000000000008480068006880F308884FF08B
:10031000000080F3148862B661B6BFF34F8FBFF35D
:100320006F8F00DF00BF00BF08ED00E0DFF80C00BA
:10033000016841F470010160704700BF88ED00E082
:10034000EFF30980BFF36F8F134B1A681EF0100F85
:1003500008BF20ED108A20E9F04F106009B44FF07B
:10036000500080F31188BFF34F8FBFF36F8F0FF0F2
:1003700069FA4FF0000080F3118809BC1968086819
:10038000B0E8F04F1EF0100F08BFB0EC108A80F3F9
:100390000988BFF36F8F7047A0040024EFF3058036
:1003A000704700000648804706480047FEE7FEE722
:1003B000FEE7FEE7FEE7FEE7FEE7FEE7FEE7FEE715
:1003C0001D7B0008CD0200082DE9F05F05460020E6
:1003D00092469B4688460646814640241BE02846B6
:1003E00041464746224600F053F853465A46C01A43
:1003F000914110D311461846224600F03AF82D1AC2
:1004000067EB01084F4622460120002100F031F839
:1004100017EB00094E41201EA4F10104DFDC484621
:1004200031462A464346BDE8F09F40EA01039B0758
:1004300003D009E008C9121F08C0042AFAD203E059
:1004400011F8013B00F8013B521EF9D27047D2B2BD
:1004500001E000F8012B491EFBD270470022F6E7AD
:1004600010B513460A4604461946FFF7F0FF20462A
:1004700010BD202A04DB203A00FA02F10020704768
:100480009140C2F1200320FA03F3194390407047D2
:10049000202A04DB203A21FA02F00021704721FAD9
:1004A00002F3D040C2F12002914008431946704740
:1004B00000207047064C074D06E0E06840F001035D
:1004C00094E8070098471034AC42F6D3FFF702FFD8
:1004D000042701082427010870B58C1810F8015B67
:1004E00015F0070301D110F8013B2A1106D110F8CD
:1004F000012B03E010F8016B01F8016B5B1EF9D1D1
:100500002B0705D40023521E0DD401F8013BFAE756
:1005100010F8013BCB1A921C03E013F8015B01F8C1
:10052000015B521EF9D5A142D8D3002070BD000056
:100530009FED201AB5EE002A00EE012A9FED1E1A4B
:10054000BDEEC20AB5EEC02AF1EE10FA10EE100AA6
:10055000B8BF013800EE100A0020B8EEC00A32EE33
:10056000400A9FED162A20EE010ABCEEC01A11EED9
:10057000101A30EE021AB0EB512F18BF002102EE14
:10058000101A41F6007000FE010AC0F60100B8EE34
:10059000422A00EB810090ED011A30EE420AB7EEDC
:1005A000002A32EE402A20EE010A90ED001A02EEF7
:1005B000010A704783F9223E00000044000000C495
:1005C000B0B503880D88AB4256D145884C88A5420A
:1005D00052D11488A3424FD15488A5424CD105FB77
:1005E00003FC436800254968B5EB9C0F506831D087
:1005F0004FEA9C02524200BF93ED000A91ED001AAF
:1006000030EE010A03F1100E01F1100400F11005A3
:1006100080ED000A013293ED010A91ED011A30EEEE
:10062000010A80ED010A93ED020A91ED021A30EE03
:10063000010A80ED020A93ED030A91ED031A30EEF0
:10064000010A7346214680ED030A2846D4D121468B
:10065000284673461CF003020CD05242B3EC010A48
:10066000B1EC011A30EE010A051D013280ED000ADD
:100670002846F3D1002000E0FD2040B2B0BD01804B
:1006800042804360704700002DE9F04F8BB0B0F816
:1006900000B0B0F802E0F34540F051810B88FD2234
:1006A0009B4540F04D814F88BB4240F04981BBF1F2
:1006B000000F436800F029816FF003004C6800EBE5
:1006C0008B08CDF81CE0002700934FF07E5906946C
:1006D0005E462046BBEB060009D0B9002046FFF776
:1006E000BDFE00200130874204F10404FAD104F178
:1006F000040AC4F80090751E10D0A8EB870150467C
:10070000FFF7ACFE012054460130864204F1040498
:10071000FAD1002D07F101072E46DBD1BBF1000F06
:10072000009BDDF81CE000F0F0800420CDF814B050
:1007300000EB8E0001901846ABF1010603EB8E042E
:100740004FEA8E021D1DCEF10001002308919FED9E
:10075000800A7746814600BF5B4580F0F58003FB49
:100760000EF0B0EE403A09EB80010A9191ED001ACB
:100770000699B0EE414A01EB8000099021463046CF
:1007800006E000BF91ED004A0138B0EE423A114454
:10079000B5EEC04AF1EE10FA0ADDB4EEC34AB0EE8F
:1007A000442AF1EE10FAD8BFB0EE432A09E000BFA8
:1007B000B1EE442AB4EEC23AF1EE10FA01DBB0EE2B
:1007C000432A0028DED1B5EE402AF1EE10FA00F0FF
:1007D000BB80B0EEC13AB4EE423AF1EE10FA1CBF63
:1007E000D84310EB0B0004D0002000BF013086423C
:1007F000FCD1B5EE401AF1EE10FA00F0A580CDE97B
:100800000346AEEB030C0A99BCF1010F4FF07E508A
:1008100008600AD00120294691ED002A82EE012AC3
:1008200001308742A1EC012AF6D1DDE9080100BFC1
:1008300091ED002A82EE012A0C1D013081ED002A83
:100840002146F5D1ACF1010B05994FF00008DDF818
:1008500018A04846CDF80890984505D100EB8C06C5
:100860000AEB8E0A33E000BF90ED001A0A9CB0EE4E
:10087000413ABBF1000F94ED002A01EE423A00F13B
:10088000040680ED003A15D00120002406EB04098F
:1008900005EB040E99ED002A9EED003A01EE432A85
:1008A0000130874204F1040489ED002AEED1264488
:1008B000DDF81CE0DDE908049AED002A94ED003A29
:1008C00001EE432A04340130AAEC012AF4D106EBEC
:1008D0008300013908F10108BED1DDF80890013F1D
:1008E000049E09F10409039C03F101030198A6F198
:1008F00001060444DDF814B005447FF42DAFB5EED5
:10090000401A009BF1EE10FA20D10EFB0BF10020F3
:1009100000294FF000020BD093ED000AB5EE400A1B
:10092000F1EE10FA04D101328A4203F10403F3D349
:100930008A4208BF6FF004000BB0BDE8F08FFD22C3
:1009400050B20BB0BDE8F08FFB22F9E70022F7E7C9
:10095000000000002DE9F04F88B0B0F802C00B880D
:100960009C4540F08880B0F800E013889E4540F038
:100970008280B1F80290538899457CD14FEA9C045B
:10098000476804FB09F049680CF00305029101EB8C
:100990000010019000202CF00303A0EB9C0107EB5A
:1009A000830607914FEA89035168C5F1000A009157
:1009B0009FED330ACDE9039CCDE9050E0099CE46A3
:1009C00001EB8008DDE901BC002CB0EE401AE146E5
:1009D000384627D0624607993846B0EE401A00BF25
:1009E00092ED002A90ED003A03EE021A1A4490EDBF
:1009F000014A92ED002A04EE021A1A4490ED025ABE
:100A000092ED002A05EE021A1A4490ED036A92ED67
:100A1000002A06EE021A013100F110001A44DFD15B
:100A2000D946304655B1514690ED002A99ED003A2D
:100A300002EE031A043001319944F5D108F10400A3
:100A400088ED001ABEF1010E0CF1040C0BF1040B41
:100A50008046B9D1DDF80C900598DDF810C0484407
:100A6000DDF818E007EB8C07BEF1010E06EB8C06F3
:100A7000A2D1002000E0FD2040B208B0BDE8F08F18
:100A800000000000B0B503880D88AB4256D1458800
:100A90004C88A54252D11488A3424FD15488A54214
:100AA0004CD105FB03FC436800254968B5EB9C0F5E
:100AB000506831D04FEA9C02524200BF93ED000AC9
:100AC00091ED001A30EE410A03F1100E01F110040D
:100AD00000F1100580ED000A013293ED010A91ED5D
:100AE000011A30EE410A80ED010A93ED020A91ED00
:100AF000021A30EE410A80ED020A93ED030A91EDED
:100B0000031A30EE410A7346214680ED030A284657
:100B1000D4D12146284673461CF003020CD0524221
:100B2000B3EC010AB1EC011A30EE410A051D0132A5
:100B300080ED000A2846F3D1002000E0FD2040B2FD
:100B4000B0BD00002DE9F04F83B002884B889A4277
:100B50004DD144880B889C4249D10023D1F80480B0
:100B60004FEA940C416804F0030ECDF80080A3EB2B
:100B700094040294140196000194CEF1000B4046B7
:100B8000BCF1000F1ED04746029C00BF08683D46DE
:100B900038603744486807EB0609A85101F1100096
:100BA000D1F808A0013447F806A009EB0607C96888
:100BB000374449F806100146E8D101996C180146FE
:100BC00003E000BF009800EB8304BEF1000F07D0E4
:100BD0005D4600BF51F8040B013520603444F9D163
:100BE0000133013A08F10408CAD1002000E0FD20D9
:100BF00040B203B0BDE8F08F9FED1F1A20EE010A4E
:100C00009FED1F2ABDEEC01AB5EEC00AF1EE10FA34
:100C100011EE100AB8BF013801EE100A0020B8EE3C
:100C2000C11A30EE410A9FED151A20EE010ABCEE02
:100C3000C01A11EE101A30EE021AB0EB512F18BF85
:100C4000002102EE101A41F6007000FE010AC0F603
:100C50000100B8EE422A00EB810090ED011A30EE5F
:100C6000420AB7EE002A32EE402A20EE010A90ED49
:100C7000001A02EE010A704783F9223E0000004488
:100C8000000000C4FEE704284FF000007047002079
:100C90007047000010B505490022054807F0F4FF31
:100CA0000449034807F0E6FF002010BD9C20002403
:100CB000CC1700249C1C002410B50146034807F003
:100CC000D9FF024807F0B5FF002010BDCC17002463
:100CD00000207047014800F0EBBE0000C013002464
:100CE000014800F0E5BE000038140024014800F07F
:100CF000DFBE0000D0120024014800F0D9BE000081
:100D000048130024014800F0D3BE0000A0150024C1
:100D1000014800F0CDBE0000B0140024014800F0EE
:100D2000C7BE000028150024014800F0C1BE000025
:100D300018160024014800F0BBBE000090160024E5
:100D4000014800F0B5BE00000817002410B52C4A79
:100D5000016891423AD02A4A1832914236D0284A44
:100D60003032914232D0264A483291422ED0244A23
:100D7000603291422AD0224A7832914226D0204ACB
:100D80009032914222D01E4AA83291421ED01D4A72
:100D900091421BD01B4A1832914217D0194A303267
:100DA000914213D0174A483291420FD0154A60320F
:100DB00091420BD0134A7832914207D0114A9032B7
:100DC000914203D00F4AA832914214D1CAB2103ACC
:100DD0001823B2FBF3F20C4C02F00703E35CC3658B
:100DE000032A04D96FF30901091D816506E06FF339
:100DF0000901816502E021F0FF018165806D10BD70
:100E00001000024010040240BC1C010810B501682B
:100E10000123224CCAB2A1421BD0204C1434A1425F
:100E200017D01E4C2834A14213D01C4C3C34A14294
:100E30000FD01A4C5034A1420BD0184C6434A1424C
:100E400007D0164C7834A14203D0144C8C34A14204
:100E50000FD1083A1421B2FBF1F1114A02EB8102E1
:100E600002660F4A8032426601F01F018B408366A2
:100E700010BD103A1824B2FBF4F20A4C2144A82900
:100E800000D80832084901EB820101660649803129
:100E9000416602F01F018B40836610BD0854025862
:100EA00000580258F0FBFDBF000802400279521EB4
:100EB000072A31D8194B016899421BD0174B1433BC
:100EC000994217D0154B2833994213D0134B3C331A
:100ED00099420FD0114B503399420BD00F4B6433D2
:100EE000994207D00D4B7833994203D00B4B8C338A
:100EF000994207D10A4901EB8201C1660849403194
:100F0000016706E0074901EB8201C16605494031EE
:100F10000167012191404167704700000854025861
:100F20000059025800090240014610B500208B69A3
:100F30004FF0C0748A6A002B0ED0B3F5005F1AD050
:100F400062B3012A2AD0022A28D0032A03D1C96A0F
:100F5000C90100D5012010BD1AB1012A06D0022A0C
:100F6000F9D1C96AC901F6D5012010BDC96AA142EB
:100F7000FBD1012010BD52B1012A0AD0022A06D0AD
:100F8000032AF7D1C96AA142F4D1012010BD012082
:100F900010BDC96AC901FBD5012010BD012010BDDB
:100FA0002DE9F04F856D8A4E894FDFF824C2A836AF
:100FB000DFF81C82DFF818920CF1180CDFF810A291
:100FC00008F13008DFF808B209F1480904680AF1AD
:100FD000600A0BF1780BBC426DD064456BD0444580
:100FE00069D04C4567D0544565D05C4563D0DFF887
:100FF000E0E10EF1900E74455DD0B4425BD0DFF8B5
:10100000D4E1744557D0DFF8CCE10EF1180E7445E9
:1010100051D0DFF8C0E10EF1300E74454BD0DFF84F
:10102000B4E10EF1480E744545D0DFF8A8E10EF1A9
:10103000600E74453FD0DFF89CE10EF1780E7445E8
:1010400039D0DFF890E10EF1900E744533D0DFF81F
:1010500084E10EF1A80E74452DD0DFF87CE17445D3
:1010600029D0DFF874E10EF1140E744523D0DFF8B7
:1010700068E10EF1280E74451DD0DFF85CE10EF139
:101080003C0E744517D0DFF850E10EF1500E744558
:1010900011D0DFF844E10EF1640E74450BD0DFF897
:1010A00038E10EF1780E744505D0DFF82CE10EF131
:1010B0008C0E744509D1D0E919E4CEF80440C46E11
:1010C0001CB1D0E91CE4CEF804400468BC422ED028
:1010D00064452CD044452AD04C4528D0544526D0D0
:1010E0005C4524D03A4F9037BC4220D0B4421ED049
:1010F000384EB4421BD0374E1836B44217D0354E56
:101100003036B44213D0334E4836B4420FD0314E4D
:101110006036B4420BD02F4E7836B44207D02D4EF5
:101120009036B44203D02B4EA836B4421BD190F86F
:101130005C4004F01F063F24B440AC60046825689E
:1011400025F480252560046863608368402B05D002
:10115000036899600068C260BDE8F08F03689A6018
:101160000068C160F8E71C4EB4421BD01A4E14361A
:10117000B44217D0184E2836B44213D0164E3C361F
:10118000B4420FD0144E5036B4420BD0124E6436D7
:10119000B44207D0104E7836B44203D00E4E8C368F
:1011A000B442D9D190F85C4004F01F060124B44049
:1011B0006C60046863608368402B04D003689960A6
:1011C0000068C260C8E703689A600068C160C3E74E
:1011D000100002401004024008540258704772B6D2
:1011E000FEE70000014801F069BD0000E40C0024A6
:1011F000014801F063BD0000E40C0024014801F047
:101200005DBD0000840D0024014801F057BD0000C1
:10121000840D0024014801F051BD0000240E00247B
:10122000014801F04BBD0000240E002430B5426B94
:10123000036853F8844F4FF6FC718C4344EA8204F0
:101240001C60036853F8844F058F24F47F0444EA3C
:1012500005441C60836B1A44036853F8884F8C4321
:1012600044EA82041C60036853F8884F858F24F495
:10127000FE0444EA05441C60C36B02EB43020368AE
:1012800053F8A04F8C4344EA82041C60036853F86F
:10129000A04FB0F8405024F4FE0444EA05441C601A
:1012A000D0E9103403FB0422036853F8B04F8C4399
:1012B00044EA82041C60036853F8B04FB0F8485009
:1012C00024F4FE0444EA05441C60D0E9123403FB14
:1012D0000422036853F8AC4F8C4344EA82041C6038
:1012E000D0E9143403FB0422036853F8F04F8C4315
:1012F00044EA82041C60036853F8F04FB0F8585079
:1013000024F47C1444EA05441C60836D02EB43031F
:10131000026852F8C04F8C4344EA830111600168AF
:1013200051F8C02FB0F85C3022F47C1242EA03423C
:101330000A60016851F8C02F90F8603022F07C52AA
:1013400042EA03620A60416B224A02EB8101C166F4
:10135000826B01EB82020267C36B02EBC30242673E
:10136000D0E91034634302EB83028267D0E9123480
:10137000634302EB8302C267D0E91434634302EB98
:101380008302C0F88020836D02EBC302C0F8842082
:10139000C46D836E5C4302EB8402C0F88820046E47
:1013A0005C4302EB8402C0F890200B4B9A4208D9B0
:1013B0009830416841F02001416003210170012013
:1013C00030BD002200E004C1D0F890308B42FAD842
:1013D000002030BD00AC0040FCD30040F0B5D1E9A6
:1013E00001650C692C430D68002E19D045F080452D
:1013F0002C4391F82070D1E9066535434E6946EAE1
:1014000007663543CE683543D0F88460806E584314
:1014100006EB80031C605D60083300200C4E0FE07B
:1014200044EA8544E5E71418155CE77845EA076562
:10143000A77864783F0447EA0424254320C3001DAD
:10144000CC6806EB144424788442ECD8F0BD00004C
:10145000C41C010810B50B480168001D0468001D7C
:101460000068084400280BD00749082205F0D5FC85
:10147000054904222046BDE81040103105F0CDBCDE
:1014800010BD000000E8F11F5E0000242DE9F84FB8
:10149000044602F019F900905CB194F83500022876
:1014A00009D080206065002084F834000120BDE868
:1014B000F88F0120FBE7D14ED04FD0491836DFF826
:1014C0003C833037DFF83493DFF830A308F1480865
:1014D000DFF828B309F1600920680AF1780A0BF1F6
:1014E000900B88422ED0B0422CD0B8422AD0404532
:1014F00028D0484526D0504524D0584522D0BF4A50
:10150000A83290421ED0BE4A90421BD0BC4A18322C
:10151000904217D0BA4A3032904213D0B84A48327B
:1015200090420FD0B64A603290420BD0B44A783223
:10153000904207D0B24A9032904203D0B04AA832CB
:1015400090420AD1026822F01E02026020684269BD
:1015500022F080024261256804E0026822F00E0257
:1015600002602568206888424DD0B0424BD0B84216
:1015700049D0404547D0484545D0504543D05845CF
:1015800041D09E4AA83290423DD09D4A90423AD0E6
:101590009B4A1832904236D0994A3032904232D02B
:1015A000974A483290422ED0954A603290422AD0D3
:1015B000934A7832904226D0914A9032904222D07B
:1015C0008F4AA83290421ED08E4A90421BD08D4A3C
:1015D0001432904217D08B4A2832904213D0894A55
:1015E0003C3290420FD0874A503290420BD0854A0D
:1015F0006432904207D0834A7832904203D0814AC5
:101600008C32904204D1206E026822F48072026013
:101610007A49206888422ED0B0422CD0B8422AD0D5
:10162000404528D0484526D0504524D0584522D0A2
:101630007249A83188421ED0714988421BD0704936
:101640001831884217D06E493031884213D06C4926
:10165000483188420FD06A49603188420BD06849CE
:101660007831884207D066499031884203D0644976
:10167000A831884204D1016821F00101016013E022
:10168000016821F0010101600EE002F01DF80099EF
:10169000401A052808D92020343420620020207008
:1016A00003206070012002E72868C007EDD1534A8B
:1016B0000121206890422ED0B0422CD0B8422AD0CE
:1016C000404528D0484526D0504524D0584522D002
:1016D0004A4BA83398421ED0494B98421BD0484BE6
:1016E0001833984217D0464B3033984213D0444BAE
:1016F000483398420FD0424B603398420BD0404B56
:101700007833984207D03E4B9033984203D03C4BFD
:10171000A833984208D1A06D94F85C3003F01F05FF
:101720003F23AB40836007E0A06D94F85C3003F08A
:101730001F0301FA03F34360206890424DD0B0428A
:101740004BD0B84249D0404547D0484545D0504598
:1017500043D0584541D0294AA83290423DD0284A2A
:1017600090423AD0264A1832904236D0244A30323B
:10177000904232D0224A483290422ED0204A6032E3
:1017800090422AD01E4A7832904226D01C4A90328B
:10179000904222D01A4AA83290421ED0194A904252
:1017A0001BD0184A1432904217D0164A2832904261
:1017B00013D0144A3C3290420FD0124A5032904219
:1017C0000BD0104A6432904207D00E4A78329042D1
:1017D00003D00C4A8C3290420BD1D4E919205060CE
:1017E000E06E30B1026822F480720260D4E91C20FD
:1017F0005060002004F8340F617058E61000024079
:1018000010040240085402582DE9F05F002808D067
:1018100090F83510022906D0802141650120BDE8ED
:10182000F09F0120FBE79E4A9D4B9D4C18329C4D3A
:1018300030339B4E48349A4F6035DFF864B27836C7
:10184000DFF85CE29037DFF85C82DFF858920EF147
:10185000A80EDFF850A208F11808016809F19009F4
:10186000DFF840C20AF1A80A59452ED091422CD087
:1018700099422AD0A14228D0A94226D0B14224D0F0
:10188000B94222D0F34659451FD061451DD041458C
:101890001BD0DFF810B20BF1300B594515D0DFF833
:1018A00004B20BF1480B59450FD0DFF8F8B10BF13A
:1018B000600B594509D0DFF8ECB10BF1780B5945B5
:1018C00003D0494501D0514536D14FF0040B80F883
:1018D00035B07348814225D0914223D0994221D01E
:1018E000A1421FD0A9421DD0B1421BD0B94219D08C
:1018F000714517D0614515D0414513D06948303046
:1019000081420FD06748483081420BD06548603033
:10191000814207D063487830814203D0494501D0E5
:10192000514504D1086820F001000860B6E008685D
:1019300020F001000860B1E0D1F800E02EF00E0EBA
:10194000C1F800E0DFF858E1016871452DD09142FF
:101950002BD0994229D0A14227D0A94225D0B1420B
:1019600023D0B94221D0DFF838E10EF1A80E71453D
:101970001BD0614519D0414517D0DFF828E10EF1A1
:10198000300E714511D0DFF81CE10EF1480E7145A3
:101990000BD0DFF810E10EF1600E714505D059450E
:1019A00003D0494501D0514506D1D1F800E02EF0D1
:1019B000010EC1F800E005E0D1F800E02EF0010EC4
:1019C000C1F800E0DFF8D8E00168714544D09142E9
:1019D00042D0994240D0A1423ED0A9423CD0B1422F
:1019E0003AD0B94238D02E4AA832914234D061451B
:1019F00032D0414530D02B4A303291422CD0294A46
:101A00004832914228D0274A6032914224D0594529
:101A100022D0494520D051451ED0234A91421BD0A7
:101A2000214A1432914217D01F4A2832914213D0D2
:101A30001D4A3C3291420FD01B4A503291420BD08A
:101A4000194A6432914207D0174A7832914203D042
:101A5000154A8C32914218D1016E0A6822F48072C4
:101A60000A60816D90F85C2002F01F0301229A4009
:101A70004A60D0E919215160C16E31B10A6822F47F
:101A800080720A60D0E91C215160002180F8341076
:101A9000012180F83510016D01B188470020BEE6B4
:101AA000100002401004024008540258406D704774
:101AB0002DE9FF5F0446002001904FF41651FD48C8
:101AC0000068B0FBF1F00090A56D2E682968FA4F10
:101AD000DFF8E4B3DFF8E083DFF8DC930BF1180BF9
:101AE000DFF8D4A308F13008206809F148090AF1A9
:101AF000600AB8423BD05A46904238D0404536D072
:101B0000484534D0504532D0EB4A783290422ED0FE
:101B1000E94A903290422AD0E74AA832904226D031
:101B2000E64A904223D0E54A183290421FD0E34B58
:101B3000303398421BD0E14B4833984217D0DFF83E
:101B40007CC30CF1600C604511D0DFF870C30CF160
:101B5000780C60450BD0DFF864C30CF1900C604545
:101B600005D0DFF858E30EF1A80E70457ED194F849
:101B70005C10082301F01F0103FA01F232424BD03E
:101B8000B84232D0584530D040452ED048452CD0B0
:101B900050452AD0C8497831884226D0C64990316C
:101BA000884222D0C449A83188421ED0C349884205
:101BB0001BD0C2491831884217D0C0493031884201
:101BC00013D0BE49483188420FD0BC4960318842A9
:101BD0000BD0BA497831884207D0B8499031884251
:101BE00003D0B649A831884203D1016801F004014D
:101BF00002E0016801F0080171B1016821F00401FF
:101C0000016094F85C0000F01F0003FA00F2AA6083
:101C1000606D40F00100606594F85C00012100F007
:101C20001F008140314240D02068B84234D058452E
:101C300032D0404530D048452ED050452CD09E4A19
:101C40007832904228D09C4A9032904224D09A4ACE
:101C5000A832904220D0994A90421DD0974A18321B
:101C6000904219D0954A3032904200E0D2E113D030
:101C7000924A483290420FD0904A603290420BD044
:101C80008E4A7832904207D08C4A9032904203D0EC
:101C90008A4AA83290427DD1406910F0800F04D06A
:101CA000A960606D40F00200606594F85C0004215A
:101CB00000F01F00814031423ED02068B84232D04F
:101CC000584530D040452ED048452CD050452AD0DC
:101CD000794A7832904226D0774A9032904222D088
:101CE000754AA83290421ED0744A90421BD0734A63
:101CF0001832904217D0714A3032904213D06F4A56
:101D0000483290420FD06D4A603290420BD06B4AFD
:101D10007832904207D0694A9032904203D0674AA5
:101D2000A83290424ED1006810F0020F04D0A96092
:101D3000606D40F00400606594F85C00102100F0D4
:101D40001F008140314260D02068B84234D05845ED
:101D500032D0404530D048452ED050452CD0564A40
:101D60007832904228D0544A9032904224D0524A3D
:101D7000A832904220D0514A90421DD04F4A18328A
:101D8000904219D04D4A3032904215D04B4A4832D9
:101D9000904200E014E00FD0484A603290420BD0ED
:101DA000464A7832904207D0444A9032904203D05B
:101DB000424AA832904207D1006800F0080006E0CD
:101DC000006872E70068B7E7006800F0040058B1E7
:101DD000A9602068016849030CD50068000304D499
:101DE000216C09B1204688470FE0A16C69B12046FB
:101DF00088470AE00168C90503D4016821F0080199
:101E00000160216C09B12046884794F85C002021CC
:101E100000F01F00814031427BD02068B84232D0B0
:101E2000584530D040452ED048452CD050452AD07A
:101E3000214A7832904226D01F4A9032904222D0D6
:101E40001D4AA83290421ED01C4A90421BD01B4A09
:101E50001832904217D0194A3032904213D0174AA4
:101E6000483290420FD0154A603290420BD0134A4C
:101E70007832904207D0114A9032904203D00F4AF4
:101E8000A832904203D1006800F0100002E0006820
:101E900000F00200E8B3A96094F83500042812D0DD
:101EA0002068016849033DD50068000335D4616CA2
:101EB00079B305E08C0400241000024010040240B5
:101EC000204688473FE02068016821F01601016044
:101ED0002068416921F080014161206C08B9A06C43
:101EE00020B12068016821F00801016094F85C00CD
:101EF00000F01F013F208840A860002084F83400D3
:101F0000012084F83500216D002977D004B02046E7
:101F100000E018E0BDE8F05F0847E16B99B12046AA
:101F2000884710E00168C90509D4016821F0100153
:101F30000160002084F83400012084F83500E16B52
:101F400009B120468847606D002857D0606DC007F2
:101F500058D0042084F835002068B84231D0584564
:101F60002FD040452DD048452BD0504529D0B749DA
:101F7000884226D0B5491831884222D0B349303141
:101F800088421ED0B24988421BD0B14918318842DC
:101F900017D0AF493031884213D0AD49483188421B
:101FA0000FD0AB49603188420BD0A94978318842C3
:101FB00007D0A7499031884203D0A549A83188426B
:101FC00004D1016821F00101016003E0016821F002
:101FD0000101016021680198009A401C0190904223
:101FE00002D80868C007F6D1002084F834000868D9
:101FF000C00704D0032084F8350003E084E001200A
:1020000084F83500E16C00297ED004B02046BDE89C
:10201000F05F08478F4EB0421BD08E4E1436B04250
:1020200017D08C4E2836B04213D08A4E3C36B04280
:102030000FD0884E5036B0420BD0864E6436B04238
:1020400007D0844E7836B04203D0824E8C36B042F0
:102050005AD106684FF0040E94F85CB00BF01F0BD9
:102060000EFA0BFE1EEA010FCDF80CE05ED05FEA1F
:10207000467E5BD503986860300411D5F00307D421
:10208000A16C002940D004B02046BDE8F05F0847AD
:10209000216C002938D004B02046BDE8F05F084725
:1020A000B0063BD42068B8422DD0684960398842D8
:1020B00029D0404527D0484525D0504523D06349F5
:1020C000884220D06149183188421CD05F493031A4
:1020D000884218D05E49884215D0904213D05C499E
:1020E000303188420FD098420DD059496031884232
:1020F00009D057497831884205D0604503D054490A
:10210000A831884206D100E07CE0016821F0080196
:10211000016003E0016821F004010160216C0029E5
:1021200070D004B02046BDE8F05F08474FF0020EC3
:102130000EFA0BFE1EEA010FCDF808E063D05FEA4D
:10214000867E60D502986860300411D5F00307D40C
:10215000616C002978D004B02046BDE8F05F0847E4
:10216000E16B002970D004B02046BDE8F05F08475D
:10217000B0063FD42068B8422DD034496039884237
:1021800029D0404527D0484525D0504523D02F4958
:10219000884220D02D49183188421CD02B4930313B
:1021A000884218D02A49884215D0904213D0284935
:1021B000303188420FD098420DD025496031884295
:1021C00009D023497831884205D0604503D02049A1
:1021D000A831884204D1016821F01401016003E0B4
:1021E000016821F00A010160002084F83400012018
:1021F00084F83500E16B002926D004B02046BDE804
:10220000F05F084720E0082202FA0BF20A421BD0D6
:10221000310719D5016821F00E01016094F85C00C6
:1022200000F01F01012000FA01F1696060650021E2
:1022300084F8341084F83500E16C002904D004B02F
:102240002046BDE8F05F0847BDE8FF9F88000240D8
:1022500010040240085402582DE9F05F044601F0D2
:1022600033FA0646002C7DD0F24F0222DFF8C483F9
:102270000025DFF8C093DFF8BCA308F13008DFF8D1
:10228000B4B309F1480920680AF1600A0BF1780B30
:10229000B84232D0E749183188422ED040452CD080
:1022A00048452AD0504528D0584526D0E14990319C
:1022B000884222D0DF49A83188421ED0DE498842B8
:1022C0001BD0DD491831884217D0DB4930318842B4
:1022D00013D0D949483188420FD0D749603188425C
:1022E0000BD0D5497831884207D0D3499031884204
:1022F00003D0D149A83188427ED184F8345084F883
:102300003520B84234D0CB491831884230D04045CE
:102310002ED048452CD050452AD0584528D0C54904
:102320009031884224D0C349A831884220D0C24984
:1023300088421DD0C0491831884219D0BE49303179
:10234000884215D0BC494831884211D0BA49603121
:1023500088420DD0B8497831884209D0B6499031C9
:10236000884200E009E003D0B349A831884207D190
:10237000016821F00101016013E00120BDE8F09F38
:10238000016821F0010101600BE001F09DF9801B63
:10239000052806D920206065032084F83500012037
:1023A000ECE720680068C007EFD122681168A348F5
:1023B0000140D4E902031843D4E9043633431843F7
:1023C000A3691843E3691843236A18430843616A01
:1023D000042903D1D4E90B13194308436168A1F11F
:1023E0002903052B0DD9163B032B0AD9083B012BDA
:1023F00007D9083B032B00E02AE002D974390329EE
:1024000001D840F4801010602068406920F0070176
:10241000606A40EA010604280DD1A06A0643E06A1A
:1024200048B12046FEF780FD28B1402060650120BC
:1024300084F83500A2E7206846612046FEF786FC56
:1024400094F85C1001F01F023F219140816066E02A
:102450007B4988421BD07A4B1433984217D0784B73
:102460002833984213D0764B3C3398420FD0744BAC
:10247000503398420BD0724B6433984207D0704B64
:102480007833984203D06E4B8C3398427ED1884289
:1024900011D06B49143188420DD0694928318842E6
:1024A00009D067493C31884205D06549503188429E
:1024B00001D06349643184F8345084F835200268CF
:1024C00060490A40A16840297ED080297DD0002142
:1024D000E36841EAD301236941EAD301636941EA30
:1024E000D301A36941EAD301E36941EAD301236A35
:1024F00041EA1311114301605149206849420844DF
:102500001421B0FBF1F08000E0652046FEF71EFCD0
:1025100094F85C1001F01F02012191404160206895
:10252000B84256D043491831884252D0404550D025
:1025300048454ED050454CD058454AD03D49903141
:10254000884246D03B49A831884242D03A49884225
:102550003FD03949183188423BD037493031884221
:1025600037D035494831884233D0334960318842C9
:102570002FD03149783188422BD02F499031884271
:1025800027D02D49A831884223D000E02DE02C49E6
:1025900088421ED02A49143188421AD0284928314D
:1025A000884216D026493C31884212D02449503105
:1025B00088420ED02249643188420AD020497831BD
:1025C000884206D01E4901E00AE00BE08C318842C7
:1025D00029D12046FEF71AFCA06880280CD00CE018
:1025E000102175E74FF4804172E7402060650320B9
:1025F00084F835000120C1E66560216E207908600D
:10260000D4E9191048606068401E072808D82046A1
:10261000FEF74CFCE06E0560D4E91C10486002E057
:10262000E566256765676565012084F8350000204B
:10263000A4E6000010000240100402403F8010FE9B
:10264000085402580F00FEFF2DE9F84F0446002001
:102650000090002C15D094F83400012813D00120EC
:1026600084F8340094F835500020012D0DD084F802
:1026700034004FF400606065012000900098BDE8D0
:10268000F88F0120FBE70220F9E7022584F8355096
:102690006065A54DA44EA44F1835DFF88CC23036C6
:1026A000DFF884824837DFF88092DFF87CA208F1F7
:1026B0006008DFF874B209F1780920680AF1900A1D
:1026C0000BF1A80B60453BD0A84239D0B04237D0BF
:1026D000B84235D0404533D0484531D050452FD051
:1026E00058452DD0DFF844C2604529D0DFF83CC200
:1026F0000CF1180C604523D0DFF830C20CF1300C1F
:1027000060451DD0DFF824C20CF1480C604517D09D
:10271000DFF818C20CF1600C604511D0DFF80CC274
:102720000CF1780C60450BD0DFF800C20CF1900C76
:10273000604505D0DFF8F4C10CF1A80C604506D166
:10274000D0F800C02CF0010CC0F800C005E0D0F8B3
:1027500000C02CF0010CC0F800C02046FEF720FCA1
:102760007149206888422CD0A8422AD0B04228D093
:10277000B84226D0404524D0484522D0504520D0EC
:1027800058451ED0694A90421BD0684A1832904280
:1027900017D0664A3032904213D0644A4832904291
:1027A0000FD0624A603290420BD0604A7832904239
:1027B00007D05E4A9032904203D05C4AA8329042E1
:1027C0000DD1026822F01E0242F016020260206C57
:1027D00090B12068026842F0080202600CE00268D2
:1027E00022F00E0242F00A020260206C20B1206842
:1027F000026842F004020260206888424BD0A8427E
:1028000049D0B04247D0B84245D0404543D0484572
:1028100041D050453FD058453DD0444A90423AD0EF
:10282000424A1832904236D0404A3032904232D03A
:102830003E4A483290422ED03C4A603290422AD0E2
:102840003A4A7832904226D0384A9032904222D08A
:10285000364AA83290421ED0354A90421BD0344AA4
:102860001432904217D0324A2832904213D0304A64
:102870003C3290420FD02E4A503290420BD02C4A1C
:102880006432904207D02A4A7832904203D0284AD4
:102890008C3290420DD1206E0268D20303D50268BB
:1028A00042F480720260E06E18B1026842F48072F5
:1028B0000260206888422CD0A8422AD0B04228D09A
:1028C000B84226D0404524D0484522D0504520D09B
:1028D00058451ED0154988421BD0144918318842EA
:1028E00017D012493031884213D0104948318842FC
:1028F0000FD00E49603188420BD00C4978318842A4
:1029000007D00A499031884203D00849A83188424B
:1029100004D1016841F001010160AFE6016841F0B6
:1029200001010160AAE6000010000240100402400C
:102930000854025870B5044600F0C6FE0546601CF7
:1029400002D004480078044400F0BEFE401BA042C0
:10295000FAD370BD9404002410B590F89830012B80
:1029600008D0022B06D050F89C1F41F002010160F4
:10297000012010BD03689C6D0C4204D1DC6D44F055
:102980000104DC6505E09C6D31EA04041CD00324DD
:10299000DC658B0504D5036853F8E04F14431C60D5
:1029A0004B0504D5036853F8E44F14431C600068DA
:1029B000426D084B0B401A4342650748026842EAE1
:1029C00091710160002010BDDC6D44F00204DC65F3
:1029D000DFE70000FFFFCF3F14A8004070B50446BA
:1029E00094F89800022806D054F89C0F40F0080094
:1029F0002060012070BD2068D0F8C03013F07C5FEB
:102A00000AD0D0F8C4309B020DD554F89C0F40F486
:102A100000702060012070BD54F89C0F40F0200031
:102A20002060012070BDD0F8C400C0F304452046EA
:102A30002B46FEF7D3FC21680120A840C1F8D00046
:102A4000C4F89400002070BD704710B590F898202D
:102A5000012A08D0022A06D050F89C1F41F002013A
:102A60000160012010BDCA680B688BB1072A0B6991
:102A700043EA42732BD00C7A4A6942EA847249686D
:102A8000006F00EBC100036042604FF0000010BD1A
:102A9000072A10D00C7A4FEAC2624B6943EA84736A
:102AA0000C8A42EA044243EA02034968C06E00EB22
:102AB00081000360E9E70B8A4FF060548A6942EABB
:102AC0000343CA6944EA022243EA0203EDE78A6942
:102AD000D5E730B5039C90F89850012D06D050F8FA
:102AE0009C1F41F004010160012030BD0068090114
:102AF00041EA820141EA43012143C0F880100020ED
:102B000030BD704770470000F0B5002490F8985031
:102B1000022D06D050F89C1F41F0080101600120F1
:102B2000F0BD40294FF000460BD0412936D0056D4D
:102B30008D4260D850F89C1F41F0200101600120B7
:102B4000F0BD0568D5F8A07017F4FE0F18D0D5F8C1
:102B5000A4707F061BD0D5F8A470FF0105D5D5F869
:102B6000A070B6EBD77F00D10124D5F8A450C5F3EF
:102B700005252C44456C466F654306EB85063FE012
:102B800050F89C1F41F0200101600120F0BD50F879
:102B90009C1F41F4807101600120F0BD0568D5F8EB
:102BA000B07017F4FE0F18D0D5F8B4707F061BD0A4
:102BB000D5F8B470FF0105D5D5F8B070B6EBD77F66
:102BC00000D10124D5F8B450C5F305252C44C56CBB
:102BD000866F654306EB850612E050F89C1F41F0B6
:102BE000200101600120F0BD50F89C1F41F480716C
:102BF00001600120F0BD456DC66F4D4306EB8506B3
:102C0000356805F0804555602DB3356825F0604581
:102C10001560356805F000559560356805F000458C
:102C20001561B588ADB2D561756805F47025D560BC
:102C3000756805F480155561756805F40015956192
:102C40007568C5F30665156275680836ED0F55623F
:102C50000025184F09E03568C5F38A451560D8E7A7
:102C600016F805C003F805C06D1CD2F80CC007EBC0
:102C70001C4C9CF800C0AC45F2D8402909D0412931
:102C80000BD0012220290CD200688A40C0F898207D
:102C90000DE00068C0F8A84009E00068C0F8B8403E
:102CA00005E0006801F01F018A40C0F89C20002068
:102CB000F0BD0000C41C0108704700002DE9F84F6A
:102CC0000446B04D28688007291D096800EA817014
:102CD00000902068016D01F47041D0F8548008EA3A
:102CE0000108016D01F00F01D0F8549009EA0109C3
:102CF000016D01F0F001D0F854A00AEA010A016D5B
:102D000001F07151466D0E40016D01F06071D0F817
:102D100054B00BEA010B416D4FF00007C90508D50F
:102D2000016DC90505D5A91501652F602046FFF77E
:102D3000C3FF2068416D49050ED5016D49050BD5CE
:102D4000D0F8DC20D0F8E41011404FF48062026526
:102D50002F60204600F0C6FB009858B18A490098C1
:102D60000840216808650098800F28600099204677
:102D7000FFF76AFEB8F1000F0BD02168824808EA1D
:102D8000000008654FEA987028604146204600F030
:102D9000ABFBB9F1000F0BD021687B4809EA0000BA
:102DA00008654FEA997028604946204600F010FBFC
:102DB000BAF1000F0BD0216873480AEA00000865D9
:102DC0004FEA9A7028605146204600F037FB206891
:102DD000416D090509D5016D090506D54FF400615E
:102DE00001652F60204600F080FB2068416D890559
:102DF0000ED5016D89050BD5D0F8D820D0F8E0109C
:102E000011404FF4007202652F60204600F06BFB0A
:102E10002068416D090309D5016D090306D54FF4FA
:102E2000002101652F60204600F0D0FA2068416D36
:102E3000C90309D5016DC90306D54FF48031016579
:102E40002F60204600F04DFB2068416D490309D5F5
:102E5000016D490306D54FF4802101652F6020469E
:102E600000F03EFB2068416D89030CD5016D89039C
:102E700009D54FF4003101652F60D4F89C0040F073
:102E80008000C4F89C00BBF1000F0BD021683E48C5
:102E90000BEA000008654FEA9B70286059462046FF
:102EA000FFF730FE56B12168374830400865B00F53
:102EB0002860D4F89C003043C4F89C003349206853
:102EC000884255D160688168890751D0016A01F054
:102ED0000F02416A1140026A02F03002D0F82480E9
:102EE00008EA0208026A02F4C072476A1740026ADE
:102EF00002F4FC42456A1540026A02F4F022466A76
:102F0000164019B10162204600F0E7FAB8F1000F4F
:102F100006D06068C0F820804146204600F0DFFA05
:102F20006068416A49060CD5016A490609D5C16B3A
:102F3000090CC26B02F03F0240230362204600F0FE
:102F4000CDFA2FB1606807623946204600F0C4FA16
:102F500035B160680562D4F89C002843C4F89C0031
:102F600036B160680662D4F89C003043C4F89C0017
:102F7000D4F89C00002802D02046FFF7C2FDBDE82F
:102F8000F88F000010A80040FFFFCF3F00A00040D6
:102F90002DE9F04393B004464C2295496846FDF76D
:102FA00044FA6CB1934F2068B84202D100F58070AA
:102FB00060604FF4407994F89800002620B108E052
:102FC000012013B0BDE8F08384F89960204600F03A
:102FD00013F92068816921F01001816100F074FB10
:102FE00005464FF003080DE000F06EFB401B0A2879
:102FF00008D954F89C0F40F00100206004F8048CBC
:103000000120DEE7206880690007EDD4206881692F
:1030100041F00101816100F057FB05460DE000F031
:1030200053FB401B0A2808D954F89C0F40F00100BC
:10303000206004F8048C0120C3E720688069C00781
:10304000EDD02068816941F002018161207C012876
:1030500039D02068816941F040018161607C01289C
:1030600037D02068816921F480418161A07C0128EA
:1030700035D02068816941F480518161206881697F
:10308000A26821F44071114381612068816921F0B7
:10309000A40181612068016921F010010161E068EB
:1030A000012822D030B302282BD02068816941F05A
:1030B000800181612068016941F010010161E068CF
:1030C000032818D022E02068816921F04001816145
:1030D000C4E72068816941F480418161C6E72068C6
:1030E000816921F480518161C8E72068816941F0DC
:1030F000040181610AE02068816941F02001816159
:1031000004E02068816941F020018161207E401E39
:103110004106E069401E41EA0020216A491E084339
:10312000A18A491E40EA01402168C861A06848455B
:103130000FD1E16AA06A491E401E40EA0121206BBE
:10314000401E41EA0011A08C401E41EA0040216867
:10315000C860206E28B1206850F8C01F626E11430D
:103160000160D4E91701C842694609D0206850F8C7
:10317000C82FA36E22F0070251F823301A430260D1
:10318000206C48B1206850F8BC2F636C22F0070215
:1031900051F823301A430260A06C50B1206850F8F7
:1031A000BC2FE36C22F0700251F8233042EA031284
:1031B0000260206D50B1206850F8BC2F636D22F47E
:1031C000E06251F8231042EA012101602068B84210
:1031D00004D16068816821F00301816044F8946F34
:1031E000A66001202071943C2046FEF71FF8E8E617
:1031F000D41C010800A000402DE9F04FB3B00446F4
:1032000014212EA8FDF72AF9B42101A8FDF726F90B
:10321000694D0227664A4FF4004120680C3D654E17
:103220004FF00909644C9042DFF890B14FF000086C
:103230003DD10191CDF86C8001A801F0BBF908B136
:10324000FDF7CDFF3068401C3060012807D12068B1
:1032500040F480702060206800F48070009028683E
:1032600040F008002860286800F008000090032063
:103270002E902F97CDF8C080CDF8C480CDF8C8909F
:103280002EA9584600F032F900220521132000F043
:10329000BBFA132000F0AAFA00220521152000F045
:1032A000B3FA152000F0A2FA33B0BDE8F08F444A1B
:1032B0004FF4405A90423BD10191CDF86C8001A867
:1032C00001F078F908B1FDF78AFF3068401C3060E2
:1032D000012807D1206840F480702060206800F445
:1032E00080700090286840F002002860286800F094
:1032F00002000090CDF8B8A02F97CDF8C080CDF88F
:10330000C480CDF8C8902EA92E4800F0EFF8002216
:103310000521142000F078FA142000F067FA00224A
:103320000521162000F070FA162000F05FFABBE7C6
:10333000254A9042B8D10191CDF86C8001A801F0E6
:1033400039F908B1FDF74BFF3068401C30600128A7
:1033500007D1206840F480702060206800F48070FD
:103360000090286840F008002860286800F00800F5
:103370000090CDF8B8A02F97CDF8C080CDF8C480CC
:10338000052032902EA9584600F0B0F80022052101
:103390009F2000F039FA9F2000F028FA0022052132
:1033A000A02000F031FAA02000F020FA7CE7000015
:1033B00000A0004014000024EC440258000C025805
:1033C00000A400400004025800D4004070470000F0
:1033D00010B50446C80724D0124B40212046A3F163
:1033E0005002FFF791FB0F4A0F482168503A814283
:1033F00005D1116850320D4809F0DEFD0AE00C4895
:10340000814207D00B48814204D11168054A0A481D
:1034100009F0D2FD00222046BDE810400121FFF74F
:103420009BBA10BD942D002400A00040103200244F
:1034300000A4004000D400403432002410B50446FB
:10344000C80628D5144B41212046A3F16802FFF796
:103450005BFB12492068884205D10F480E4900786D
:1034600009F00AFC10E00C490D4A6839904204D179
:103470000868683109F060F806E00A4A904203D112
:103480000868054909F058F800222046BDE81040B8
:103490001021FFF761BA10BDD42D002400A0004018
:1034A00000A4004000D4004090F89810012906D0F4
:1034B00050F89C1F41F00401016001207047022177
:1034C00080F8981001688A6922F001028A6100215F
:1034D000C0F89C10002070477047704770477047D5
:1034E0007047704770477047704770472DE9F84F35
:1034F0000022664C4FF0B04B4FF003094FF00F0A1B
:10350000BCE0012696403340002B71D04D68012D60
:1035100005D0022D03D0112D01D0122D15D18768B1
:10352000550009FA05FC27EA0C07D1F80CC00CFA83
:1035300005FC4CEA070CC0F808C04568B5430E7995
:10354000C6F3001696402E434660C5684FEA420C0B
:1035500009FA0CF6B5438F6807FA0CF72F43C760DA
:103560004D68022D01D0122D12D1D50800EB85082F
:10357000D8F820705507ED0E0AFA05FE27EA0E0767
:10358000D1F810E00EFA05FE4EEA070EC8F820E06A
:103590000568B5430E7906F0030606FA0CF62E43CD
:1035A00006604D68ED0068D5394D2E6846F002067C
:1035B0002E602D6805F00205009522F0030606F145
:1035C000B046D6F808C495072F0F0AFA07F52CEA7B
:1035D000050C304DA84201D1002529E02E4DA8420E
:1035E00001D1012524E02D4DA84202D102251FE082
:1035F00043E02B4DA84201D1032519E0294DA842F3
:1036000001D1042514E0284DA84201D105250FE081
:10361000264DA84201D106250AE0254DA84201D138
:10362000072505E0234DA84201D1092500E00A2520
:10363000BD4045EA0C05C6F8085425689D434E6810
:10364000F60300D51D43256065689D434E68B603AB
:1036500000D51D436560DBF800509D434E68F602BF
:1036600000D51D43CBF80050DBF804509D434E6855
:10367000B60200D51D43CBF80450521C0B6833FA38
:1036800002F57FF43EAFBDE8F88F000080000058DF
:10369000F44402580000025800040258000802587E
:1036A000000C02580010025800140258001802586A
:1036B000001C025800240258002A01D08161704782
:1036C000090481617047000001488068704700006C
:1036D0009404002402488168027811448160704794
:1036E0009404002410B5032000F0AEF801F082FD30
:1036F0000F490A68C2F303230E4AD35C03F01F0389
:10370000D840096801F00F01515C0B4A01F01F011C
:1037100020FA01F1116009490860002000F010F85A
:1037200008B1012010BD00F04FF8002010BD0000CE
:1037300018440258AC1C0108900400248C04002496
:1037400010B58AB00446102C2DD200222146192033
:1037500000F05AF8192000F049F81648046016489D
:10376000016841F001010160006800F00100009073
:1037700001A902A801F0C8FC01F02AFD40000F4990
:10378000B0FBF1F1491E0F480D4A026040F2E732EA
:10379000C260416000210161816002F0C7F920B17F
:1037A00001200AB010BD0120FBE7064802F002FA32
:1037B000F7E7000098040024F044025840420F004C
:1037C000000001408017002482B00748016841F0E2
:1037D00002010160006800F00200019000220F2148
:1037E000901E02B000F010B8F4440258002809DB23
:1037F000012100F01F0291404009800000F1E0200B
:10380000C0F8001170470000F0B40D460D4B1B6866
:10381000C3F30223C3F10704042C00D90424191DA7
:10382000072901D2002300E0DB1E012606FA04F17D
:10383000491E294099409E40761E16403143F0BCF7
:1038400006F0A0BE0CED00E000F00701054A10688C
:103850004FF6FF03184040EA012003490843106077
:10386000704700000CED00E00000FA05016801223D
:10387000C0F8FC23002280F8F423886940F000603F
:103880008861486D024A1043486500207047000077
:10389000030000107047006841620020704770B557
:1038A0000368586A002907D09C6A00EB1444002082
:1038B000491E4FF482750AE040EA024098620DE02A
:1038C00005EB80069E5904EB1644401CC0B28842AA
:1038D000F6D305EB810144EA02405850002070BD48
:1038E000D0F8040405F05FBDC1EBC10200EB820219
:1038F000D0F80404926C05F0C1BCC1EBC10200EB2E
:103900008202D0F80404D2F8082205F015BDD0F8E0
:10391000040405F04ABD70B504464FF0010201F001
:103920000F004FF000050B06C0EBC00104EB810156
:1039300002D53C314A7002E001F5FE714D7008700D
:1039400094F8BC03012808D084F8BC23206806F052
:1039500051F984F8BC53002070BD022070BD70B5D1
:10396000044601F00F006268904201D9012070BD49
:103970000B064FF0010201F00F014FF00005C1EB03
:10398000C10104EB810102D53C314A7002E001F52E
:10399000FE714D708D70087094F8BC03012808D03A
:1039A00084F8BC23206806F013FB84F8BC53002085
:1039B00070BD022070BD01F00F01C1EBC10100EB31
:1039C0008100D0F8140270472DE9F04104464FF011
:1039D000010601F00F004FF000050F06C0EBC0011B
:1039E00004EB810102D53C314E7002E001F5FE711D
:1039F0004D7008708A60CB704A7802B1C880022B83
:103A000000D10D7194F8BC03012809D084F8BC637F
:103A1000206806F039F8284684F8BC53BDE8F081E8
:103A20000220FBE770B50D4605F00F04C4EBC4019E
:103A300000EB810101F5FE71CA604B6100238B61CF
:103A40004B700C700369012B00D10A612A0705D065
:103A5000027C006806F014FB002070BD027C006848
:103A600006F002FAF8E770B504460D4605F00F00BF
:103A70006168884201D9012070BD29064FF0000617
:103A80004FF0010206D5C0EBC00104EB81013C31CF
:103A90004A7006E0C5EBC50104EB810101F5FE713A
:103AA0004E708A70087094F8BC03012807D084F81F
:103AB000BC23206806F0B8FA280702D007E00220ED
:103AC00070BD217C04F57172206806F057FA84F805
:103AD000BC63002070BD70B50D4605F00F04C4EB4B
:103AE000C40100EB81013C31CA604B6100238B6152
:103AF00001234B700C700369012B00D10A612A0766
:103B000005D0027C006806F0BBFA002070BD027C84
:103B1000006806F0A9F9F8E72DE9F84F0446256892
:103B2000284606F0DFFB00287ED1206806F006FC60
:103B3000002879D0206806F001FC800704D52068B1
:103B4000416901F002014161206806F0F7FBC106FE
:103B500004F57170009035D52068816921F010015D
:103B600081612F6A07F00F00C0EBC00004EB8006F4
:103B700006F5FE76C7F34340022802D0062812D08D
:103B80001BE047F6F070074217D0C7F30A12F1683E
:103B90001746284606F0D6FBF0683844F060B06956
:103BA0003844B06109E000990822284606F0CAFBB3
:103BB000B069C7F30A110844B0612068816941F017
:103BC00010018161206806F0B9FB00034FF0010885
:103BD0004FF008094FF0100A3ED50026206806F085
:103BE0008CFB834635E05FEACB702FD02068F1B2C2
:103BF00006F09CFB0746F80707D005EB4610C0F817
:103C0000088B3146204603F039FD380707D505EB10
:103C10004610C0F8089B3146204603F00BFDF8061D
:103C200005D505EB461000E087E1C0F808ABB80603
:103C300004D505EB46112020C1F8080BB80405D5C2
:103C400005EB46114FF40050C1F8080B761C4FEA03
:103C50005B0BBBF1000FC6D1206806F06FFB400381
:103C600059D5206806F042FB8346002650E05FEA03
:103C7000CB704AD02068F1B206F046FB0746F80741
:103C800023D006F00F0108FA01F0D5F8341881436B
:103C9000C5F8341805EB4610C0F8088920690128DA
:103CA0000FD1C6EBC60004EB8000D0E9112111440E
:103CB000816436B9206D20B920680121009A06F090
:103CC0005DF92046F1B2FFF70FFE380703D505EB8B
:103CD0004610C0F80899F80603D505EB4610C0F861
:103CE00008A9780604D505EB46114020C1F808095B
:103CF000B80704D505EB46110220C1F808093806BB
:103D000003D53146204603F02BFD761C4FEA5B0BB2
:103D1000BBF1000FABD1206806F010FB002811DAD0
:103D2000D5F8040820F00100C5F8040894F8F4035D
:103D3000012839D0204600F0DAF92068416901F005
:103D400000414161206806F0F9FA00050BD5D5F86D
:103D50000808C00702D0204600F00EFA206841692A
:103D600001F400614161206806F0E8FA00010AD51B
:103D70002068416901F00061416194F8F403D8B111
:103D8000204600F0F9F9206806F0D8FAC00473D58F
:103D9000D5F8040820F00100C5F8040820681021B7
:103DA00006F07EFA002132E0002084F8F4030021BE
:103DB0002046FFF76FFDC0E784F8F4832068406D6C
:103DC000C0F38300C4F8F80301212046FFF762FD29
:103DD000D9E705EB41104FF67F3200F510608260A5
:103DE000036823F400130360036843F00063036077
:103DF000C0F80822D0F8002222F40012C0F80022F5
:103E0000D0F8002242F00062C0F80022491C60682D
:103E10008842DED8D5F81C0840F00110C5F81C080F
:103E2000206B60B1D5F8840840F00B00C5F8840819
:103E3000D5F8440840F00B00C5F844080CE0D5F86C
:103E4000140842F22B010843C5F81408D5F81008ED
:103E500040F00B00C5F81008D5F8000820F4FE600B
:103E6000C5F80008217C2068009A06F087F82068D1
:103E7000416901F480514161206806F05FFA8004D5
:103E800015D5206805F042FE206806F01BFAE060B8
:103E900001F06AF9227B0146206806F0D1FA20463B
:103EA00000F00EF92068416901F400514161206879
:103EB00006F044FA000707D5204600F01CF92068F8
:103EC000416901F008014161206806F037FAC0023B
:103ED00008D50021204600F032F82068416901F43D
:103EE00080114161206806F029FA800208D500217E
:103EF000204600F028F82068416901F40011416172
:103F0000206806F01BFA400007D52046FFF7E8FCC2
:103F10002068416901F080414161206806F00EFA95
:103F200040070AD520684568680702D52046FFF794
:103F3000EEFC2068416829434160BDE8F88FD0F865
:103F4000040405F087BAD0F8040405F094BA2DE90A
:103F5000F0418AB00446002C05D0266894F8BD03D1
:103F6000002520B108E001200AB0BDE8F08184F806
:103F7000BC53204600F064F8032084F8BD03F06BC6
:103F8000C00500D42561206805F068FF04F1100128
:103F9000684628228846FCF748FA94E80F0005F0A6
:103FA000C3FD022718B184F8BD730120DCE7206847
:103FB000002106F017FA002101260DE0C1EBC10037
:103FC00004EB80003C3046700170C180C570856094
:103FD000C5604561491CC9B260688842EED80021BD
:103FE0000DE0C1EBC10004EB800000F5FE704570F0
:103FF0000170C5708560C5604561491CC9B26068C3
:104000008842EED8282241466846FCF70EFA94E82A
:104010000F0005F06FFE18B184F8BD730120A3E70F
:1040200084F8385084F8BD63606A012802D12046C4
:10403000FFF71CFC206805F04FFE002094E700000D
:1040400010B5AEB00446B42101A8FCF707FA1A492E
:10405000206888422ED14FF4802001904FF4401008
:10406000219001A800F0A6FA08B1FDF7B8F800F019
:10407000C7F81248016841F000710160006800F063
:1040800000700090002205214A20FFF7BDFB4A2066
:10409000FFF7ACFB002205214B20FFF7B5FB4B20BF
:1040A000FFF7A4FB002205214D20FFF7ADFB4D20BB
:1040B000FFF79CFB2EB010BD00000440D84402580E
:1040C00070B504460125E06800280ED0022801D012
:1040D000FDF785F8D4F80404294605F03BFAD4F836
:1040E0000404BDE8704005F0ECB90025F2E7D0F813
:1040F000040405F014BAD0F8040405F01ABA10B597
:10410000044694F8BC0301280BD0012084F8BC03BA
:1041100084F83810206806F07DF9002084F8BC038C
:1041200010BD022010BDD0F8042400F571711046B6
:1041300005F01CBA10B50446206894F8BC13012998
:1041400006D0012184F8BC13A16A012902D008E03D
:10415000022010BDA169012903D0816B41F4803197
:104160008163206806F086F8206805F0A7FD00202E
:1041700084F8BC0310BD000010B50446D4F8040454
:1041800005F036FA2068D0F8001E41F00101C0F8B1
:10419000001E206A002804D00248016841F0060190
:1041A000016010BD10ED00E070B514490A68D243FB
:1041B000520708D5096801F00701814201D00120AA
:1041C00070BD002070BD0A6822F0070202430A6039
:1041D000FFF77AFA0446094D4FF47A76083D06E077
:1041E000FFF772FA001BB04201D9012070BD2868A8
:1041F000C0438004F4D4002070BD00000C48025875
:104200000248016841F08071016070470C48025813
:1042100010B500F0A9FF05490968054AC1F302116C
:10422000515C01F01F01C84010BD0000204402583D
:10423000AC1C010810B569490A6802F0030209685C
:10424000C1F30531654B1B1D1B68C3F30013634CA1
:1042500014342468C4F3CC0414FB03F300EE103AC6
:10426000B8EE400A002971D09FED5D1A5B4BF7EE66
:10427000000A1033F2B39FED5B2A012A7FD0022A95
:104280007CD001EE901A1968F8EE611AC2EE212A6C
:10429000C1F3080101EE901AF8EE611A40EE011A1E
:1042A00031EEA00A22EE800A1968C1F3462101EE20
:1042B000101AB8EE411A31EE201AC0EE011ABCEE07
:1042C000E11A80ED001A1968C1F3064101EE101AD7
:1042D000B8EE411A31EE201AC0EE011ABCEEE11A16
:1042E00080ED011A1968C1F3066101EE101AB8EEEB
:1042F000411A00E008E071EE200A80EE201ABCEEC0
:10430000C10A80ED020A10BD344A283A1468A40696
:104310001ED51268C2F3C104334AE24001EE902A6E
:10432000F8EE612A01EE901A1968F8EE611A82EE31
:10433000A12AC1F3080101EE901AF8EE611A40EECD
:10434000011A31EEA00A22EE000AADE741E016E0C4
:1043500001EE901ADFED252A1968F8EE611A82EE57
:10436000A12AC1F3080101EE901AF8EE611A40EE9D
:10437000011A31EEA00A22EE000A95E713E001EEE1
:10438000901A1968F8EE611AC2EE212AC1F30801E9
:1043900001EE901AF8EE611A40EE011A31EEA00A11
:1043A00022EE800A80E701EE901ADFED112A1968EB
:1043B000F8EE611A82EEA12AC1F3080101EE901A0B
:1043C000F8EE611A40EE011A31EEA00A22EE000A60
:1043D0006AE7002101604160816010BD28440258F5
:1043E000000000390024744A0090D0030024744C6B
:1043F0000024744B10B569490A6802F00302096889
:10440000C1F30551654B1B1D1B68C3F30023634CAF
:104410001C342468C4F3CC0414FB03F300EE103AFC
:10442000B8EE400A002971D09FED5D1A5B4BF7EEA4
:10443000000A1833F2B39FED5B2A012A7FD0022ACB
:104440007CD001EE901A1968F8EE611AC2EE212AAA
:10445000C1F3080101EE901AF8EE611A40EE011A5C
:1044600031EEA00A22EE800A1968C1F3462101EE5E
:10447000101AB8EE411A31EE201AC0EE011ABCEE45
:10448000E11A80ED001A1968C1F3064101EE101A15
:10449000B8EE411A31EE201AC0EE011ABCEEE11A54
:1044A00080ED011A1968C1F3066101EE101AB8EE29
:1044B000411A00E008E071EE200A80EE201ABCEEFE
:1044C000C10A80ED020A10BD344A283A1468A406D5
:1044D0001ED51268C2F3C104334AE24001EE902AAD
:1044E000F8EE612A01EE901A1968F8EE611A82EE70
:1044F000A12AC1F3080101EE901AF8EE611A40EE0C
:10450000011A31EEA00A22EE000AADE741E016E002
:1045100001EE901ADFED252A1968F8EE611A82EE95
:10452000A12AC1F3080101EE901AF8EE611A40EEDB
:10453000011A31EEA00A22EE000A95E713E001EE1F
:10454000901A1968F8EE611AC2EE212AC1F3080127
:1045500001EE901AF8EE611A40EE011A31EEA00A4F
:1045600022EE800A80E701EE901ADFED112A196829
:10457000F8EE611A82EEA12AC1F3080101EE901A49
:10458000F8EE611A40EE011A31EEA00A22EE000A9E
:104590006AE7002101604160816010BD2844025833
:1045A000000000390024744A0090D0030024744CA9
:1045B0000024744B2DE9F84F04460025002620689E
:1045C000010104F12400FE4FDFF8F89300900DD5AF
:1045D000206EB0B1B0F5801F18D0B0F5001F1BD011
:1045E000B0F5401F00D00125E5B12E462088C0055A
:1045F00035D5606D05282FD2DFE800F01D22282F69
:104600002F00386840F400303860EDE70221201DAB
:1046100003F0F4F80546E7E70098022103F080F97B
:104620000546E1E7D9F80000216E20F44010084368
:10463000C9F80000DAE7386840F4003038600CE070
:104640000021201D03F0DAF8054606E0009800215D
:1046500003F066F9054600E001259DB12E4620884D
:10466000DFF8648340051FD5D4F8A000B0F5C00F73
:1046700018D010DC48B3B0F5001F2BD0B0F5800F78
:104680000FD12DE0D9F80000616D20F0070008433C
:10469000C9F80000E3E7B0F5000F03D0B0F5200F34
:1046A00000D0012515B32E462088000531D5D4F859
:1046B000A400B0F1407F2AD022DCE8B3B0F1807FC3
:1046C00049D0B0F1007F21D14BE0386840F4003090
:1046D0003860E7E70021201D03F090F80546E1E788
:1046E0000098002103F01CF90546DBE7D8F800002C
:1046F000D4F8A01020F460000843C8F80000D3E705
:10470000B0F1806F03D0B0F1A06F00D0012575B378
:104710002E46206880010AD5A06C30B1102831D017
:10472000202835D0302800D0012585B32E4620889A
:10473000C00446D5A06D00E008E0B0F5005F5BD096
:1047400036DCA0B3B0F5805F38D14FE0386840F474
:1047500000303860DBE70021201D03F04FF80546EC
:10476000D5E70098002103F0DBF80546CFE7FFE727
:10477000D8F80000D4F8A41020F0E0600843C8F88E
:104780000000C6E7386840F400303860CDE705E047
:104790000221201D03F032F80546C6E78948001FB4
:1047A0000168A26C21F0300111430160BFE718E0FD
:1047B000B0F5405F03D0B0F5804F00D001250DB3B8
:1047C0002E46208880042FD5E06DB0F5403F29D0DB
:1047D00021DC38B3B0F5803F37D0B0F5003F20D1B1
:1047E00039E0386840F400303860E8E70021201DE7
:1047F00003F004F80546E2E70098002103F090F882
:104800000546DCE7D9F80000A16D20F4E04008433C
:10481000C9F80000D5E7B0F5802F03D0B0F5A02F80
:1048200000D00125EDB12E46208840042BD5D4F8C8
:10483000A800B0F1405F24D01CDC10B3B0F1805F61
:104840004CD0B0F1005F1BD14FE00121201D02F0E0
:10485000D5FF0546E6E70098012103F061F805461B
:10486000E0E7D9F80000E16D20F4E0200843C9F842
:104870000000D9E7B0F1804F03D0B0F1A04F00D0D5
:1048800001258DB32E46208800040AD5A06E30B1D4
:10489000B0F1805F3BD0B0F1005F3DD00125A5B302
:1048A0002E462068C0010AD5606C30B1012842D084
:1048B000022845D0032800D001253DB32E462068AC
:1048C00040025AD5DFF804B1DBF8000040F48070F4
:1048D000CBF80000FEF7F8FE824648E00121201DDB
:1048E00002F08CFF0546CCE705E00098012103F0BB
:1048F00017F80546C5E7D8F80000D4F8A81020F04E
:10490000E0400843C8F80000BDE70BE01EE038684F
:1049100040F400303860C2E70121201D02F06EFF34
:104920000546BCE7D9F80000A16E20F040500843CE
:10493000C9F80000B5E7386840F400303860BCE7DB
:104940000221201D02F05AFF0546B6E71D48001F50
:104950000168626C21F0030111430160AFE7FEF7CB
:10496000B3FEA0EB0A00642801D9032503E0DBF8BD
:104970000000C005F3D57DB12E462078DFF850A0A9
:10498000C00779D0606F182874D06EDCB8B10828E1
:104990007DD010286DD180E0DFF82CB00BF1180B22
:1049A000DBF80000B4F8AC1000F4407001F4407182
:1049B00088421DD0DBF8000020F440700AE059E086
:1049C0002C44025850440258584402580048025897
:1049D00054440258DBF8001041F48031CBF8001049
:1049E000DBF8001021F48031CBF80010CBF8000088
:1049F000D4F8AC00B0F5807F11D1FEF765FE824699
:104A000009E0FEF761FEA0EB0A0141F28830814225
:104A100001D9032503E0DBF800008007F1D50DB1D3
:104A20002E46AAE7D4F8AC00C0F3012103290ED02A
:104A3000F748016821F47C510160DBF80000B4F80C
:104A4000AC10C1F30B010843CBF8000095E7F04927
:104A50000A68F04B22F47C52184042EA10100860B9
:104A6000EBE709E001E012E003E0202802D028286B
:104A700000D00125BDB12E46207880072BD5206FB0
:104A8000062825D2DFE800F025181E25252501215E
:104A9000201D02F0B3FE0546ECE70098012102F06C
:104AA0003FFF0546E6E7DAF80000616F20F03800C6
:104AB0000843CAF80000DFE70121201D02F09EFE36
:104AC000054606E00098012102F02AFF054600E0B5
:104AD000012565B12E462078400720D5D4F88C00FA
:104AE000062819D2DFE800F0190C12191919DAF8A2
:104AF0000000216F20F007000843CAF80000EAE731
:104B00000121201D02F07AFE054606E000980121F1
:104B100002F006FF054600E001258DB12E46207803
:104B2000800620D5D4F88800B0F1405F19D011DCA0
:104B3000B8B1B0F1805F27D0B0F1005F10D129E0AB
:104B4000D8F80000D4F88C1020F007000843C8F80B
:104B50000000E4E7B0F1804F03D0B0F1A04F00D0E7
:104B60000125EDB12E46207840062CD5D4F89400CE
:104B7000B0F5406F25D01DDC18B3B0F5806F33D091
:104B8000B0F5006F1CD135E00021201D02F036FE8B
:104B90000546E6E70098022102F0C2FE0546E0E77E
:104BA000DAF80000D4F8881020F0E0400843CAF892
:104BB0000000D8E7B0F5805F03D0B0F5A05F00D06B
:104BC0000125EDB12E46207800062CD5D4F89800AA
:104BD000B0F5C04F25D01DDC18B3B0F5005F2AD06A
:104BE000B0F5804F1CD12CE00021201D02F006FE04
:104BF0000546E6E70098022102F092FE0546E0E74E
:104C0000D8F80000D4F8941020F4E0500843C8F815
:104C10000000D8E7B0F5004F03D0B0F5204F00D02A
:104C20000125A5B12E462078000728D5E06FB0F504
:104C3000805F16D01BE00021201D02F0DFFD05463D
:104C4000EFE70098022102F06BFE0546E9E7D8F88D
:104C50000000D4F8981020F460400843C8F8000021
:104C6000E1E70098022102F05BFE00B10126DAF8CC
:104C70000000E16F20F440500843CAF8000020789B
:104C8000C00613D5D4F89000B0F5807F05D1009808
:104C9000022102F045FE00B10126D8F80000D4F848
:104CA000901020F440700843C8F80000206800030A
:104CB0000BD5D4F89C00E8B3B0F5803F7CD0B0F5BC
:104CC000003F00D00125B5B32E46206840030DD526
:104CD000D4F88000B0F5801F6FD0B0F5001F6DD004
:104CE000B0F5401F00D0012535B32E462068C00323
:104CF00007D5E06CF0B3B0F5803F72D00125D5B395
:104D00002E462068800005D50098022102F008FE9A
:104D100000B101262068800311D5A06F48B1B0F51D
:104D2000807F6ED0B0F5007F03D0B0F5407F00D01B
:104D3000012502E049E055E06FE0E5B32E4620682A
:104D4000C00207D5D9F80000E16E20F0004008430A
:104D5000C9F800002068800207D5D9F80000616E0C
:104D600020F080700843C9F80000206840000CD58E
:104D7000274801E05BE065E0016821F40041016043
:104D80000168D4F8B020114301602068002807DAD8
:104D90001F483C300168226D21F0405111430160F1
:104DA000206800020DD5DAF80000D4F8841020F451
:104DB0004000084303E052E00DE01DE022E0CAF8A5
:104DC00000004EB30120BDE8F88F0021201D02F045
:104DD00015FD054677E70098022102F0A1FD054682
:104DE00071E729E0D8F80000D4F89C1020F4403096
:104DF0000843C8F8000068E7386840F400303860BD
:104E000072E727E00098012102F08AFD05466BE772
:104E100010440258FFFCFF0F2AE0DAF80000D4F833
:104E2000801020F440100843CAF800005EE738689C
:104E300040F40030386062E70221201D02F0DEFC01
:104E400005465CE70B480168E26C21F480311143B0
:104E5000016056E7386840F40030386069E7DAF8F6
:104E60000000A16F20F440700843CAF8000066E714
:104E70000020A8E74C440258704700002DE9F05F7D
:104E800004460D46002C17D0DFF84C82D8F80000FD
:104E900000F00F00A84211D2D8F8000020F00F0057
:104EA0002843C8F80000D8F8000000F00F00A8421E
:104EB00004D00120BDE8F09F0120FBE72078874E59
:104EC00040070AD52069316801F07001884204D991
:104ED000316821F07001014331602078804F000774
:104EE0000AD56069396801F07001884204D93968CF
:104EF00021F07001014339602078C0060AD5A0690D
:104F0000396801F4E061884204D9396821F4E0612C
:104F1000014339602078DFF8CC9180060DD5E06937
:104F2000D9F8001001F07001884206D9D9F80010B4
:104F300021F070010143C9F80010207880070AD5DC
:104F4000E068316801F00F01884204D9316821F02E
:104F50000F01014331602078C00743D03068A16859
:104F600020F47060084330605C496068183902289A
:104F700008D003280BD001280ED00968490710D4A7
:104F8000012097E7096889030BD4012092E709689B
:104F9000890106D401208DE70968C90501D40120E3
:104FA00088E7DFF838A1AAF1080ADAF8001021F042
:104FB00007010143CAF80010FEF786FB834609E0AB
:104FC000FEF782FBA0EB0B0141F28830814201D950
:104FD00003206FE7DAF80000616800F03800B0EBFA
:104FE000C10FEDD1207880070AD5E068316801F063
:104FF0000F01884204D2316821F00F010143316072
:10500000D8F8000000F00F00A8420ED9D8F8000030
:1050100020F00F002843C8F80000D8F8000000F086
:105020000F00A84201D0012044E7207840070AD5AC
:105030002069316801F07001884204D2316821F0A2
:10504000700101433160207800070AD56069396832
:1050500001F07001884204D2396821F070010143E7
:1050600039602078C0060AD5A069396801F4E0618A
:10507000884204D2396821F4E06101433960207824
:1050800080060DD5E069D9F8001001F07001884262
:1050900006D2D9F8001021F070010143C9F80010C0
:1050A00000F0A8F83168C1F303220F498A5C02F0CE
:1050B0001F02D040326802F00F02895C0B4A01F0F7
:1050C0001F0120FA01F111600949086009480068D0
:1050D000BDE8F05FFEF734BB0020005218440258D0
:1050E0001C44025820440258AC1C010890040024BF
:1050F0008C040024980400240248016841F4002133
:1051000001607047004402583F220260144A12684E
:1051100002F007024260124A0832136803F4706317
:105120008360136803F00F03C360126802F070021B
:1051300002610B4A0C32136803F07003436112687A
:1051400002F4E0628261064A1032126802F07002D4
:10515000C2610448006800F00F000860704700005A
:10516000104402580020005200B500F043F80B49EB
:105170000A68C2F303230A4AD35C03F01F03D84032
:10518000096801F00F01515C064A01F01F0120FA85
:1051900001F11160044A1060084600BD184402582D
:1051A000AC1C0108900400248C04002400B5FFF717
:1051B000DBFF05490968054AC1F30211515C01F0A2
:1051C0001F01C84000BD00001C440258AC1C01086F
:1051D00000B5FFF7C9FF05490968054AC1F3022177
:1051E000515C01F01F01C84000BD00001C44025882
:1051F000AC1C010830B564480068654C10F03801FB
:10520000624808D0021108290DD010290DD01829A4
:105210000DD0104630BD21688906FBD52168C1F349
:10522000C101C84030BD104630BD5A4830BD564956
:1052300018310A6802F003020968C1F30511524BE4
:105240001C331B6803F001034F4D24352D68C5F353
:10525000CC0515FB03F300EE103AB8EE400A002926
:1052600077D0DFED4D0A484BB7EE001A20333AB342
:105270009FED4A2A012A58D0022A6CD001EE901ADA
:105280001868F8EE611AC2EE212AC0F3080001EE98
:10529000900AF8EE611A40EE201A31EE810A22EEF1
:1052A000800A1868C0F34620401C00EE900AF8EE11
:1052B000600A80EE201ABCEEC10A10EE100A30BD62
:1052C000226892061BD52268C2F3C102D04001EECB
:1052D000900A1868F8EE612A01EE901AF8EE611A49
:1052E00082EEA12AC0F3080001EE900AF8EE611ADE
:1052F00040EE201A31EE810A22EE000AD1E701EEDB
:10530000901ADFED272A1868F8EE611A82EEA12ABA
:10531000C0F3080001EE900AF8EE611A40EE201A80
:1053200031EE810A22EE000ABBE701EE901A1868FE
:10533000F8EE611AC2EE212AC0F3080001EE900ACD
:10534000F8EE611A40EE201A31EE810A22EE800A50
:10535000A7E716E0FFE701EE901ADFED122A1868C2
:10536000F8EE611A82EEA12AC0F3080001EE900A5D
:10537000F8EE611A40EE201A31EE810A22EE000AA0
:105380008FE7002030BD0000104402580090D00389
:10539000004402580024F400000000390024744A3C
:1053A0000024744C0024744B10B506480068400576
:1053B00006D5FFF761FD03494FF48060091D0860C1
:1053C00010BD0000644402582DE9F0470446002C4B
:1053D0000ED02078FD4FFE4EFE4DC0075ED03868DF
:1053E00000F03800316810281FD0182803D006E0DC
:1053F0000120BDE8F08701F00300022815D06068A5
:10540000B0F5803F18D0E0B1B0F5A02F22D02868C9
:1054100020F480302860286820F4802028606068AC
:1054200068B3FEF751F9804625E02868800335D53A
:10543000606818BB0120DCE7286840F480302860F1
:10544000EDE7286820F480302860286820F4802068
:105450002860E4E7286840F480202860286840F449
:1054600080302860DBE7FEF72FF9A0EB0800642806
:1054700001D90320BDE728688003F4D50EE0FEF7CC
:1054800023F9804607E0FEF71FF9A0EB0800642827
:1054900001D90320ADE728688003F4D42078800781
:1054A00051D5386800F038003168DFF8289309F1E9
:1054B000040970B1182801D188070AD0E06870B3D8
:1054C000296821F0190101432960FEF7FDF88046A3
:1054D00018E02868400701D5E06848B1D9F8000015
:1054E000217C20F0FE4040EA0160C9F800002AE07B
:1054F00001207EE7FEF7E8F8A0EB0800022801D9BA
:10550000032076E728684007F4D5D9F80000217C0D
:1055100020F0FE4040EA0160C9F8000013E0FFE718
:10552000286820F001002860FEF7CEF8804607E0EA
:10553000FEF7CAF8A0EB0800022801D9032058E7BB
:1055400028684007F4D42078C00656D5386800F0A3
:1055500038003168DFF874920828A9F104090FD0E7
:10556000182803D101F00300012809D0E06980B3B5
:10557000286840F080002860FEF7A6F880461AE010
:105580002868C00504D5E069802801D0012030E7F3
:10559000D9F8000094F8201020F07C5040EA016017
:1055A000C9F8000029E0FEF78FF8A0EB08000228F8
:1055B00001D903201DE72868C005F4D5D9F80000FB
:1055C00094F8201020F07C5040EA0160C9F80000F7
:1055D00013E0FFE7286820F080002860FEF774F8E9
:1055E000804607E0FEF770F8A0EB0800022801D91A
:1055F0000320FEE62868C005F4D42078000732D5E1
:10560000DFF8CC91606909F14C09B0B1D9F800001C
:1056100040F00100C9F80000FEF756F8804607E0A8
:10562000FEF752F8A0EB0800022801D90320E0E6BB
:10563000D9F800008007F3D515E0D9F8000020F074
:105640000100C9F80000FEF73FF8804607E0FEF7CA
:105650003BF8A0EB0800022801D90320C9E6D9F8DD
:1056600000008007F3D42078800628D5A06998B17F
:10567000286840F480502860FEF726F8804607E04E
:10568000FEF722F8A0EB0800022801D90320B0E6BB
:1056900028688004F4D512E0286820F4805028603F
:1056A000FEF712F8804607E0FEF70EF8A0EB0800C0
:1056B000022801D903209CE628688004F4D42078CD
:1056C000400774D5DFF81081D8F8000040F48070EE
:1056D000C8F80000FDF7F8FF814607E0FDF7F4FF8A
:1056E000A0EB0900642801D9032082E6D8F8000065
:1056F000C005F3D5DFF8D8A0A0680AF1480A012850
:1057000016D0E0B1052827D0DAF8000020F001001B
:10571000CAF80000DAF8000020F00400CAF800001F
:10572000A06841F2883888B3FDF7CEFF814628E0B3
:10573000DAF8000040F00100CAF80000F0E7DAF8FB
:10574000000020F00100CAF80000DAF8000020F0A4
:105750000400CAF80000E3E7DAF8000040F00400B3
:10576000CAF80000DAF8000040F00100CAF80000B2
:10577000D6E7FDF7A9FFA0EB0900404501D90320BA
:1057800037E6DAF800008007F3D510E0FFE7FDF711
:105790009BFF814607E0FDF797FFA0EB090040451E
:1057A00001D9032025E6DAF800008007F3D4616A06
:1057B000F1B33868DFF81880C0F3C200032808F19D
:1057C00008087DD0022910D0286807E0104402584C
:1057D00028440258004402580048025820F08070C3
:1057E0002860FDF771FF04467FE0286820F0807094
:1057F0002860FDF769FF074606E0FDF765FFC01B5F
:10580000022801D90320F4E528688001F5D4306826
:1058100040F2F3318843E16A40EA0110A16A08438B
:105820003060208E616B401E491EC0F3080000E00E
:1058300088E04FF6FF7202EA41210843218F4FF4BE
:10584000FE02491E02EA0141084394F83C10491E39
:10585000120202EA01610843C8F800003A480168F0
:1058600021F001010160384908310A684FF6F873E8
:105870009A43A36C42EAC3020A600168226C21F0D9
:105880000C01114301600168626C21F002011143B7
:105890000160016841F480310160016841F4003128
:1058A0000160016841F480210160016841F001015B
:1058B0000160286840F080702860FDF705FF00E077
:1058C00017E0044606E0FDF7FFFE001B022801D9A1
:1058D00003208EE528688001F5D533E0FDF7F4FE5E
:1058E000001B022801D9032083E528688001F5D434
:1058F00028E03268D8F80000012921D0A36A02F01C
:10590000030199421CD1E16AC2F30512914217D1F9
:10591000216BC0F30802491E8A4211D1616BC0F3AA
:105920004622491E91420BD1A16BC0F30642491E8B
:10593000914205D1E16BC0F30660491E814201D05E
:10594000012056E5002054E52C4402582DE9F0478B
:105950000446002C03D0607A002718B106E001202D
:10596000BDE8F0872772204600F05CF802266672D8
:105970002068016821F004010160D4E90001026897
:10598000264B1A4042F080421143016021682448AE
:10599000086147F27420216808612068016821F0DD
:1059A00080410160FDF790FE05464FF0010809E0D7
:1059B000FDF78AFE401B022804D984F80980E660BE
:1059C0000120CDE7206800684000F1D4206801681C
:1059D00041F004010160206840684FF00409C043B1
:1059E000400603D484F809900120B9E7FDF76CFE66
:1059F000054609E0FDF768FE401B022804D984F83B
:105A00000990E6600120ABE720684068C04340078A
:105A1000F0D584F80980E7600020A1E7DFFFFFBF31
:105A2000BC0A591710B5AEB00446B42101A8FAF764
:105A300015FD0D492068884213D14FF400300190C4
:105A400000201F9001A8FEF7B5FD08B1FBF7C7FBCA
:105A50000648016841F040010160006800F0400024
:105A600000902EB010BD000000180248DC4402581F
:105A70007047704770470000F0B590F83C20012A4D
:105A800040D0012680F83C60022280F83D20036867
:105A90005A689C681C4FDFF874C0BB4201D0634554
:105AA00003D122F470054A682A4322F070050A687F
:105AB0002A435A600268BA4219D0B2F1804F16D018
:105AC000134B9A4213D0134B9A4210D0124B9A4266
:105AD0000DD062450BD0114B9A4208D0104B9A4220
